{"contracts/DepartmentFactory.sol":{"DepartmentFactory":{"abi":[{"inputs":[],"stateMutability":"nonpayable","type":"constructor"},{"anonymous":false,"inputs":[{"indexed":false,"internalType":"uint256","name":"id","type":"uint256"},{"indexed":false,"internalType":"string","name":"name","type":"string"},{"indexed":true,"internalType":"address","name":"owner","type":"address"},{"indexed":false,"internalType":"bytes32","name":"merkeRoot","type":"bytes32"}],"name":"departmentCreated","type":"event"},{"inputs":[{"components":[{"internalType":"bytes32[]","name":"hashes","type":"bytes32[]"}],"internalType":"struct DepartmentFactory.ElementRow[]","name":"elementRows","type":"tuple[]"}],"name":"convertToBytesArray","outputs":[{"internalType":"bytes32[][]","name":"","type":"bytes32[][]"}],"stateMutability":"pure","type":"function"},{"inputs":[{"internalType":"string","name":"_name","type":"string"}],"name":"createDepartment","outputs":[{"components":[{"internalType":"uint256","name":"id","type":"uint256"},{"internalType":"string","name":"name","type":"string"}],"internalType":"struct DepartmentFactory.Department","name":"","type":"tuple"}],"stateMutability":"nonpayable","type":"function"},{"inputs":[{"internalType":"uint256","name":"_id","type":"uint256"},{"internalType":"address","name":"owner","type":"address"}],"name":"departmentKeyExists","outputs":[{"internalType":"bool","name":"","type":"bool"}],"stateMutability":"view","type":"function"},{"inputs":[{"internalType":"uint256[]","name":"departmentIds","type":"uint256[]"},{"internalType":"address","name":"owner","type":"address"}],"name":"departmentKeyListExits","outputs":[{"internalType":"bool","name":"","type":"bool"}],"stateMutability":"view","type":"function"},{"inputs":[{"internalType":"address","name":"","type":"address"},{"internalType":"uint256","name":"","type":"uint256"}],"name":"departmentKeys","outputs":[{"internalType":"uint256","name":"","type":"uint256"}],"stateMutability":"view","type":"function"},{"inputs":[{"internalType":"uint256","name":"","type":"uint256"}],"name":"departmentToOwner","outputs":[{"internalType":"address","name":"","type":"address"}],"stateMutability":"view","type":"function"},{"inputs":[{"internalType":"uint256","name":"","type":"uint256"}],"name":"departments","outputs":[{"internalType":"uint256","name":"id","type":"uint256"},{"internalType":"string","name":"name","type":"string"}],"stateMutability":"view","type":"function"},{"inputs":[{"internalType":"address","name":"owner","type":"address"}],"name":"generateMerkleRoot","outputs":[],"stateMutability":"nonpayable","type":"function"},{"inputs":[{"internalType":"address","name":"owner","type":"address"}],"name":"generateMerkleTree","outputs":[{"components":[{"internalType":"bytes32[]","name":"hashes","type":"bytes32[]"}],"internalType":"struct DepartmentFactory.ElementRow[]","name":"","type":"tuple[]"}],"stateMutability":"view","type":"function"},{"inputs":[{"internalType":"uint256","name":"departmentId","type":"uint256"},{"internalType":"address","name":"owner","type":"address"}],"name":"getDepartmentIdPosition","outputs":[{"internalType":"uint256","name":"","type":"uint256"}],"stateMutability":"view","type":"function"},{"inputs":[{"internalType":"address","name":"owner","type":"address"}],"name":"getDepartmentLength","outputs":[{"internalType":"uint256","name":"","type":"uint256"}],"stateMutability":"view","type":"function"},{"inputs":[],"name":"getDepartments","outputs":[{"components":[{"internalType":"uint256","name":"id","type":"uint256"},{"internalType":"string","name":"name","type":"string"}],"internalType":"struct DepartmentFactory.Department[]","name":"","type":"tuple[]"}],"stateMutability":"view","type":"function"},{"inputs":[{"internalType":"uint256","name":"departmentId","type":"uint256"}],"name":"getMerklePath","outputs":[{"internalType":"bytes32[]","name":"","type":"bytes32[]"}],"stateMutability":"nonpayable","type":"function"},{"inputs":[{"internalType":"uint256[]","name":"departmentIds","type":"uint256[]"},{"internalType":"address","name":"owner","type":"address"}],"name":"getMerklePathArray","outputs":[{"internalType":"bytes32[][]","name":"","type":"bytes32[][]"}],"stateMutability":"view","type":"function"},{"inputs":[{"internalType":"address","name":"","type":"address"}],"name":"merkleRoots","outputs":[{"internalType":"bytes32","name":"","type":"bytes32"}],"stateMutability":"view","type":"function"}],"evm":{"bytecode":{"linkReferences":{},"object":"6080604052601060008190556200001890600a62000149565b60015560006002553480156200002d57600080fd5b506200015e565b634e487b7160e01b600052601160045260246000fd5b600181815b808511156200008b5781600019048211156200006f576200006f62000034565b808516156200007d57918102915b93841c93908002906200004f565b509250929050565b600082620000a45750600162000143565b81620000b35750600062000143565b8160018114620000cc5760028114620000d757620000f7565b600191505062000143565b60ff841115620000eb57620000eb62000034565b50506001821b62000143565b5060208310610133831016604e8410600b84101617156200011c575081810a62000143565b6200012883836200004a565b80600019048211156200013f576200013f62000034565b0290505b92915050565b600062000157838362000093565b9392505050565b6127f8806200016e6000396000f3fe608060405234801561001057600080fd5b50600436106100f55760003560e01c80635cb65d9811610097578063bf8a23f511610066578063bf8a23f51461023c578063eaeb60e31461024f578063f0dedc8614610270578063f771ea2b146102b157600080fd5b80635cb65d98146101c95780636e4d6517146101e95780639207986f14610209578063ae9a68081461021c57600080fd5b80632c17ea6f116100d35780632c17ea6f1461015557806336a2bf70146101685780633bb83b3f1461018b5780635c26b7ca146101b457600080fd5b8063025b7a7c146100fa578063063dcdfb146101205780631b7b8dac14610135575b600080fd5b61010d610108366004611e5c565b6102d1565b6040519081526020015b60405180910390f35b61013361012e366004611e86565b610302565b005b610148610143366004611f0f565b6105fb565b604051610117919061201a565b61010d61016336600461202d565b610806565b61017b61017636600461207c565b61088b565b6040519015158152602001610117565b61010d610199366004611e86565b6001600160a01b031660009081526005602052604090205490565b6101bc610979565b6040516101179190612123565b6101dc6101d7366004612185565b610b6e565b60405161011791906122fd565b6101fc6101f7366004612352565b610c22565b604051610117919061236b565b61017b61021736600461202d565b61104e565b61010d61022a366004611e86565b60066020526000908152604090205481565b6101dc61024a36600461207c565b6110d5565b61026261025d366004612352565b61150f565b60405161011792919061237e565b61029961027e366004612352565b6004602052600090815260409020546001600160a01b031681565b6040516001600160a01b039091168152602001610117565b6102c46102bf366004611e86565b6115b4565b6040516101179190612397565b600560205281600052604060002081815481106102ed57600080fd5b90600052602060002001600091509150505481565b6001600160a01b0381166000908152600560205260408120549081900361033e57506001600160a01b0316600090815260066020526040812055565b6001600160a01b0382166000908152600560205260408120546001600160401b0381111561036e5761036e611ea1565b604051908082528060200260200182016040528015610397578160200160208202803683370190505b50905060005b6001600160a01b038416600090815260056020526040902054811015610449576001600160a01b03841660009081526005602052604090208054829081106103e7576103e76123f4565b906000526020600020015460405160200161040491815260200190565b6040516020818303038152906040528051906020012082828151811061042c5761042c6123f4565b60209081029190910101528061044181612420565b91505061039d565b5080515b60018111156105b1576000805b828110156105a95761046d600184612439565b81036104fa57838181518110610485576104856123f4565b602002602001015184828151811061049f5761049f6123f4565b60200260200101516040516020016104c1929190918252602082015260400190565b604051602081830303815290604052805190602001208483815181106104e9576104e96123f4565b602002602001018181525050610589565b83818151811061050c5761050c6123f4565b602002602001015184826001610522919061244c565b81518110610532576105326123f4565b6020026020010151604051602001610554929190918252602082015260400190565b6040516020818303038152906040528051906020012084838151811061057c5761057c6123f4565b6020026020010181815250505b8161059381612420565b92506105a2905060028261244c565b905061045a565b50905061044d565b816000815181106105c4576105c46123f4565b602002602001015160066000866001600160a01b03166001600160a01b031681526020019081526020016000208190555050505050565b60408051808201909152600081526060602082015261061982611b60565b1561066a5760405162461bcd60e51b815260206004820152601e60248201527f4465706172746d656e742068617320616c726561647920657869737465640000604482015260640160405180910390fd5b600061067583611c47565b6040805180820182528281526020808201878152600085815260039092529290208151815591519293509160018201906106af90826124e2565b50503360008181526005602090815260408083208054600181018255908452828420018690558583526004909152902080546001600160a01b031916821790556106f99150610302565b33600081815260066020526040908190205490517fe4be1f5f2a54ce0d93faa1d5c3861d066ffe1ffd767941159eb16fc548dd3bd69161073c91859188916125a1565b60405180910390a2600360008281526020019081526020016000206040518060400160405290816000820154815260200160018201805461077c9061245f565b80601f01602080910402602001604051908101604052809291908181526020018280546107a89061245f565b80156107f55780601f106107ca576101008083540402835291602001916107f5565b820191906000526020600020905b8154815290600101906020018083116107d857829003601f168201915b505050505081525050915050919050565b6000805b6001600160a01b03831660009081526005602052604090205481101561087e576001600160a01b0383166000908152600560205260409020805482908110610854576108546123f4565b9060005260206000200154840361086c579050610885565b8061087681612420565b91505061080a565b5060001990505b92915050565b6000805b835181101561096f576000805b6001600160a01b038516600090815260056020526040902054811015610931576001600160a01b03851660009081526005602052604090208054829081106108e6576108e66123f4565b9060005260206000200154868481518110610903576109036123f4565b60200260200101510315610931578161091b81612420565b925050808061092990612420565b91505061089c565b506001600160a01b038416600090815260056020526040902054810361095c57600092505050610885565b508061096781612420565b91505061088f565b5060019392505050565b33600090815260056020526040812054606091906001600160401b038111156109a4576109a4611ea1565b6040519080825280602002602001820160405280156109ea57816020015b6040805180820190915260008152606060208201528152602001906001900390816109c25790505b50905060005b33600090815260056020526040902054811015610b68573360009081526005602052604081208054600392919084908110610a2d57610a2d6123f4565b9060005260206000200154815260200190815260200160002060405180604001604052908160008201548152602001600182018054610a6b9061245f565b80601f0160208091040260200160405190810160405280929190818152602001828054610a979061245f565b8015610ae45780601f10610ab957610100808354040283529160200191610ae4565b820191906000526020600020905b815481529060010190602001808311610ac757829003601f168201915b505050505081525050828281518110610aff57610aff6123f4565b6020026020010181905250610b30828281518110610b1f57610b1f6123f4565b602002602001015160000151611c8e565b610b56828281518110610b4557610b456123f4565b602002602001015160200151611cd6565b80610b6081612420565b9150506109f0565b50919050565b6060600082516001600160401b03811115610b8b57610b8b611ea1565b604051908082528060200260200182016040528015610bbe57816020015b6060815260200190600190039081610ba95790505b50905060005b8351811015610c1b57838181518110610bdf57610bdf6123f4565b602002602001015160000151828281518110610bfd57610bfd6123f4565b60200260200101819052508080610c1390612420565b915050610bc4565b5092915050565b3360009081526005602052604081205460609190610c3f90611d19565b610c4a90600261244c565b6001600160401b03811115610c6157610c61611ea1565b604051908082528060200260200182016040528015610c8a578160200160208202803683370190505b5033600090815260056020526040812054919250906001600160401b03811115610cb657610cb6611ea1565b604051908082528060200260200182016040528015610cdf578160200160208202803683370190505b50905060005b33600090815260056020526040902054811015610d7f57336000908152600560205260409020805482908110610d1d57610d1d6123f4565b9060005260206000200154604051602001610d3a91815260200190565b60405160208183030381529060405280519060200120828281518110610d6257610d626123f4565b602090810291909101015280610d7781612420565b915050610ce5565b506000610d8c8583611dad565b9050600060001982146110445782515b6001811115611009576000805b8281101561100157610dbc600184612439565b8103610e9557808503610e0e57858181518110610ddb57610ddb6123f4565b6020026020010151878581518110610df557610df56123f4565b602090810291909101015283610e0a81612420565b9450505b858181518110610e2057610e206123f4565b6020026020010151868281518110610e3a57610e3a6123f4565b6020026020010151604051602001610e5c929190918252602082015260400190565b60405160208183030381529060405280519060200120868381518110610e8457610e846123f4565b602002602001018181525050610fd4565b808503610eef5785610ea882600161244c565b81518110610eb857610eb86123f4565b6020026020010151878581518110610ed257610ed26123f4565b602090810291909101015283610ee781612420565b945050610f45565b610efa81600161244c565b8503610f4557858181518110610f1257610f126123f4565b6020026020010151878581518110610f2c57610f2c6123f4565b602090810291909101015283610f4181612420565b9450505b858181518110610f5757610f576123f4565b602002602001015186826001610f6d919061244c565b81518110610f7d57610f7d6123f4565b6020026020010151604051602001610f9f929190918252602082015260400190565b60405160208183030381529060405280519060200120868381518110610fc757610fc76123f4565b6020026020010181815250505b81610fde81612420565b9250610fed90506002866125e0565b9450610ffa60028261244c565b9050610da9565b509050610d9c565b8360008151811061101c5761101c6123f4565b6020026020010151858381518110611036576110366123f4565b602002602001018181525050505b5091949350505050565b6000805b6001600160a01b0383166000908152600560205260409020548110156110cb576001600160a01b038316600090815260056020526040902080548591908390811061109f5761109f6123f4565b9060005260206000200154036110b9576001915050610885565b806110c381612420565b915050611052565b5060009392505050565b6060600083516001600160401b038111156110f2576110f2611ea1565b60405190808252806020026020018201604052801561113257816020015b6040805160208101909152606081528152602001906001900390816111105790505b5090506000611140846115b4565b9050600081600081518110611157576111576123f4565b602002602001015160000151905060005b86518110156114fb576001600160a01b03861660009081526005602052604081205460609161119682611d19565b9050816111a48260026126d8565b0361121e576001600160a01b0389166000908152600560205260409020546111cb90611d19565b6111d690600161244c565b6001600160401b038111156111ed576111ed611ea1565b604051908082528060200260200182016040528015611216578160200160208202803683370190505b50925061128f565b6001600160a01b03891660009081526005602052604090205461124090611d19565b61124b90600261244c565b6001600160401b0381111561126257611262611ea1565b60405190808252806020026020018201604052801561128b578160200160208202803683370190505b5092505b6112998351611c8e565b6112a38651611c8e565b6000806112c98c87815181106112bb576112bb6123f4565b602002602001015188611dad565b905060001981146114b75760005b88518110156114b5576113078982815181106112f5576112f56123f4565b60200260200101516000015151611c8e565b600189828151811061131b5761131b6123f4565b602002602001015160000151516113329190612439565b82036113eb576113436002836126e4565b6000036113b05788818151811061135c5761135c6123f4565b6020026020010151600001518281518110611379576113796123f4565b6020026020010151868481518110611393576113936123f4565b6020908102919091010152826113a881612420565b935050611496565b8881815181106113c2576113c26123f4565b6020026020010151600001516001836113db9190612439565b81518110611379576113796123f4565b6113f66002836126e4565b6000036114285788818151811061140f5761140f6123f4565b6020026020010151600001518260016113db919061244c565b88818151811061143a5761143a6123f4565b6020026020010151600001516001836114539190612439565b81518110611463576114636123f4565b602002602001015186848151811061147d5761147d6123f4565b60209081029190910101528261149281612420565b9350505b6114a16002836125e0565b9150806114ad81612420565b9150506112d7565b505b6040518060200160405280868152508987815181106114d8576114d86123f4565b6020026020010181905250505050505080806114f390612420565b915050611168565b5061150583610b6e565b9695505050505050565b600360205260009081526040902080546001820180549192916115319061245f565b80601f016020809104026020016040519081016040528092919081815260200182805461155d9061245f565b80156115aa5780601f1061157f576101008083540402835291602001916115aa565b820191906000526020600020905b81548152906001019060200180831161158d57829003601f168201915b5050505050905082565b60606115c86115c36001611d19565b611c8e565b6001600160a01b0382166000908152600560205260408120546060916115ed82611d19565b9050816115fb8260026126d8565b0361168c576001600160a01b03851660009081526005602052604090205461162290611d19565b61162d90600161244c565b6001600160401b0381111561164457611644611ea1565b60405190808252806020026020018201604052801561168457816020015b6040805160208101909152606081528152602001906001900390816116625790505b509250611714565b6001600160a01b0385166000908152600560205260409020546116ae90611d19565b6116b990600261244c565b6001600160401b038111156116d0576116d0611ea1565b60405190808252806020026020018201604052801561171057816020015b6040805160208101909152606081528152602001906001900390816116ee5790505b5092505b6001600160a01b0385166000908152600560205260408120549081900361177857604080516000808252602082019092529061176d565b60408051602081019091526060815281526020019060019003908161174b5790505b509695505050505050565b6001600160a01b0386166000908152600560205260408120546001600160401b038111156117a8576117a8611ea1565b6040519080825280602002602001820160405280156117d1578160200160208202803683370190505b50905060005b6001600160a01b038816600090815260056020526040902054811015611883576001600160a01b0388166000908152600560205260409020805482908110611821576118216123f4565b906000526020600020015460405160200161183e91815260200190565b60405160208183030381529060405280519060200120828281518110611866576118666123f4565b60209081029190910101528061187b81612420565b9150506117d7565b50604051806020016040528082815250856000815181106118a6576118a66123f4565b6020908102919091010152805160015b6001821115611b5357600060026118ce84600161244c565b6118d891906125e0565b6001600160401b038111156118ef576118ef611ea1565b604051908082528060200260200182016040528015611918578160200160208202803683370190505b5090506000805b84811015611b0e57611932600186612439565b8103611a0f5789611944600186612439565b81518110611954576119546123f4565b6020026020010151600001518181518110611971576119716123f4565b60200260200101518a6001866119879190612439565b81518110611997576119976123f4565b60200260200101516000015182815181106119b4576119b46123f4565b60200260200101516040516020016119d6929190918252602082015260400190565b604051602081830303815290604052805190602001208383815181106119fe576119fe6123f4565b602002602001018181525050611aee565b89611a1b600186612439565b81518110611a2b57611a2b6123f4565b6020026020010151600001518181518110611a4857611a486123f4565b60200260200101518a600186611a5e9190612439565b81518110611a6e57611a6e6123f4565b602002602001015160000151826001611a87919061244c565b81518110611a9757611a976123f4565b6020026020010151604051602001611ab9929190918252602082015260400190565b60405160208183030381529060405280519060200120838381518110611ae157611ae16123f4565b6020026020010181815250505b81611af881612420565b9250611b07905060028261244c565b905061191f565b50809350604051806020016040528083815250898481518110611b3357611b336123f4565b60200260200101819052508280611b4990612420565b93505050506118b6565b5094979650505050505050565b6000805b33600090815260056020526040902054811015611c3e5782604051602001611b8c91906126f8565b604051602081830303815290604052805190602001206003600060056000336001600160a01b03166001600160a01b031681526020019081526020016000208481548110611bdc57611bdc6123f4565b90600052602060002001548152602001908152602001600020600101604051602001611c089190612714565b6040516020818303038152906040528051906020012003611c2c5750600192915050565b80611c3681612420565b915050611b64565b50600092915050565b6000806001548360025442604051602001611c649392919061278a565b6040516020818303038152906040528051906020012060001c611c8791906126e4565b9392505050565b611cd381604051602401611ca491815260200190565b60408051601f198184030181529190526020810180516001600160e01b031663f82c50f160e01b179052611e1b565b50565b611cd381604051602401611cea91906127af565b60408051601f198184030181529190526020810180516001600160e01b031663104c13eb60e21b179052611e1b565b600080608083901c15611d2e57608092831c92015b604083901c15611d4057604092831c92015b602083901c15611d5257602092831c92015b601083901c15611d6457601092831c92015b600883901c15611d7657600892831c92015b600483901c15611d8857600492831c92015b600283901c15611d9a57600292831c92015b600183901c156108855760010192915050565b6000805b825181101561087e57828181518110611dcc57611dcc6123f4565b602002602001015184604051602001611de791815260200190565b6040516020818303038152906040528051906020012003611e09579050610885565b80611e1381612420565b915050611db1565b611cd38160006a636f6e736f6c652e6c6f679050600080835160208501845afa505050565b80356001600160a01b0381168114611e5757600080fd5b919050565b60008060408385031215611e6f57600080fd5b611e7883611e40565b946020939093013593505050565b600060208284031215611e9857600080fd5b611c8782611e40565b634e487b7160e01b600052604160045260246000fd5b604051602081016001600160401b0381118282101715611ed957611ed9611ea1565b60405290565b604051601f8201601f191681016001600160401b0381118282101715611f0757611f07611ea1565b604052919050565b60006020808385031215611f2257600080fd5b82356001600160401b0380821115611f3957600080fd5b818501915085601f830112611f4d57600080fd5b813581811115611f5f57611f5f611ea1565b611f71601f8201601f19168501611edf565b91508082528684828501011115611f8757600080fd5b8084840185840137600090820190930192909252509392505050565b60005b83811015611fbe578181015183820152602001611fa6565b50506000910152565b60008151808452611fdf816020860160208601611fa3565b601f01601f19169290920160200192915050565b8051825260006020820151604060208501526120126040850182611fc7565b949350505050565b602081526000611c876020830184611ff3565b6000806040838503121561204057600080fd5b8235915061205060208401611e40565b90509250929050565b60006001600160401b0382111561207257612072611ea1565b5060051b60200190565b6000806040838503121561208f57600080fd5b82356001600160401b038111156120a557600080fd5b8301601f810185136120b657600080fd5b803560206120cb6120c683612059565b611edf565b82815260059290921b830181019181810190888411156120ea57600080fd5b938201935b83851015612108578435825293820193908201906120ef565b95506121179050868201611e40565b93505050509250929050565b6000602080830181845280855180835260408601915060408160051b870101925083870160005b8281101561217857603f19888603018452612166858351611ff3565b9450928501929085019060010161214a565b5092979650505050505050565b6000602080838503121561219857600080fd5b82356001600160401b03808211156121af57600080fd5b818501915085601f8301126121c357600080fd5b81356121d16120c682612059565b81815260059190911b830184019084810190888311156121f057600080fd5b8585015b838110156122b55780358581111561220c5760008081fd5b8601808b03601f19018813156122225760008081fd5b61222a611eb7565b888201358781111561223c5760008081fd5b8083019250508b603f8301126122525760008081fd5b8882013560406122646120c683612059565b82815260059290921b84018101918b8101908f8411156122845760008081fd5b948201945b838610156122a25785358252948c0194908c0190612289565b84525050508452509186019186016121f4565b5098975050505050505050565b600081518084526020808501945080840160005b838110156122f2578151875295820195908201906001016122d6565b509495945050505050565b6000602080830181845280855180835260408601915060408160051b870101925083870160005b8281101561217857603f198886030184526123408583516122c2565b94509285019290850190600101612324565b60006020828403121561236457600080fd5b5035919050565b602081526000611c8760208301846122c2565b8281526040602082015260006120126040830184611fc7565b6000602080830181845280855180835260408601915060408160051b870101925083870160005b8281101561217857878503603f190184528151518686526123e1878701826122c2565b95505092850192908501906001016123be565b634e487b7160e01b600052603260045260246000fd5b634e487b7160e01b600052601160045260246000fd5b6000600182016124325761243261240a565b5060010190565b818103818111156108855761088561240a565b808201808211156108855761088561240a565b600181811c9082168061247357607f821691505b602082108103610b6857634e487b7160e01b600052602260045260246000fd5b601f8211156124dd57600081815260208120601f850160051c810160208610156124ba5750805b601f850160051c820191505b818110156124d9578281556001016124c6565b5050505b505050565b81516001600160401b038111156124fb576124fb611ea1565b61250f81612509845461245f565b84612493565b602080601f831160018114612544576000841561252c5750858301515b600019600386901b1c1916600185901b1785556124d9565b600085815260208120601f198616915b8281101561257357888601518255948401946001909101908401612554565b50858210156125915787850151600019600388901b60f8161c191681555b5050505050600190811b01905550565b8381526060602082015260006125ba6060830185611fc7565b9050826040830152949350505050565b634e487b7160e01b600052601260045260246000fd5b6000826125ef576125ef6125ca565b500490565b600181815b8085111561262f5781600019048211156126155761261561240a565b8085161561262257918102915b93841c93908002906125f9565b509250929050565b60008261264657506001610885565b8161265357506000610885565b816001811461266957600281146126735761268f565b6001915050610885565b60ff8411156126845761268461240a565b50506001821b610885565b5060208310610133831016604e8410600b84101617156126b2575081810a610885565b6126bc83836125f4565b80600019048211156126d0576126d061240a565b029392505050565b6000611c878383612637565b6000826126f3576126f36125ca565b500690565b6000825161270a818460208701611fa3565b9190910192915050565b60008083546127228161245f565b6001828116801561273a576001811461274f5761277e565b60ff198416875282151583028701945061277e565b8760005260208060002060005b858110156127755781548a82015290840190820161275c565b50505082870194505b50929695505050505050565b60608152600061279d6060830186611fc7565b60208301949094525060400152919050565b602081526000611c876020830184611fc756fea2646970667358221220622f13bd929ae1557315a28e57e9eb4b612400187cca347438a68f4200c4478b64736f6c63430008140033","opcodes":"PUSH1 0x80 PUSH1 0x40 MSTORE PUSH1 0x10 PUSH1 0x0 DUP2 SWAP1 SSTORE PUSH3 0x18 SWAP1 PUSH1 0xA PUSH3 0x149 JUMP JUMPDEST PUSH1 0x1 SSTORE PUSH1 0x0 PUSH1 0x2 SSTORE CALLVALUE DUP1 ISZERO PUSH3 0x2D JUMPI PUSH1 0x0 DUP1 REVERT JUMPDEST POP PUSH3 0x15E JUMP JUMPDEST PUSH4 0x4E487B71 PUSH1 0xE0 SHL PUSH1 0x0 MSTORE PUSH1 0x11 PUSH1 0x4 MSTORE PUSH1 0x24 PUSH1 0x0 REVERT JUMPDEST PUSH1 0x1 DUP2 DUP2 JUMPDEST DUP1 DUP6 GT ISZERO PUSH3 0x8B JUMPI DUP2 PUSH1 0x0 NOT DIV DUP3 GT ISZERO PUSH3 0x6F JUMPI PUSH3 0x6F PUSH3 0x34 JUMP JUMPDEST DUP1 DUP6 AND ISZERO PUSH3 0x7D JUMPI SWAP2 DUP2 MUL SWAP2 JUMPDEST SWAP4 DUP5 SHR SWAP4 SWAP1 DUP1 MUL SWAP1 PUSH3 0x4F JUMP JUMPDEST POP SWAP3 POP SWAP3 SWAP1 POP JUMP JUMPDEST PUSH1 0x0 DUP3 PUSH3 0xA4 JUMPI POP PUSH1 0x1 PUSH3 0x143 JUMP JUMPDEST DUP2 PUSH3 0xB3 JUMPI POP PUSH1 0x0 PUSH3 0x143 JUMP JUMPDEST DUP2 PUSH1 0x1 DUP2 EQ PUSH3 0xCC JUMPI PUSH1 0x2 DUP2 EQ PUSH3 0xD7 JUMPI PUSH3 0xF7 JUMP JUMPDEST PUSH1 0x1 SWAP2 POP POP PUSH3 0x143 JUMP JUMPDEST PUSH1 0xFF DUP5 GT ISZERO PUSH3 0xEB JUMPI PUSH3 0xEB PUSH3 0x34 JUMP JUMPDEST POP POP PUSH1 0x1 DUP3 SHL PUSH3 0x143 JUMP JUMPDEST POP PUSH1 0x20 DUP4 LT PUSH2 0x133 DUP4 LT AND PUSH1 0x4E DUP5 LT PUSH1 0xB DUP5 LT AND OR ISZERO PUSH3 0x11C JUMPI POP DUP2 DUP2 EXP PUSH3 0x143 JUMP JUMPDEST PUSH3 0x128 DUP4 DUP4 PUSH3 0x4A JUMP JUMPDEST DUP1 PUSH1 0x0 NOT DIV DUP3 GT ISZERO PUSH3 0x13F JUMPI PUSH3 0x13F PUSH3 0x34 JUMP JUMPDEST MUL SWAP1 POP JUMPDEST SWAP3 SWAP2 POP POP JUMP JUMPDEST PUSH1 0x0 PUSH3 0x157 DUP4 DUP4 PUSH3 0x93 JUMP JUMPDEST SWAP4 SWAP3 POP POP POP JUMP JUMPDEST PUSH2 0x27F8 DUP1 PUSH3 0x16E PUSH1 0x0 CODECOPY PUSH1 0x0 RETURN INVALID PUSH1 0x80 PUSH1 0x40 MSTORE CALLVALUE DUP1 ISZERO PUSH2 0x10 JUMPI PUSH1 0x0 DUP1 REVERT JUMPDEST POP PUSH1 0x4 CALLDATASIZE LT PUSH2 0xF5 JUMPI PUSH1 0x0 CALLDATALOAD PUSH1 0xE0 SHR DUP1 PUSH4 0x5CB65D98 GT PUSH2 0x97 JUMPI DUP1 PUSH4 0xBF8A23F5 GT PUSH2 0x66 JUMPI DUP1 PUSH4 0xBF8A23F5 EQ PUSH2 0x23C JUMPI DUP1 PUSH4 0xEAEB60E3 EQ PUSH2 0x24F JUMPI DUP1 PUSH4 0xF0DEDC86 EQ PUSH2 0x270 JUMPI DUP1 PUSH4 0xF771EA2B EQ PUSH2 0x2B1 JUMPI PUSH1 0x0 DUP1 REVERT JUMPDEST DUP1 PUSH4 0x5CB65D98 EQ PUSH2 0x1C9 JUMPI DUP1 PUSH4 0x6E4D6517 EQ PUSH2 0x1E9 JUMPI DUP1 PUSH4 0x9207986F EQ PUSH2 0x209 JUMPI DUP1 PUSH4 0xAE9A6808 EQ PUSH2 0x21C JUMPI PUSH1 0x0 DUP1 REVERT JUMPDEST DUP1 PUSH4 0x2C17EA6F GT PUSH2 0xD3 JUMPI DUP1 PUSH4 0x2C17EA6F EQ PUSH2 0x155 JUMPI DUP1 PUSH4 0x36A2BF70 EQ PUSH2 0x168 JUMPI DUP1 PUSH4 0x3BB83B3F EQ PUSH2 0x18B JUMPI DUP1 PUSH4 0x5C26B7CA EQ PUSH2 0x1B4 JUMPI PUSH1 0x0 DUP1 REVERT JUMPDEST DUP1 PUSH4 0x25B7A7C EQ PUSH2 0xFA JUMPI DUP1 PUSH4 0x63DCDFB EQ PUSH2 0x120 JUMPI DUP1 PUSH4 0x1B7B8DAC EQ PUSH2 0x135 JUMPI JUMPDEST PUSH1 0x0 DUP1 REVERT JUMPDEST PUSH2 0x10D PUSH2 0x108 CALLDATASIZE PUSH1 0x4 PUSH2 0x1E5C JUMP JUMPDEST PUSH2 0x2D1 JUMP JUMPDEST PUSH1 0x40 MLOAD SWAP1 DUP2 MSTORE PUSH1 0x20 ADD JUMPDEST PUSH1 0x40 MLOAD DUP1 SWAP2 SUB SWAP1 RETURN JUMPDEST PUSH2 0x133 PUSH2 0x12E CALLDATASIZE PUSH1 0x4 PUSH2 0x1E86 JUMP JUMPDEST PUSH2 0x302 JUMP JUMPDEST STOP JUMPDEST PUSH2 0x148 PUSH2 0x143 CALLDATASIZE PUSH1 0x4 PUSH2 0x1F0F JUMP JUMPDEST PUSH2 0x5FB JUMP JUMPDEST PUSH1 0x40 MLOAD PUSH2 0x117 SWAP2 SWAP1 PUSH2 0x201A JUMP JUMPDEST PUSH2 0x10D PUSH2 0x163 CALLDATASIZE PUSH1 0x4 PUSH2 0x202D JUMP JUMPDEST PUSH2 0x806 JUMP JUMPDEST PUSH2 0x17B PUSH2 0x176 CALLDATASIZE PUSH1 0x4 PUSH2 0x207C JUMP JUMPDEST PUSH2 0x88B JUMP JUMPDEST PUSH1 0x40 MLOAD SWAP1 ISZERO ISZERO DUP2 MSTORE PUSH1 0x20 ADD PUSH2 0x117 JUMP JUMPDEST PUSH2 0x10D PUSH2 0x199 CALLDATASIZE PUSH1 0x4 PUSH2 0x1E86 JUMP JUMPDEST PUSH1 0x1 PUSH1 0x1 PUSH1 0xA0 SHL SUB AND PUSH1 0x0 SWAP1 DUP2 MSTORE PUSH1 0x5 PUSH1 0x20 MSTORE PUSH1 0x40 SWAP1 KECCAK256 SLOAD SWAP1 JUMP JUMPDEST PUSH2 0x1BC PUSH2 0x979 JUMP JUMPDEST PUSH1 0x40 MLOAD PUSH2 0x117 SWAP2 SWAP1 PUSH2 0x2123 JUMP JUMPDEST PUSH2 0x1DC PUSH2 0x1D7 CALLDATASIZE PUSH1 0x4 PUSH2 0x2185 JUMP JUMPDEST PUSH2 0xB6E JUMP JUMPDEST PUSH1 0x40 MLOAD PUSH2 0x117 SWAP2 SWAP1 PUSH2 0x22FD JUMP JUMPDEST PUSH2 0x1FC PUSH2 0x1F7 CALLDATASIZE PUSH1 0x4 PUSH2 0x2352 JUMP JUMPDEST PUSH2 0xC22 JUMP JUMPDEST PUSH1 0x40 MLOAD PUSH2 0x117 SWAP2 SWAP1 PUSH2 0x236B JUMP JUMPDEST PUSH2 0x17B PUSH2 0x217 CALLDATASIZE PUSH1 0x4 PUSH2 0x202D JUMP JUMPDEST PUSH2 0x104E JUMP JUMPDEST PUSH2 0x10D PUSH2 0x22A CALLDATASIZE PUSH1 0x4 PUSH2 0x1E86 JUMP JUMPDEST PUSH1 0x6 PUSH1 0x20 MSTORE PUSH1 0x0 SWAP1 DUP2 MSTORE PUSH1 0x40 SWAP1 KECCAK256 SLOAD DUP2 JUMP JUMPDEST PUSH2 0x1DC PUSH2 0x24A CALLDATASIZE PUSH1 0x4 PUSH2 0x207C JUMP JUMPDEST PUSH2 0x10D5 JUMP JUMPDEST PUSH2 0x262 PUSH2 0x25D CALLDATASIZE PUSH1 0x4 PUSH2 0x2352 JUMP JUMPDEST PUSH2 0x150F JUMP JUMPDEST PUSH1 0x40 MLOAD PUSH2 0x117 SWAP3 SWAP2 SWAP1 PUSH2 0x237E JUMP JUMPDEST PUSH2 0x299 PUSH2 0x27E CALLDATASIZE PUSH1 0x4 PUSH2 0x2352 JUMP JUMPDEST PUSH1 0x4 PUSH1 0x20 MSTORE PUSH1 0x0 SWAP1 DUP2 MSTORE PUSH1 0x40 SWAP1 KECCAK256 SLOAD PUSH1 0x1 PUSH1 0x1 PUSH1 0xA0 SHL SUB AND DUP2 JUMP JUMPDEST PUSH1 0x40 MLOAD PUSH1 0x1 PUSH1 0x1 PUSH1 0xA0 SHL SUB SWAP1 SWAP2 AND DUP2 MSTORE PUSH1 0x20 ADD PUSH2 0x117 JUMP JUMPDEST PUSH2 0x2C4 PUSH2 0x2BF CALLDATASIZE PUSH1 0x4 PUSH2 0x1E86 JUMP JUMPDEST PUSH2 0x15B4 JUMP JUMPDEST PUSH1 0x40 MLOAD PUSH2 0x117 SWAP2 SWAP1 PUSH2 0x2397 JUMP JUMPDEST PUSH1 0x5 PUSH1 0x20 MSTORE DUP2 PUSH1 0x0 MSTORE PUSH1 0x40 PUSH1 0x0 KECCAK256 DUP2 DUP2 SLOAD DUP2 LT PUSH2 0x2ED JUMPI PUSH1 0x0 DUP1 REVERT JUMPDEST SWAP1 PUSH1 0x0 MSTORE PUSH1 0x20 PUSH1 0x0 KECCAK256 ADD PUSH1 0x0 SWAP2 POP SWAP2 POP POP SLOAD DUP2 JUMP JUMPDEST PUSH1 0x1 PUSH1 0x1 PUSH1 0xA0 SHL SUB DUP2 AND PUSH1 0x0 SWAP1 DUP2 MSTORE PUSH1 0x5 PUSH1 0x20 MSTORE PUSH1 0x40 DUP2 KECCAK256 SLOAD SWAP1 DUP2 SWAP1 SUB PUSH2 0x33E JUMPI POP PUSH1 0x1 PUSH1 0x1 PUSH1 0xA0 SHL SUB AND PUSH1 0x0 SWAP1 DUP2 MSTORE PUSH1 0x6 PUSH1 0x20 MSTORE PUSH1 0x40 DUP2 KECCAK256 SSTORE JUMP JUMPDEST PUSH1 0x1 PUSH1 0x1 PUSH1 0xA0 SHL SUB DUP3 AND PUSH1 0x0 SWAP1 DUP2 MSTORE PUSH1 0x5 PUSH1 0x20 MSTORE PUSH1 0x40 DUP2 KECCAK256 SLOAD PUSH1 0x1 PUSH1 0x1 PUSH1 0x40 SHL SUB DUP2 GT ISZERO PUSH2 0x36E JUMPI PUSH2 0x36E PUSH2 0x1EA1 JUMP JUMPDEST PUSH1 0x40 MLOAD SWAP1 DUP1 DUP3 MSTORE DUP1 PUSH1 0x20 MUL PUSH1 0x20 ADD DUP3 ADD PUSH1 0x40 MSTORE DUP1 ISZERO PUSH2 0x397 JUMPI DUP2 PUSH1 0x20 ADD PUSH1 0x20 DUP3 MUL DUP1 CALLDATASIZE DUP4 CALLDATACOPY ADD SWAP1 POP JUMPDEST POP SWAP1 POP PUSH1 0x0 JUMPDEST PUSH1 0x1 PUSH1 0x1 PUSH1 0xA0 SHL SUB DUP5 AND PUSH1 0x0 SWAP1 DUP2 MSTORE PUSH1 0x5 PUSH1 0x20 MSTORE PUSH1 0x40 SWAP1 KECCAK256 SLOAD DUP2 LT ISZERO PUSH2 0x449 JUMPI PUSH1 0x1 PUSH1 0x1 PUSH1 0xA0 SHL SUB DUP5 AND PUSH1 0x0 SWAP1 DUP2 MSTORE PUSH1 0x5 PUSH1 0x20 MSTORE PUSH1 0x40 SWAP1 KECCAK256 DUP1 SLOAD DUP3 SWAP1 DUP2 LT PUSH2 0x3E7 JUMPI PUSH2 0x3E7 PUSH2 0x23F4 JUMP JUMPDEST SWAP1 PUSH1 0x0 MSTORE PUSH1 0x20 PUSH1 0x0 KECCAK256 ADD SLOAD PUSH1 0x40 MLOAD PUSH1 0x20 ADD PUSH2 0x404 SWAP2 DUP2 MSTORE PUSH1 0x20 ADD SWAP1 JUMP JUMPDEST PUSH1 0x40 MLOAD PUSH1 0x20 DUP2 DUP4 SUB SUB DUP2 MSTORE SWAP1 PUSH1 0x40 MSTORE DUP1 MLOAD SWAP1 PUSH1 0x20 ADD KECCAK256 DUP3 DUP3 DUP2 MLOAD DUP2 LT PUSH2 0x42C JUMPI PUSH2 0x42C PUSH2 0x23F4 JUMP JUMPDEST PUSH1 0x20 SWAP1 DUP2 MUL SWAP2 SWAP1 SWAP2 ADD ADD MSTORE DUP1 PUSH2 0x441 DUP2 PUSH2 0x2420 JUMP JUMPDEST SWAP2 POP POP PUSH2 0x39D JUMP JUMPDEST POP DUP1 MLOAD JUMPDEST PUSH1 0x1 DUP2 GT ISZERO PUSH2 0x5B1 JUMPI PUSH1 0x0 DUP1 JUMPDEST DUP3 DUP2 LT ISZERO PUSH2 0x5A9 JUMPI PUSH2 0x46D PUSH1 0x1 DUP5 PUSH2 0x2439 JUMP JUMPDEST DUP2 SUB PUSH2 0x4FA JUMPI DUP4 DUP2 DUP2 MLOAD DUP2 LT PUSH2 0x485 JUMPI PUSH2 0x485 PUSH2 0x23F4 JUMP JUMPDEST PUSH1 0x20 MUL PUSH1 0x20 ADD ADD MLOAD DUP5 DUP3 DUP2 MLOAD DUP2 LT PUSH2 0x49F JUMPI PUSH2 0x49F PUSH2 0x23F4 JUMP JUMPDEST PUSH1 0x20 MUL PUSH1 0x20 ADD ADD MLOAD PUSH1 0x40 MLOAD PUSH1 0x20 ADD PUSH2 0x4C1 SWAP3 SWAP2 SWAP1 SWAP2 DUP3 MSTORE PUSH1 0x20 DUP3 ADD MSTORE PUSH1 0x40 ADD SWAP1 JUMP JUMPDEST PUSH1 0x40 MLOAD PUSH1 0x20 DUP2 DUP4 SUB SUB DUP2 MSTORE SWAP1 PUSH1 0x40 MSTORE DUP1 MLOAD SWAP1 PUSH1 0x20 ADD KECCAK256 DUP5 DUP4 DUP2 MLOAD DUP2 LT PUSH2 0x4E9 JUMPI PUSH2 0x4E9 PUSH2 0x23F4 JUMP JUMPDEST PUSH1 0x20 MUL PUSH1 0x20 ADD ADD DUP2 DUP2 MSTORE POP POP PUSH2 0x589 JUMP JUMPDEST DUP4 DUP2 DUP2 MLOAD DUP2 LT PUSH2 0x50C JUMPI PUSH2 0x50C PUSH2 0x23F4 JUMP JUMPDEST PUSH1 0x20 MUL PUSH1 0x20 ADD ADD MLOAD DUP5 DUP3 PUSH1 0x1 PUSH2 0x522 SWAP2 SWAP1 PUSH2 0x244C JUMP JUMPDEST DUP2 MLOAD DUP2 LT PUSH2 0x532 JUMPI PUSH2 0x532 PUSH2 0x23F4 JUMP JUMPDEST PUSH1 0x20 MUL PUSH1 0x20 ADD ADD MLOAD PUSH1 0x40 MLOAD PUSH1 0x20 ADD PUSH2 0x554 SWAP3 SWAP2 SWAP1 SWAP2 DUP3 MSTORE PUSH1 0x20 DUP3 ADD MSTORE PUSH1 0x40 ADD SWAP1 JUMP JUMPDEST PUSH1 0x40 MLOAD PUSH1 0x20 DUP2 DUP4 SUB SUB DUP2 MSTORE SWAP1 PUSH1 0x40 MSTORE DUP1 MLOAD SWAP1 PUSH1 0x20 ADD KECCAK256 DUP5 DUP4 DUP2 MLOAD DUP2 LT PUSH2 0x57C JUMPI PUSH2 0x57C PUSH2 0x23F4 JUMP JUMPDEST PUSH1 0x20 MUL PUSH1 0x20 ADD ADD DUP2 DUP2 MSTORE POP POP JUMPDEST DUP2 PUSH2 0x593 DUP2 PUSH2 0x2420 JUMP JUMPDEST SWAP3 POP PUSH2 0x5A2 SWAP1 POP PUSH1 0x2 DUP3 PUSH2 0x244C JUMP JUMPDEST SWAP1 POP PUSH2 0x45A JUMP JUMPDEST POP SWAP1 POP PUSH2 0x44D JUMP JUMPDEST DUP2 PUSH1 0x0 DUP2 MLOAD DUP2 LT PUSH2 0x5C4 JUMPI PUSH2 0x5C4 PUSH2 0x23F4 JUMP JUMPDEST PUSH1 0x20 MUL PUSH1 0x20 ADD ADD MLOAD PUSH1 0x6 PUSH1 0x0 DUP7 PUSH1 0x1 PUSH1 0x1 PUSH1 0xA0 SHL SUB AND PUSH1 0x1 PUSH1 0x1 PUSH1 0xA0 SHL SUB AND DUP2 MSTORE PUSH1 0x20 ADD SWAP1 DUP2 MSTORE PUSH1 0x20 ADD PUSH1 0x0 KECCAK256 DUP2 SWAP1 SSTORE POP POP POP POP POP JUMP JUMPDEST PUSH1 0x40 DUP1 MLOAD DUP1 DUP3 ADD SWAP1 SWAP2 MSTORE PUSH1 0x0 DUP2 MSTORE PUSH1 0x60 PUSH1 0x20 DUP3 ADD MSTORE PUSH2 0x619 DUP3 PUSH2 0x1B60 JUMP JUMPDEST ISZERO PUSH2 0x66A JUMPI PUSH1 0x40 MLOAD PUSH3 0x461BCD PUSH1 0xE5 SHL DUP2 MSTORE PUSH1 0x20 PUSH1 0x4 DUP3 ADD MSTORE PUSH1 0x1E PUSH1 0x24 DUP3 ADD MSTORE PUSH32 0x4465706172746D656E742068617320616C726561647920657869737465640000 PUSH1 0x44 DUP3 ADD MSTORE PUSH1 0x64 ADD PUSH1 0x40 MLOAD DUP1 SWAP2 SUB SWAP1 REVERT JUMPDEST PUSH1 0x0 PUSH2 0x675 DUP4 PUSH2 0x1C47 JUMP JUMPDEST PUSH1 0x40 DUP1 MLOAD DUP1 DUP3 ADD DUP3 MSTORE DUP3 DUP2 MSTORE PUSH1 0x20 DUP1 DUP3 ADD DUP8 DUP2 MSTORE PUSH1 0x0 DUP6 DUP2 MSTORE PUSH1 0x3 SWAP1 SWAP3 MSTORE SWAP3 SWAP1 KECCAK256 DUP2 MLOAD DUP2 SSTORE SWAP2 MLOAD SWAP3 SWAP4 POP SWAP2 PUSH1 0x1 DUP3 ADD SWAP1 PUSH2 0x6AF SWAP1 DUP3 PUSH2 0x24E2 JUMP JUMPDEST POP POP CALLER PUSH1 0x0 DUP2 DUP2 MSTORE PUSH1 0x5 PUSH1 0x20 SWAP1 DUP2 MSTORE PUSH1 0x40 DUP1 DUP4 KECCAK256 DUP1 SLOAD PUSH1 0x1 DUP2 ADD DUP3 SSTORE SWAP1 DUP5 MSTORE DUP3 DUP5 KECCAK256 ADD DUP7 SWAP1 SSTORE DUP6 DUP4 MSTORE PUSH1 0x4 SWAP1 SWAP2 MSTORE SWAP1 KECCAK256 DUP1 SLOAD PUSH1 0x1 PUSH1 0x1 PUSH1 0xA0 SHL SUB NOT AND DUP3 OR SWAP1 SSTORE PUSH2 0x6F9 SWAP2 POP PUSH2 0x302 JUMP JUMPDEST CALLER PUSH1 0x0 DUP2 DUP2 MSTORE PUSH1 0x6 PUSH1 0x20 MSTORE PUSH1 0x40 SWAP1 DUP2 SWAP1 KECCAK256 SLOAD SWAP1 MLOAD PUSH32 0xE4BE1F5F2A54CE0D93FAA1D5C3861D066FFE1FFD767941159EB16FC548DD3BD6 SWAP2 PUSH2 0x73C SWAP2 DUP6 SWAP2 DUP9 SWAP2 PUSH2 0x25A1 JUMP JUMPDEST PUSH1 0x40 MLOAD DUP1 SWAP2 SUB SWAP1 LOG2 PUSH1 0x3 PUSH1 0x0 DUP3 DUP2 MSTORE PUSH1 0x20 ADD SWAP1 DUP2 MSTORE PUSH1 0x20 ADD PUSH1 0x0 KECCAK256 PUSH1 0x40 MLOAD DUP1 PUSH1 0x40 ADD PUSH1 0x40 MSTORE SWAP1 DUP2 PUSH1 0x0 DUP3 ADD SLOAD DUP2 MSTORE PUSH1 0x20 ADD PUSH1 0x1 DUP3 ADD DUP1 SLOAD PUSH2 0x77C SWAP1 PUSH2 0x245F JUMP JUMPDEST DUP1 PUSH1 0x1F ADD PUSH1 0x20 DUP1 SWAP2 DIV MUL PUSH1 0x20 ADD PUSH1 0x40 MLOAD SWAP1 DUP2 ADD PUSH1 0x40 MSTORE DUP1 SWAP3 SWAP2 SWAP1 DUP2 DUP2 MSTORE PUSH1 0x20 ADD DUP3 DUP1 SLOAD PUSH2 0x7A8 SWAP1 PUSH2 0x245F JUMP JUMPDEST DUP1 ISZERO PUSH2 0x7F5 JUMPI DUP1 PUSH1 0x1F LT PUSH2 0x7CA JUMPI PUSH2 0x100 DUP1 DUP4 SLOAD DIV MUL DUP4 MSTORE SWAP2 PUSH1 0x20 ADD SWAP2 PUSH2 0x7F5 JUMP JUMPDEST DUP3 ADD SWAP2 SWAP1 PUSH1 0x0 MSTORE PUSH1 0x20 PUSH1 0x0 KECCAK256 SWAP1 JUMPDEST DUP2 SLOAD DUP2 MSTORE SWAP1 PUSH1 0x1 ADD SWAP1 PUSH1 0x20 ADD DUP1 DUP4 GT PUSH2 0x7D8 JUMPI DUP3 SWAP1 SUB PUSH1 0x1F AND DUP3 ADD SWAP2 JUMPDEST POP POP POP POP POP DUP2 MSTORE POP POP SWAP2 POP POP SWAP2 SWAP1 POP JUMP JUMPDEST PUSH1 0x0 DUP1 JUMPDEST PUSH1 0x1 PUSH1 0x1 PUSH1 0xA0 SHL SUB DUP4 AND PUSH1 0x0 SWAP1 DUP2 MSTORE PUSH1 0x5 PUSH1 0x20 MSTORE PUSH1 0x40 SWAP1 KECCAK256 SLOAD DUP2 LT ISZERO PUSH2 0x87E JUMPI PUSH1 0x1 PUSH1 0x1 PUSH1 0xA0 SHL SUB DUP4 AND PUSH1 0x0 SWAP1 DUP2 MSTORE PUSH1 0x5 PUSH1 0x20 MSTORE PUSH1 0x40 SWAP1 KECCAK256 DUP1 SLOAD DUP3 SWAP1 DUP2 LT PUSH2 0x854 JUMPI PUSH2 0x854 PUSH2 0x23F4 JUMP JUMPDEST SWAP1 PUSH1 0x0 MSTORE PUSH1 0x20 PUSH1 0x0 KECCAK256 ADD SLOAD DUP5 SUB PUSH2 0x86C JUMPI SWAP1 POP PUSH2 0x885 JUMP JUMPDEST DUP1 PUSH2 0x876 DUP2 PUSH2 0x2420 JUMP JUMPDEST SWAP2 POP POP PUSH2 0x80A JUMP JUMPDEST POP PUSH1 0x0 NOT SWAP1 POP JUMPDEST SWAP3 SWAP2 POP POP JUMP JUMPDEST PUSH1 0x0 DUP1 JUMPDEST DUP4 MLOAD DUP2 LT ISZERO PUSH2 0x96F JUMPI PUSH1 0x0 DUP1 JUMPDEST PUSH1 0x1 PUSH1 0x1 PUSH1 0xA0 SHL SUB DUP6 AND PUSH1 0x0 SWAP1 DUP2 MSTORE PUSH1 0x5 PUSH1 0x20 MSTORE PUSH1 0x40 SWAP1 KECCAK256 SLOAD DUP2 LT ISZERO PUSH2 0x931 JUMPI PUSH1 0x1 PUSH1 0x1 PUSH1 0xA0 SHL SUB DUP6 AND PUSH1 0x0 SWAP1 DUP2 MSTORE PUSH1 0x5 PUSH1 0x20 MSTORE PUSH1 0x40 SWAP1 KECCAK256 DUP1 SLOAD DUP3 SWAP1 DUP2 LT PUSH2 0x8E6 JUMPI PUSH2 0x8E6 PUSH2 0x23F4 JUMP JUMPDEST SWAP1 PUSH1 0x0 MSTORE PUSH1 0x20 PUSH1 0x0 KECCAK256 ADD SLOAD DUP7 DUP5 DUP2 MLOAD DUP2 LT PUSH2 0x903 JUMPI PUSH2 0x903 PUSH2 0x23F4 JUMP JUMPDEST PUSH1 0x20 MUL PUSH1 0x20 ADD ADD MLOAD SUB ISZERO PUSH2 0x931 JUMPI DUP2 PUSH2 0x91B DUP2 PUSH2 0x2420 JUMP JUMPDEST SWAP3 POP POP DUP1 DUP1 PUSH2 0x929 SWAP1 PUSH2 0x2420 JUMP JUMPDEST SWAP2 POP POP PUSH2 0x89C JUMP JUMPDEST POP PUSH1 0x1 PUSH1 0x1 PUSH1 0xA0 SHL SUB DUP5 AND PUSH1 0x0 SWAP1 DUP2 MSTORE PUSH1 0x5 PUSH1 0x20 MSTORE PUSH1 0x40 SWAP1 KECCAK256 SLOAD DUP2 SUB PUSH2 0x95C JUMPI PUSH1 0x0 SWAP3 POP POP POP PUSH2 0x885 JUMP JUMPDEST POP DUP1 PUSH2 0x967 DUP2 PUSH2 0x2420 JUMP JUMPDEST SWAP2 POP POP PUSH2 0x88F JUMP JUMPDEST POP PUSH1 0x1 SWAP4 SWAP3 POP POP POP JUMP JUMPDEST CALLER PUSH1 0x0 SWAP1 DUP2 MSTORE PUSH1 0x5 PUSH1 0x20 MSTORE PUSH1 0x40 DUP2 KECCAK256 SLOAD PUSH1 0x60 SWAP2 SWAP1 PUSH1 0x1 PUSH1 0x1 PUSH1 0x40 SHL SUB DUP2 GT ISZERO PUSH2 0x9A4 JUMPI PUSH2 0x9A4 PUSH2 0x1EA1 JUMP JUMPDEST PUSH1 0x40 MLOAD SWAP1 DUP1 DUP3 MSTORE DUP1 PUSH1 0x20 MUL PUSH1 0x20 ADD DUP3 ADD PUSH1 0x40 MSTORE DUP1 ISZERO PUSH2 0x9EA JUMPI DUP2 PUSH1 0x20 ADD JUMPDEST PUSH1 0x40 DUP1 MLOAD DUP1 DUP3 ADD SWAP1 SWAP2 MSTORE PUSH1 0x0 DUP2 MSTORE PUSH1 0x60 PUSH1 0x20 DUP3 ADD MSTORE DUP2 MSTORE PUSH1 0x20 ADD SWAP1 PUSH1 0x1 SWAP1 SUB SWAP1 DUP2 PUSH2 0x9C2 JUMPI SWAP1 POP JUMPDEST POP SWAP1 POP PUSH1 0x0 JUMPDEST CALLER PUSH1 0x0 SWAP1 DUP2 MSTORE PUSH1 0x5 PUSH1 0x20 MSTORE PUSH1 0x40 SWAP1 KECCAK256 SLOAD DUP2 LT ISZERO PUSH2 0xB68 JUMPI CALLER PUSH1 0x0 SWAP1 DUP2 MSTORE PUSH1 0x5 PUSH1 0x20 MSTORE PUSH1 0x40 DUP2 KECCAK256 DUP1 SLOAD PUSH1 0x3 SWAP3 SWAP2 SWAP1 DUP5 SWAP1 DUP2 LT PUSH2 0xA2D JUMPI PUSH2 0xA2D PUSH2 0x23F4 JUMP JUMPDEST SWAP1 PUSH1 0x0 MSTORE PUSH1 0x20 PUSH1 0x0 KECCAK256 ADD SLOAD DUP2 MSTORE PUSH1 0x20 ADD SWAP1 DUP2 MSTORE PUSH1 0x20 ADD PUSH1 0x0 KECCAK256 PUSH1 0x40 MLOAD DUP1 PUSH1 0x40 ADD PUSH1 0x40 MSTORE SWAP1 DUP2 PUSH1 0x0 DUP3 ADD SLOAD DUP2 MSTORE PUSH1 0x20 ADD PUSH1 0x1 DUP3 ADD DUP1 SLOAD PUSH2 0xA6B SWAP1 PUSH2 0x245F JUMP JUMPDEST DUP1 PUSH1 0x1F ADD PUSH1 0x20 DUP1 SWAP2 DIV MUL PUSH1 0x20 ADD PUSH1 0x40 MLOAD SWAP1 DUP2 ADD PUSH1 0x40 MSTORE DUP1 SWAP3 SWAP2 SWAP1 DUP2 DUP2 MSTORE PUSH1 0x20 ADD DUP3 DUP1 SLOAD PUSH2 0xA97 SWAP1 PUSH2 0x245F JUMP JUMPDEST DUP1 ISZERO PUSH2 0xAE4 JUMPI DUP1 PUSH1 0x1F LT PUSH2 0xAB9 JUMPI PUSH2 0x100 DUP1 DUP4 SLOAD DIV MUL DUP4 MSTORE SWAP2 PUSH1 0x20 ADD SWAP2 PUSH2 0xAE4 JUMP JUMPDEST DUP3 ADD SWAP2 SWAP1 PUSH1 0x0 MSTORE PUSH1 0x20 PUSH1 0x0 KECCAK256 SWAP1 JUMPDEST DUP2 SLOAD DUP2 MSTORE SWAP1 PUSH1 0x1 ADD SWAP1 PUSH1 0x20 ADD DUP1 DUP4 GT PUSH2 0xAC7 JUMPI DUP3 SWAP1 SUB PUSH1 0x1F AND DUP3 ADD SWAP2 JUMPDEST POP POP POP POP POP DUP2 MSTORE POP POP DUP3 DUP3 DUP2 MLOAD DUP2 LT PUSH2 0xAFF JUMPI PUSH2 0xAFF PUSH2 0x23F4 JUMP JUMPDEST PUSH1 0x20 MUL PUSH1 0x20 ADD ADD DUP2 SWAP1 MSTORE POP PUSH2 0xB30 DUP3 DUP3 DUP2 MLOAD DUP2 LT PUSH2 0xB1F JUMPI PUSH2 0xB1F PUSH2 0x23F4 JUMP JUMPDEST PUSH1 0x20 MUL PUSH1 0x20 ADD ADD MLOAD PUSH1 0x0 ADD MLOAD PUSH2 0x1C8E JUMP JUMPDEST PUSH2 0xB56 DUP3 DUP3 DUP2 MLOAD DUP2 LT PUSH2 0xB45 JUMPI PUSH2 0xB45 PUSH2 0x23F4 JUMP JUMPDEST PUSH1 0x20 MUL PUSH1 0x20 ADD ADD MLOAD PUSH1 0x20 ADD MLOAD PUSH2 0x1CD6 JUMP JUMPDEST DUP1 PUSH2 0xB60 DUP2 PUSH2 0x2420 JUMP JUMPDEST SWAP2 POP POP PUSH2 0x9F0 JUMP JUMPDEST POP SWAP2 SWAP1 POP JUMP JUMPDEST PUSH1 0x60 PUSH1 0x0 DUP3 MLOAD PUSH1 0x1 PUSH1 0x1 PUSH1 0x40 SHL SUB DUP2 GT ISZERO PUSH2 0xB8B JUMPI PUSH2 0xB8B PUSH2 0x1EA1 JUMP JUMPDEST PUSH1 0x40 MLOAD SWAP1 DUP1 DUP3 MSTORE DUP1 PUSH1 0x20 MUL PUSH1 0x20 ADD DUP3 ADD PUSH1 0x40 MSTORE DUP1 ISZERO PUSH2 0xBBE JUMPI DUP2 PUSH1 0x20 ADD JUMPDEST PUSH1 0x60 DUP2 MSTORE PUSH1 0x20 ADD SWAP1 PUSH1 0x1 SWAP1 SUB SWAP1 DUP2 PUSH2 0xBA9 JUMPI SWAP1 POP JUMPDEST POP SWAP1 POP PUSH1 0x0 JUMPDEST DUP4 MLOAD DUP2 LT ISZERO PUSH2 0xC1B JUMPI DUP4 DUP2 DUP2 MLOAD DUP2 LT PUSH2 0xBDF JUMPI PUSH2 0xBDF PUSH2 0x23F4 JUMP JUMPDEST PUSH1 0x20 MUL PUSH1 0x20 ADD ADD MLOAD PUSH1 0x0 ADD MLOAD DUP3 DUP3 DUP2 MLOAD DUP2 LT PUSH2 0xBFD JUMPI PUSH2 0xBFD PUSH2 0x23F4 JUMP JUMPDEST PUSH1 0x20 MUL PUSH1 0x20 ADD ADD DUP2 SWAP1 MSTORE POP DUP1 DUP1 PUSH2 0xC13 SWAP1 PUSH2 0x2420 JUMP JUMPDEST SWAP2 POP POP PUSH2 0xBC4 JUMP JUMPDEST POP SWAP3 SWAP2 POP POP JUMP JUMPDEST CALLER PUSH1 0x0 SWAP1 DUP2 MSTORE PUSH1 0x5 PUSH1 0x20 MSTORE PUSH1 0x40 DUP2 KECCAK256 SLOAD PUSH1 0x60 SWAP2 SWAP1 PUSH2 0xC3F SWAP1 PUSH2 0x1D19 JUMP JUMPDEST PUSH2 0xC4A SWAP1 PUSH1 0x2 PUSH2 0x244C JUMP JUMPDEST PUSH1 0x1 PUSH1 0x1 PUSH1 0x40 SHL SUB DUP2 GT ISZERO PUSH2 0xC61 JUMPI PUSH2 0xC61 PUSH2 0x1EA1 JUMP JUMPDEST PUSH1 0x40 MLOAD SWAP1 DUP1 DUP3 MSTORE DUP1 PUSH1 0x20 MUL PUSH1 0x20 ADD DUP3 ADD PUSH1 0x40 MSTORE DUP1 ISZERO PUSH2 0xC8A JUMPI DUP2 PUSH1 0x20 ADD PUSH1 0x20 DUP3 MUL DUP1 CALLDATASIZE DUP4 CALLDATACOPY ADD SWAP1 POP JUMPDEST POP CALLER PUSH1 0x0 SWAP1 DUP2 MSTORE PUSH1 0x5 PUSH1 0x20 MSTORE PUSH1 0x40 DUP2 KECCAK256 SLOAD SWAP2 SWAP3 POP SWAP1 PUSH1 0x1 PUSH1 0x1 PUSH1 0x40 SHL SUB DUP2 GT ISZERO PUSH2 0xCB6 JUMPI PUSH2 0xCB6 PUSH2 0x1EA1 JUMP JUMPDEST PUSH1 0x40 MLOAD SWAP1 DUP1 DUP3 MSTORE DUP1 PUSH1 0x20 MUL PUSH1 0x20 ADD DUP3 ADD PUSH1 0x40 MSTORE DUP1 ISZERO PUSH2 0xCDF JUMPI DUP2 PUSH1 0x20 ADD PUSH1 0x20 DUP3 MUL DUP1 CALLDATASIZE DUP4 CALLDATACOPY ADD SWAP1 POP JUMPDEST POP SWAP1 POP PUSH1 0x0 JUMPDEST CALLER PUSH1 0x0 SWAP1 DUP2 MSTORE PUSH1 0x5 PUSH1 0x20 MSTORE PUSH1 0x40 SWAP1 KECCAK256 SLOAD DUP2 LT ISZERO PUSH2 0xD7F JUMPI CALLER PUSH1 0x0 SWAP1 DUP2 MSTORE PUSH1 0x5 PUSH1 0x20 MSTORE PUSH1 0x40 SWAP1 KECCAK256 DUP1 SLOAD DUP3 SWAP1 DUP2 LT PUSH2 0xD1D JUMPI PUSH2 0xD1D PUSH2 0x23F4 JUMP JUMPDEST SWAP1 PUSH1 0x0 MSTORE PUSH1 0x20 PUSH1 0x0 KECCAK256 ADD SLOAD PUSH1 0x40 MLOAD PUSH1 0x20 ADD PUSH2 0xD3A SWAP2 DUP2 MSTORE PUSH1 0x20 ADD SWAP1 JUMP JUMPDEST PUSH1 0x40 MLOAD PUSH1 0x20 DUP2 DUP4 SUB SUB DUP2 MSTORE SWAP1 PUSH1 0x40 MSTORE DUP1 MLOAD SWAP1 PUSH1 0x20 ADD KECCAK256 DUP3 DUP3 DUP2 MLOAD DUP2 LT PUSH2 0xD62 JUMPI PUSH2 0xD62 PUSH2 0x23F4 JUMP JUMPDEST PUSH1 0x20 SWAP1 DUP2 MUL SWAP2 SWAP1 SWAP2 ADD ADD MSTORE DUP1 PUSH2 0xD77 DUP2 PUSH2 0x2420 JUMP JUMPDEST SWAP2 POP POP PUSH2 0xCE5 JUMP JUMPDEST POP PUSH1 0x0 PUSH2 0xD8C DUP6 DUP4 PUSH2 0x1DAD JUMP JUMPDEST SWAP1 POP PUSH1 0x0 PUSH1 0x0 NOT DUP3 EQ PUSH2 0x1044 JUMPI DUP3 MLOAD JUMPDEST PUSH1 0x1 DUP2 GT ISZERO PUSH2 0x1009 JUMPI PUSH1 0x0 DUP1 JUMPDEST DUP3 DUP2 LT ISZERO PUSH2 0x1001 JUMPI PUSH2 0xDBC PUSH1 0x1 DUP5 PUSH2 0x2439 JUMP JUMPDEST DUP2 SUB PUSH2 0xE95 JUMPI DUP1 DUP6 SUB PUSH2 0xE0E JUMPI DUP6 DUP2 DUP2 MLOAD DUP2 LT PUSH2 0xDDB JUMPI PUSH2 0xDDB PUSH2 0x23F4 JUMP JUMPDEST PUSH1 0x20 MUL PUSH1 0x20 ADD ADD MLOAD DUP8 DUP6 DUP2 MLOAD DUP2 LT PUSH2 0xDF5 JUMPI PUSH2 0xDF5 PUSH2 0x23F4 JUMP JUMPDEST PUSH1 0x20 SWAP1 DUP2 MUL SWAP2 SWAP1 SWAP2 ADD ADD MSTORE DUP4 PUSH2 0xE0A DUP2 PUSH2 0x2420 JUMP JUMPDEST SWAP5 POP POP JUMPDEST DUP6 DUP2 DUP2 MLOAD DUP2 LT PUSH2 0xE20 JUMPI PUSH2 0xE20 PUSH2 0x23F4 JUMP JUMPDEST PUSH1 0x20 MUL PUSH1 0x20 ADD ADD MLOAD DUP7 DUP3 DUP2 MLOAD DUP2 LT PUSH2 0xE3A JUMPI PUSH2 0xE3A PUSH2 0x23F4 JUMP JUMPDEST PUSH1 0x20 MUL PUSH1 0x20 ADD ADD MLOAD PUSH1 0x40 MLOAD PUSH1 0x20 ADD PUSH2 0xE5C SWAP3 SWAP2 SWAP1 SWAP2 DUP3 MSTORE PUSH1 0x20 DUP3 ADD MSTORE PUSH1 0x40 ADD SWAP1 JUMP JUMPDEST PUSH1 0x40 MLOAD PUSH1 0x20 DUP2 DUP4 SUB SUB DUP2 MSTORE SWAP1 PUSH1 0x40 MSTORE DUP1 MLOAD SWAP1 PUSH1 0x20 ADD KECCAK256 DUP7 DUP4 DUP2 MLOAD DUP2 LT PUSH2 0xE84 JUMPI PUSH2 0xE84 PUSH2 0x23F4 JUMP JUMPDEST PUSH1 0x20 MUL PUSH1 0x20 ADD ADD DUP2 DUP2 MSTORE POP POP PUSH2 0xFD4 JUMP JUMPDEST DUP1 DUP6 SUB PUSH2 0xEEF JUMPI DUP6 PUSH2 0xEA8 DUP3 PUSH1 0x1 PUSH2 0x244C JUMP JUMPDEST DUP2 MLOAD DUP2 LT PUSH2 0xEB8 JUMPI PUSH2 0xEB8 PUSH2 0x23F4 JUMP JUMPDEST PUSH1 0x20 MUL PUSH1 0x20 ADD ADD MLOAD DUP8 DUP6 DUP2 MLOAD DUP2 LT PUSH2 0xED2 JUMPI PUSH2 0xED2 PUSH2 0x23F4 JUMP JUMPDEST PUSH1 0x20 SWAP1 DUP2 MUL SWAP2 SWAP1 SWAP2 ADD ADD MSTORE DUP4 PUSH2 0xEE7 DUP2 PUSH2 0x2420 JUMP JUMPDEST SWAP5 POP POP PUSH2 0xF45 JUMP JUMPDEST PUSH2 0xEFA DUP2 PUSH1 0x1 PUSH2 0x244C JUMP JUMPDEST DUP6 SUB PUSH2 0xF45 JUMPI DUP6 DUP2 DUP2 MLOAD DUP2 LT PUSH2 0xF12 JUMPI PUSH2 0xF12 PUSH2 0x23F4 JUMP JUMPDEST PUSH1 0x20 MUL PUSH1 0x20 ADD ADD MLOAD DUP8 DUP6 DUP2 MLOAD DUP2 LT PUSH2 0xF2C JUMPI PUSH2 0xF2C PUSH2 0x23F4 JUMP JUMPDEST PUSH1 0x20 SWAP1 DUP2 MUL SWAP2 SWAP1 SWAP2 ADD ADD MSTORE DUP4 PUSH2 0xF41 DUP2 PUSH2 0x2420 JUMP JUMPDEST SWAP5 POP POP JUMPDEST DUP6 DUP2 DUP2 MLOAD DUP2 LT PUSH2 0xF57 JUMPI PUSH2 0xF57 PUSH2 0x23F4 JUMP JUMPDEST PUSH1 0x20 MUL PUSH1 0x20 ADD ADD MLOAD DUP7 DUP3 PUSH1 0x1 PUSH2 0xF6D SWAP2 SWAP1 PUSH2 0x244C JUMP JUMPDEST DUP2 MLOAD DUP2 LT PUSH2 0xF7D JUMPI PUSH2 0xF7D PUSH2 0x23F4 JUMP JUMPDEST PUSH1 0x20 MUL PUSH1 0x20 ADD ADD MLOAD PUSH1 0x40 MLOAD PUSH1 0x20 ADD PUSH2 0xF9F SWAP3 SWAP2 SWAP1 SWAP2 DUP3 MSTORE PUSH1 0x20 DUP3 ADD MSTORE PUSH1 0x40 ADD SWAP1 JUMP JUMPDEST PUSH1 0x40 MLOAD PUSH1 0x20 DUP2 DUP4 SUB SUB DUP2 MSTORE SWAP1 PUSH1 0x40 MSTORE DUP1 MLOAD SWAP1 PUSH1 0x20 ADD KECCAK256 DUP7 DUP4 DUP2 MLOAD DUP2 LT PUSH2 0xFC7 JUMPI PUSH2 0xFC7 PUSH2 0x23F4 JUMP JUMPDEST PUSH1 0x20 MUL PUSH1 0x20 ADD ADD DUP2 DUP2 MSTORE POP POP JUMPDEST DUP2 PUSH2 0xFDE DUP2 PUSH2 0x2420 JUMP JUMPDEST SWAP3 POP PUSH2 0xFED SWAP1 POP PUSH1 0x2 DUP7 PUSH2 0x25E0 JUMP JUMPDEST SWAP5 POP PUSH2 0xFFA PUSH1 0x2 DUP3 PUSH2 0x244C JUMP JUMPDEST SWAP1 POP PUSH2 0xDA9 JUMP JUMPDEST POP SWAP1 POP PUSH2 0xD9C JUMP JUMPDEST DUP4 PUSH1 0x0 DUP2 MLOAD DUP2 LT PUSH2 0x101C JUMPI PUSH2 0x101C PUSH2 0x23F4 JUMP JUMPDEST PUSH1 0x20 MUL PUSH1 0x20 ADD ADD MLOAD DUP6 DUP4 DUP2 MLOAD DUP2 LT PUSH2 0x1036 JUMPI PUSH2 0x1036 PUSH2 0x23F4 JUMP JUMPDEST PUSH1 0x20 MUL PUSH1 0x20 ADD ADD DUP2 DUP2 MSTORE POP POP POP JUMPDEST POP SWAP2 SWAP5 SWAP4 POP POP POP POP JUMP JUMPDEST PUSH1 0x0 DUP1 JUMPDEST PUSH1 0x1 PUSH1 0x1 PUSH1 0xA0 SHL SUB DUP4 AND PUSH1 0x0 SWAP1 DUP2 MSTORE PUSH1 0x5 PUSH1 0x20 MSTORE PUSH1 0x40 SWAP1 KECCAK256 SLOAD DUP2 LT ISZERO PUSH2 0x10CB JUMPI PUSH1 0x1 PUSH1 0x1 PUSH1 0xA0 SHL SUB DUP4 AND PUSH1 0x0 SWAP1 DUP2 MSTORE PUSH1 0x5 PUSH1 0x20 MSTORE PUSH1 0x40 SWAP1 KECCAK256 DUP1 SLOAD DUP6 SWAP2 SWAP1 DUP4 SWAP1 DUP2 LT PUSH2 0x109F JUMPI PUSH2 0x109F PUSH2 0x23F4 JUMP JUMPDEST SWAP1 PUSH1 0x0 MSTORE PUSH1 0x20 PUSH1 0x0 KECCAK256 ADD SLOAD SUB PUSH2 0x10B9 JUMPI PUSH1 0x1 SWAP2 POP POP PUSH2 0x885 JUMP JUMPDEST DUP1 PUSH2 0x10C3 DUP2 PUSH2 0x2420 JUMP JUMPDEST SWAP2 POP POP PUSH2 0x1052 JUMP JUMPDEST POP PUSH1 0x0 SWAP4 SWAP3 POP POP POP JUMP JUMPDEST PUSH1 0x60 PUSH1 0x0 DUP4 MLOAD PUSH1 0x1 PUSH1 0x1 PUSH1 0x40 SHL SUB DUP2 GT ISZERO PUSH2 0x10F2 JUMPI PUSH2 0x10F2 PUSH2 0x1EA1 JUMP JUMPDEST PUSH1 0x40 MLOAD SWAP1 DUP1 DUP3 MSTORE DUP1 PUSH1 0x20 MUL PUSH1 0x20 ADD DUP3 ADD PUSH1 0x40 MSTORE DUP1 ISZERO PUSH2 0x1132 JUMPI DUP2 PUSH1 0x20 ADD JUMPDEST PUSH1 0x40 DUP1 MLOAD PUSH1 0x20 DUP2 ADD SWAP1 SWAP2 MSTORE PUSH1 0x60 DUP2 MSTORE DUP2 MSTORE PUSH1 0x20 ADD SWAP1 PUSH1 0x1 SWAP1 SUB SWAP1 DUP2 PUSH2 0x1110 JUMPI SWAP1 POP JUMPDEST POP SWAP1 POP PUSH1 0x0 PUSH2 0x1140 DUP5 PUSH2 0x15B4 JUMP JUMPDEST SWAP1 POP PUSH1 0x0 DUP2 PUSH1 0x0 DUP2 MLOAD DUP2 LT PUSH2 0x1157 JUMPI PUSH2 0x1157 PUSH2 0x23F4 JUMP JUMPDEST PUSH1 0x20 MUL PUSH1 0x20 ADD ADD MLOAD PUSH1 0x0 ADD MLOAD SWAP1 POP PUSH1 0x0 JUMPDEST DUP7 MLOAD DUP2 LT ISZERO PUSH2 0x14FB JUMPI PUSH1 0x1 PUSH1 0x1 PUSH1 0xA0 SHL SUB DUP7 AND PUSH1 0x0 SWAP1 DUP2 MSTORE PUSH1 0x5 PUSH1 0x20 MSTORE PUSH1 0x40 DUP2 KECCAK256 SLOAD PUSH1 0x60 SWAP2 PUSH2 0x1196 DUP3 PUSH2 0x1D19 JUMP JUMPDEST SWAP1 POP DUP2 PUSH2 0x11A4 DUP3 PUSH1 0x2 PUSH2 0x26D8 JUMP JUMPDEST SUB PUSH2 0x121E JUMPI PUSH1 0x1 PUSH1 0x1 PUSH1 0xA0 SHL SUB DUP10 AND PUSH1 0x0 SWAP1 DUP2 MSTORE PUSH1 0x5 PUSH1 0x20 MSTORE PUSH1 0x40 SWAP1 KECCAK256 SLOAD PUSH2 0x11CB SWAP1 PUSH2 0x1D19 JUMP JUMPDEST PUSH2 0x11D6 SWAP1 PUSH1 0x1 PUSH2 0x244C JUMP JUMPDEST PUSH1 0x1 PUSH1 0x1 PUSH1 0x40 SHL SUB DUP2 GT ISZERO PUSH2 0x11ED JUMPI PUSH2 0x11ED PUSH2 0x1EA1 JUMP JUMPDEST PUSH1 0x40 MLOAD SWAP1 DUP1 DUP3 MSTORE DUP1 PUSH1 0x20 MUL PUSH1 0x20 ADD DUP3 ADD PUSH1 0x40 MSTORE DUP1 ISZERO PUSH2 0x1216 JUMPI DUP2 PUSH1 0x20 ADD PUSH1 0x20 DUP3 MUL DUP1 CALLDATASIZE DUP4 CALLDATACOPY ADD SWAP1 POP JUMPDEST POP SWAP3 POP PUSH2 0x128F JUMP JUMPDEST PUSH1 0x1 PUSH1 0x1 PUSH1 0xA0 SHL SUB DUP10 AND PUSH1 0x0 SWAP1 DUP2 MSTORE PUSH1 0x5 PUSH1 0x20 MSTORE PUSH1 0x40 SWAP1 KECCAK256 SLOAD PUSH2 0x1240 SWAP1 PUSH2 0x1D19 JUMP JUMPDEST PUSH2 0x124B SWAP1 PUSH1 0x2 PUSH2 0x244C JUMP JUMPDEST PUSH1 0x1 PUSH1 0x1 PUSH1 0x40 SHL SUB DUP2 GT ISZERO PUSH2 0x1262 JUMPI PUSH2 0x1262 PUSH2 0x1EA1 JUMP JUMPDEST PUSH1 0x40 MLOAD SWAP1 DUP1 DUP3 MSTORE DUP1 PUSH1 0x20 MUL PUSH1 0x20 ADD DUP3 ADD PUSH1 0x40 MSTORE DUP1 ISZERO PUSH2 0x128B JUMPI DUP2 PUSH1 0x20 ADD PUSH1 0x20 DUP3 MUL DUP1 CALLDATASIZE DUP4 CALLDATACOPY ADD SWAP1 POP JUMPDEST POP SWAP3 POP JUMPDEST PUSH2 0x1299 DUP4 MLOAD PUSH2 0x1C8E JUMP JUMPDEST PUSH2 0x12A3 DUP7 MLOAD PUSH2 0x1C8E JUMP JUMPDEST PUSH1 0x0 DUP1 PUSH2 0x12C9 DUP13 DUP8 DUP2 MLOAD DUP2 LT PUSH2 0x12BB JUMPI PUSH2 0x12BB PUSH2 0x23F4 JUMP JUMPDEST PUSH1 0x20 MUL PUSH1 0x20 ADD ADD MLOAD DUP9 PUSH2 0x1DAD JUMP JUMPDEST SWAP1 POP PUSH1 0x0 NOT DUP2 EQ PUSH2 0x14B7 JUMPI PUSH1 0x0 JUMPDEST DUP9 MLOAD DUP2 LT ISZERO PUSH2 0x14B5 JUMPI PUSH2 0x1307 DUP10 DUP3 DUP2 MLOAD DUP2 LT PUSH2 0x12F5 JUMPI PUSH2 0x12F5 PUSH2 0x23F4 JUMP JUMPDEST PUSH1 0x20 MUL PUSH1 0x20 ADD ADD MLOAD PUSH1 0x0 ADD MLOAD MLOAD PUSH2 0x1C8E JUMP JUMPDEST PUSH1 0x1 DUP10 DUP3 DUP2 MLOAD DUP2 LT PUSH2 0x131B JUMPI PUSH2 0x131B PUSH2 0x23F4 JUMP JUMPDEST PUSH1 0x20 MUL PUSH1 0x20 ADD ADD MLOAD PUSH1 0x0 ADD MLOAD MLOAD PUSH2 0x1332 SWAP2 SWAP1 PUSH2 0x2439 JUMP JUMPDEST DUP3 SUB PUSH2 0x13EB JUMPI PUSH2 0x1343 PUSH1 0x2 DUP4 PUSH2 0x26E4 JUMP JUMPDEST PUSH1 0x0 SUB PUSH2 0x13B0 JUMPI DUP9 DUP2 DUP2 MLOAD DUP2 LT PUSH2 0x135C JUMPI PUSH2 0x135C PUSH2 0x23F4 JUMP JUMPDEST PUSH1 0x20 MUL PUSH1 0x20 ADD ADD MLOAD PUSH1 0x0 ADD MLOAD DUP3 DUP2 MLOAD DUP2 LT PUSH2 0x1379 JUMPI PUSH2 0x1379 PUSH2 0x23F4 JUMP JUMPDEST PUSH1 0x20 MUL PUSH1 0x20 ADD ADD MLOAD DUP7 DUP5 DUP2 MLOAD DUP2 LT PUSH2 0x1393 JUMPI PUSH2 0x1393 PUSH2 0x23F4 JUMP JUMPDEST PUSH1 0x20 SWAP1 DUP2 MUL SWAP2 SWAP1 SWAP2 ADD ADD MSTORE DUP3 PUSH2 0x13A8 DUP2 PUSH2 0x2420 JUMP JUMPDEST SWAP4 POP POP PUSH2 0x1496 JUMP JUMPDEST DUP9 DUP2 DUP2 MLOAD DUP2 LT PUSH2 0x13C2 JUMPI PUSH2 0x13C2 PUSH2 0x23F4 JUMP JUMPDEST PUSH1 0x20 MUL PUSH1 0x20 ADD ADD MLOAD PUSH1 0x0 ADD MLOAD PUSH1 0x1 DUP4 PUSH2 0x13DB SWAP2 SWAP1 PUSH2 0x2439 JUMP JUMPDEST DUP2 MLOAD DUP2 LT PUSH2 0x1379 JUMPI PUSH2 0x1379 PUSH2 0x23F4 JUMP JUMPDEST PUSH2 0x13F6 PUSH1 0x2 DUP4 PUSH2 0x26E4 JUMP JUMPDEST PUSH1 0x0 SUB PUSH2 0x1428 JUMPI DUP9 DUP2 DUP2 MLOAD DUP2 LT PUSH2 0x140F JUMPI PUSH2 0x140F PUSH2 0x23F4 JUMP JUMPDEST PUSH1 0x20 MUL PUSH1 0x20 ADD ADD MLOAD PUSH1 0x0 ADD MLOAD DUP3 PUSH1 0x1 PUSH2 0x13DB SWAP2 SWAP1 PUSH2 0x244C JUMP JUMPDEST DUP9 DUP2 DUP2 MLOAD DUP2 LT PUSH2 0x143A JUMPI PUSH2 0x143A PUSH2 0x23F4 JUMP JUMPDEST PUSH1 0x20 MUL PUSH1 0x20 ADD ADD MLOAD PUSH1 0x0 ADD MLOAD PUSH1 0x1 DUP4 PUSH2 0x1453 SWAP2 SWAP1 PUSH2 0x2439 JUMP JUMPDEST DUP2 MLOAD DUP2 LT PUSH2 0x1463 JUMPI PUSH2 0x1463 PUSH2 0x23F4 JUMP JUMPDEST PUSH1 0x20 MUL PUSH1 0x20 ADD ADD MLOAD DUP7 DUP5 DUP2 MLOAD DUP2 LT PUSH2 0x147D JUMPI PUSH2 0x147D PUSH2 0x23F4 JUMP JUMPDEST PUSH1 0x20 SWAP1 DUP2 MUL SWAP2 SWAP1 SWAP2 ADD ADD MSTORE DUP3 PUSH2 0x1492 DUP2 PUSH2 0x2420 JUMP JUMPDEST SWAP4 POP POP JUMPDEST PUSH2 0x14A1 PUSH1 0x2 DUP4 PUSH2 0x25E0 JUMP JUMPDEST SWAP2 POP DUP1 PUSH2 0x14AD DUP2 PUSH2 0x2420 JUMP JUMPDEST SWAP2 POP POP PUSH2 0x12D7 JUMP JUMPDEST POP JUMPDEST PUSH1 0x40 MLOAD DUP1 PUSH1 0x20 ADD PUSH1 0x40 MSTORE DUP1 DUP7 DUP2 MSTORE POP DUP10 DUP8 DUP2 MLOAD DUP2 LT PUSH2 0x14D8 JUMPI PUSH2 0x14D8 PUSH2 0x23F4 JUMP JUMPDEST PUSH1 0x20 MUL PUSH1 0x20 ADD ADD DUP2 SWAP1 MSTORE POP POP POP POP POP POP DUP1 DUP1 PUSH2 0x14F3 SWAP1 PUSH2 0x2420 JUMP JUMPDEST SWAP2 POP POP PUSH2 0x1168 JUMP JUMPDEST POP PUSH2 0x1505 DUP4 PUSH2 0xB6E JUMP JUMPDEST SWAP7 SWAP6 POP POP POP POP POP POP JUMP JUMPDEST PUSH1 0x3 PUSH1 0x20 MSTORE PUSH1 0x0 SWAP1 DUP2 MSTORE PUSH1 0x40 SWAP1 KECCAK256 DUP1 SLOAD PUSH1 0x1 DUP3 ADD DUP1 SLOAD SWAP2 SWAP3 SWAP2 PUSH2 0x1531 SWAP1 PUSH2 0x245F JUMP JUMPDEST DUP1 PUSH1 0x1F ADD PUSH1 0x20 DUP1 SWAP2 DIV MUL PUSH1 0x20 ADD PUSH1 0x40 MLOAD SWAP1 DUP2 ADD PUSH1 0x40 MSTORE DUP1 SWAP3 SWAP2 SWAP1 DUP2 DUP2 MSTORE PUSH1 0x20 ADD DUP3 DUP1 SLOAD PUSH2 0x155D SWAP1 PUSH2 0x245F JUMP JUMPDEST DUP1 ISZERO PUSH2 0x15AA JUMPI DUP1 PUSH1 0x1F LT PUSH2 0x157F JUMPI PUSH2 0x100 DUP1 DUP4 SLOAD DIV MUL DUP4 MSTORE SWAP2 PUSH1 0x20 ADD SWAP2 PUSH2 0x15AA JUMP JUMPDEST DUP3 ADD SWAP2 SWAP1 PUSH1 0x0 MSTORE PUSH1 0x20 PUSH1 0x0 KECCAK256 SWAP1 JUMPDEST DUP2 SLOAD DUP2 MSTORE SWAP1 PUSH1 0x1 ADD SWAP1 PUSH1 0x20 ADD DUP1 DUP4 GT PUSH2 0x158D JUMPI DUP3 SWAP1 SUB PUSH1 0x1F AND DUP3 ADD SWAP2 JUMPDEST POP POP POP POP POP SWAP1 POP DUP3 JUMP JUMPDEST PUSH1 0x60 PUSH2 0x15C8 PUSH2 0x15C3 PUSH1 0x1 PUSH2 0x1D19 JUMP JUMPDEST PUSH2 0x1C8E JUMP JUMPDEST PUSH1 0x1 PUSH1 0x1 PUSH1 0xA0 SHL SUB DUP3 AND PUSH1 0x0 SWAP1 DUP2 MSTORE PUSH1 0x5 PUSH1 0x20 MSTORE PUSH1 0x40 DUP2 KECCAK256 SLOAD PUSH1 0x60 SWAP2 PUSH2 0x15ED DUP3 PUSH2 0x1D19 JUMP JUMPDEST SWAP1 POP DUP2 PUSH2 0x15FB DUP3 PUSH1 0x2 PUSH2 0x26D8 JUMP JUMPDEST SUB PUSH2 0x168C JUMPI PUSH1 0x1 PUSH1 0x1 PUSH1 0xA0 SHL SUB DUP6 AND PUSH1 0x0 SWAP1 DUP2 MSTORE PUSH1 0x5 PUSH1 0x20 MSTORE PUSH1 0x40 SWAP1 KECCAK256 SLOAD PUSH2 0x1622 SWAP1 PUSH2 0x1D19 JUMP JUMPDEST PUSH2 0x162D SWAP1 PUSH1 0x1 PUSH2 0x244C JUMP JUMPDEST PUSH1 0x1 PUSH1 0x1 PUSH1 0x40 SHL SUB DUP2 GT ISZERO PUSH2 0x1644 JUMPI PUSH2 0x1644 PUSH2 0x1EA1 JUMP JUMPDEST PUSH1 0x40 MLOAD SWAP1 DUP1 DUP3 MSTORE DUP1 PUSH1 0x20 MUL PUSH1 0x20 ADD DUP3 ADD PUSH1 0x40 MSTORE DUP1 ISZERO PUSH2 0x1684 JUMPI DUP2 PUSH1 0x20 ADD JUMPDEST PUSH1 0x40 DUP1 MLOAD PUSH1 0x20 DUP2 ADD SWAP1 SWAP2 MSTORE PUSH1 0x60 DUP2 MSTORE DUP2 MSTORE PUSH1 0x20 ADD SWAP1 PUSH1 0x1 SWAP1 SUB SWAP1 DUP2 PUSH2 0x1662 JUMPI SWAP1 POP JUMPDEST POP SWAP3 POP PUSH2 0x1714 JUMP JUMPDEST PUSH1 0x1 PUSH1 0x1 PUSH1 0xA0 SHL SUB DUP6 AND PUSH1 0x0 SWAP1 DUP2 MSTORE PUSH1 0x5 PUSH1 0x20 MSTORE PUSH1 0x40 SWAP1 KECCAK256 SLOAD PUSH2 0x16AE SWAP1 PUSH2 0x1D19 JUMP JUMPDEST PUSH2 0x16B9 SWAP1 PUSH1 0x2 PUSH2 0x244C JUMP JUMPDEST PUSH1 0x1 PUSH1 0x1 PUSH1 0x40 SHL SUB DUP2 GT ISZERO PUSH2 0x16D0 JUMPI PUSH2 0x16D0 PUSH2 0x1EA1 JUMP JUMPDEST PUSH1 0x40 MLOAD SWAP1 DUP1 DUP3 MSTORE DUP1 PUSH1 0x20 MUL PUSH1 0x20 ADD DUP3 ADD PUSH1 0x40 MSTORE DUP1 ISZERO PUSH2 0x1710 JUMPI DUP2 PUSH1 0x20 ADD JUMPDEST PUSH1 0x40 DUP1 MLOAD PUSH1 0x20 DUP2 ADD SWAP1 SWAP2 MSTORE PUSH1 0x60 DUP2 MSTORE DUP2 MSTORE PUSH1 0x20 ADD SWAP1 PUSH1 0x1 SWAP1 SUB SWAP1 DUP2 PUSH2 0x16EE JUMPI SWAP1 POP JUMPDEST POP SWAP3 POP JUMPDEST PUSH1 0x1 PUSH1 0x1 PUSH1 0xA0 SHL SUB DUP6 AND PUSH1 0x0 SWAP1 DUP2 MSTORE PUSH1 0x5 PUSH1 0x20 MSTORE PUSH1 0x40 DUP2 KECCAK256 SLOAD SWAP1 DUP2 SWAP1 SUB PUSH2 0x1778 JUMPI PUSH1 0x40 DUP1 MLOAD PUSH1 0x0 DUP1 DUP3 MSTORE PUSH1 0x20 DUP3 ADD SWAP1 SWAP3 MSTORE SWAP1 PUSH2 0x176D JUMP JUMPDEST PUSH1 0x40 DUP1 MLOAD PUSH1 0x20 DUP2 ADD SWAP1 SWAP2 MSTORE PUSH1 0x60 DUP2 MSTORE DUP2 MSTORE PUSH1 0x20 ADD SWAP1 PUSH1 0x1 SWAP1 SUB SWAP1 DUP2 PUSH2 0x174B JUMPI SWAP1 POP JUMPDEST POP SWAP7 SWAP6 POP POP POP POP POP POP JUMP JUMPDEST PUSH1 0x1 PUSH1 0x1 PUSH1 0xA0 SHL SUB DUP7 AND PUSH1 0x0 SWAP1 DUP2 MSTORE PUSH1 0x5 PUSH1 0x20 MSTORE PUSH1 0x40 DUP2 KECCAK256 SLOAD PUSH1 0x1 PUSH1 0x1 PUSH1 0x40 SHL SUB DUP2 GT ISZERO PUSH2 0x17A8 JUMPI PUSH2 0x17A8 PUSH2 0x1EA1 JUMP JUMPDEST PUSH1 0x40 MLOAD SWAP1 DUP1 DUP3 MSTORE DUP1 PUSH1 0x20 MUL PUSH1 0x20 ADD DUP3 ADD PUSH1 0x40 MSTORE DUP1 ISZERO PUSH2 0x17D1 JUMPI DUP2 PUSH1 0x20 ADD PUSH1 0x20 DUP3 MUL DUP1 CALLDATASIZE DUP4 CALLDATACOPY ADD SWAP1 POP JUMPDEST POP SWAP1 POP PUSH1 0x0 JUMPDEST PUSH1 0x1 PUSH1 0x1 PUSH1 0xA0 SHL SUB DUP9 AND PUSH1 0x0 SWAP1 DUP2 MSTORE PUSH1 0x5 PUSH1 0x20 MSTORE PUSH1 0x40 SWAP1 KECCAK256 SLOAD DUP2 LT ISZERO PUSH2 0x1883 JUMPI PUSH1 0x1 PUSH1 0x1 PUSH1 0xA0 SHL SUB DUP9 AND PUSH1 0x0 SWAP1 DUP2 MSTORE PUSH1 0x5 PUSH1 0x20 MSTORE PUSH1 0x40 SWAP1 KECCAK256 DUP1 SLOAD DUP3 SWAP1 DUP2 LT PUSH2 0x1821 JUMPI PUSH2 0x1821 PUSH2 0x23F4 JUMP JUMPDEST SWAP1 PUSH1 0x0 MSTORE PUSH1 0x20 PUSH1 0x0 KECCAK256 ADD SLOAD PUSH1 0x40 MLOAD PUSH1 0x20 ADD PUSH2 0x183E SWAP2 DUP2 MSTORE PUSH1 0x20 ADD SWAP1 JUMP JUMPDEST PUSH1 0x40 MLOAD PUSH1 0x20 DUP2 DUP4 SUB SUB DUP2 MSTORE SWAP1 PUSH1 0x40 MSTORE DUP1 MLOAD SWAP1 PUSH1 0x20 ADD KECCAK256 DUP3 DUP3 DUP2 MLOAD DUP2 LT PUSH2 0x1866 JUMPI PUSH2 0x1866 PUSH2 0x23F4 JUMP JUMPDEST PUSH1 0x20 SWAP1 DUP2 MUL SWAP2 SWAP1 SWAP2 ADD ADD MSTORE DUP1 PUSH2 0x187B DUP2 PUSH2 0x2420 JUMP JUMPDEST SWAP2 POP POP PUSH2 0x17D7 JUMP JUMPDEST POP PUSH1 0x40 MLOAD DUP1 PUSH1 0x20 ADD PUSH1 0x40 MSTORE DUP1 DUP3 DUP2 MSTORE POP DUP6 PUSH1 0x0 DUP2 MLOAD DUP2 LT PUSH2 0x18A6 JUMPI PUSH2 0x18A6 PUSH2 0x23F4 JUMP JUMPDEST PUSH1 0x20 SWAP1 DUP2 MUL SWAP2 SWAP1 SWAP2 ADD ADD MSTORE DUP1 MLOAD PUSH1 0x1 JUMPDEST PUSH1 0x1 DUP3 GT ISZERO PUSH2 0x1B53 JUMPI PUSH1 0x0 PUSH1 0x2 PUSH2 0x18CE DUP5 PUSH1 0x1 PUSH2 0x244C JUMP JUMPDEST PUSH2 0x18D8 SWAP2 SWAP1 PUSH2 0x25E0 JUMP JUMPDEST PUSH1 0x1 PUSH1 0x1 PUSH1 0x40 SHL SUB DUP2 GT ISZERO PUSH2 0x18EF JUMPI PUSH2 0x18EF PUSH2 0x1EA1 JUMP JUMPDEST PUSH1 0x40 MLOAD SWAP1 DUP1 DUP3 MSTORE DUP1 PUSH1 0x20 MUL PUSH1 0x20 ADD DUP3 ADD PUSH1 0x40 MSTORE DUP1 ISZERO PUSH2 0x1918 JUMPI DUP2 PUSH1 0x20 ADD PUSH1 0x20 DUP3 MUL DUP1 CALLDATASIZE DUP4 CALLDATACOPY ADD SWAP1 POP JUMPDEST POP SWAP1 POP PUSH1 0x0 DUP1 JUMPDEST DUP5 DUP2 LT ISZERO PUSH2 0x1B0E JUMPI PUSH2 0x1932 PUSH1 0x1 DUP7 PUSH2 0x2439 JUMP JUMPDEST DUP2 SUB PUSH2 0x1A0F JUMPI DUP10 PUSH2 0x1944 PUSH1 0x1 DUP7 PUSH2 0x2439 JUMP JUMPDEST DUP2 MLOAD DUP2 LT PUSH2 0x1954 JUMPI PUSH2 0x1954 PUSH2 0x23F4 JUMP JUMPDEST PUSH1 0x20 MUL PUSH1 0x20 ADD ADD MLOAD PUSH1 0x0 ADD MLOAD DUP2 DUP2 MLOAD DUP2 LT PUSH2 0x1971 JUMPI PUSH2 0x1971 PUSH2 0x23F4 JUMP JUMPDEST PUSH1 0x20 MUL PUSH1 0x20 ADD ADD MLOAD DUP11 PUSH1 0x1 DUP7 PUSH2 0x1987 SWAP2 SWAP1 PUSH2 0x2439 JUMP JUMPDEST DUP2 MLOAD DUP2 LT PUSH2 0x1997 JUMPI PUSH2 0x1997 PUSH2 0x23F4 JUMP JUMPDEST PUSH1 0x20 MUL PUSH1 0x20 ADD ADD MLOAD PUSH1 0x0 ADD MLOAD DUP3 DUP2 MLOAD DUP2 LT PUSH2 0x19B4 JUMPI PUSH2 0x19B4 PUSH2 0x23F4 JUMP JUMPDEST PUSH1 0x20 MUL PUSH1 0x20 ADD ADD MLOAD PUSH1 0x40 MLOAD PUSH1 0x20 ADD PUSH2 0x19D6 SWAP3 SWAP2 SWAP1 SWAP2 DUP3 MSTORE PUSH1 0x20 DUP3 ADD MSTORE PUSH1 0x40 ADD SWAP1 JUMP JUMPDEST PUSH1 0x40 MLOAD PUSH1 0x20 DUP2 DUP4 SUB SUB DUP2 MSTORE SWAP1 PUSH1 0x40 MSTORE DUP1 MLOAD SWAP1 PUSH1 0x20 ADD KECCAK256 DUP4 DUP4 DUP2 MLOAD DUP2 LT PUSH2 0x19FE JUMPI PUSH2 0x19FE PUSH2 0x23F4 JUMP JUMPDEST PUSH1 0x20 MUL PUSH1 0x20 ADD ADD DUP2 DUP2 MSTORE POP POP PUSH2 0x1AEE JUMP JUMPDEST DUP10 PUSH2 0x1A1B PUSH1 0x1 DUP7 PUSH2 0x2439 JUMP JUMPDEST DUP2 MLOAD DUP2 LT PUSH2 0x1A2B JUMPI PUSH2 0x1A2B PUSH2 0x23F4 JUMP JUMPDEST PUSH1 0x20 MUL PUSH1 0x20 ADD ADD MLOAD PUSH1 0x0 ADD MLOAD DUP2 DUP2 MLOAD DUP2 LT PUSH2 0x1A48 JUMPI PUSH2 0x1A48 PUSH2 0x23F4 JUMP JUMPDEST PUSH1 0x20 MUL PUSH1 0x20 ADD ADD MLOAD DUP11 PUSH1 0x1 DUP7 PUSH2 0x1A5E SWAP2 SWAP1 PUSH2 0x2439 JUMP JUMPDEST DUP2 MLOAD DUP2 LT PUSH2 0x1A6E JUMPI PUSH2 0x1A6E PUSH2 0x23F4 JUMP JUMPDEST PUSH1 0x20 MUL PUSH1 0x20 ADD ADD MLOAD PUSH1 0x0 ADD MLOAD DUP3 PUSH1 0x1 PUSH2 0x1A87 SWAP2 SWAP1 PUSH2 0x244C JUMP JUMPDEST DUP2 MLOAD DUP2 LT PUSH2 0x1A97 JUMPI PUSH2 0x1A97 PUSH2 0x23F4 JUMP JUMPDEST PUSH1 0x20 MUL PUSH1 0x20 ADD ADD MLOAD PUSH1 0x40 MLOAD PUSH1 0x20 ADD PUSH2 0x1AB9 SWAP3 SWAP2 SWAP1 SWAP2 DUP3 MSTORE PUSH1 0x20 DUP3 ADD MSTORE PUSH1 0x40 ADD SWAP1 JUMP JUMPDEST PUSH1 0x40 MLOAD PUSH1 0x20 DUP2 DUP4 SUB SUB DUP2 MSTORE SWAP1 PUSH1 0x40 MSTORE DUP1 MLOAD SWAP1 PUSH1 0x20 ADD KECCAK256 DUP4 DUP4 DUP2 MLOAD DUP2 LT PUSH2 0x1AE1 JUMPI PUSH2 0x1AE1 PUSH2 0x23F4 JUMP JUMPDEST PUSH1 0x20 MUL PUSH1 0x20 ADD ADD DUP2 DUP2 MSTORE POP POP JUMPDEST DUP2 PUSH2 0x1AF8 DUP2 PUSH2 0x2420 JUMP JUMPDEST SWAP3 POP PUSH2 0x1B07 SWAP1 POP PUSH1 0x2 DUP3 PUSH2 0x244C JUMP JUMPDEST SWAP1 POP PUSH2 0x191F JUMP JUMPDEST POP DUP1 SWAP4 POP PUSH1 0x40 MLOAD DUP1 PUSH1 0x20 ADD PUSH1 0x40 MSTORE DUP1 DUP4 DUP2 MSTORE POP DUP10 DUP5 DUP2 MLOAD DUP2 LT PUSH2 0x1B33 JUMPI PUSH2 0x1B33 PUSH2 0x23F4 JUMP JUMPDEST PUSH1 0x20 MUL PUSH1 0x20 ADD ADD DUP2 SWAP1 MSTORE POP DUP3 DUP1 PUSH2 0x1B49 SWAP1 PUSH2 0x2420 JUMP JUMPDEST SWAP4 POP POP POP POP PUSH2 0x18B6 JUMP JUMPDEST POP SWAP5 SWAP8 SWAP7 POP POP POP POP POP POP POP JUMP JUMPDEST PUSH1 0x0 DUP1 JUMPDEST CALLER PUSH1 0x0 SWAP1 DUP2 MSTORE PUSH1 0x5 PUSH1 0x20 MSTORE PUSH1 0x40 SWAP1 KECCAK256 SLOAD DUP2 LT ISZERO PUSH2 0x1C3E JUMPI DUP3 PUSH1 0x40 MLOAD PUSH1 0x20 ADD PUSH2 0x1B8C SWAP2 SWAP1 PUSH2 0x26F8 JUMP JUMPDEST PUSH1 0x40 MLOAD PUSH1 0x20 DUP2 DUP4 SUB SUB DUP2 MSTORE SWAP1 PUSH1 0x40 MSTORE DUP1 MLOAD SWAP1 PUSH1 0x20 ADD KECCAK256 PUSH1 0x3 PUSH1 0x0 PUSH1 0x5 PUSH1 0x0 CALLER PUSH1 0x1 PUSH1 0x1 PUSH1 0xA0 SHL SUB AND PUSH1 0x1 PUSH1 0x1 PUSH1 0xA0 SHL SUB AND DUP2 MSTORE PUSH1 0x20 ADD SWAP1 DUP2 MSTORE PUSH1 0x20 ADD PUSH1 0x0 KECCAK256 DUP5 DUP2 SLOAD DUP2 LT PUSH2 0x1BDC JUMPI PUSH2 0x1BDC PUSH2 0x23F4 JUMP JUMPDEST SWAP1 PUSH1 0x0 MSTORE PUSH1 0x20 PUSH1 0x0 KECCAK256 ADD SLOAD DUP2 MSTORE PUSH1 0x20 ADD SWAP1 DUP2 MSTORE PUSH1 0x20 ADD PUSH1 0x0 KECCAK256 PUSH1 0x1 ADD PUSH1 0x40 MLOAD PUSH1 0x20 ADD PUSH2 0x1C08 SWAP2 SWAP1 PUSH2 0x2714 JUMP JUMPDEST PUSH1 0x40 MLOAD PUSH1 0x20 DUP2 DUP4 SUB SUB DUP2 MSTORE SWAP1 PUSH1 0x40 MSTORE DUP1 MLOAD SWAP1 PUSH1 0x20 ADD KECCAK256 SUB PUSH2 0x1C2C JUMPI POP PUSH1 0x1 SWAP3 SWAP2 POP POP JUMP JUMPDEST DUP1 PUSH2 0x1C36 DUP2 PUSH2 0x2420 JUMP JUMPDEST SWAP2 POP POP PUSH2 0x1B64 JUMP JUMPDEST POP PUSH1 0x0 SWAP3 SWAP2 POP POP JUMP JUMPDEST PUSH1 0x0 DUP1 PUSH1 0x1 SLOAD DUP4 PUSH1 0x2 SLOAD TIMESTAMP PUSH1 0x40 MLOAD PUSH1 0x20 ADD PUSH2 0x1C64 SWAP4 SWAP3 SWAP2 SWAP1 PUSH2 0x278A JUMP JUMPDEST PUSH1 0x40 MLOAD PUSH1 0x20 DUP2 DUP4 SUB SUB DUP2 MSTORE SWAP1 PUSH1 0x40 MSTORE DUP1 MLOAD SWAP1 PUSH1 0x20 ADD KECCAK256 PUSH1 0x0 SHR PUSH2 0x1C87 SWAP2 SWAP1 PUSH2 0x26E4 JUMP JUMPDEST SWAP4 SWAP3 POP POP POP JUMP JUMPDEST PUSH2 0x1CD3 DUP2 PUSH1 0x40 MLOAD PUSH1 0x24 ADD PUSH2 0x1CA4 SWAP2 DUP2 MSTORE PUSH1 0x20 ADD SWAP1 JUMP JUMPDEST PUSH1 0x40 DUP1 MLOAD PUSH1 0x1F NOT DUP2 DUP5 SUB ADD DUP2 MSTORE SWAP2 SWAP1 MSTORE PUSH1 0x20 DUP2 ADD DUP1 MLOAD PUSH1 0x1 PUSH1 0x1 PUSH1 0xE0 SHL SUB AND PUSH4 0xF82C50F1 PUSH1 0xE0 SHL OR SWAP1 MSTORE PUSH2 0x1E1B JUMP JUMPDEST POP JUMP JUMPDEST PUSH2 0x1CD3 DUP2 PUSH1 0x40 MLOAD PUSH1 0x24 ADD PUSH2 0x1CEA SWAP2 SWAP1 PUSH2 0x27AF JUMP JUMPDEST PUSH1 0x40 DUP1 MLOAD PUSH1 0x1F NOT DUP2 DUP5 SUB ADD DUP2 MSTORE SWAP2 SWAP1 MSTORE PUSH1 0x20 DUP2 ADD DUP1 MLOAD PUSH1 0x1 PUSH1 0x1 PUSH1 0xE0 SHL SUB AND PUSH4 0x104C13EB PUSH1 0xE2 SHL OR SWAP1 MSTORE PUSH2 0x1E1B JUMP JUMPDEST PUSH1 0x0 DUP1 PUSH1 0x80 DUP4 SWAP1 SHR ISZERO PUSH2 0x1D2E JUMPI PUSH1 0x80 SWAP3 DUP4 SHR SWAP3 ADD JUMPDEST PUSH1 0x40 DUP4 SWAP1 SHR ISZERO PUSH2 0x1D40 JUMPI PUSH1 0x40 SWAP3 DUP4 SHR SWAP3 ADD JUMPDEST PUSH1 0x20 DUP4 SWAP1 SHR ISZERO PUSH2 0x1D52 JUMPI PUSH1 0x20 SWAP3 DUP4 SHR SWAP3 ADD JUMPDEST PUSH1 0x10 DUP4 SWAP1 SHR ISZERO PUSH2 0x1D64 JUMPI PUSH1 0x10 SWAP3 DUP4 SHR SWAP3 ADD JUMPDEST PUSH1 0x8 DUP4 SWAP1 SHR ISZERO PUSH2 0x1D76 JUMPI PUSH1 0x8 SWAP3 DUP4 SHR SWAP3 ADD JUMPDEST PUSH1 0x4 DUP4 SWAP1 SHR ISZERO PUSH2 0x1D88 JUMPI PUSH1 0x4 SWAP3 DUP4 SHR SWAP3 ADD JUMPDEST PUSH1 0x2 DUP4 SWAP1 SHR ISZERO PUSH2 0x1D9A JUMPI PUSH1 0x2 SWAP3 DUP4 SHR SWAP3 ADD JUMPDEST PUSH1 0x1 DUP4 SWAP1 SHR ISZERO PUSH2 0x885 JUMPI PUSH1 0x1 ADD SWAP3 SWAP2 POP POP JUMP JUMPDEST PUSH1 0x0 DUP1 JUMPDEST DUP3 MLOAD DUP2 LT ISZERO PUSH2 0x87E JUMPI DUP3 DUP2 DUP2 MLOAD DUP2 LT PUSH2 0x1DCC JUMPI PUSH2 0x1DCC PUSH2 0x23F4 JUMP JUMPDEST PUSH1 0x20 MUL PUSH1 0x20 ADD ADD MLOAD DUP5 PUSH1 0x40 MLOAD PUSH1 0x20 ADD PUSH2 0x1DE7 SWAP2 DUP2 MSTORE PUSH1 0x20 ADD SWAP1 JUMP JUMPDEST PUSH1 0x40 MLOAD PUSH1 0x20 DUP2 DUP4 SUB SUB DUP2 MSTORE SWAP1 PUSH1 0x40 MSTORE DUP1 MLOAD SWAP1 PUSH1 0x20 ADD KECCAK256 SUB PUSH2 0x1E09 JUMPI SWAP1 POP PUSH2 0x885 JUMP JUMPDEST DUP1 PUSH2 0x1E13 DUP2 PUSH2 0x2420 JUMP JUMPDEST SWAP2 POP POP PUSH2 0x1DB1 JUMP JUMPDEST PUSH2 0x1CD3 DUP2 PUSH1 0x0 PUSH11 0x636F6E736F6C652E6C6F67 SWAP1 POP PUSH1 0x0 DUP1 DUP4 MLOAD PUSH1 0x20 DUP6 ADD DUP5 GAS STATICCALL POP POP POP JUMP JUMPDEST DUP1 CALLDATALOAD PUSH1 0x1 PUSH1 0x1 PUSH1 0xA0 SHL SUB DUP2 AND DUP2 EQ PUSH2 0x1E57 JUMPI PUSH1 0x0 DUP1 REVERT JUMPDEST SWAP2 SWAP1 POP JUMP JUMPDEST PUSH1 0x0 DUP1 PUSH1 0x40 DUP4 DUP6 SUB SLT ISZERO PUSH2 0x1E6F JUMPI PUSH1 0x0 DUP1 REVERT JUMPDEST PUSH2 0x1E78 DUP4 PUSH2 0x1E40 JUMP JUMPDEST SWAP5 PUSH1 0x20 SWAP4 SWAP1 SWAP4 ADD CALLDATALOAD SWAP4 POP POP POP JUMP JUMPDEST PUSH1 0x0 PUSH1 0x20 DUP3 DUP5 SUB SLT ISZERO PUSH2 0x1E98 JUMPI PUSH1 0x0 DUP1 REVERT JUMPDEST PUSH2 0x1C87 DUP3 PUSH2 0x1E40 JUMP JUMPDEST PUSH4 0x4E487B71 PUSH1 0xE0 SHL PUSH1 0x0 MSTORE PUSH1 0x41 PUSH1 0x4 MSTORE PUSH1 0x24 PUSH1 0x0 REVERT JUMPDEST PUSH1 0x40 MLOAD PUSH1 0x20 DUP2 ADD PUSH1 0x1 PUSH1 0x1 PUSH1 0x40 SHL SUB DUP2 GT DUP3 DUP3 LT OR ISZERO PUSH2 0x1ED9 JUMPI PUSH2 0x1ED9 PUSH2 0x1EA1 JUMP JUMPDEST PUSH1 0x40 MSTORE SWAP1 JUMP JUMPDEST PUSH1 0x40 MLOAD PUSH1 0x1F DUP3 ADD PUSH1 0x1F NOT AND DUP2 ADD PUSH1 0x1 PUSH1 0x1 PUSH1 0x40 SHL SUB DUP2 GT DUP3 DUP3 LT OR ISZERO PUSH2 0x1F07 JUMPI PUSH2 0x1F07 PUSH2 0x1EA1 JUMP JUMPDEST PUSH1 0x40 MSTORE SWAP2 SWAP1 POP JUMP JUMPDEST PUSH1 0x0 PUSH1 0x20 DUP1 DUP4 DUP6 SUB SLT ISZERO PUSH2 0x1F22 JUMPI PUSH1 0x0 DUP1 REVERT JUMPDEST DUP3 CALLDATALOAD PUSH1 0x1 PUSH1 0x1 PUSH1 0x40 SHL SUB DUP1 DUP3 GT ISZERO PUSH2 0x1F39 JUMPI PUSH1 0x0 DUP1 REVERT JUMPDEST DUP2 DUP6 ADD SWAP2 POP DUP6 PUSH1 0x1F DUP4 ADD SLT PUSH2 0x1F4D JUMPI PUSH1 0x0 DUP1 REVERT JUMPDEST DUP2 CALLDATALOAD DUP2 DUP2 GT ISZERO PUSH2 0x1F5F JUMPI PUSH2 0x1F5F PUSH2 0x1EA1 JUMP JUMPDEST PUSH2 0x1F71 PUSH1 0x1F DUP3 ADD PUSH1 0x1F NOT AND DUP6 ADD PUSH2 0x1EDF JUMP JUMPDEST SWAP2 POP DUP1 DUP3 MSTORE DUP7 DUP5 DUP3 DUP6 ADD ADD GT ISZERO PUSH2 0x1F87 JUMPI PUSH1 0x0 DUP1 REVERT JUMPDEST DUP1 DUP5 DUP5 ADD DUP6 DUP5 ADD CALLDATACOPY PUSH1 0x0 SWAP1 DUP3 ADD SWAP1 SWAP4 ADD SWAP3 SWAP1 SWAP3 MSTORE POP SWAP4 SWAP3 POP POP POP JUMP JUMPDEST PUSH1 0x0 JUMPDEST DUP4 DUP2 LT ISZERO PUSH2 0x1FBE JUMPI DUP2 DUP2 ADD MLOAD DUP4 DUP3 ADD MSTORE PUSH1 0x20 ADD PUSH2 0x1FA6 JUMP JUMPDEST POP POP PUSH1 0x0 SWAP2 ADD MSTORE JUMP JUMPDEST PUSH1 0x0 DUP2 MLOAD DUP1 DUP5 MSTORE PUSH2 0x1FDF DUP2 PUSH1 0x20 DUP7 ADD PUSH1 0x20 DUP7 ADD PUSH2 0x1FA3 JUMP JUMPDEST PUSH1 0x1F ADD PUSH1 0x1F NOT AND SWAP3 SWAP1 SWAP3 ADD PUSH1 0x20 ADD SWAP3 SWAP2 POP POP JUMP JUMPDEST DUP1 MLOAD DUP3 MSTORE PUSH1 0x0 PUSH1 0x20 DUP3 ADD MLOAD PUSH1 0x40 PUSH1 0x20 DUP6 ADD MSTORE PUSH2 0x2012 PUSH1 0x40 DUP6 ADD DUP3 PUSH2 0x1FC7 JUMP JUMPDEST SWAP5 SWAP4 POP POP POP POP JUMP JUMPDEST PUSH1 0x20 DUP2 MSTORE PUSH1 0x0 PUSH2 0x1C87 PUSH1 0x20 DUP4 ADD DUP5 PUSH2 0x1FF3 JUMP JUMPDEST PUSH1 0x0 DUP1 PUSH1 0x40 DUP4 DUP6 SUB SLT ISZERO PUSH2 0x2040 JUMPI PUSH1 0x0 DUP1 REVERT JUMPDEST DUP3 CALLDATALOAD SWAP2 POP PUSH2 0x2050 PUSH1 0x20 DUP5 ADD PUSH2 0x1E40 JUMP JUMPDEST SWAP1 POP SWAP3 POP SWAP3 SWAP1 POP JUMP JUMPDEST PUSH1 0x0 PUSH1 0x1 PUSH1 0x1 PUSH1 0x40 SHL SUB DUP3 GT ISZERO PUSH2 0x2072 JUMPI PUSH2 0x2072 PUSH2 0x1EA1 JUMP JUMPDEST POP PUSH1 0x5 SHL PUSH1 0x20 ADD SWAP1 JUMP JUMPDEST PUSH1 0x0 DUP1 PUSH1 0x40 DUP4 DUP6 SUB SLT ISZERO PUSH2 0x208F JUMPI PUSH1 0x0 DUP1 REVERT JUMPDEST DUP3 CALLDATALOAD PUSH1 0x1 PUSH1 0x1 PUSH1 0x40 SHL SUB DUP2 GT ISZERO PUSH2 0x20A5 JUMPI PUSH1 0x0 DUP1 REVERT JUMPDEST DUP4 ADD PUSH1 0x1F DUP2 ADD DUP6 SGT PUSH2 0x20B6 JUMPI PUSH1 0x0 DUP1 REVERT JUMPDEST DUP1 CALLDATALOAD PUSH1 0x20 PUSH2 0x20CB PUSH2 0x20C6 DUP4 PUSH2 0x2059 JUMP JUMPDEST PUSH2 0x1EDF JUMP JUMPDEST DUP3 DUP2 MSTORE PUSH1 0x5 SWAP3 SWAP1 SWAP3 SHL DUP4 ADD DUP2 ADD SWAP2 DUP2 DUP2 ADD SWAP1 DUP9 DUP5 GT ISZERO PUSH2 0x20EA JUMPI PUSH1 0x0 DUP1 REVERT JUMPDEST SWAP4 DUP3 ADD SWAP4 JUMPDEST DUP4 DUP6 LT ISZERO PUSH2 0x2108 JUMPI DUP5 CALLDATALOAD DUP3 MSTORE SWAP4 DUP3 ADD SWAP4 SWAP1 DUP3 ADD SWAP1 PUSH2 0x20EF JUMP JUMPDEST SWAP6 POP PUSH2 0x2117 SWAP1 POP DUP7 DUP3 ADD PUSH2 0x1E40 JUMP JUMPDEST SWAP4 POP POP POP POP SWAP3 POP SWAP3 SWAP1 POP JUMP JUMPDEST PUSH1 0x0 PUSH1 0x20 DUP1 DUP4 ADD DUP2 DUP5 MSTORE DUP1 DUP6 MLOAD DUP1 DUP4 MSTORE PUSH1 0x40 DUP7 ADD SWAP2 POP PUSH1 0x40 DUP2 PUSH1 0x5 SHL DUP8 ADD ADD SWAP3 POP DUP4 DUP8 ADD PUSH1 0x0 JUMPDEST DUP3 DUP2 LT ISZERO PUSH2 0x2178 JUMPI PUSH1 0x3F NOT DUP9 DUP7 SUB ADD DUP5 MSTORE PUSH2 0x2166 DUP6 DUP4 MLOAD PUSH2 0x1FF3 JUMP JUMPDEST SWAP5 POP SWAP3 DUP6 ADD SWAP3 SWAP1 DUP6 ADD SWAP1 PUSH1 0x1 ADD PUSH2 0x214A JUMP JUMPDEST POP SWAP3 SWAP8 SWAP7 POP POP POP POP POP POP POP JUMP JUMPDEST PUSH1 0x0 PUSH1 0x20 DUP1 DUP4 DUP6 SUB SLT ISZERO PUSH2 0x2198 JUMPI PUSH1 0x0 DUP1 REVERT JUMPDEST DUP3 CALLDATALOAD PUSH1 0x1 PUSH1 0x1 PUSH1 0x40 SHL SUB DUP1 DUP3 GT ISZERO PUSH2 0x21AF JUMPI PUSH1 0x0 DUP1 REVERT JUMPDEST DUP2 DUP6 ADD SWAP2 POP DUP6 PUSH1 0x1F DUP4 ADD SLT PUSH2 0x21C3 JUMPI PUSH1 0x0 DUP1 REVERT JUMPDEST DUP2 CALLDATALOAD PUSH2 0x21D1 PUSH2 0x20C6 DUP3 PUSH2 0x2059 JUMP JUMPDEST DUP2 DUP2 MSTORE PUSH1 0x5 SWAP2 SWAP1 SWAP2 SHL DUP4 ADD DUP5 ADD SWAP1 DUP5 DUP2 ADD SWAP1 DUP9 DUP4 GT ISZERO PUSH2 0x21F0 JUMPI PUSH1 0x0 DUP1 REVERT JUMPDEST DUP6 DUP6 ADD JUMPDEST DUP4 DUP2 LT ISZERO PUSH2 0x22B5 JUMPI DUP1 CALLDATALOAD DUP6 DUP2 GT ISZERO PUSH2 0x220C JUMPI PUSH1 0x0 DUP1 DUP2 REVERT JUMPDEST DUP7 ADD DUP1 DUP12 SUB PUSH1 0x1F NOT ADD DUP9 SGT ISZERO PUSH2 0x2222 JUMPI PUSH1 0x0 DUP1 DUP2 REVERT JUMPDEST PUSH2 0x222A PUSH2 0x1EB7 JUMP JUMPDEST DUP9 DUP3 ADD CALLDATALOAD DUP8 DUP2 GT ISZERO PUSH2 0x223C JUMPI PUSH1 0x0 DUP1 DUP2 REVERT JUMPDEST DUP1 DUP4 ADD SWAP3 POP POP DUP12 PUSH1 0x3F DUP4 ADD SLT PUSH2 0x2252 JUMPI PUSH1 0x0 DUP1 DUP2 REVERT JUMPDEST DUP9 DUP3 ADD CALLDATALOAD PUSH1 0x40 PUSH2 0x2264 PUSH2 0x20C6 DUP4 PUSH2 0x2059 JUMP JUMPDEST DUP3 DUP2 MSTORE PUSH1 0x5 SWAP3 SWAP1 SWAP3 SHL DUP5 ADD DUP2 ADD SWAP2 DUP12 DUP2 ADD SWAP1 DUP16 DUP5 GT ISZERO PUSH2 0x2284 JUMPI PUSH1 0x0 DUP1 DUP2 REVERT JUMPDEST SWAP5 DUP3 ADD SWAP5 JUMPDEST DUP4 DUP7 LT ISZERO PUSH2 0x22A2 JUMPI DUP6 CALLDATALOAD DUP3 MSTORE SWAP5 DUP13 ADD SWAP5 SWAP1 DUP13 ADD SWAP1 PUSH2 0x2289 JUMP JUMPDEST DUP5 MSTORE POP POP POP DUP5 MSTORE POP SWAP2 DUP7 ADD SWAP2 DUP7 ADD PUSH2 0x21F4 JUMP JUMPDEST POP SWAP9 SWAP8 POP POP POP POP POP POP POP POP JUMP JUMPDEST PUSH1 0x0 DUP2 MLOAD DUP1 DUP5 MSTORE PUSH1 0x20 DUP1 DUP6 ADD SWAP5 POP DUP1 DUP5 ADD PUSH1 0x0 JUMPDEST DUP4 DUP2 LT ISZERO PUSH2 0x22F2 JUMPI DUP2 MLOAD DUP8 MSTORE SWAP6 DUP3 ADD SWAP6 SWAP1 DUP3 ADD SWAP1 PUSH1 0x1 ADD PUSH2 0x22D6 JUMP JUMPDEST POP SWAP5 SWAP6 SWAP5 POP POP POP POP POP JUMP JUMPDEST PUSH1 0x0 PUSH1 0x20 DUP1 DUP4 ADD DUP2 DUP5 MSTORE DUP1 DUP6 MLOAD DUP1 DUP4 MSTORE PUSH1 0x40 DUP7 ADD SWAP2 POP PUSH1 0x40 DUP2 PUSH1 0x5 SHL DUP8 ADD ADD SWAP3 POP DUP4 DUP8 ADD PUSH1 0x0 JUMPDEST DUP3 DUP2 LT ISZERO PUSH2 0x2178 JUMPI PUSH1 0x3F NOT DUP9 DUP7 SUB ADD DUP5 MSTORE PUSH2 0x2340 DUP6 DUP4 MLOAD PUSH2 0x22C2 JUMP JUMPDEST SWAP5 POP SWAP3 DUP6 ADD SWAP3 SWAP1 DUP6 ADD SWAP1 PUSH1 0x1 ADD PUSH2 0x2324 JUMP JUMPDEST PUSH1 0x0 PUSH1 0x20 DUP3 DUP5 SUB SLT ISZERO PUSH2 0x2364 JUMPI PUSH1 0x0 DUP1 REVERT JUMPDEST POP CALLDATALOAD SWAP2 SWAP1 POP JUMP JUMPDEST PUSH1 0x20 DUP2 MSTORE PUSH1 0x0 PUSH2 0x1C87 PUSH1 0x20 DUP4 ADD DUP5 PUSH2 0x22C2 JUMP JUMPDEST DUP3 DUP2 MSTORE PUSH1 0x40 PUSH1 0x20 DUP3 ADD MSTORE PUSH1 0x0 PUSH2 0x2012 PUSH1 0x40 DUP4 ADD DUP5 PUSH2 0x1FC7 JUMP JUMPDEST PUSH1 0x0 PUSH1 0x20 DUP1 DUP4 ADD DUP2 DUP5 MSTORE DUP1 DUP6 MLOAD DUP1 DUP4 MSTORE PUSH1 0x40 DUP7 ADD SWAP2 POP PUSH1 0x40 DUP2 PUSH1 0x5 SHL DUP8 ADD ADD SWAP3 POP DUP4 DUP8 ADD PUSH1 0x0 JUMPDEST DUP3 DUP2 LT ISZERO PUSH2 0x2178 JUMPI DUP8 DUP6 SUB PUSH1 0x3F NOT ADD DUP5 MSTORE DUP2 MLOAD MLOAD DUP7 DUP7 MSTORE PUSH2 0x23E1 DUP8 DUP8 ADD DUP3 PUSH2 0x22C2 JUMP JUMPDEST SWAP6 POP POP SWAP3 DUP6 ADD SWAP3 SWAP1 DUP6 ADD SWAP1 PUSH1 0x1 ADD PUSH2 0x23BE JUMP JUMPDEST PUSH4 0x4E487B71 PUSH1 0xE0 SHL PUSH1 0x0 MSTORE PUSH1 0x32 PUSH1 0x4 MSTORE PUSH1 0x24 PUSH1 0x0 REVERT JUMPDEST PUSH4 0x4E487B71 PUSH1 0xE0 SHL PUSH1 0x0 MSTORE PUSH1 0x11 PUSH1 0x4 MSTORE PUSH1 0x24 PUSH1 0x0 REVERT JUMPDEST PUSH1 0x0 PUSH1 0x1 DUP3 ADD PUSH2 0x2432 JUMPI PUSH2 0x2432 PUSH2 0x240A JUMP JUMPDEST POP PUSH1 0x1 ADD SWAP1 JUMP JUMPDEST DUP2 DUP2 SUB DUP2 DUP2 GT ISZERO PUSH2 0x885 JUMPI PUSH2 0x885 PUSH2 0x240A JUMP JUMPDEST DUP1 DUP3 ADD DUP1 DUP3 GT ISZERO PUSH2 0x885 JUMPI PUSH2 0x885 PUSH2 0x240A JUMP JUMPDEST PUSH1 0x1 DUP2 DUP2 SHR SWAP1 DUP3 AND DUP1 PUSH2 0x2473 JUMPI PUSH1 0x7F DUP3 AND SWAP2 POP JUMPDEST PUSH1 0x20 DUP3 LT DUP2 SUB PUSH2 0xB68 JUMPI PUSH4 0x4E487B71 PUSH1 0xE0 SHL PUSH1 0x0 MSTORE PUSH1 0x22 PUSH1 0x4 MSTORE PUSH1 0x24 PUSH1 0x0 REVERT JUMPDEST PUSH1 0x1F DUP3 GT ISZERO PUSH2 0x24DD JUMPI PUSH1 0x0 DUP2 DUP2 MSTORE PUSH1 0x20 DUP2 KECCAK256 PUSH1 0x1F DUP6 ADD PUSH1 0x5 SHR DUP2 ADD PUSH1 0x20 DUP7 LT ISZERO PUSH2 0x24BA JUMPI POP DUP1 JUMPDEST PUSH1 0x1F DUP6 ADD PUSH1 0x5 SHR DUP3 ADD SWAP2 POP JUMPDEST DUP2 DUP2 LT ISZERO PUSH2 0x24D9 JUMPI DUP3 DUP2 SSTORE PUSH1 0x1 ADD PUSH2 0x24C6 JUMP JUMPDEST POP POP POP JUMPDEST POP POP POP JUMP JUMPDEST DUP2 MLOAD PUSH1 0x1 PUSH1 0x1 PUSH1 0x40 SHL SUB DUP2 GT ISZERO PUSH2 0x24FB JUMPI PUSH2 0x24FB PUSH2 0x1EA1 JUMP JUMPDEST PUSH2 0x250F DUP2 PUSH2 0x2509 DUP5 SLOAD PUSH2 0x245F JUMP JUMPDEST DUP5 PUSH2 0x2493 JUMP JUMPDEST PUSH1 0x20 DUP1 PUSH1 0x1F DUP4 GT PUSH1 0x1 DUP2 EQ PUSH2 0x2544 JUMPI PUSH1 0x0 DUP5 ISZERO PUSH2 0x252C JUMPI POP DUP6 DUP4 ADD MLOAD JUMPDEST PUSH1 0x0 NOT PUSH1 0x3 DUP7 SWAP1 SHL SHR NOT AND PUSH1 0x1 DUP6 SWAP1 SHL OR DUP6 SSTORE PUSH2 0x24D9 JUMP JUMPDEST PUSH1 0x0 DUP6 DUP2 MSTORE PUSH1 0x20 DUP2 KECCAK256 PUSH1 0x1F NOT DUP7 AND SWAP2 JUMPDEST DUP3 DUP2 LT ISZERO PUSH2 0x2573 JUMPI DUP9 DUP7 ADD MLOAD DUP3 SSTORE SWAP5 DUP5 ADD SWAP5 PUSH1 0x1 SWAP1 SWAP2 ADD SWAP1 DUP5 ADD PUSH2 0x2554 JUMP JUMPDEST POP DUP6 DUP3 LT ISZERO PUSH2 0x2591 JUMPI DUP8 DUP6 ADD MLOAD PUSH1 0x0 NOT PUSH1 0x3 DUP9 SWAP1 SHL PUSH1 0xF8 AND SHR NOT AND DUP2 SSTORE JUMPDEST POP POP POP POP POP PUSH1 0x1 SWAP1 DUP2 SHL ADD SWAP1 SSTORE POP JUMP JUMPDEST DUP4 DUP2 MSTORE PUSH1 0x60 PUSH1 0x20 DUP3 ADD MSTORE PUSH1 0x0 PUSH2 0x25BA PUSH1 0x60 DUP4 ADD DUP6 PUSH2 0x1FC7 JUMP JUMPDEST SWAP1 POP DUP3 PUSH1 0x40 DUP4 ADD MSTORE SWAP5 SWAP4 POP POP POP POP JUMP JUMPDEST PUSH4 0x4E487B71 PUSH1 0xE0 SHL PUSH1 0x0 MSTORE PUSH1 0x12 PUSH1 0x4 MSTORE PUSH1 0x24 PUSH1 0x0 REVERT JUMPDEST PUSH1 0x0 DUP3 PUSH2 0x25EF JUMPI PUSH2 0x25EF PUSH2 0x25CA JUMP JUMPDEST POP DIV SWAP1 JUMP JUMPDEST PUSH1 0x1 DUP2 DUP2 JUMPDEST DUP1 DUP6 GT ISZERO PUSH2 0x262F JUMPI DUP2 PUSH1 0x0 NOT DIV DUP3 GT ISZERO PUSH2 0x2615 JUMPI PUSH2 0x2615 PUSH2 0x240A JUMP JUMPDEST DUP1 DUP6 AND ISZERO PUSH2 0x2622 JUMPI SWAP2 DUP2 MUL SWAP2 JUMPDEST SWAP4 DUP5 SHR SWAP4 SWAP1 DUP1 MUL SWAP1 PUSH2 0x25F9 JUMP JUMPDEST POP SWAP3 POP SWAP3 SWAP1 POP JUMP JUMPDEST PUSH1 0x0 DUP3 PUSH2 0x2646 JUMPI POP PUSH1 0x1 PUSH2 0x885 JUMP JUMPDEST DUP2 PUSH2 0x2653 JUMPI POP PUSH1 0x0 PUSH2 0x885 JUMP JUMPDEST DUP2 PUSH1 0x1 DUP2 EQ PUSH2 0x2669 JUMPI PUSH1 0x2 DUP2 EQ PUSH2 0x2673 JUMPI PUSH2 0x268F JUMP JUMPDEST PUSH1 0x1 SWAP2 POP POP PUSH2 0x885 JUMP JUMPDEST PUSH1 0xFF DUP5 GT ISZERO PUSH2 0x2684 JUMPI PUSH2 0x2684 PUSH2 0x240A JUMP JUMPDEST POP POP PUSH1 0x1 DUP3 SHL PUSH2 0x885 JUMP JUMPDEST POP PUSH1 0x20 DUP4 LT PUSH2 0x133 DUP4 LT AND PUSH1 0x4E DUP5 LT PUSH1 0xB DUP5 LT AND OR ISZERO PUSH2 0x26B2 JUMPI POP DUP2 DUP2 EXP PUSH2 0x885 JUMP JUMPDEST PUSH2 0x26BC DUP4 DUP4 PUSH2 0x25F4 JUMP JUMPDEST DUP1 PUSH1 0x0 NOT DIV DUP3 GT ISZERO PUSH2 0x26D0 JUMPI PUSH2 0x26D0 PUSH2 0x240A JUMP JUMPDEST MUL SWAP4 SWAP3 POP POP POP JUMP JUMPDEST PUSH1 0x0 PUSH2 0x1C87 DUP4 DUP4 PUSH2 0x2637 JUMP JUMPDEST PUSH1 0x0 DUP3 PUSH2 0x26F3 JUMPI PUSH2 0x26F3 PUSH2 0x25CA JUMP JUMPDEST POP MOD SWAP1 JUMP JUMPDEST PUSH1 0x0 DUP3 MLOAD PUSH2 0x270A DUP2 DUP5 PUSH1 0x20 DUP8 ADD PUSH2 0x1FA3 JUMP JUMPDEST SWAP2 SWAP1 SWAP2 ADD SWAP3 SWAP2 POP POP JUMP JUMPDEST PUSH1 0x0 DUP1 DUP4 SLOAD PUSH2 0x2722 DUP2 PUSH2 0x245F JUMP JUMPDEST PUSH1 0x1 DUP3 DUP2 AND DUP1 ISZERO PUSH2 0x273A JUMPI PUSH1 0x1 DUP2 EQ PUSH2 0x274F JUMPI PUSH2 0x277E JUMP JUMPDEST PUSH1 0xFF NOT DUP5 AND DUP8 MSTORE DUP3 ISZERO ISZERO DUP4 MUL DUP8 ADD SWAP5 POP PUSH2 0x277E JUMP JUMPDEST DUP8 PUSH1 0x0 MSTORE PUSH1 0x20 DUP1 PUSH1 0x0 KECCAK256 PUSH1 0x0 JUMPDEST DUP6 DUP2 LT ISZERO PUSH2 0x2775 JUMPI DUP2 SLOAD DUP11 DUP3 ADD MSTORE SWAP1 DUP5 ADD SWAP1 DUP3 ADD PUSH2 0x275C JUMP JUMPDEST POP POP POP DUP3 DUP8 ADD SWAP5 POP JUMPDEST POP SWAP3 SWAP7 SWAP6 POP POP POP POP POP POP JUMP JUMPDEST PUSH1 0x60 DUP2 MSTORE PUSH1 0x0 PUSH2 0x279D PUSH1 0x60 DUP4 ADD DUP7 PUSH2 0x1FC7 JUMP JUMPDEST PUSH1 0x20 DUP4 ADD SWAP5 SWAP1 SWAP5 MSTORE POP PUSH1 0x40 ADD MSTORE SWAP2 SWAP1 POP JUMP JUMPDEST PUSH1 0x20 DUP2 MSTORE PUSH1 0x0 PUSH2 0x1C87 PUSH1 0x20 DUP4 ADD DUP5 PUSH2 0x1FC7 JUMP INVALID LOG2 PUSH5 0x6970667358 0x22 SLT KECCAK256 PUSH3 0x2F13BD SWAP3 SWAP11 0xE1 SSTORE PUSH20 0x15A28E57E9EB4B612400187CCA347438A68F4200 0xC4 SELFBALANCE DUP12 PUSH5 0x736F6C6343 STOP ADDMOD EQ STOP CALLER "},"methodIdentifiers":{"convertToBytesArray((bytes32[])[])":"5cb65d98","createDepartment(string)":"1b7b8dac","departmentKeyExists(uint256,address)":"9207986f","departmentKeyListExits(uint256[],address)":"36a2bf70","departmentKeys(address,uint256)":"025b7a7c","departmentToOwner(uint256)":"f0dedc86","departments(uint256)":"eaeb60e3","generateMerkleRoot(address)":"063dcdfb","generateMerkleTree(address)":"f771ea2b","getDepartmentIdPosition(uint256,address)":"2c17ea6f","getDepartmentLength(address)":"3bb83b3f","getDepartments()":"5c26b7ca","getMerklePath(uint256)":"6e4d6517","getMerklePathArray(uint256[],address)":"bf8a23f5","merkleRoots(address)":"ae9a6808"}}}}}