{"contracts/EmployeeFactory.sol":{"EmployeeFactory":{"abi":[{"inputs":[{"internalType":"address","name":"_departmentAddress","type":"address"}],"stateMutability":"nonpayable","type":"constructor"},{"anonymous":false,"inputs":[{"indexed":false,"internalType":"uint256","name":"id","type":"uint256"},{"indexed":false,"internalType":"string","name":"phoneNumber","type":"string"},{"indexed":true,"internalType":"address","name":"owner","type":"address"},{"indexed":false,"internalType":"string","name":"role","type":"string"}],"name":"EmployeeCreated","type":"event"},{"anonymous":false,"inputs":[{"indexed":true,"internalType":"uint256","name":"id","type":"uint256"}],"name":"EmployeeDeleted","type":"event"},{"anonymous":false,"inputs":[{"indexed":true,"internalType":"uint256","name":"id","type":"uint256"}],"name":"EmployeeUpdated","type":"event"},{"inputs":[{"internalType":"uint256","name":"_employeeId","type":"uint256"}],"name":"deleteEmployee","outputs":[],"stateMutability":"nonpayable","type":"function"},{"inputs":[],"name":"departmentInstance","outputs":[{"internalType":"contract DepartmentFactory","name":"","type":"address"}],"stateMutability":"view","type":"function"},{"inputs":[{"internalType":"address","name":"","type":"address"},{"internalType":"uint256","name":"","type":"uint256"}],"name":"employeeKeys","outputs":[{"internalType":"uint256","name":"","type":"uint256"}],"stateMutability":"view","type":"function"},{"inputs":[],"name":"employeeMerkleRoot","outputs":[{"internalType":"uint256","name":"","type":"uint256"}],"stateMutability":"view","type":"function"},{"inputs":[{"internalType":"uint256","name":"","type":"uint256"}],"name":"employeeToOwner","outputs":[{"internalType":"address","name":"","type":"address"}],"stateMutability":"view","type":"function"},{"inputs":[{"internalType":"uint256","name":"","type":"uint256"}],"name":"employees","outputs":[{"internalType":"uint256","name":"id","type":"uint256"},{"internalType":"string","name":"name","type":"string"},{"internalType":"string","name":"phoneNumber","type":"string"},{"internalType":"uint256","name":"managerId","type":"uint256"},{"internalType":"string","name":"role","type":"string"}],"stateMutability":"view","type":"function"},{"inputs":[{"internalType":"string","name":"_name","type":"string"},{"internalType":"string","name":"_phoneNumber","type":"string"},{"internalType":"uint256[]","name":"_departmentIds","type":"uint256[]"},{"internalType":"uint256","name":"_managerId","type":"uint256"},{"internalType":"string","name":"_role","type":"string"}],"name":"generateEmployee","outputs":[],"stateMutability":"nonpayable","type":"function"},{"inputs":[],"name":"getEmployees","outputs":[{"components":[{"internalType":"uint256","name":"id","type":"uint256"},{"internalType":"string","name":"name","type":"string"},{"internalType":"string","name":"phoneNumber","type":"string"},{"internalType":"uint256[]","name":"departmentIds","type":"uint256[]"},{"internalType":"uint256","name":"managerId","type":"uint256"},{"internalType":"string","name":"role","type":"string"}],"internalType":"struct EmployeeFactory.Employee[]","name":"","type":"tuple[]"}],"stateMutability":"view","type":"function"},{"inputs":[{"internalType":"address","name":"","type":"address"},{"internalType":"uint256","name":"","type":"uint256"}],"name":"managerKeys","outputs":[{"internalType":"uint256","name":"","type":"uint256"}],"stateMutability":"view","type":"function"},{"inputs":[{"internalType":"uint256","name":"","type":"uint256"}],"name":"managers","outputs":[{"internalType":"uint256","name":"id","type":"uint256"},{"internalType":"string","name":"name","type":"string"},{"internalType":"string","name":"phoneNumber","type":"string"},{"internalType":"uint256","name":"managerId","type":"uint256"},{"internalType":"string","name":"role","type":"string"}],"stateMutability":"view","type":"function"},{"inputs":[{"internalType":"uint256","name":"_employeeId","type":"uint256"},{"internalType":"string","name":"_name","type":"string"},{"internalType":"string","name":"_phoneNumber","type":"string"},{"internalType":"uint256[]","name":"_departmentIds","type":"uint256[]"},{"internalType":"uint256","name":"_managerId","type":"uint256"},{"internalType":"string","name":"_role","type":"string"}],"name":"updateEmployee","outputs":[],"stateMutability":"nonpayable","type":"function"},{"inputs":[{"internalType":"uint256[]","name":"departmentIds","type":"uint256[]"}],"name":"verifyDepartment","outputs":[{"internalType":"string","name":"","type":"string"}],"stateMutability":"nonpayable","type":"function"}],"evm":{"bytecode":{"linkReferences":{},"object":"6080604052601060008190556200001890600a6200018b565b60015560006002553480156200002d57600080fd5b5060405162002d6338038062002d638339810160408190526200005091620001a0565b600480546001600160a01b0319166001600160a01b0392909216919091179055620001cb565b634e487b7160e01b600052601160045260246000fd5b600181815b80851115620000cd578160001904821115620000b157620000b162000076565b80851615620000bf57918102915b93841c939080029062000091565b509250929050565b600082620000e65750600162000185565b81620000f55750600062000185565b81600181146200010e5760028114620001195762000139565b600191505062000185565b60ff8411156200012d576200012d62000076565b50506001821b62000185565b5060208310610133831016604e8410600b84101617156200015e575081810a62000185565b6200016a83836200008c565b806000190482111562000181576200018162000076565b0290505b92915050565b6000620001998383620000d5565b9392505050565b600060208284031215620001b357600080fd5b81516001600160a01b03811681146200019957600080fd5b612b8880620001db6000396000f3fe608060405234801561001057600080fd5b50600436106100b45760003560e01c80634d5d674b116100715780634d5d674b14610180578063500a08aa146101a15780636c643e5e146101b45780637871ae8f146101c757806394d51d60146101d0578063eb17dc49146101e357600080fd5b80631cbc90c7146100b9578063277ca287146100ce5780633d39c260146101145780634739326b146101385780634abefa361461014b5780634d252ead14610160575b600080fd5b6100cc6100c7366004612033565b6101f6565b005b6100f76100dc366004612033565b6009602052600090815260409020546001600160a01b031681565b6040516001600160a01b0390911681526020015b60405180910390f35b610127610122366004612033565b610644565b60405161010b95949392919061209c565b610127610146366004612033565b61080b565b61015361082d565b60405161010b91906120ed565b61017361016e3660046122bd565b610b82565b60405161010b91906122fa565b61019361018e366004612314565b610f55565b60405190815260200161010b565b6004546100f7906001600160a01b031681565b6100cc6101c23660046123bc565b610f86565b61019360035481565b6100cc6101de36600461247b565b611737565b6101936101f1366004612314565b611c59565b60008181526009602052604090205481906001600160a01b0316331461021b57600080fd5b60001960005b336000908152600760205260409020548110156102865733600090815260076020526040902080548591908390811061025c5761025c612532565b90600052602060002001540361027457809150610286565b8061027e8161255e565b915050610221565b5060001981036102dd5760405162461bcd60e51b815260206004820152601b60248201527f54686520656d706c6f79656520646f6573206e6f74206578697374000000000060448201526064015b60405180910390fd5b6040516020016103089060208082526007908201526626b0b730b3b2b960c91b604082015260600190565b604051602081830303815290604052805190602001206005600085815260200190815260200160002060050160405160200161034491906125ab565b6040516020818303038152906040528051906020012003610521576000805b3360009081526007602052604090205481101561041d57336000908152600760205260408120805487926005929091859081106103a2576103a2612532565b90600052602060002001548152602001908152602001600020600401540361040b5733600090815260076020526040812080546005918391859081106103ea576103ea612532565b90600052602060002001548152602001908152602001600020600401819055505b806104158161255e565b915050610363565b5060005b336000908152600860205260409020548110156104825733600090815260086020526040902080548691908390811061045c5761045c612532565b906000526020600020015403610470578091505b8061047a8161255e565b915050610421565b5033600090815260086020526040902080546104a090600190612636565b815481106104b0576104b0612532565b6000918252602080832090910154338352600890915260409091208054839081106104dd576104dd612532565b60009182526020808320909101929092553381526008909152604090208054806105095761050961264f565b60019003818190600052602060002001600090559055505b6000818152600560205260408120818155906105406001830182611f3b565b61054e600283016000611f3b565b61055c600383016000611f75565b60048201600090556005820160006105749190611f3b565b5050336000908152600760205260409020805461059390600190612636565b815481106105a3576105a3612532565b6000918252602080832090910154338352600790915260409091208054839081106105d0576105d0612532565b60009182526020808320909101929092553381526007909152604090208054806105fc576105fc61264f565b60019003818190600052602060002001600090559055827fa89a67b24ae06befcf89d45d10287b1cdd7a3a494ba14df282fca0d57fe4fe1f60405160405180910390a2505050565b6006602052600090815260409020805460018201805491929161066690612577565b80601f016020809104026020016040519081016040528092919081815260200182805461069290612577565b80156106df5780601f106106b4576101008083540402835291602001916106df565b820191906000526020600020905b8154815290600101906020018083116106c257829003601f168201915b5050505050908060020180546106f490612577565b80601f016020809104026020016040519081016040528092919081815260200182805461072090612577565b801561076d5780601f106107425761010080835404028352916020019161076d565b820191906000526020600020905b81548152906001019060200180831161075057829003601f168201915b50505050509080600401549080600501805461078890612577565b80601f01602080910402602001604051908101604052809291908181526020018280546107b490612577565b80156108015780601f106107d657610100808354040283529160200191610801565b820191906000526020600020905b8154815290600101906020018083116107e457829003601f168201915b5050505050905085565b6005602052600090815260409020805460018201805491929161066690612577565b336000908152600760205260408120546060919067ffffffffffffffff811115610859576108596121e7565b6040519080825280602002602001820160405280156108c357816020015b6108b06040518060c001604052806000815260200160608152602001606081526020016060815260200160008152602001606081525090565b8152602001906001900390816108775790505b50905060005b33600090815260076020526040902054811015610b7c57336000908152600760205260408120805460059291908490811061090657610906612532565b906000526020600020015481526020019081526020016000206040518060c00160405290816000820154815260200160018201805461094490612577565b80601f016020809104026020016040519081016040528092919081815260200182805461097090612577565b80156109bd5780601f10610992576101008083540402835291602001916109bd565b820191906000526020600020905b8154815290600101906020018083116109a057829003601f168201915b505050505081526020016002820180546109d690612577565b80601f0160208091040260200160405190810160405280929190818152602001828054610a0290612577565b8015610a4f5780601f10610a2457610100808354040283529160200191610a4f565b820191906000526020600020905b815481529060010190602001808311610a3257829003601f168201915b5050505050815260200160038201805480602002602001604051908101604052809291908181526020018280548015610aa757602002820191906000526020600020905b815481526020019060010190808311610a93575b5050505050815260200160048201548152602001600582018054610aca90612577565b80601f0160208091040260200160405190810160405280929190818152602001828054610af690612577565b8015610b435780601f10610b1857610100808354040283529160200191610b43565b820191906000526020600020905b815481529060010190602001808311610b2657829003601f168201915b505050505081525050828281518110610b5e57610b5e612532565b60200260200101819052508080610b749061255e565b9150506108c9565b50919050565b6004805460405163bf8a23f560e01b81526060926000926001600160a01b03169163bf8a23f591610bb7918791339101612665565b600060405180830381865afa158015610bd4573d6000803e3d6000fd5b505050506040513d6000823e601f3d908101601f19168201604052610bfc91908101906126b9565b905060005b8151811015610f09576000848281518110610c1e57610c1e612532565b6020026020010151604051602001610c3891815260200190565b6040516020818303038152906040528051906020012090506000838381518110610c6457610c64612532565b60200260200101515190506000600460009054906101000a90046001600160a01b03166001600160a01b0316632c17ea6f888681518110610ca757610ca7612532565b6020026020010151336040518363ffffffff1660e01b8152600401610cdf9291909182526001600160a01b0316602082015260400190565b602060405180830381865afa158015610cfc573d6000803e3d6000fd5b505050506040513d601f19601f82011682018060405250810190610d2091906127c0565b905060005b610d30600184612636565b811015610e3a57610d426002836127ef565b600003610db45783868681518110610d5c57610d5c612532565b60200260200101518281518110610d7557610d75612532565b6020026020010151604051602001610d97929190918252602082015260400190565b604051602081830303815290604052805190602001209350610e1b565b858581518110610dc657610dc6612532565b60200260200101518181518110610ddf57610ddf612532565b602002602001015184604051602001610e02929190918252602082015260400190565b6040516020818303038152906040528051906020012093505b610e26600283612803565b915080610e328161255e565b915050610d25565b50610e4483611c75565b610e8b858581518110610e5957610e59612532565b6020026020010151600184610e6e9190612636565b81518110610e7e57610e7e612532565b6020026020010151611c75565b848481518110610e9d57610e9d612532565b6020026020010151600183610eb29190612636565b81518110610ec257610ec2612532565b60200260200101518314610ef35750506040805180820190915260018152600360fc1b602082015295945050505050565b5050508080610f019061255e565b915050610c01565b50610f366040518060400160405280600b81526020016a125d081a5cc81c9a59da1d60aa1b815250611cbd565b50506040805180820190915260018152603160f81b6020820152919050565b60086020528160005260406000208181548110610f7157600080fd5b90600052602060002001600091509150505481565b60008681526009602052604090205486906001600160a01b03163314610fab57600080fd5b610fb487611d00565b6110005760405162461bcd60e51b815260206004820152601860248201527f456d706c6f79656520646f6573206e6f7420657869737473000000000000000060448201526064016102d4565b8451156110705761101085611d73565b156110535760405162461bcd60e51b815260206004820152601360248201527250686f6e65206e756d6265722065786973747360681b60448201526064016102d4565b600087815260056020526040902060020161106e8682612866565b505b8551156110945760008781526005602052604090206001016110928782612866565b505b8215611239576110a383611e4e565b801561110057506040516626b0b730b3b2b960c91b602082015260270160405160208183030381529060405280519060200120826040516020016110e79190612926565b6040516020818303038152906040528051906020012014155b61114c5760405162461bcd60e51b815260206004820152601760248201527f4d616e6167657220646f6573206e6f742065786973747300000000000000000060448201526064016102d4565b6040516626b0b730b3b2b960c91b6020820152602701604051602081830303815290604052805190602001206005600089815260200190815260200160002060050160405160200161119e9190612942565b60405160208183030381529060405280519060200120036112345760405167456d706c6f79656560c01b602082015260280160405160208183030381529060405280519060200120826040516020016111f79190612926565b60405160208183030381529060405280519060200120146112345760405162461bcd60e51b815260206004820152600060248201526044016102d4565b61124e565b60008781526005602052604090206004018390555b83511561130a576004805460405163036a2bf760e41b81526001600160a01b03909116916336a2bf7091611286918891339101612665565b602060405180830381865afa1580156112a3573d6000803e3d6000fd5b505050506040513d601f19601f820116820180604052508101906112c791906129b8565b6112e35760405162461bcd60e51b81526004016102d4906129da565b6000878152600560209081526040909120855161130892600390920191870190611f93565b505b815115611703576040516626b0b730b3b2b960c91b6020820152602701604051602081830303815290604052805190602001208260405160200161134e9190612926565b6040516020818303038152906040528051906020012014806113c1575060405167456d706c6f79656560c01b602082015260280160405160208183030381529060405280519060200120826040516020016113a99190612926565b60405160208183030381529060405280519060200120145b61140d5760405162461bcd60e51b815260206004820152601760248201527f54686520726f6c6520646f6573206e6f7420657869737400000000000000000060448201526064016102d4565b6000878152600560208181526040808420905161142f93919091019101612942565b60405160208183030381529060405280519060200120905060008360405160200161145a9190612926565b6040516020818303038152906040528051906020012090506000604051602001611491906626b0b730b3b2b960c91b815260070190565b60405160208183030381529060405280519060200120905060006040516020016114c99067456d706c6f79656560c01b815260080190565b60405160208183030381529060405280519060200120905081841480156114ef57508083145b156116b7576000805b336000908152600760205260409020548110156115b25733600090815260076020526040812080548f9260059290918590811061153757611537612532565b9060005260206000200154815260200190815260200160002060040154036115a057336000908152600760205260408120805460059183918590811061157f5761157f612532565b90600052602060002001548152602001908152602001600020600401819055505b806115aa8161255e565b9150506114f8565b5060005b336000908152600860205260409020548110156116185733600090815260086020526040902080548e9190839081106115f1576115f1612532565b90600052602060002001540361160657600091505b806116108161255e565b9150506115b6565b50336000908152600860205260409020805461163690600190612636565b8154811061164657611646612532565b60009182526020808320909101543383526008909152604090912080548390811061167357611673612532565b600091825260208083209091019290925533815260089091526040902080548061169f5761169f61264f565b60019003818190600052602060002001600090559055505b60008b8152600560208190526040909120016116d38782612866565b508184036116fe57336000908152600860209081526040822080546001810182559083529120018b90555b505050505b60405187907f7a4ee20c8f1d1bc09d61fe1c943b32d59649d9040f6831a859bd9e40a9219b1390600090a250505050505050565b61174084611d73565b156117835760405162461bcd60e51b815260206004820152601360248201527250686f6e65206e756d6265722065786973747360681b60448201526064016102d4565b6004805460405163036a2bf760e41b81526001600160a01b03909116916336a2bf70916117b4918791339101612665565b602060405180830381865afa1580156117d1573d6000803e3d6000fd5b505050506040513d601f19601f820116820180604052508101906117f591906129b8565b6118115760405162461bcd60e51b81526004016102d4906129da565b6040516626b0b730b3b2b960c91b6020820152602701604051602081830303815290604052805190602001208160405160200161184e9190612926565b6040516020818303038152906040528051906020012003611a6c57811561189f5760405162461bcd60e51b815260206004820152600560248201526422b93937b960d91b60448201526064016102d4565b60006118aa85611eb8565b6040805160c08101825282815260208082018a81528284018a9052606083018990526080830188905260a08301879052600085815260059092529290208151815591519293509160018201906119009082612866565b50604082015160028201906119159082612866565b5060608201518051611931916003840191602090910190611f93565b506080820151600482015560a082015160058201906119509082612866565b50503360009081526007602090815260408083208054600181810183559185528385200186905585845260058352818420600690935292208154815590925090818101906119a090840182612a23565b506002818101906119b390840182612a23565b50600382810180546119c89284019190611fde565b5060048201548160040155600582018160050190816119e79190612a23565b505033600081815260086020908152604080832080546001810182559084528284200186905585835260099091529081902080546001600160a01b03191683179055519091507f5b4e466541672a9286c9f94344f25f8b855a47a46b60a29d8b5edbc42277aaf590611a5e90849089908790612af6565b60405180910390a250611c52565b60405167456d706c6f79656560c01b60208201526028016040516020818303038152906040528051906020012081604051602001611aaa9190612926565b6040516020818303038152906040528051906020012003611c52578115611b2057611ad482611e4e565b611b205760405162461bcd60e51b815260206004820152601960248201527f446f6e27742065786973747320746865206d616e61676572200000000000000060448201526064016102d4565b6000611b2b85611eb8565b6040805160c08101825282815260208082018a81528284018a9052606083018990526080830188905260a0830187905260008581526005909252929020815181559151929350916001820190611b819082612866565b5060408201516002820190611b969082612866565b5060608201518051611bb2916003840191602090910190611f93565b506080820151600482015560a08201516005820190611bd19082612866565b505033600081815260076020908152604080832080546001810182559084528284200186905585835260099091529081902080546001600160a01b03191683179055519091507f5b4e466541672a9286c9f94344f25f8b855a47a46b60a29d8b5edbc42277aaf590611c4890849089908790612af6565b60405180910390a2505b5050505050565b60076020528160005260406000208181548110610f7157600080fd5b611cba81604051602401611c8b91815260200190565b60408051601f198184030181529190526020810180516001600160e01b03166327b7cf8560e01b179052611f16565b50565b611cba81604051602401611cd191906122fa565b60408051601f198184030181529190526020810180516001600160e01b031663104c13eb60e21b179052611f16565b6000805b33600090815260076020526040902054811015611d6a57336000908152600760205260409020805484919083908110611d3f57611d3f612532565b906000526020600020015403611d585750600192915050565b80611d628161255e565b915050611d04565b50600092915050565b60008082604051602001611d879190612926565b60405160208183030381529060405280519060200120905060005b33600090815260076020526040902054811015611e445733600090815260076020526040812080548492600592909185908110611de157611de1612532565b90600052602060002001548152602001908152602001600020600201604051602001611e0d9190612942565b6040516020818303038152906040528051906020012003611e32575060019392505050565b80611e3c8161255e565b915050611da2565b5060009392505050565b6000805b33600090815260086020526040902054811015611d6a57336000908152600860205260409020805484919083908110611e8d57611e8d612532565b906000526020600020015403611ea65750600192915050565b80611eb08161255e565b915050611e52565b6000806001548360025442604051602001611ed593929190612b2b565b6040516020818303038152906040528051906020012060001c611ef891906127ef565b600280549192506000611f0a8361255e565b90915550909392505050565b611cba8160006a636f6e736f6c652e6c6f679050600080835160208501845afa505050565b508054611f4790612577565b6000825580601f10611f57575050565b601f016020900490600052602060002090810190611cba919061201e565b5080546000825590600052602060002090810190611cba919061201e565b828054828255906000526020600020908101928215611fce579160200282015b82811115611fce578251825591602001919060010190611fb3565b50611fda92915061201e565b5090565b828054828255906000526020600020908101928215611fce5760005260206000209182015b82811115611fce578254825591600101919060010190612003565b5b80821115611fda576000815560010161201f565b60006020828403121561204557600080fd5b5035919050565b60005b8381101561206757818101518382015260200161204f565b50506000910152565b6000815180845261208881602086016020860161204c565b601f01601f19169290920160200192915050565b85815260a0602082015260006120b560a0830187612070565b82810360408401526120c78187612070565b905084606084015282810360808401526120e18185612070565b98975050505050505050565b60006020808301818452808551808352604092508286019150828160051b8701018488016000805b848110156121d857603f198a8503018652825160c08151865289820151818b88015261214382880182612070565b915050888201518682038a88015261215b8282612070565b606084810151898303918a01919091528051808352908d019350908c01915085905b8082101561219d5783518352928c0192918c01916001919091019061217d565b50506080838101519088015260a092830151878203848901529291506121c38184612070565b988b0198965050509288019250600101612115565b50919998505050505050505050565b634e487b7160e01b600052604160045260246000fd5b604051601f8201601f1916810167ffffffffffffffff81118282101715612226576122266121e7565b604052919050565b600067ffffffffffffffff821115612248576122486121e7565b5060051b60200190565b600082601f83011261226357600080fd5b813560206122786122738361222e565b6121fd565b82815260059290921b8401810191818101908684111561229757600080fd5b8286015b848110156122b2578035835291830191830161229b565b509695505050505050565b6000602082840312156122cf57600080fd5b813567ffffffffffffffff8111156122e657600080fd5b6122f284828501612252565b949350505050565b60208152600061230d6020830184612070565b9392505050565b6000806040838503121561232757600080fd5b82356001600160a01b038116811461233e57600080fd5b946020939093013593505050565b600082601f83011261235d57600080fd5b813567ffffffffffffffff811115612377576123776121e7565b61238a601f8201601f19166020016121fd565b81815284602083860101111561239f57600080fd5b816020850160208301376000918101602001919091529392505050565b60008060008060008060c087890312156123d557600080fd5b86359550602087013567ffffffffffffffff808211156123f457600080fd5b6124008a838b0161234c565b9650604089013591508082111561241657600080fd5b6124228a838b0161234c565b9550606089013591508082111561243857600080fd5b6124448a838b01612252565b94506080890135935060a089013591508082111561246157600080fd5b5061246e89828a0161234c565b9150509295509295509295565b600080600080600060a0868803121561249357600080fd5b853567ffffffffffffffff808211156124ab57600080fd5b6124b789838a0161234c565b965060208801359150808211156124cd57600080fd5b6124d989838a0161234c565b955060408801359150808211156124ef57600080fd5b6124fb89838a01612252565b945060608801359350608088013591508082111561251857600080fd5b506125258882890161234c565b9150509295509295909350565b634e487b7160e01b600052603260045260246000fd5b634e487b7160e01b600052601160045260246000fd5b60006001820161257057612570612548565b5060010190565b600181811c9082168061258b57607f821691505b602082108103610b7c57634e487b7160e01b600052602260045260246000fd5b60006020808352600084546125bf81612577565b808487015260406001808416600081146125e057600181146125fa57612628565b60ff1985168984015283151560051b890183019550612628565b896000528660002060005b858110156126205781548b8201860152908301908801612605565b8a0184019650505b509398975050505050505050565b8181038181111561264957612649612548565b92915050565b634e487b7160e01b600052603160045260246000fd5b604080825283519082018190526000906020906060840190828701845b8281101561269e57815184529284019290840190600101612682565b5050506001600160a01b039490941692019190915250919050565b600060208083850312156126cc57600080fd5b825167ffffffffffffffff808211156126e457600080fd5b818501915085601f8301126126f857600080fd5b81516127066122738261222e565b818152600591821b840185019185820191908984111561272557600080fd5b8686015b848110156127b1578051868111156127415760008081fd5b8701603f81018c136127535760008081fd5b8881015160406127656122738361222e565b82815291851b83018101918b8101908f8411156127825760008081fd5b938201935b838510156127a05784518252938c0193908c0190612787565b885250505093880193508701612729565b50909998505050505050505050565b6000602082840312156127d257600080fd5b5051919050565b634e487b7160e01b600052601260045260246000fd5b6000826127fe576127fe6127d9565b500690565b600082612812576128126127d9565b500490565b601f82111561286157600081815260208120601f850160051c8101602086101561283e5750805b601f850160051c820191505b8181101561285d5782815560010161284a565b5050505b505050565b815167ffffffffffffffff811115612880576128806121e7565b6128948161288e8454612577565b84612817565b602080601f8311600181146128c957600084156128b15750858301515b600019600386901b1c1916600185901b17855561285d565b600085815260208120601f198616915b828110156128f8578886015182559484019460019091019084016128d9565b50858210156129165787850151600019600388901b60f8161c191681555b5050505050600190811b01905550565b6000825161293881846020870161204c565b9190910192915050565b600080835461295081612577565b60018281168015612968576001811461297d576129ac565b60ff19841687528215158302870194506129ac565b8760005260208060002060005b858110156129a35781548a82015290840190820161298a565b50505082870194505b50929695505050505050565b6000602082840312156129ca57600080fd5b8151801515811461230d57600080fd5b60208082526029908201527f54686572652069732061206465706172746d656e74207468617420646f6573206040820152681b9bdd08195e1a5cdd60ba1b606082015260800190565b818103612a2e575050565b612a388254612577565b67ffffffffffffffff811115612a5057612a506121e7565b612a5e8161288e8454612577565b6000601f821160018114612a925760008315612a7a5750848201545b600019600385901b1c1916600184901b178455611c52565b600085815260209020601f19841690600086815260209020845b83811015612acc5782860154825560019586019590910190602001612aac565b50858310156129165793015460001960f8600387901b161c19169092555050600190811b01905550565b838152606060208201526000612b0f6060830185612070565b8281036040840152612b218185612070565b9695505050505050565b60008451612b3d81846020890161204c565b9190910192835250602082015260400191905056fea264697066735822122039aa84d1b523ea401189ae3161ae8a69a495c0ae12cb2bd7ff2fc0757be0437864736f6c63430008140033","opcodes":"PUSH1 0x80 PUSH1 0x40 MSTORE PUSH1 0x10 PUSH1 0x0 DUP2 SWAP1 SSTORE PUSH3 0x18 SWAP1 PUSH1 0xA PUSH3 0x18B JUMP JUMPDEST PUSH1 0x1 SSTORE PUSH1 0x0 PUSH1 0x2 SSTORE CALLVALUE DUP1 ISZERO PUSH3 0x2D JUMPI PUSH1 0x0 DUP1 REVERT JUMPDEST POP PUSH1 0x40 MLOAD PUSH3 0x2D63 CODESIZE SUB DUP1 PUSH3 0x2D63 DUP4 CODECOPY DUP2 ADD PUSH1 0x40 DUP2 SWAP1 MSTORE PUSH3 0x50 SWAP2 PUSH3 0x1A0 JUMP JUMPDEST PUSH1 0x4 DUP1 SLOAD PUSH1 0x1 PUSH1 0x1 PUSH1 0xA0 SHL SUB NOT AND PUSH1 0x1 PUSH1 0x1 PUSH1 0xA0 SHL SUB SWAP3 SWAP1 SWAP3 AND SWAP2 SWAP1 SWAP2 OR SWAP1 SSTORE PUSH3 0x1CB JUMP JUMPDEST PUSH4 0x4E487B71 PUSH1 0xE0 SHL PUSH1 0x0 MSTORE PUSH1 0x11 PUSH1 0x4 MSTORE PUSH1 0x24 PUSH1 0x0 REVERT JUMPDEST PUSH1 0x1 DUP2 DUP2 JUMPDEST DUP1 DUP6 GT ISZERO PUSH3 0xCD JUMPI DUP2 PUSH1 0x0 NOT DIV DUP3 GT ISZERO PUSH3 0xB1 JUMPI PUSH3 0xB1 PUSH3 0x76 JUMP JUMPDEST DUP1 DUP6 AND ISZERO PUSH3 0xBF JUMPI SWAP2 DUP2 MUL SWAP2 JUMPDEST SWAP4 DUP5 SHR SWAP4 SWAP1 DUP1 MUL SWAP1 PUSH3 0x91 JUMP JUMPDEST POP SWAP3 POP SWAP3 SWAP1 POP JUMP JUMPDEST PUSH1 0x0 DUP3 PUSH3 0xE6 JUMPI POP PUSH1 0x1 PUSH3 0x185 JUMP JUMPDEST DUP2 PUSH3 0xF5 JUMPI POP PUSH1 0x0 PUSH3 0x185 JUMP JUMPDEST DUP2 PUSH1 0x1 DUP2 EQ PUSH3 0x10E JUMPI PUSH1 0x2 DUP2 EQ PUSH3 0x119 JUMPI PUSH3 0x139 JUMP JUMPDEST PUSH1 0x1 SWAP2 POP POP PUSH3 0x185 JUMP JUMPDEST PUSH1 0xFF DUP5 GT ISZERO PUSH3 0x12D JUMPI PUSH3 0x12D PUSH3 0x76 JUMP JUMPDEST POP POP PUSH1 0x1 DUP3 SHL PUSH3 0x185 JUMP JUMPDEST POP PUSH1 0x20 DUP4 LT PUSH2 0x133 DUP4 LT AND PUSH1 0x4E DUP5 LT PUSH1 0xB DUP5 LT AND OR ISZERO PUSH3 0x15E JUMPI POP DUP2 DUP2 EXP PUSH3 0x185 JUMP JUMPDEST PUSH3 0x16A DUP4 DUP4 PUSH3 0x8C JUMP JUMPDEST DUP1 PUSH1 0x0 NOT DIV DUP3 GT ISZERO PUSH3 0x181 JUMPI PUSH3 0x181 PUSH3 0x76 JUMP JUMPDEST MUL SWAP1 POP JUMPDEST SWAP3 SWAP2 POP POP JUMP JUMPDEST PUSH1 0x0 PUSH3 0x199 DUP4 DUP4 PUSH3 0xD5 JUMP JUMPDEST SWAP4 SWAP3 POP POP POP JUMP JUMPDEST PUSH1 0x0 PUSH1 0x20 DUP3 DUP5 SUB SLT ISZERO PUSH3 0x1B3 JUMPI PUSH1 0x0 DUP1 REVERT JUMPDEST DUP2 MLOAD PUSH1 0x1 PUSH1 0x1 PUSH1 0xA0 SHL SUB DUP2 AND DUP2 EQ PUSH3 0x199 JUMPI PUSH1 0x0 DUP1 REVERT JUMPDEST PUSH2 0x2B88 DUP1 PUSH3 0x1DB PUSH1 0x0 CODECOPY PUSH1 0x0 RETURN INVALID PUSH1 0x80 PUSH1 0x40 MSTORE CALLVALUE DUP1 ISZERO PUSH2 0x10 JUMPI PUSH1 0x0 DUP1 REVERT JUMPDEST POP PUSH1 0x4 CALLDATASIZE LT PUSH2 0xB4 JUMPI PUSH1 0x0 CALLDATALOAD PUSH1 0xE0 SHR DUP1 PUSH4 0x4D5D674B GT PUSH2 0x71 JUMPI DUP1 PUSH4 0x4D5D674B EQ PUSH2 0x180 JUMPI DUP1 PUSH4 0x500A08AA EQ PUSH2 0x1A1 JUMPI DUP1 PUSH4 0x6C643E5E EQ PUSH2 0x1B4 JUMPI DUP1 PUSH4 0x7871AE8F EQ PUSH2 0x1C7 JUMPI DUP1 PUSH4 0x94D51D60 EQ PUSH2 0x1D0 JUMPI DUP1 PUSH4 0xEB17DC49 EQ PUSH2 0x1E3 JUMPI PUSH1 0x0 DUP1 REVERT JUMPDEST DUP1 PUSH4 0x1CBC90C7 EQ PUSH2 0xB9 JUMPI DUP1 PUSH4 0x277CA287 EQ PUSH2 0xCE JUMPI DUP1 PUSH4 0x3D39C260 EQ PUSH2 0x114 JUMPI DUP1 PUSH4 0x4739326B EQ PUSH2 0x138 JUMPI DUP1 PUSH4 0x4ABEFA36 EQ PUSH2 0x14B JUMPI DUP1 PUSH4 0x4D252EAD EQ PUSH2 0x160 JUMPI JUMPDEST PUSH1 0x0 DUP1 REVERT JUMPDEST PUSH2 0xCC PUSH2 0xC7 CALLDATASIZE PUSH1 0x4 PUSH2 0x2033 JUMP JUMPDEST PUSH2 0x1F6 JUMP JUMPDEST STOP JUMPDEST PUSH2 0xF7 PUSH2 0xDC CALLDATASIZE PUSH1 0x4 PUSH2 0x2033 JUMP JUMPDEST PUSH1 0x9 PUSH1 0x20 MSTORE PUSH1 0x0 SWAP1 DUP2 MSTORE PUSH1 0x40 SWAP1 KECCAK256 SLOAD PUSH1 0x1 PUSH1 0x1 PUSH1 0xA0 SHL SUB AND DUP2 JUMP JUMPDEST PUSH1 0x40 MLOAD PUSH1 0x1 PUSH1 0x1 PUSH1 0xA0 SHL SUB SWAP1 SWAP2 AND DUP2 MSTORE PUSH1 0x20 ADD JUMPDEST PUSH1 0x40 MLOAD DUP1 SWAP2 SUB SWAP1 RETURN JUMPDEST PUSH2 0x127 PUSH2 0x122 CALLDATASIZE PUSH1 0x4 PUSH2 0x2033 JUMP JUMPDEST PUSH2 0x644 JUMP JUMPDEST PUSH1 0x40 MLOAD PUSH2 0x10B SWAP6 SWAP5 SWAP4 SWAP3 SWAP2 SWAP1 PUSH2 0x209C JUMP JUMPDEST PUSH2 0x127 PUSH2 0x146 CALLDATASIZE PUSH1 0x4 PUSH2 0x2033 JUMP JUMPDEST PUSH2 0x80B JUMP JUMPDEST PUSH2 0x153 PUSH2 0x82D JUMP JUMPDEST PUSH1 0x40 MLOAD PUSH2 0x10B SWAP2 SWAP1 PUSH2 0x20ED JUMP JUMPDEST PUSH2 0x173 PUSH2 0x16E CALLDATASIZE PUSH1 0x4 PUSH2 0x22BD JUMP JUMPDEST PUSH2 0xB82 JUMP JUMPDEST PUSH1 0x40 MLOAD PUSH2 0x10B SWAP2 SWAP1 PUSH2 0x22FA JUMP JUMPDEST PUSH2 0x193 PUSH2 0x18E CALLDATASIZE PUSH1 0x4 PUSH2 0x2314 JUMP JUMPDEST PUSH2 0xF55 JUMP JUMPDEST PUSH1 0x40 MLOAD SWAP1 DUP2 MSTORE PUSH1 0x20 ADD PUSH2 0x10B JUMP JUMPDEST PUSH1 0x4 SLOAD PUSH2 0xF7 SWAP1 PUSH1 0x1 PUSH1 0x1 PUSH1 0xA0 SHL SUB AND DUP2 JUMP JUMPDEST PUSH2 0xCC PUSH2 0x1C2 CALLDATASIZE PUSH1 0x4 PUSH2 0x23BC JUMP JUMPDEST PUSH2 0xF86 JUMP JUMPDEST PUSH2 0x193 PUSH1 0x3 SLOAD DUP2 JUMP JUMPDEST PUSH2 0xCC PUSH2 0x1DE CALLDATASIZE PUSH1 0x4 PUSH2 0x247B JUMP JUMPDEST PUSH2 0x1737 JUMP JUMPDEST PUSH2 0x193 PUSH2 0x1F1 CALLDATASIZE PUSH1 0x4 PUSH2 0x2314 JUMP JUMPDEST PUSH2 0x1C59 JUMP JUMPDEST PUSH1 0x0 DUP2 DUP2 MSTORE PUSH1 0x9 PUSH1 0x20 MSTORE PUSH1 0x40 SWAP1 KECCAK256 SLOAD DUP2 SWAP1 PUSH1 0x1 PUSH1 0x1 PUSH1 0xA0 SHL SUB AND CALLER EQ PUSH2 0x21B JUMPI PUSH1 0x0 DUP1 REVERT JUMPDEST PUSH1 0x0 NOT PUSH1 0x0 JUMPDEST CALLER PUSH1 0x0 SWAP1 DUP2 MSTORE PUSH1 0x7 PUSH1 0x20 MSTORE PUSH1 0x40 SWAP1 KECCAK256 SLOAD DUP2 LT ISZERO PUSH2 0x286 JUMPI CALLER PUSH1 0x0 SWAP1 DUP2 MSTORE PUSH1 0x7 PUSH1 0x20 MSTORE PUSH1 0x40 SWAP1 KECCAK256 DUP1 SLOAD DUP6 SWAP2 SWAP1 DUP4 SWAP1 DUP2 LT PUSH2 0x25C JUMPI PUSH2 0x25C PUSH2 0x2532 JUMP JUMPDEST SWAP1 PUSH1 0x0 MSTORE PUSH1 0x20 PUSH1 0x0 KECCAK256 ADD SLOAD SUB PUSH2 0x274 JUMPI DUP1 SWAP2 POP PUSH2 0x286 JUMP JUMPDEST DUP1 PUSH2 0x27E DUP2 PUSH2 0x255E JUMP JUMPDEST SWAP2 POP POP PUSH2 0x221 JUMP JUMPDEST POP PUSH1 0x0 NOT DUP2 SUB PUSH2 0x2DD JUMPI PUSH1 0x40 MLOAD PUSH3 0x461BCD PUSH1 0xE5 SHL DUP2 MSTORE PUSH1 0x20 PUSH1 0x4 DUP3 ADD MSTORE PUSH1 0x1B PUSH1 0x24 DUP3 ADD MSTORE PUSH32 0x54686520656D706C6F79656520646F6573206E6F742065786973740000000000 PUSH1 0x44 DUP3 ADD MSTORE PUSH1 0x64 ADD JUMPDEST PUSH1 0x40 MLOAD DUP1 SWAP2 SUB SWAP1 REVERT JUMPDEST PUSH1 0x40 MLOAD PUSH1 0x20 ADD PUSH2 0x308 SWAP1 PUSH1 0x20 DUP1 DUP3 MSTORE PUSH1 0x7 SWAP1 DUP3 ADD MSTORE PUSH7 0x26B0B730B3B2B9 PUSH1 0xC9 SHL PUSH1 0x40 DUP3 ADD MSTORE PUSH1 0x60 ADD SWAP1 JUMP JUMPDEST PUSH1 0x40 MLOAD PUSH1 0x20 DUP2 DUP4 SUB SUB DUP2 MSTORE SWAP1 PUSH1 0x40 MSTORE DUP1 MLOAD SWAP1 PUSH1 0x20 ADD KECCAK256 PUSH1 0x5 PUSH1 0x0 DUP6 DUP2 MSTORE PUSH1 0x20 ADD SWAP1 DUP2 MSTORE PUSH1 0x20 ADD PUSH1 0x0 KECCAK256 PUSH1 0x5 ADD PUSH1 0x40 MLOAD PUSH1 0x20 ADD PUSH2 0x344 SWAP2 SWAP1 PUSH2 0x25AB JUMP JUMPDEST PUSH1 0x40 MLOAD PUSH1 0x20 DUP2 DUP4 SUB SUB DUP2 MSTORE SWAP1 PUSH1 0x40 MSTORE DUP1 MLOAD SWAP1 PUSH1 0x20 ADD KECCAK256 SUB PUSH2 0x521 JUMPI PUSH1 0x0 DUP1 JUMPDEST CALLER PUSH1 0x0 SWAP1 DUP2 MSTORE PUSH1 0x7 PUSH1 0x20 MSTORE PUSH1 0x40 SWAP1 KECCAK256 SLOAD DUP2 LT ISZERO PUSH2 0x41D JUMPI CALLER PUSH1 0x0 SWAP1 DUP2 MSTORE PUSH1 0x7 PUSH1 0x20 MSTORE PUSH1 0x40 DUP2 KECCAK256 DUP1 SLOAD DUP8 SWAP3 PUSH1 0x5 SWAP3 SWAP1 SWAP2 DUP6 SWAP1 DUP2 LT PUSH2 0x3A2 JUMPI PUSH2 0x3A2 PUSH2 0x2532 JUMP JUMPDEST SWAP1 PUSH1 0x0 MSTORE PUSH1 0x20 PUSH1 0x0 KECCAK256 ADD SLOAD DUP2 MSTORE PUSH1 0x20 ADD SWAP1 DUP2 MSTORE PUSH1 0x20 ADD PUSH1 0x0 KECCAK256 PUSH1 0x4 ADD SLOAD SUB PUSH2 0x40B JUMPI CALLER PUSH1 0x0 SWAP1 DUP2 MSTORE PUSH1 0x7 PUSH1 0x20 MSTORE PUSH1 0x40 DUP2 KECCAK256 DUP1 SLOAD PUSH1 0x5 SWAP2 DUP4 SWAP2 DUP6 SWAP1 DUP2 LT PUSH2 0x3EA JUMPI PUSH2 0x3EA PUSH2 0x2532 JUMP JUMPDEST SWAP1 PUSH1 0x0 MSTORE PUSH1 0x20 PUSH1 0x0 KECCAK256 ADD SLOAD DUP2 MSTORE PUSH1 0x20 ADD SWAP1 DUP2 MSTORE PUSH1 0x20 ADD PUSH1 0x0 KECCAK256 PUSH1 0x4 ADD DUP2 SWAP1 SSTORE POP JUMPDEST DUP1 PUSH2 0x415 DUP2 PUSH2 0x255E JUMP JUMPDEST SWAP2 POP POP PUSH2 0x363 JUMP JUMPDEST POP PUSH1 0x0 JUMPDEST CALLER PUSH1 0x0 SWAP1 DUP2 MSTORE PUSH1 0x8 PUSH1 0x20 MSTORE PUSH1 0x40 SWAP1 KECCAK256 SLOAD DUP2 LT ISZERO PUSH2 0x482 JUMPI CALLER PUSH1 0x0 SWAP1 DUP2 MSTORE PUSH1 0x8 PUSH1 0x20 MSTORE PUSH1 0x40 SWAP1 KECCAK256 DUP1 SLOAD DUP7 SWAP2 SWAP1 DUP4 SWAP1 DUP2 LT PUSH2 0x45C JUMPI PUSH2 0x45C PUSH2 0x2532 JUMP JUMPDEST SWAP1 PUSH1 0x0 MSTORE PUSH1 0x20 PUSH1 0x0 KECCAK256 ADD SLOAD SUB PUSH2 0x470 JUMPI DUP1 SWAP2 POP JUMPDEST DUP1 PUSH2 0x47A DUP2 PUSH2 0x255E JUMP JUMPDEST SWAP2 POP POP PUSH2 0x421 JUMP JUMPDEST POP CALLER PUSH1 0x0 SWAP1 DUP2 MSTORE PUSH1 0x8 PUSH1 0x20 MSTORE PUSH1 0x40 SWAP1 KECCAK256 DUP1 SLOAD PUSH2 0x4A0 SWAP1 PUSH1 0x1 SWAP1 PUSH2 0x2636 JUMP JUMPDEST DUP2 SLOAD DUP2 LT PUSH2 0x4B0 JUMPI PUSH2 0x4B0 PUSH2 0x2532 JUMP JUMPDEST PUSH1 0x0 SWAP2 DUP3 MSTORE PUSH1 0x20 DUP1 DUP4 KECCAK256 SWAP1 SWAP2 ADD SLOAD CALLER DUP4 MSTORE PUSH1 0x8 SWAP1 SWAP2 MSTORE PUSH1 0x40 SWAP1 SWAP2 KECCAK256 DUP1 SLOAD DUP4 SWAP1 DUP2 LT PUSH2 0x4DD JUMPI PUSH2 0x4DD PUSH2 0x2532 JUMP JUMPDEST PUSH1 0x0 SWAP2 DUP3 MSTORE PUSH1 0x20 DUP1 DUP4 KECCAK256 SWAP1 SWAP2 ADD SWAP3 SWAP1 SWAP3 SSTORE CALLER DUP2 MSTORE PUSH1 0x8 SWAP1 SWAP2 MSTORE PUSH1 0x40 SWAP1 KECCAK256 DUP1 SLOAD DUP1 PUSH2 0x509 JUMPI PUSH2 0x509 PUSH2 0x264F JUMP JUMPDEST PUSH1 0x1 SWAP1 SUB DUP2 DUP2 SWAP1 PUSH1 0x0 MSTORE PUSH1 0x20 PUSH1 0x0 KECCAK256 ADD PUSH1 0x0 SWAP1 SSTORE SWAP1 SSTORE POP JUMPDEST PUSH1 0x0 DUP2 DUP2 MSTORE PUSH1 0x5 PUSH1 0x20 MSTORE PUSH1 0x40 DUP2 KECCAK256 DUP2 DUP2 SSTORE SWAP1 PUSH2 0x540 PUSH1 0x1 DUP4 ADD DUP3 PUSH2 0x1F3B JUMP JUMPDEST PUSH2 0x54E PUSH1 0x2 DUP4 ADD PUSH1 0x0 PUSH2 0x1F3B JUMP JUMPDEST PUSH2 0x55C PUSH1 0x3 DUP4 ADD PUSH1 0x0 PUSH2 0x1F75 JUMP JUMPDEST PUSH1 0x4 DUP3 ADD PUSH1 0x0 SWAP1 SSTORE PUSH1 0x5 DUP3 ADD PUSH1 0x0 PUSH2 0x574 SWAP2 SWAP1 PUSH2 0x1F3B JUMP JUMPDEST POP POP CALLER PUSH1 0x0 SWAP1 DUP2 MSTORE PUSH1 0x7 PUSH1 0x20 MSTORE PUSH1 0x40 SWAP1 KECCAK256 DUP1 SLOAD PUSH2 0x593 SWAP1 PUSH1 0x1 SWAP1 PUSH2 0x2636 JUMP JUMPDEST DUP2 SLOAD DUP2 LT PUSH2 0x5A3 JUMPI PUSH2 0x5A3 PUSH2 0x2532 JUMP JUMPDEST PUSH1 0x0 SWAP2 DUP3 MSTORE PUSH1 0x20 DUP1 DUP4 KECCAK256 SWAP1 SWAP2 ADD SLOAD CALLER DUP4 MSTORE PUSH1 0x7 SWAP1 SWAP2 MSTORE PUSH1 0x40 SWAP1 SWAP2 KECCAK256 DUP1 SLOAD DUP4 SWAP1 DUP2 LT PUSH2 0x5D0 JUMPI PUSH2 0x5D0 PUSH2 0x2532 JUMP JUMPDEST PUSH1 0x0 SWAP2 DUP3 MSTORE PUSH1 0x20 DUP1 DUP4 KECCAK256 SWAP1 SWAP2 ADD SWAP3 SWAP1 SWAP3 SSTORE CALLER DUP2 MSTORE PUSH1 0x7 SWAP1 SWAP2 MSTORE PUSH1 0x40 SWAP1 KECCAK256 DUP1 SLOAD DUP1 PUSH2 0x5FC JUMPI PUSH2 0x5FC PUSH2 0x264F JUMP JUMPDEST PUSH1 0x1 SWAP1 SUB DUP2 DUP2 SWAP1 PUSH1 0x0 MSTORE PUSH1 0x20 PUSH1 0x0 KECCAK256 ADD PUSH1 0x0 SWAP1 SSTORE SWAP1 SSTORE DUP3 PUSH32 0xA89A67B24AE06BEFCF89D45D10287B1CDD7A3A494BA14DF282FCA0D57FE4FE1F PUSH1 0x40 MLOAD PUSH1 0x40 MLOAD DUP1 SWAP2 SUB SWAP1 LOG2 POP POP POP JUMP JUMPDEST PUSH1 0x6 PUSH1 0x20 MSTORE PUSH1 0x0 SWAP1 DUP2 MSTORE PUSH1 0x40 SWAP1 KECCAK256 DUP1 SLOAD PUSH1 0x1 DUP3 ADD DUP1 SLOAD SWAP2 SWAP3 SWAP2 PUSH2 0x666 SWAP1 PUSH2 0x2577 JUMP JUMPDEST DUP1 PUSH1 0x1F ADD PUSH1 0x20 DUP1 SWAP2 DIV MUL PUSH1 0x20 ADD PUSH1 0x40 MLOAD SWAP1 DUP2 ADD PUSH1 0x40 MSTORE DUP1 SWAP3 SWAP2 SWAP1 DUP2 DUP2 MSTORE PUSH1 0x20 ADD DUP3 DUP1 SLOAD PUSH2 0x692 SWAP1 PUSH2 0x2577 JUMP JUMPDEST DUP1 ISZERO PUSH2 0x6DF JUMPI DUP1 PUSH1 0x1F LT PUSH2 0x6B4 JUMPI PUSH2 0x100 DUP1 DUP4 SLOAD DIV MUL DUP4 MSTORE SWAP2 PUSH1 0x20 ADD SWAP2 PUSH2 0x6DF JUMP JUMPDEST DUP3 ADD SWAP2 SWAP1 PUSH1 0x0 MSTORE PUSH1 0x20 PUSH1 0x0 KECCAK256 SWAP1 JUMPDEST DUP2 SLOAD DUP2 MSTORE SWAP1 PUSH1 0x1 ADD SWAP1 PUSH1 0x20 ADD DUP1 DUP4 GT PUSH2 0x6C2 JUMPI DUP3 SWAP1 SUB PUSH1 0x1F AND DUP3 ADD SWAP2 JUMPDEST POP POP POP POP POP SWAP1 DUP1 PUSH1 0x2 ADD DUP1 SLOAD PUSH2 0x6F4 SWAP1 PUSH2 0x2577 JUMP JUMPDEST DUP1 PUSH1 0x1F ADD PUSH1 0x20 DUP1 SWAP2 DIV MUL PUSH1 0x20 ADD PUSH1 0x40 MLOAD SWAP1 DUP2 ADD PUSH1 0x40 MSTORE DUP1 SWAP3 SWAP2 SWAP1 DUP2 DUP2 MSTORE PUSH1 0x20 ADD DUP3 DUP1 SLOAD PUSH2 0x720 SWAP1 PUSH2 0x2577 JUMP JUMPDEST DUP1 ISZERO PUSH2 0x76D JUMPI DUP1 PUSH1 0x1F LT PUSH2 0x742 JUMPI PUSH2 0x100 DUP1 DUP4 SLOAD DIV MUL DUP4 MSTORE SWAP2 PUSH1 0x20 ADD SWAP2 PUSH2 0x76D JUMP JUMPDEST DUP3 ADD SWAP2 SWAP1 PUSH1 0x0 MSTORE PUSH1 0x20 PUSH1 0x0 KECCAK256 SWAP1 JUMPDEST DUP2 SLOAD DUP2 MSTORE SWAP1 PUSH1 0x1 ADD SWAP1 PUSH1 0x20 ADD DUP1 DUP4 GT PUSH2 0x750 JUMPI DUP3 SWAP1 SUB PUSH1 0x1F AND DUP3 ADD SWAP2 JUMPDEST POP POP POP POP POP SWAP1 DUP1 PUSH1 0x4 ADD SLOAD SWAP1 DUP1 PUSH1 0x5 ADD DUP1 SLOAD PUSH2 0x788 SWAP1 PUSH2 0x2577 JUMP JUMPDEST DUP1 PUSH1 0x1F ADD PUSH1 0x20 DUP1 SWAP2 DIV MUL PUSH1 0x20 ADD PUSH1 0x40 MLOAD SWAP1 DUP2 ADD PUSH1 0x40 MSTORE DUP1 SWAP3 SWAP2 SWAP1 DUP2 DUP2 MSTORE PUSH1 0x20 ADD DUP3 DUP1 SLOAD PUSH2 0x7B4 SWAP1 PUSH2 0x2577 JUMP JUMPDEST DUP1 ISZERO PUSH2 0x801 JUMPI DUP1 PUSH1 0x1F LT PUSH2 0x7D6 JUMPI PUSH2 0x100 DUP1 DUP4 SLOAD DIV MUL DUP4 MSTORE SWAP2 PUSH1 0x20 ADD SWAP2 PUSH2 0x801 JUMP JUMPDEST DUP3 ADD SWAP2 SWAP1 PUSH1 0x0 MSTORE PUSH1 0x20 PUSH1 0x0 KECCAK256 SWAP1 JUMPDEST DUP2 SLOAD DUP2 MSTORE SWAP1 PUSH1 0x1 ADD SWAP1 PUSH1 0x20 ADD DUP1 DUP4 GT PUSH2 0x7E4 JUMPI DUP3 SWAP1 SUB PUSH1 0x1F AND DUP3 ADD SWAP2 JUMPDEST POP POP POP POP POP SWAP1 POP DUP6 JUMP JUMPDEST PUSH1 0x5 PUSH1 0x20 MSTORE PUSH1 0x0 SWAP1 DUP2 MSTORE PUSH1 0x40 SWAP1 KECCAK256 DUP1 SLOAD PUSH1 0x1 DUP3 ADD DUP1 SLOAD SWAP2 SWAP3 SWAP2 PUSH2 0x666 SWAP1 PUSH2 0x2577 JUMP JUMPDEST CALLER PUSH1 0x0 SWAP1 DUP2 MSTORE PUSH1 0x7 PUSH1 0x20 MSTORE PUSH1 0x40 DUP2 KECCAK256 SLOAD PUSH1 0x60 SWAP2 SWAP1 PUSH8 0xFFFFFFFFFFFFFFFF DUP2 GT ISZERO PUSH2 0x859 JUMPI PUSH2 0x859 PUSH2 0x21E7 JUMP JUMPDEST PUSH1 0x40 MLOAD SWAP1 DUP1 DUP3 MSTORE DUP1 PUSH1 0x20 MUL PUSH1 0x20 ADD DUP3 ADD PUSH1 0x40 MSTORE DUP1 ISZERO PUSH2 0x8C3 JUMPI DUP2 PUSH1 0x20 ADD JUMPDEST PUSH2 0x8B0 PUSH1 0x40 MLOAD DUP1 PUSH1 0xC0 ADD PUSH1 0x40 MSTORE DUP1 PUSH1 0x0 DUP2 MSTORE PUSH1 0x20 ADD PUSH1 0x60 DUP2 MSTORE PUSH1 0x20 ADD PUSH1 0x60 DUP2 MSTORE PUSH1 0x20 ADD PUSH1 0x60 DUP2 MSTORE PUSH1 0x20 ADD PUSH1 0x0 DUP2 MSTORE PUSH1 0x20 ADD PUSH1 0x60 DUP2 MSTORE POP SWAP1 JUMP JUMPDEST DUP2 MSTORE PUSH1 0x20 ADD SWAP1 PUSH1 0x1 SWAP1 SUB SWAP1 DUP2 PUSH2 0x877 JUMPI SWAP1 POP JUMPDEST POP SWAP1 POP PUSH1 0x0 JUMPDEST CALLER PUSH1 0x0 SWAP1 DUP2 MSTORE PUSH1 0x7 PUSH1 0x20 MSTORE PUSH1 0x40 SWAP1 KECCAK256 SLOAD DUP2 LT ISZERO PUSH2 0xB7C JUMPI CALLER PUSH1 0x0 SWAP1 DUP2 MSTORE PUSH1 0x7 PUSH1 0x20 MSTORE PUSH1 0x40 DUP2 KECCAK256 DUP1 SLOAD PUSH1 0x5 SWAP3 SWAP2 SWAP1 DUP5 SWAP1 DUP2 LT PUSH2 0x906 JUMPI PUSH2 0x906 PUSH2 0x2532 JUMP JUMPDEST SWAP1 PUSH1 0x0 MSTORE PUSH1 0x20 PUSH1 0x0 KECCAK256 ADD SLOAD DUP2 MSTORE PUSH1 0x20 ADD SWAP1 DUP2 MSTORE PUSH1 0x20 ADD PUSH1 0x0 KECCAK256 PUSH1 0x40 MLOAD DUP1 PUSH1 0xC0 ADD PUSH1 0x40 MSTORE SWAP1 DUP2 PUSH1 0x0 DUP3 ADD SLOAD DUP2 MSTORE PUSH1 0x20 ADD PUSH1 0x1 DUP3 ADD DUP1 SLOAD PUSH2 0x944 SWAP1 PUSH2 0x2577 JUMP JUMPDEST DUP1 PUSH1 0x1F ADD PUSH1 0x20 DUP1 SWAP2 DIV MUL PUSH1 0x20 ADD PUSH1 0x40 MLOAD SWAP1 DUP2 ADD PUSH1 0x40 MSTORE DUP1 SWAP3 SWAP2 SWAP1 DUP2 DUP2 MSTORE PUSH1 0x20 ADD DUP3 DUP1 SLOAD PUSH2 0x970 SWAP1 PUSH2 0x2577 JUMP JUMPDEST DUP1 ISZERO PUSH2 0x9BD JUMPI DUP1 PUSH1 0x1F LT PUSH2 0x992 JUMPI PUSH2 0x100 DUP1 DUP4 SLOAD DIV MUL DUP4 MSTORE SWAP2 PUSH1 0x20 ADD SWAP2 PUSH2 0x9BD JUMP JUMPDEST DUP3 ADD SWAP2 SWAP1 PUSH1 0x0 MSTORE PUSH1 0x20 PUSH1 0x0 KECCAK256 SWAP1 JUMPDEST DUP2 SLOAD DUP2 MSTORE SWAP1 PUSH1 0x1 ADD SWAP1 PUSH1 0x20 ADD DUP1 DUP4 GT PUSH2 0x9A0 JUMPI DUP3 SWAP1 SUB PUSH1 0x1F AND DUP3 ADD SWAP2 JUMPDEST POP POP POP POP POP DUP2 MSTORE PUSH1 0x20 ADD PUSH1 0x2 DUP3 ADD DUP1 SLOAD PUSH2 0x9D6 SWAP1 PUSH2 0x2577 JUMP JUMPDEST DUP1 PUSH1 0x1F ADD PUSH1 0x20 DUP1 SWAP2 DIV MUL PUSH1 0x20 ADD PUSH1 0x40 MLOAD SWAP1 DUP2 ADD PUSH1 0x40 MSTORE DUP1 SWAP3 SWAP2 SWAP1 DUP2 DUP2 MSTORE PUSH1 0x20 ADD DUP3 DUP1 SLOAD PUSH2 0xA02 SWAP1 PUSH2 0x2577 JUMP JUMPDEST DUP1 ISZERO PUSH2 0xA4F JUMPI DUP1 PUSH1 0x1F LT PUSH2 0xA24 JUMPI PUSH2 0x100 DUP1 DUP4 SLOAD DIV MUL DUP4 MSTORE SWAP2 PUSH1 0x20 ADD SWAP2 PUSH2 0xA4F JUMP JUMPDEST DUP3 ADD SWAP2 SWAP1 PUSH1 0x0 MSTORE PUSH1 0x20 PUSH1 0x0 KECCAK256 SWAP1 JUMPDEST DUP2 SLOAD DUP2 MSTORE SWAP1 PUSH1 0x1 ADD SWAP1 PUSH1 0x20 ADD DUP1 DUP4 GT PUSH2 0xA32 JUMPI DUP3 SWAP1 SUB PUSH1 0x1F AND DUP3 ADD SWAP2 JUMPDEST POP POP POP POP POP DUP2 MSTORE PUSH1 0x20 ADD PUSH1 0x3 DUP3 ADD DUP1 SLOAD DUP1 PUSH1 0x20 MUL PUSH1 0x20 ADD PUSH1 0x40 MLOAD SWAP1 DUP2 ADD PUSH1 0x40 MSTORE DUP1 SWAP3 SWAP2 SWAP1 DUP2 DUP2 MSTORE PUSH1 0x20 ADD DUP3 DUP1 SLOAD DUP1 ISZERO PUSH2 0xAA7 JUMPI PUSH1 0x20 MUL DUP3 ADD SWAP2 SWAP1 PUSH1 0x0 MSTORE PUSH1 0x20 PUSH1 0x0 KECCAK256 SWAP1 JUMPDEST DUP2 SLOAD DUP2 MSTORE PUSH1 0x20 ADD SWAP1 PUSH1 0x1 ADD SWAP1 DUP1 DUP4 GT PUSH2 0xA93 JUMPI JUMPDEST POP POP POP POP POP DUP2 MSTORE PUSH1 0x20 ADD PUSH1 0x4 DUP3 ADD SLOAD DUP2 MSTORE PUSH1 0x20 ADD PUSH1 0x5 DUP3 ADD DUP1 SLOAD PUSH2 0xACA SWAP1 PUSH2 0x2577 JUMP JUMPDEST DUP1 PUSH1 0x1F ADD PUSH1 0x20 DUP1 SWAP2 DIV MUL PUSH1 0x20 ADD PUSH1 0x40 MLOAD SWAP1 DUP2 ADD PUSH1 0x40 MSTORE DUP1 SWAP3 SWAP2 SWAP1 DUP2 DUP2 MSTORE PUSH1 0x20 ADD DUP3 DUP1 SLOAD PUSH2 0xAF6 SWAP1 PUSH2 0x2577 JUMP JUMPDEST DUP1 ISZERO PUSH2 0xB43 JUMPI DUP1 PUSH1 0x1F LT PUSH2 0xB18 JUMPI PUSH2 0x100 DUP1 DUP4 SLOAD DIV MUL DUP4 MSTORE SWAP2 PUSH1 0x20 ADD SWAP2 PUSH2 0xB43 JUMP JUMPDEST DUP3 ADD SWAP2 SWAP1 PUSH1 0x0 MSTORE PUSH1 0x20 PUSH1 0x0 KECCAK256 SWAP1 JUMPDEST DUP2 SLOAD DUP2 MSTORE SWAP1 PUSH1 0x1 ADD SWAP1 PUSH1 0x20 ADD DUP1 DUP4 GT PUSH2 0xB26 JUMPI DUP3 SWAP1 SUB PUSH1 0x1F AND DUP3 ADD SWAP2 JUMPDEST POP POP POP POP POP DUP2 MSTORE POP POP DUP3 DUP3 DUP2 MLOAD DUP2 LT PUSH2 0xB5E JUMPI PUSH2 0xB5E PUSH2 0x2532 JUMP JUMPDEST PUSH1 0x20 MUL PUSH1 0x20 ADD ADD DUP2 SWAP1 MSTORE POP DUP1 DUP1 PUSH2 0xB74 SWAP1 PUSH2 0x255E JUMP JUMPDEST SWAP2 POP POP PUSH2 0x8C9 JUMP JUMPDEST POP SWAP2 SWAP1 POP JUMP JUMPDEST PUSH1 0x4 DUP1 SLOAD PUSH1 0x40 MLOAD PUSH4 0xBF8A23F5 PUSH1 0xE0 SHL DUP2 MSTORE PUSH1 0x60 SWAP3 PUSH1 0x0 SWAP3 PUSH1 0x1 PUSH1 0x1 PUSH1 0xA0 SHL SUB AND SWAP2 PUSH4 0xBF8A23F5 SWAP2 PUSH2 0xBB7 SWAP2 DUP8 SWAP2 CALLER SWAP2 ADD PUSH2 0x2665 JUMP JUMPDEST PUSH1 0x0 PUSH1 0x40 MLOAD DUP1 DUP4 SUB DUP2 DUP7 GAS STATICCALL ISZERO DUP1 ISZERO PUSH2 0xBD4 JUMPI RETURNDATASIZE PUSH1 0x0 DUP1 RETURNDATACOPY RETURNDATASIZE PUSH1 0x0 REVERT JUMPDEST POP POP POP POP PUSH1 0x40 MLOAD RETURNDATASIZE PUSH1 0x0 DUP3 RETURNDATACOPY PUSH1 0x1F RETURNDATASIZE SWAP1 DUP2 ADD PUSH1 0x1F NOT AND DUP3 ADD PUSH1 0x40 MSTORE PUSH2 0xBFC SWAP2 SWAP1 DUP2 ADD SWAP1 PUSH2 0x26B9 JUMP JUMPDEST SWAP1 POP PUSH1 0x0 JUMPDEST DUP2 MLOAD DUP2 LT ISZERO PUSH2 0xF09 JUMPI PUSH1 0x0 DUP5 DUP3 DUP2 MLOAD DUP2 LT PUSH2 0xC1E JUMPI PUSH2 0xC1E PUSH2 0x2532 JUMP JUMPDEST PUSH1 0x20 MUL PUSH1 0x20 ADD ADD MLOAD PUSH1 0x40 MLOAD PUSH1 0x20 ADD PUSH2 0xC38 SWAP2 DUP2 MSTORE PUSH1 0x20 ADD SWAP1 JUMP JUMPDEST PUSH1 0x40 MLOAD PUSH1 0x20 DUP2 DUP4 SUB SUB DUP2 MSTORE SWAP1 PUSH1 0x40 MSTORE DUP1 MLOAD SWAP1 PUSH1 0x20 ADD KECCAK256 SWAP1 POP PUSH1 0x0 DUP4 DUP4 DUP2 MLOAD DUP2 LT PUSH2 0xC64 JUMPI PUSH2 0xC64 PUSH2 0x2532 JUMP JUMPDEST PUSH1 0x20 MUL PUSH1 0x20 ADD ADD MLOAD MLOAD SWAP1 POP PUSH1 0x0 PUSH1 0x4 PUSH1 0x0 SWAP1 SLOAD SWAP1 PUSH2 0x100 EXP SWAP1 DIV PUSH1 0x1 PUSH1 0x1 PUSH1 0xA0 SHL SUB AND PUSH1 0x1 PUSH1 0x1 PUSH1 0xA0 SHL SUB AND PUSH4 0x2C17EA6F DUP9 DUP7 DUP2 MLOAD DUP2 LT PUSH2 0xCA7 JUMPI PUSH2 0xCA7 PUSH2 0x2532 JUMP JUMPDEST PUSH1 0x20 MUL PUSH1 0x20 ADD ADD MLOAD CALLER PUSH1 0x40 MLOAD DUP4 PUSH4 0xFFFFFFFF AND PUSH1 0xE0 SHL DUP2 MSTORE PUSH1 0x4 ADD PUSH2 0xCDF SWAP3 SWAP2 SWAP1 SWAP2 DUP3 MSTORE PUSH1 0x1 PUSH1 0x1 PUSH1 0xA0 SHL SUB AND PUSH1 0x20 DUP3 ADD MSTORE PUSH1 0x40 ADD SWAP1 JUMP JUMPDEST PUSH1 0x20 PUSH1 0x40 MLOAD DUP1 DUP4 SUB DUP2 DUP7 GAS STATICCALL ISZERO DUP1 ISZERO PUSH2 0xCFC JUMPI RETURNDATASIZE PUSH1 0x0 DUP1 RETURNDATACOPY RETURNDATASIZE PUSH1 0x0 REVERT JUMPDEST POP POP POP POP PUSH1 0x40 MLOAD RETURNDATASIZE PUSH1 0x1F NOT PUSH1 0x1F DUP3 ADD AND DUP3 ADD DUP1 PUSH1 0x40 MSTORE POP DUP2 ADD SWAP1 PUSH2 0xD20 SWAP2 SWAP1 PUSH2 0x27C0 JUMP JUMPDEST SWAP1 POP PUSH1 0x0 JUMPDEST PUSH2 0xD30 PUSH1 0x1 DUP5 PUSH2 0x2636 JUMP JUMPDEST DUP2 LT ISZERO PUSH2 0xE3A JUMPI PUSH2 0xD42 PUSH1 0x2 DUP4 PUSH2 0x27EF JUMP JUMPDEST PUSH1 0x0 SUB PUSH2 0xDB4 JUMPI DUP4 DUP7 DUP7 DUP2 MLOAD DUP2 LT PUSH2 0xD5C JUMPI PUSH2 0xD5C PUSH2 0x2532 JUMP JUMPDEST PUSH1 0x20 MUL PUSH1 0x20 ADD ADD MLOAD DUP3 DUP2 MLOAD DUP2 LT PUSH2 0xD75 JUMPI PUSH2 0xD75 PUSH2 0x2532 JUMP JUMPDEST PUSH1 0x20 MUL PUSH1 0x20 ADD ADD MLOAD PUSH1 0x40 MLOAD PUSH1 0x20 ADD PUSH2 0xD97 SWAP3 SWAP2 SWAP1 SWAP2 DUP3 MSTORE PUSH1 0x20 DUP3 ADD MSTORE PUSH1 0x40 ADD SWAP1 JUMP JUMPDEST PUSH1 0x40 MLOAD PUSH1 0x20 DUP2 DUP4 SUB SUB DUP2 MSTORE SWAP1 PUSH1 0x40 MSTORE DUP1 MLOAD SWAP1 PUSH1 0x20 ADD KECCAK256 SWAP4 POP PUSH2 0xE1B JUMP JUMPDEST DUP6 DUP6 DUP2 MLOAD DUP2 LT PUSH2 0xDC6 JUMPI PUSH2 0xDC6 PUSH2 0x2532 JUMP JUMPDEST PUSH1 0x20 MUL PUSH1 0x20 ADD ADD MLOAD DUP2 DUP2 MLOAD DUP2 LT PUSH2 0xDDF JUMPI PUSH2 0xDDF PUSH2 0x2532 JUMP JUMPDEST PUSH1 0x20 MUL PUSH1 0x20 ADD ADD MLOAD DUP5 PUSH1 0x40 MLOAD PUSH1 0x20 ADD PUSH2 0xE02 SWAP3 SWAP2 SWAP1 SWAP2 DUP3 MSTORE PUSH1 0x20 DUP3 ADD MSTORE PUSH1 0x40 ADD SWAP1 JUMP JUMPDEST PUSH1 0x40 MLOAD PUSH1 0x20 DUP2 DUP4 SUB SUB DUP2 MSTORE SWAP1 PUSH1 0x40 MSTORE DUP1 MLOAD SWAP1 PUSH1 0x20 ADD KECCAK256 SWAP4 POP JUMPDEST PUSH2 0xE26 PUSH1 0x2 DUP4 PUSH2 0x2803 JUMP JUMPDEST SWAP2 POP DUP1 PUSH2 0xE32 DUP2 PUSH2 0x255E JUMP JUMPDEST SWAP2 POP POP PUSH2 0xD25 JUMP JUMPDEST POP PUSH2 0xE44 DUP4 PUSH2 0x1C75 JUMP JUMPDEST PUSH2 0xE8B DUP6 DUP6 DUP2 MLOAD DUP2 LT PUSH2 0xE59 JUMPI PUSH2 0xE59 PUSH2 0x2532 JUMP JUMPDEST PUSH1 0x20 MUL PUSH1 0x20 ADD ADD MLOAD PUSH1 0x1 DUP5 PUSH2 0xE6E SWAP2 SWAP1 PUSH2 0x2636 JUMP JUMPDEST DUP2 MLOAD DUP2 LT PUSH2 0xE7E JUMPI PUSH2 0xE7E PUSH2 0x2532 JUMP JUMPDEST PUSH1 0x20 MUL PUSH1 0x20 ADD ADD MLOAD PUSH2 0x1C75 JUMP JUMPDEST DUP5 DUP5 DUP2 MLOAD DUP2 LT PUSH2 0xE9D JUMPI PUSH2 0xE9D PUSH2 0x2532 JUMP JUMPDEST PUSH1 0x20 MUL PUSH1 0x20 ADD ADD MLOAD PUSH1 0x1 DUP4 PUSH2 0xEB2 SWAP2 SWAP1 PUSH2 0x2636 JUMP JUMPDEST DUP2 MLOAD DUP2 LT PUSH2 0xEC2 JUMPI PUSH2 0xEC2 PUSH2 0x2532 JUMP JUMPDEST PUSH1 0x20 MUL PUSH1 0x20 ADD ADD MLOAD DUP4 EQ PUSH2 0xEF3 JUMPI POP POP PUSH1 0x40 DUP1 MLOAD DUP1 DUP3 ADD SWAP1 SWAP2 MSTORE PUSH1 0x1 DUP2 MSTORE PUSH1 0x3 PUSH1 0xFC SHL PUSH1 0x20 DUP3 ADD MSTORE SWAP6 SWAP5 POP POP POP POP POP JUMP JUMPDEST POP POP POP DUP1 DUP1 PUSH2 0xF01 SWAP1 PUSH2 0x255E JUMP JUMPDEST SWAP2 POP POP PUSH2 0xC01 JUMP JUMPDEST POP PUSH2 0xF36 PUSH1 0x40 MLOAD DUP1 PUSH1 0x40 ADD PUSH1 0x40 MSTORE DUP1 PUSH1 0xB DUP2 MSTORE PUSH1 0x20 ADD PUSH11 0x125D081A5CC81C9A59DA1D PUSH1 0xAA SHL DUP2 MSTORE POP PUSH2 0x1CBD JUMP JUMPDEST POP POP PUSH1 0x40 DUP1 MLOAD DUP1 DUP3 ADD SWAP1 SWAP2 MSTORE PUSH1 0x1 DUP2 MSTORE PUSH1 0x31 PUSH1 0xF8 SHL PUSH1 0x20 DUP3 ADD MSTORE SWAP2 SWAP1 POP JUMP JUMPDEST PUSH1 0x8 PUSH1 0x20 MSTORE DUP2 PUSH1 0x0 MSTORE PUSH1 0x40 PUSH1 0x0 KECCAK256 DUP2 DUP2 SLOAD DUP2 LT PUSH2 0xF71 JUMPI PUSH1 0x0 DUP1 REVERT JUMPDEST SWAP1 PUSH1 0x0 MSTORE PUSH1 0x20 PUSH1 0x0 KECCAK256 ADD PUSH1 0x0 SWAP2 POP SWAP2 POP POP SLOAD DUP2 JUMP JUMPDEST PUSH1 0x0 DUP7 DUP2 MSTORE PUSH1 0x9 PUSH1 0x20 MSTORE PUSH1 0x40 SWAP1 KECCAK256 SLOAD DUP7 SWAP1 PUSH1 0x1 PUSH1 0x1 PUSH1 0xA0 SHL SUB AND CALLER EQ PUSH2 0xFAB JUMPI PUSH1 0x0 DUP1 REVERT JUMPDEST PUSH2 0xFB4 DUP8 PUSH2 0x1D00 JUMP JUMPDEST PUSH2 0x1000 JUMPI PUSH1 0x40 MLOAD PUSH3 0x461BCD PUSH1 0xE5 SHL DUP2 MSTORE PUSH1 0x20 PUSH1 0x4 DUP3 ADD MSTORE PUSH1 0x18 PUSH1 0x24 DUP3 ADD MSTORE PUSH32 0x456D706C6F79656520646F6573206E6F74206578697374730000000000000000 PUSH1 0x44 DUP3 ADD MSTORE PUSH1 0x64 ADD PUSH2 0x2D4 JUMP JUMPDEST DUP5 MLOAD ISZERO PUSH2 0x1070 JUMPI PUSH2 0x1010 DUP6 PUSH2 0x1D73 JUMP JUMPDEST ISZERO PUSH2 0x1053 JUMPI PUSH1 0x40 MLOAD PUSH3 0x461BCD PUSH1 0xE5 SHL DUP2 MSTORE PUSH1 0x20 PUSH1 0x4 DUP3 ADD MSTORE PUSH1 0x13 PUSH1 0x24 DUP3 ADD MSTORE PUSH19 0x50686F6E65206E756D62657220657869737473 PUSH1 0x68 SHL PUSH1 0x44 DUP3 ADD MSTORE PUSH1 0x64 ADD PUSH2 0x2D4 JUMP JUMPDEST PUSH1 0x0 DUP8 DUP2 MSTORE PUSH1 0x5 PUSH1 0x20 MSTORE PUSH1 0x40 SWAP1 KECCAK256 PUSH1 0x2 ADD PUSH2 0x106E DUP7 DUP3 PUSH2 0x2866 JUMP JUMPDEST POP JUMPDEST DUP6 MLOAD ISZERO PUSH2 0x1094 JUMPI PUSH1 0x0 DUP8 DUP2 MSTORE PUSH1 0x5 PUSH1 0x20 MSTORE PUSH1 0x40 SWAP1 KECCAK256 PUSH1 0x1 ADD PUSH2 0x1092 DUP8 DUP3 PUSH2 0x2866 JUMP JUMPDEST POP JUMPDEST DUP3 ISZERO PUSH2 0x1239 JUMPI PUSH2 0x10A3 DUP4 PUSH2 0x1E4E JUMP JUMPDEST DUP1 ISZERO PUSH2 0x1100 JUMPI POP PUSH1 0x40 MLOAD PUSH7 0x26B0B730B3B2B9 PUSH1 0xC9 SHL PUSH1 0x20 DUP3 ADD MSTORE PUSH1 0x27 ADD PUSH1 0x40 MLOAD PUSH1 0x20 DUP2 DUP4 SUB SUB DUP2 MSTORE SWAP1 PUSH1 0x40 MSTORE DUP1 MLOAD SWAP1 PUSH1 0x20 ADD KECCAK256 DUP3 PUSH1 0x40 MLOAD PUSH1 0x20 ADD PUSH2 0x10E7 SWAP2 SWAP1 PUSH2 0x2926 JUMP JUMPDEST PUSH1 0x40 MLOAD PUSH1 0x20 DUP2 DUP4 SUB SUB DUP2 MSTORE SWAP1 PUSH1 0x40 MSTORE DUP1 MLOAD SWAP1 PUSH1 0x20 ADD KECCAK256 EQ ISZERO JUMPDEST PUSH2 0x114C JUMPI PUSH1 0x40 MLOAD PUSH3 0x461BCD PUSH1 0xE5 SHL DUP2 MSTORE PUSH1 0x20 PUSH1 0x4 DUP3 ADD MSTORE PUSH1 0x17 PUSH1 0x24 DUP3 ADD MSTORE PUSH32 0x4D616E6167657220646F6573206E6F7420657869737473000000000000000000 PUSH1 0x44 DUP3 ADD MSTORE PUSH1 0x64 ADD PUSH2 0x2D4 JUMP JUMPDEST PUSH1 0x40 MLOAD PUSH7 0x26B0B730B3B2B9 PUSH1 0xC9 SHL PUSH1 0x20 DUP3 ADD MSTORE PUSH1 0x27 ADD PUSH1 0x40 MLOAD PUSH1 0x20 DUP2 DUP4 SUB SUB DUP2 MSTORE SWAP1 PUSH1 0x40 MSTORE DUP1 MLOAD SWAP1 PUSH1 0x20 ADD KECCAK256 PUSH1 0x5 PUSH1 0x0 DUP10 DUP2 MSTORE PUSH1 0x20 ADD SWAP1 DUP2 MSTORE PUSH1 0x20 ADD PUSH1 0x0 KECCAK256 PUSH1 0x5 ADD PUSH1 0x40 MLOAD PUSH1 0x20 ADD PUSH2 0x119E SWAP2 SWAP1 PUSH2 0x2942 JUMP JUMPDEST PUSH1 0x40 MLOAD PUSH1 0x20 DUP2 DUP4 SUB SUB DUP2 MSTORE SWAP1 PUSH1 0x40 MSTORE DUP1 MLOAD SWAP1 PUSH1 0x20 ADD KECCAK256 SUB PUSH2 0x1234 JUMPI PUSH1 0x40 MLOAD PUSH8 0x456D706C6F796565 PUSH1 0xC0 SHL PUSH1 0x20 DUP3 ADD MSTORE PUSH1 0x28 ADD PUSH1 0x40 MLOAD PUSH1 0x20 DUP2 DUP4 SUB SUB DUP2 MSTORE SWAP1 PUSH1 0x40 MSTORE DUP1 MLOAD SWAP1 PUSH1 0x20 ADD KECCAK256 DUP3 PUSH1 0x40 MLOAD PUSH1 0x20 ADD PUSH2 0x11F7 SWAP2 SWAP1 PUSH2 0x2926 JUMP JUMPDEST PUSH1 0x40 MLOAD PUSH1 0x20 DUP2 DUP4 SUB SUB DUP2 MSTORE SWAP1 PUSH1 0x40 MSTORE DUP1 MLOAD SWAP1 PUSH1 0x20 ADD KECCAK256 EQ PUSH2 0x1234 JUMPI PUSH1 0x40 MLOAD PUSH3 0x461BCD PUSH1 0xE5 SHL DUP2 MSTORE PUSH1 0x20 PUSH1 0x4 DUP3 ADD MSTORE PUSH1 0x0 PUSH1 0x24 DUP3 ADD MSTORE PUSH1 0x44 ADD PUSH2 0x2D4 JUMP JUMPDEST PUSH2 0x124E JUMP JUMPDEST PUSH1 0x0 DUP8 DUP2 MSTORE PUSH1 0x5 PUSH1 0x20 MSTORE PUSH1 0x40 SWAP1 KECCAK256 PUSH1 0x4 ADD DUP4 SWAP1 SSTORE JUMPDEST DUP4 MLOAD ISZERO PUSH2 0x130A JUMPI PUSH1 0x4 DUP1 SLOAD PUSH1 0x40 MLOAD PUSH4 0x36A2BF7 PUSH1 0xE4 SHL DUP2 MSTORE PUSH1 0x1 PUSH1 0x1 PUSH1 0xA0 SHL SUB SWAP1 SWAP2 AND SWAP2 PUSH4 0x36A2BF70 SWAP2 PUSH2 0x1286 SWAP2 DUP9 SWAP2 CALLER SWAP2 ADD PUSH2 0x2665 JUMP JUMPDEST PUSH1 0x20 PUSH1 0x40 MLOAD DUP1 DUP4 SUB DUP2 DUP7 GAS STATICCALL ISZERO DUP1 ISZERO PUSH2 0x12A3 JUMPI RETURNDATASIZE PUSH1 0x0 DUP1 RETURNDATACOPY RETURNDATASIZE PUSH1 0x0 REVERT JUMPDEST POP POP POP POP PUSH1 0x40 MLOAD RETURNDATASIZE PUSH1 0x1F NOT PUSH1 0x1F DUP3 ADD AND DUP3 ADD DUP1 PUSH1 0x40 MSTORE POP DUP2 ADD SWAP1 PUSH2 0x12C7 SWAP2 SWAP1 PUSH2 0x29B8 JUMP JUMPDEST PUSH2 0x12E3 JUMPI PUSH1 0x40 MLOAD PUSH3 0x461BCD PUSH1 0xE5 SHL DUP2 MSTORE PUSH1 0x4 ADD PUSH2 0x2D4 SWAP1 PUSH2 0x29DA JUMP JUMPDEST PUSH1 0x0 DUP8 DUP2 MSTORE PUSH1 0x5 PUSH1 0x20 SWAP1 DUP2 MSTORE PUSH1 0x40 SWAP1 SWAP2 KECCAK256 DUP6 MLOAD PUSH2 0x1308 SWAP3 PUSH1 0x3 SWAP1 SWAP3 ADD SWAP2 DUP8 ADD SWAP1 PUSH2 0x1F93 JUMP JUMPDEST POP JUMPDEST DUP2 MLOAD ISZERO PUSH2 0x1703 JUMPI PUSH1 0x40 MLOAD PUSH7 0x26B0B730B3B2B9 PUSH1 0xC9 SHL PUSH1 0x20 DUP3 ADD MSTORE PUSH1 0x27 ADD PUSH1 0x40 MLOAD PUSH1 0x20 DUP2 DUP4 SUB SUB DUP2 MSTORE SWAP1 PUSH1 0x40 MSTORE DUP1 MLOAD SWAP1 PUSH1 0x20 ADD KECCAK256 DUP3 PUSH1 0x40 MLOAD PUSH1 0x20 ADD PUSH2 0x134E SWAP2 SWAP1 PUSH2 0x2926 JUMP JUMPDEST PUSH1 0x40 MLOAD PUSH1 0x20 DUP2 DUP4 SUB SUB DUP2 MSTORE SWAP1 PUSH1 0x40 MSTORE DUP1 MLOAD SWAP1 PUSH1 0x20 ADD KECCAK256 EQ DUP1 PUSH2 0x13C1 JUMPI POP PUSH1 0x40 MLOAD PUSH8 0x456D706C6F796565 PUSH1 0xC0 SHL PUSH1 0x20 DUP3 ADD MSTORE PUSH1 0x28 ADD PUSH1 0x40 MLOAD PUSH1 0x20 DUP2 DUP4 SUB SUB DUP2 MSTORE SWAP1 PUSH1 0x40 MSTORE DUP1 MLOAD SWAP1 PUSH1 0x20 ADD KECCAK256 DUP3 PUSH1 0x40 MLOAD PUSH1 0x20 ADD PUSH2 0x13A9 SWAP2 SWAP1 PUSH2 0x2926 JUMP JUMPDEST PUSH1 0x40 MLOAD PUSH1 0x20 DUP2 DUP4 SUB SUB DUP2 MSTORE SWAP1 PUSH1 0x40 MSTORE DUP1 MLOAD SWAP1 PUSH1 0x20 ADD KECCAK256 EQ JUMPDEST PUSH2 0x140D JUMPI PUSH1 0x40 MLOAD PUSH3 0x461BCD PUSH1 0xE5 SHL DUP2 MSTORE PUSH1 0x20 PUSH1 0x4 DUP3 ADD MSTORE PUSH1 0x17 PUSH1 0x24 DUP3 ADD MSTORE PUSH32 0x54686520726F6C6520646F6573206E6F74206578697374000000000000000000 PUSH1 0x44 DUP3 ADD MSTORE PUSH1 0x64 ADD PUSH2 0x2D4 JUMP JUMPDEST PUSH1 0x0 DUP8 DUP2 MSTORE PUSH1 0x5 PUSH1 0x20 DUP2 DUP2 MSTORE PUSH1 0x40 DUP1 DUP5 KECCAK256 SWAP1 MLOAD PUSH2 0x142F SWAP4 SWAP2 SWAP1 SWAP2 ADD SWAP2 ADD PUSH2 0x2942 JUMP JUMPDEST PUSH1 0x40 MLOAD PUSH1 0x20 DUP2 DUP4 SUB SUB DUP2 MSTORE SWAP1 PUSH1 0x40 MSTORE DUP1 MLOAD SWAP1 PUSH1 0x20 ADD KECCAK256 SWAP1 POP PUSH1 0x0 DUP4 PUSH1 0x40 MLOAD PUSH1 0x20 ADD PUSH2 0x145A SWAP2 SWAP1 PUSH2 0x2926 JUMP JUMPDEST PUSH1 0x40 MLOAD PUSH1 0x20 DUP2 DUP4 SUB SUB DUP2 MSTORE SWAP1 PUSH1 0x40 MSTORE DUP1 MLOAD SWAP1 PUSH1 0x20 ADD KECCAK256 SWAP1 POP PUSH1 0x0 PUSH1 0x40 MLOAD PUSH1 0x20 ADD PUSH2 0x1491 SWAP1 PUSH7 0x26B0B730B3B2B9 PUSH1 0xC9 SHL DUP2 MSTORE PUSH1 0x7 ADD SWAP1 JUMP JUMPDEST PUSH1 0x40 MLOAD PUSH1 0x20 DUP2 DUP4 SUB SUB DUP2 MSTORE SWAP1 PUSH1 0x40 MSTORE DUP1 MLOAD SWAP1 PUSH1 0x20 ADD KECCAK256 SWAP1 POP PUSH1 0x0 PUSH1 0x40 MLOAD PUSH1 0x20 ADD PUSH2 0x14C9 SWAP1 PUSH8 0x456D706C6F796565 PUSH1 0xC0 SHL DUP2 MSTORE PUSH1 0x8 ADD SWAP1 JUMP JUMPDEST PUSH1 0x40 MLOAD PUSH1 0x20 DUP2 DUP4 SUB SUB DUP2 MSTORE SWAP1 PUSH1 0x40 MSTORE DUP1 MLOAD SWAP1 PUSH1 0x20 ADD KECCAK256 SWAP1 POP DUP2 DUP5 EQ DUP1 ISZERO PUSH2 0x14EF JUMPI POP DUP1 DUP4 EQ JUMPDEST ISZERO PUSH2 0x16B7 JUMPI PUSH1 0x0 DUP1 JUMPDEST CALLER PUSH1 0x0 SWAP1 DUP2 MSTORE PUSH1 0x7 PUSH1 0x20 MSTORE PUSH1 0x40 SWAP1 KECCAK256 SLOAD DUP2 LT ISZERO PUSH2 0x15B2 JUMPI CALLER PUSH1 0x0 SWAP1 DUP2 MSTORE PUSH1 0x7 PUSH1 0x20 MSTORE PUSH1 0x40 DUP2 KECCAK256 DUP1 SLOAD DUP16 SWAP3 PUSH1 0x5 SWAP3 SWAP1 SWAP2 DUP6 SWAP1 DUP2 LT PUSH2 0x1537 JUMPI PUSH2 0x1537 PUSH2 0x2532 JUMP JUMPDEST SWAP1 PUSH1 0x0 MSTORE PUSH1 0x20 PUSH1 0x0 KECCAK256 ADD SLOAD DUP2 MSTORE PUSH1 0x20 ADD SWAP1 DUP2 MSTORE PUSH1 0x20 ADD PUSH1 0x0 KECCAK256 PUSH1 0x4 ADD SLOAD SUB PUSH2 0x15A0 JUMPI CALLER PUSH1 0x0 SWAP1 DUP2 MSTORE PUSH1 0x7 PUSH1 0x20 MSTORE PUSH1 0x40 DUP2 KECCAK256 DUP1 SLOAD PUSH1 0x5 SWAP2 DUP4 SWAP2 DUP6 SWAP1 DUP2 LT PUSH2 0x157F JUMPI PUSH2 0x157F PUSH2 0x2532 JUMP JUMPDEST SWAP1 PUSH1 0x0 MSTORE PUSH1 0x20 PUSH1 0x0 KECCAK256 ADD SLOAD DUP2 MSTORE PUSH1 0x20 ADD SWAP1 DUP2 MSTORE PUSH1 0x20 ADD PUSH1 0x0 KECCAK256 PUSH1 0x4 ADD DUP2 SWAP1 SSTORE POP JUMPDEST DUP1 PUSH2 0x15AA DUP2 PUSH2 0x255E JUMP JUMPDEST SWAP2 POP POP PUSH2 0x14F8 JUMP JUMPDEST POP PUSH1 0x0 JUMPDEST CALLER PUSH1 0x0 SWAP1 DUP2 MSTORE PUSH1 0x8 PUSH1 0x20 MSTORE PUSH1 0x40 SWAP1 KECCAK256 SLOAD DUP2 LT ISZERO PUSH2 0x1618 JUMPI CALLER PUSH1 0x0 SWAP1 DUP2 MSTORE PUSH1 0x8 PUSH1 0x20 MSTORE PUSH1 0x40 SWAP1 KECCAK256 DUP1 SLOAD DUP15 SWAP2 SWAP1 DUP4 SWAP1 DUP2 LT PUSH2 0x15F1 JUMPI PUSH2 0x15F1 PUSH2 0x2532 JUMP JUMPDEST SWAP1 PUSH1 0x0 MSTORE PUSH1 0x20 PUSH1 0x0 KECCAK256 ADD SLOAD SUB PUSH2 0x1606 JUMPI PUSH1 0x0 SWAP2 POP JUMPDEST DUP1 PUSH2 0x1610 DUP2 PUSH2 0x255E JUMP JUMPDEST SWAP2 POP POP PUSH2 0x15B6 JUMP JUMPDEST POP CALLER PUSH1 0x0 SWAP1 DUP2 MSTORE PUSH1 0x8 PUSH1 0x20 MSTORE PUSH1 0x40 SWAP1 KECCAK256 DUP1 SLOAD PUSH2 0x1636 SWAP1 PUSH1 0x1 SWAP1 PUSH2 0x2636 JUMP JUMPDEST DUP2 SLOAD DUP2 LT PUSH2 0x1646 JUMPI PUSH2 0x1646 PUSH2 0x2532 JUMP JUMPDEST PUSH1 0x0 SWAP2 DUP3 MSTORE PUSH1 0x20 DUP1 DUP4 KECCAK256 SWAP1 SWAP2 ADD SLOAD CALLER DUP4 MSTORE PUSH1 0x8 SWAP1 SWAP2 MSTORE PUSH1 0x40 SWAP1 SWAP2 KECCAK256 DUP1 SLOAD DUP4 SWAP1 DUP2 LT PUSH2 0x1673 JUMPI PUSH2 0x1673 PUSH2 0x2532 JUMP JUMPDEST PUSH1 0x0 SWAP2 DUP3 MSTORE PUSH1 0x20 DUP1 DUP4 KECCAK256 SWAP1 SWAP2 ADD SWAP3 SWAP1 SWAP3 SSTORE CALLER DUP2 MSTORE PUSH1 0x8 SWAP1 SWAP2 MSTORE PUSH1 0x40 SWAP1 KECCAK256 DUP1 SLOAD DUP1 PUSH2 0x169F JUMPI PUSH2 0x169F PUSH2 0x264F JUMP JUMPDEST PUSH1 0x1 SWAP1 SUB DUP2 DUP2 SWAP1 PUSH1 0x0 MSTORE PUSH1 0x20 PUSH1 0x0 KECCAK256 ADD PUSH1 0x0 SWAP1 SSTORE SWAP1 SSTORE POP JUMPDEST PUSH1 0x0 DUP12 DUP2 MSTORE PUSH1 0x5 PUSH1 0x20 DUP2 SWAP1 MSTORE PUSH1 0x40 SWAP1 SWAP2 KECCAK256 ADD PUSH2 0x16D3 DUP8 DUP3 PUSH2 0x2866 JUMP JUMPDEST POP DUP2 DUP5 SUB PUSH2 0x16FE JUMPI CALLER PUSH1 0x0 SWAP1 DUP2 MSTORE PUSH1 0x8 PUSH1 0x20 SWAP1 DUP2 MSTORE PUSH1 0x40 DUP3 KECCAK256 DUP1 SLOAD PUSH1 0x1 DUP2 ADD DUP3 SSTORE SWAP1 DUP4 MSTORE SWAP2 KECCAK256 ADD DUP12 SWAP1 SSTORE JUMPDEST POP POP POP POP JUMPDEST PUSH1 0x40 MLOAD DUP8 SWAP1 PUSH32 0x7A4EE20C8F1D1BC09D61FE1C943B32D59649D9040F6831A859BD9E40A9219B13 SWAP1 PUSH1 0x0 SWAP1 LOG2 POP POP POP POP POP POP POP JUMP JUMPDEST PUSH2 0x1740 DUP5 PUSH2 0x1D73 JUMP JUMPDEST ISZERO PUSH2 0x1783 JUMPI PUSH1 0x40 MLOAD PUSH3 0x461BCD PUSH1 0xE5 SHL DUP2 MSTORE PUSH1 0x20 PUSH1 0x4 DUP3 ADD MSTORE PUSH1 0x13 PUSH1 0x24 DUP3 ADD MSTORE PUSH19 0x50686F6E65206E756D62657220657869737473 PUSH1 0x68 SHL PUSH1 0x44 DUP3 ADD MSTORE PUSH1 0x64 ADD PUSH2 0x2D4 JUMP JUMPDEST PUSH1 0x4 DUP1 SLOAD PUSH1 0x40 MLOAD PUSH4 0x36A2BF7 PUSH1 0xE4 SHL DUP2 MSTORE PUSH1 0x1 PUSH1 0x1 PUSH1 0xA0 SHL SUB SWAP1 SWAP2 AND SWAP2 PUSH4 0x36A2BF70 SWAP2 PUSH2 0x17B4 SWAP2 DUP8 SWAP2 CALLER SWAP2 ADD PUSH2 0x2665 JUMP JUMPDEST PUSH1 0x20 PUSH1 0x40 MLOAD DUP1 DUP4 SUB DUP2 DUP7 GAS STATICCALL ISZERO DUP1 ISZERO PUSH2 0x17D1 JUMPI RETURNDATASIZE PUSH1 0x0 DUP1 RETURNDATACOPY RETURNDATASIZE PUSH1 0x0 REVERT JUMPDEST POP POP POP POP PUSH1 0x40 MLOAD RETURNDATASIZE PUSH1 0x1F NOT PUSH1 0x1F DUP3 ADD AND DUP3 ADD DUP1 PUSH1 0x40 MSTORE POP DUP2 ADD SWAP1 PUSH2 0x17F5 SWAP2 SWAP1 PUSH2 0x29B8 JUMP JUMPDEST PUSH2 0x1811 JUMPI PUSH1 0x40 MLOAD PUSH3 0x461BCD PUSH1 0xE5 SHL DUP2 MSTORE PUSH1 0x4 ADD PUSH2 0x2D4 SWAP1 PUSH2 0x29DA JUMP JUMPDEST PUSH1 0x40 MLOAD PUSH7 0x26B0B730B3B2B9 PUSH1 0xC9 SHL PUSH1 0x20 DUP3 ADD MSTORE PUSH1 0x27 ADD PUSH1 0x40 MLOAD PUSH1 0x20 DUP2 DUP4 SUB SUB DUP2 MSTORE SWAP1 PUSH1 0x40 MSTORE DUP1 MLOAD SWAP1 PUSH1 0x20 ADD KECCAK256 DUP2 PUSH1 0x40 MLOAD PUSH1 0x20 ADD PUSH2 0x184E SWAP2 SWAP1 PUSH2 0x2926 JUMP JUMPDEST PUSH1 0x40 MLOAD PUSH1 0x20 DUP2 DUP4 SUB SUB DUP2 MSTORE SWAP1 PUSH1 0x40 MSTORE DUP1 MLOAD SWAP1 PUSH1 0x20 ADD KECCAK256 SUB PUSH2 0x1A6C JUMPI DUP2 ISZERO PUSH2 0x189F JUMPI PUSH1 0x40 MLOAD PUSH3 0x461BCD PUSH1 0xE5 SHL DUP2 MSTORE PUSH1 0x20 PUSH1 0x4 DUP3 ADD MSTORE PUSH1 0x5 PUSH1 0x24 DUP3 ADD MSTORE PUSH5 0x22B93937B9 PUSH1 0xD9 SHL PUSH1 0x44 DUP3 ADD MSTORE PUSH1 0x64 ADD PUSH2 0x2D4 JUMP JUMPDEST PUSH1 0x0 PUSH2 0x18AA DUP6 PUSH2 0x1EB8 JUMP JUMPDEST PUSH1 0x40 DUP1 MLOAD PUSH1 0xC0 DUP2 ADD DUP3 MSTORE DUP3 DUP2 MSTORE PUSH1 0x20 DUP1 DUP3 ADD DUP11 DUP2 MSTORE DUP3 DUP5 ADD DUP11 SWAP1 MSTORE PUSH1 0x60 DUP4 ADD DUP10 SWAP1 MSTORE PUSH1 0x80 DUP4 ADD DUP9 SWAP1 MSTORE PUSH1 0xA0 DUP4 ADD DUP8 SWAP1 MSTORE PUSH1 0x0 DUP6 DUP2 MSTORE PUSH1 0x5 SWAP1 SWAP3 MSTORE SWAP3 SWAP1 KECCAK256 DUP2 MLOAD DUP2 SSTORE SWAP2 MLOAD SWAP3 SWAP4 POP SWAP2 PUSH1 0x1 DUP3 ADD SWAP1 PUSH2 0x1900 SWAP1 DUP3 PUSH2 0x2866 JUMP JUMPDEST POP PUSH1 0x40 DUP3 ADD MLOAD PUSH1 0x2 DUP3 ADD SWAP1 PUSH2 0x1915 SWAP1 DUP3 PUSH2 0x2866 JUMP JUMPDEST POP PUSH1 0x60 DUP3 ADD MLOAD DUP1 MLOAD PUSH2 0x1931 SWAP2 PUSH1 0x3 DUP5 ADD SWAP2 PUSH1 0x20 SWAP1 SWAP2 ADD SWAP1 PUSH2 0x1F93 JUMP JUMPDEST POP PUSH1 0x80 DUP3 ADD MLOAD PUSH1 0x4 DUP3 ADD SSTORE PUSH1 0xA0 DUP3 ADD MLOAD PUSH1 0x5 DUP3 ADD SWAP1 PUSH2 0x1950 SWAP1 DUP3 PUSH2 0x2866 JUMP JUMPDEST POP POP CALLER PUSH1 0x0 SWAP1 DUP2 MSTORE PUSH1 0x7 PUSH1 0x20 SWAP1 DUP2 MSTORE PUSH1 0x40 DUP1 DUP4 KECCAK256 DUP1 SLOAD PUSH1 0x1 DUP2 DUP2 ADD DUP4 SSTORE SWAP2 DUP6 MSTORE DUP4 DUP6 KECCAK256 ADD DUP7 SWAP1 SSTORE DUP6 DUP5 MSTORE PUSH1 0x5 DUP4 MSTORE DUP2 DUP5 KECCAK256 PUSH1 0x6 SWAP1 SWAP4 MSTORE SWAP3 KECCAK256 DUP2 SLOAD DUP2 SSTORE SWAP1 SWAP3 POP SWAP1 DUP2 DUP2 ADD SWAP1 PUSH2 0x19A0 SWAP1 DUP5 ADD DUP3 PUSH2 0x2A23 JUMP JUMPDEST POP PUSH1 0x2 DUP2 DUP2 ADD SWAP1 PUSH2 0x19B3 SWAP1 DUP5 ADD DUP3 PUSH2 0x2A23 JUMP JUMPDEST POP PUSH1 0x3 DUP3 DUP2 ADD DUP1 SLOAD PUSH2 0x19C8 SWAP3 DUP5 ADD SWAP2 SWAP1 PUSH2 0x1FDE JUMP JUMPDEST POP PUSH1 0x4 DUP3 ADD SLOAD DUP2 PUSH1 0x4 ADD SSTORE PUSH1 0x5 DUP3 ADD DUP2 PUSH1 0x5 ADD SWAP1 DUP2 PUSH2 0x19E7 SWAP2 SWAP1 PUSH2 0x2A23 JUMP JUMPDEST POP POP CALLER PUSH1 0x0 DUP2 DUP2 MSTORE PUSH1 0x8 PUSH1 0x20 SWAP1 DUP2 MSTORE PUSH1 0x40 DUP1 DUP4 KECCAK256 DUP1 SLOAD PUSH1 0x1 DUP2 ADD DUP3 SSTORE SWAP1 DUP5 MSTORE DUP3 DUP5 KECCAK256 ADD DUP7 SWAP1 SSTORE DUP6 DUP4 MSTORE PUSH1 0x9 SWAP1 SWAP2 MSTORE SWAP1 DUP2 SWAP1 KECCAK256 DUP1 SLOAD PUSH1 0x1 PUSH1 0x1 PUSH1 0xA0 SHL SUB NOT AND DUP4 OR SWAP1 SSTORE MLOAD SWAP1 SWAP2 POP PUSH32 0x5B4E466541672A9286C9F94344F25F8B855A47A46B60A29D8B5EDBC42277AAF5 SWAP1 PUSH2 0x1A5E SWAP1 DUP5 SWAP1 DUP10 SWAP1 DUP8 SWAP1 PUSH2 0x2AF6 JUMP JUMPDEST PUSH1 0x40 MLOAD DUP1 SWAP2 SUB SWAP1 LOG2 POP PUSH2 0x1C52 JUMP JUMPDEST PUSH1 0x40 MLOAD PUSH8 0x456D706C6F796565 PUSH1 0xC0 SHL PUSH1 0x20 DUP3 ADD MSTORE PUSH1 0x28 ADD PUSH1 0x40 MLOAD PUSH1 0x20 DUP2 DUP4 SUB SUB DUP2 MSTORE SWAP1 PUSH1 0x40 MSTORE DUP1 MLOAD SWAP1 PUSH1 0x20 ADD KECCAK256 DUP2 PUSH1 0x40 MLOAD PUSH1 0x20 ADD PUSH2 0x1AAA SWAP2 SWAP1 PUSH2 0x2926 JUMP JUMPDEST PUSH1 0x40 MLOAD PUSH1 0x20 DUP2 DUP4 SUB SUB DUP2 MSTORE SWAP1 PUSH1 0x40 MSTORE DUP1 MLOAD SWAP1 PUSH1 0x20 ADD KECCAK256 SUB PUSH2 0x1C52 JUMPI DUP2 ISZERO PUSH2 0x1B20 JUMPI PUSH2 0x1AD4 DUP3 PUSH2 0x1E4E JUMP JUMPDEST PUSH2 0x1B20 JUMPI PUSH1 0x40 MLOAD PUSH3 0x461BCD PUSH1 0xE5 SHL DUP2 MSTORE PUSH1 0x20 PUSH1 0x4 DUP3 ADD MSTORE PUSH1 0x19 PUSH1 0x24 DUP3 ADD MSTORE PUSH32 0x446F6E27742065786973747320746865206D616E616765722000000000000000 PUSH1 0x44 DUP3 ADD MSTORE PUSH1 0x64 ADD PUSH2 0x2D4 JUMP JUMPDEST PUSH1 0x0 PUSH2 0x1B2B DUP6 PUSH2 0x1EB8 JUMP JUMPDEST PUSH1 0x40 DUP1 MLOAD PUSH1 0xC0 DUP2 ADD DUP3 MSTORE DUP3 DUP2 MSTORE PUSH1 0x20 DUP1 DUP3 ADD DUP11 DUP2 MSTORE DUP3 DUP5 ADD DUP11 SWAP1 MSTORE PUSH1 0x60 DUP4 ADD DUP10 SWAP1 MSTORE PUSH1 0x80 DUP4 ADD DUP9 SWAP1 MSTORE PUSH1 0xA0 DUP4 ADD DUP8 SWAP1 MSTORE PUSH1 0x0 DUP6 DUP2 MSTORE PUSH1 0x5 SWAP1 SWAP3 MSTORE SWAP3 SWAP1 KECCAK256 DUP2 MLOAD DUP2 SSTORE SWAP2 MLOAD SWAP3 SWAP4 POP SWAP2 PUSH1 0x1 DUP3 ADD SWAP1 PUSH2 0x1B81 SWAP1 DUP3 PUSH2 0x2866 JUMP JUMPDEST POP PUSH1 0x40 DUP3 ADD MLOAD PUSH1 0x2 DUP3 ADD SWAP1 PUSH2 0x1B96 SWAP1 DUP3 PUSH2 0x2866 JUMP JUMPDEST POP PUSH1 0x60 DUP3 ADD MLOAD DUP1 MLOAD PUSH2 0x1BB2 SWAP2 PUSH1 0x3 DUP5 ADD SWAP2 PUSH1 0x20 SWAP1 SWAP2 ADD SWAP1 PUSH2 0x1F93 JUMP JUMPDEST POP PUSH1 0x80 DUP3 ADD MLOAD PUSH1 0x4 DUP3 ADD SSTORE PUSH1 0xA0 DUP3 ADD MLOAD PUSH1 0x5 DUP3 ADD SWAP1 PUSH2 0x1BD1 SWAP1 DUP3 PUSH2 0x2866 JUMP JUMPDEST POP POP CALLER PUSH1 0x0 DUP2 DUP2 MSTORE PUSH1 0x7 PUSH1 0x20 SWAP1 DUP2 MSTORE PUSH1 0x40 DUP1 DUP4 KECCAK256 DUP1 SLOAD PUSH1 0x1 DUP2 ADD DUP3 SSTORE SWAP1 DUP5 MSTORE DUP3 DUP5 KECCAK256 ADD DUP7 SWAP1 SSTORE DUP6 DUP4 MSTORE PUSH1 0x9 SWAP1 SWAP2 MSTORE SWAP1 DUP2 SWAP1 KECCAK256 DUP1 SLOAD PUSH1 0x1 PUSH1 0x1 PUSH1 0xA0 SHL SUB NOT AND DUP4 OR SWAP1 SSTORE MLOAD SWAP1 SWAP2 POP PUSH32 0x5B4E466541672A9286C9F94344F25F8B855A47A46B60A29D8B5EDBC42277AAF5 SWAP1 PUSH2 0x1C48 SWAP1 DUP5 SWAP1 DUP10 SWAP1 DUP8 SWAP1 PUSH2 0x2AF6 JUMP JUMPDEST PUSH1 0x40 MLOAD DUP1 SWAP2 SUB SWAP1 LOG2 POP JUMPDEST POP POP POP POP POP JUMP JUMPDEST PUSH1 0x7 PUSH1 0x20 MSTORE DUP2 PUSH1 0x0 MSTORE PUSH1 0x40 PUSH1 0x0 KECCAK256 DUP2 DUP2 SLOAD DUP2 LT PUSH2 0xF71 JUMPI PUSH1 0x0 DUP1 REVERT JUMPDEST PUSH2 0x1CBA DUP2 PUSH1 0x40 MLOAD PUSH1 0x24 ADD PUSH2 0x1C8B SWAP2 DUP2 MSTORE PUSH1 0x20 ADD SWAP1 JUMP JUMPDEST PUSH1 0x40 DUP1 MLOAD PUSH1 0x1F NOT DUP2 DUP5 SUB ADD DUP2 MSTORE SWAP2 SWAP1 MSTORE PUSH1 0x20 DUP2 ADD DUP1 MLOAD PUSH1 0x1 PUSH1 0x1 PUSH1 0xE0 SHL SUB AND PUSH4 0x27B7CF85 PUSH1 0xE0 SHL OR SWAP1 MSTORE PUSH2 0x1F16 JUMP JUMPDEST POP JUMP JUMPDEST PUSH2 0x1CBA DUP2 PUSH1 0x40 MLOAD PUSH1 0x24 ADD PUSH2 0x1CD1 SWAP2 SWAP1 PUSH2 0x22FA JUMP JUMPDEST PUSH1 0x40 DUP1 MLOAD PUSH1 0x1F NOT DUP2 DUP5 SUB ADD DUP2 MSTORE SWAP2 SWAP1 MSTORE PUSH1 0x20 DUP2 ADD DUP1 MLOAD PUSH1 0x1 PUSH1 0x1 PUSH1 0xE0 SHL SUB AND PUSH4 0x104C13EB PUSH1 0xE2 SHL OR SWAP1 MSTORE PUSH2 0x1F16 JUMP JUMPDEST PUSH1 0x0 DUP1 JUMPDEST CALLER PUSH1 0x0 SWAP1 DUP2 MSTORE PUSH1 0x7 PUSH1 0x20 MSTORE PUSH1 0x40 SWAP1 KECCAK256 SLOAD DUP2 LT ISZERO PUSH2 0x1D6A JUMPI CALLER PUSH1 0x0 SWAP1 DUP2 MSTORE PUSH1 0x7 PUSH1 0x20 MSTORE PUSH1 0x40 SWAP1 KECCAK256 DUP1 SLOAD DUP5 SWAP2 SWAP1 DUP4 SWAP1 DUP2 LT PUSH2 0x1D3F JUMPI PUSH2 0x1D3F PUSH2 0x2532 JUMP JUMPDEST SWAP1 PUSH1 0x0 MSTORE PUSH1 0x20 PUSH1 0x0 KECCAK256 ADD SLOAD SUB PUSH2 0x1D58 JUMPI POP PUSH1 0x1 SWAP3 SWAP2 POP POP JUMP JUMPDEST DUP1 PUSH2 0x1D62 DUP2 PUSH2 0x255E JUMP JUMPDEST SWAP2 POP POP PUSH2 0x1D04 JUMP JUMPDEST POP PUSH1 0x0 SWAP3 SWAP2 POP POP JUMP JUMPDEST PUSH1 0x0 DUP1 DUP3 PUSH1 0x40 MLOAD PUSH1 0x20 ADD PUSH2 0x1D87 SWAP2 SWAP1 PUSH2 0x2926 JUMP JUMPDEST PUSH1 0x40 MLOAD PUSH1 0x20 DUP2 DUP4 SUB SUB DUP2 MSTORE SWAP1 PUSH1 0x40 MSTORE DUP1 MLOAD SWAP1 PUSH1 0x20 ADD KECCAK256 SWAP1 POP PUSH1 0x0 JUMPDEST CALLER PUSH1 0x0 SWAP1 DUP2 MSTORE PUSH1 0x7 PUSH1 0x20 MSTORE PUSH1 0x40 SWAP1 KECCAK256 SLOAD DUP2 LT ISZERO PUSH2 0x1E44 JUMPI CALLER PUSH1 0x0 SWAP1 DUP2 MSTORE PUSH1 0x7 PUSH1 0x20 MSTORE PUSH1 0x40 DUP2 KECCAK256 DUP1 SLOAD DUP5 SWAP3 PUSH1 0x5 SWAP3 SWAP1 SWAP2 DUP6 SWAP1 DUP2 LT PUSH2 0x1DE1 JUMPI PUSH2 0x1DE1 PUSH2 0x2532 JUMP JUMPDEST SWAP1 PUSH1 0x0 MSTORE PUSH1 0x20 PUSH1 0x0 KECCAK256 ADD SLOAD DUP2 MSTORE PUSH1 0x20 ADD SWAP1 DUP2 MSTORE PUSH1 0x20 ADD PUSH1 0x0 KECCAK256 PUSH1 0x2 ADD PUSH1 0x40 MLOAD PUSH1 0x20 ADD PUSH2 0x1E0D SWAP2 SWAP1 PUSH2 0x2942 JUMP JUMPDEST PUSH1 0x40 MLOAD PUSH1 0x20 DUP2 DUP4 SUB SUB DUP2 MSTORE SWAP1 PUSH1 0x40 MSTORE DUP1 MLOAD SWAP1 PUSH1 0x20 ADD KECCAK256 SUB PUSH2 0x1E32 JUMPI POP PUSH1 0x1 SWAP4 SWAP3 POP POP POP JUMP JUMPDEST DUP1 PUSH2 0x1E3C DUP2 PUSH2 0x255E JUMP JUMPDEST SWAP2 POP POP PUSH2 0x1DA2 JUMP JUMPDEST POP PUSH1 0x0 SWAP4 SWAP3 POP POP POP JUMP JUMPDEST PUSH1 0x0 DUP1 JUMPDEST CALLER PUSH1 0x0 SWAP1 DUP2 MSTORE PUSH1 0x8 PUSH1 0x20 MSTORE PUSH1 0x40 SWAP1 KECCAK256 SLOAD DUP2 LT ISZERO PUSH2 0x1D6A JUMPI CALLER PUSH1 0x0 SWAP1 DUP2 MSTORE PUSH1 0x8 PUSH1 0x20 MSTORE PUSH1 0x40 SWAP1 KECCAK256 DUP1 SLOAD DUP5 SWAP2 SWAP1 DUP4 SWAP1 DUP2 LT PUSH2 0x1E8D JUMPI PUSH2 0x1E8D PUSH2 0x2532 JUMP JUMPDEST SWAP1 PUSH1 0x0 MSTORE PUSH1 0x20 PUSH1 0x0 KECCAK256 ADD SLOAD SUB PUSH2 0x1EA6 JUMPI POP PUSH1 0x1 SWAP3 SWAP2 POP POP JUMP JUMPDEST DUP1 PUSH2 0x1EB0 DUP2 PUSH2 0x255E JUMP JUMPDEST SWAP2 POP POP PUSH2 0x1E52 JUMP JUMPDEST PUSH1 0x0 DUP1 PUSH1 0x1 SLOAD DUP4 PUSH1 0x2 SLOAD TIMESTAMP PUSH1 0x40 MLOAD PUSH1 0x20 ADD PUSH2 0x1ED5 SWAP4 SWAP3 SWAP2 SWAP1 PUSH2 0x2B2B JUMP JUMPDEST PUSH1 0x40 MLOAD PUSH1 0x20 DUP2 DUP4 SUB SUB DUP2 MSTORE SWAP1 PUSH1 0x40 MSTORE DUP1 MLOAD SWAP1 PUSH1 0x20 ADD KECCAK256 PUSH1 0x0 SHR PUSH2 0x1EF8 SWAP2 SWAP1 PUSH2 0x27EF JUMP JUMPDEST PUSH1 0x2 DUP1 SLOAD SWAP2 SWAP3 POP PUSH1 0x0 PUSH2 0x1F0A DUP4 PUSH2 0x255E JUMP JUMPDEST SWAP1 SWAP2 SSTORE POP SWAP1 SWAP4 SWAP3 POP POP POP JUMP JUMPDEST PUSH2 0x1CBA DUP2 PUSH1 0x0 PUSH11 0x636F6E736F6C652E6C6F67 SWAP1 POP PUSH1 0x0 DUP1 DUP4 MLOAD PUSH1 0x20 DUP6 ADD DUP5 GAS STATICCALL POP POP POP JUMP JUMPDEST POP DUP1 SLOAD PUSH2 0x1F47 SWAP1 PUSH2 0x2577 JUMP JUMPDEST PUSH1 0x0 DUP3 SSTORE DUP1 PUSH1 0x1F LT PUSH2 0x1F57 JUMPI POP POP JUMP JUMPDEST PUSH1 0x1F ADD PUSH1 0x20 SWAP1 DIV SWAP1 PUSH1 0x0 MSTORE PUSH1 0x20 PUSH1 0x0 KECCAK256 SWAP1 DUP2 ADD SWAP1 PUSH2 0x1CBA SWAP2 SWAP1 PUSH2 0x201E JUMP JUMPDEST POP DUP1 SLOAD PUSH1 0x0 DUP3 SSTORE SWAP1 PUSH1 0x0 MSTORE PUSH1 0x20 PUSH1 0x0 KECCAK256 SWAP1 DUP2 ADD SWAP1 PUSH2 0x1CBA SWAP2 SWAP1 PUSH2 0x201E JUMP JUMPDEST DUP3 DUP1 SLOAD DUP3 DUP3 SSTORE SWAP1 PUSH1 0x0 MSTORE PUSH1 0x20 PUSH1 0x0 KECCAK256 SWAP1 DUP2 ADD SWAP3 DUP3 ISZERO PUSH2 0x1FCE JUMPI SWAP2 PUSH1 0x20 MUL DUP3 ADD JUMPDEST DUP3 DUP2 GT ISZERO PUSH2 0x1FCE JUMPI DUP3 MLOAD DUP3 SSTORE SWAP2 PUSH1 0x20 ADD SWAP2 SWAP1 PUSH1 0x1 ADD SWAP1 PUSH2 0x1FB3 JUMP JUMPDEST POP PUSH2 0x1FDA SWAP3 SWAP2 POP PUSH2 0x201E JUMP JUMPDEST POP SWAP1 JUMP JUMPDEST DUP3 DUP1 SLOAD DUP3 DUP3 SSTORE SWAP1 PUSH1 0x0 MSTORE PUSH1 0x20 PUSH1 0x0 KECCAK256 SWAP1 DUP2 ADD SWAP3 DUP3 ISZERO PUSH2 0x1FCE JUMPI PUSH1 0x0 MSTORE PUSH1 0x20 PUSH1 0x0 KECCAK256 SWAP2 DUP3 ADD JUMPDEST DUP3 DUP2 GT ISZERO PUSH2 0x1FCE JUMPI DUP3 SLOAD DUP3 SSTORE SWAP2 PUSH1 0x1 ADD SWAP2 SWAP1 PUSH1 0x1 ADD SWAP1 PUSH2 0x2003 JUMP JUMPDEST JUMPDEST DUP1 DUP3 GT ISZERO PUSH2 0x1FDA JUMPI PUSH1 0x0 DUP2 SSTORE PUSH1 0x1 ADD PUSH2 0x201F JUMP JUMPDEST PUSH1 0x0 PUSH1 0x20 DUP3 DUP5 SUB SLT ISZERO PUSH2 0x2045 JUMPI PUSH1 0x0 DUP1 REVERT JUMPDEST POP CALLDATALOAD SWAP2 SWAP1 POP JUMP JUMPDEST PUSH1 0x0 JUMPDEST DUP4 DUP2 LT ISZERO PUSH2 0x2067 JUMPI DUP2 DUP2 ADD MLOAD DUP4 DUP3 ADD MSTORE PUSH1 0x20 ADD PUSH2 0x204F JUMP JUMPDEST POP POP PUSH1 0x0 SWAP2 ADD MSTORE JUMP JUMPDEST PUSH1 0x0 DUP2 MLOAD DUP1 DUP5 MSTORE PUSH2 0x2088 DUP2 PUSH1 0x20 DUP7 ADD PUSH1 0x20 DUP7 ADD PUSH2 0x204C JUMP JUMPDEST PUSH1 0x1F ADD PUSH1 0x1F NOT AND SWAP3 SWAP1 SWAP3 ADD PUSH1 0x20 ADD SWAP3 SWAP2 POP POP JUMP JUMPDEST DUP6 DUP2 MSTORE PUSH1 0xA0 PUSH1 0x20 DUP3 ADD MSTORE PUSH1 0x0 PUSH2 0x20B5 PUSH1 0xA0 DUP4 ADD DUP8 PUSH2 0x2070 JUMP JUMPDEST DUP3 DUP2 SUB PUSH1 0x40 DUP5 ADD MSTORE PUSH2 0x20C7 DUP2 DUP8 PUSH2 0x2070 JUMP JUMPDEST SWAP1 POP DUP5 PUSH1 0x60 DUP5 ADD MSTORE DUP3 DUP2 SUB PUSH1 0x80 DUP5 ADD MSTORE PUSH2 0x20E1 DUP2 DUP6 PUSH2 0x2070 JUMP JUMPDEST SWAP9 SWAP8 POP POP POP POP POP POP POP POP JUMP JUMPDEST PUSH1 0x0 PUSH1 0x20 DUP1 DUP4 ADD DUP2 DUP5 MSTORE DUP1 DUP6 MLOAD DUP1 DUP4 MSTORE PUSH1 0x40 SWAP3 POP DUP3 DUP7 ADD SWAP2 POP DUP3 DUP2 PUSH1 0x5 SHL DUP8 ADD ADD DUP5 DUP9 ADD PUSH1 0x0 DUP1 JUMPDEST DUP5 DUP2 LT ISZERO PUSH2 0x21D8 JUMPI PUSH1 0x3F NOT DUP11 DUP6 SUB ADD DUP7 MSTORE DUP3 MLOAD PUSH1 0xC0 DUP2 MLOAD DUP7 MSTORE DUP10 DUP3 ADD MLOAD DUP2 DUP12 DUP9 ADD MSTORE PUSH2 0x2143 DUP3 DUP9 ADD DUP3 PUSH2 0x2070 JUMP JUMPDEST SWAP2 POP POP DUP9 DUP3 ADD MLOAD DUP7 DUP3 SUB DUP11 DUP9 ADD MSTORE PUSH2 0x215B DUP3 DUP3 PUSH2 0x2070 JUMP JUMPDEST PUSH1 0x60 DUP5 DUP2 ADD MLOAD DUP10 DUP4 SUB SWAP2 DUP11 ADD SWAP2 SWAP1 SWAP2 MSTORE DUP1 MLOAD DUP1 DUP4 MSTORE SWAP1 DUP14 ADD SWAP4 POP SWAP1 DUP13 ADD SWAP2 POP DUP6 SWAP1 JUMPDEST DUP1 DUP3 LT ISZERO PUSH2 0x219D JUMPI DUP4 MLOAD DUP4 MSTORE SWAP3 DUP13 ADD SWAP3 SWAP2 DUP13 ADD SWAP2 PUSH1 0x1 SWAP2 SWAP1 SWAP2 ADD SWAP1 PUSH2 0x217D JUMP JUMPDEST POP POP PUSH1 0x80 DUP4 DUP2 ADD MLOAD SWAP1 DUP9 ADD MSTORE PUSH1 0xA0 SWAP3 DUP4 ADD MLOAD DUP8 DUP3 SUB DUP5 DUP10 ADD MSTORE SWAP3 SWAP2 POP PUSH2 0x21C3 DUP2 DUP5 PUSH2 0x2070 JUMP JUMPDEST SWAP9 DUP12 ADD SWAP9 SWAP7 POP POP POP SWAP3 DUP9 ADD SWAP3 POP PUSH1 0x1 ADD PUSH2 0x2115 JUMP JUMPDEST POP SWAP2 SWAP10 SWAP9 POP POP POP POP POP POP POP POP POP JUMP JUMPDEST PUSH4 0x4E487B71 PUSH1 0xE0 SHL PUSH1 0x0 MSTORE PUSH1 0x41 PUSH1 0x4 MSTORE PUSH1 0x24 PUSH1 0x0 REVERT JUMPDEST PUSH1 0x40 MLOAD PUSH1 0x1F DUP3 ADD PUSH1 0x1F NOT AND DUP2 ADD PUSH8 0xFFFFFFFFFFFFFFFF DUP2 GT DUP3 DUP3 LT OR ISZERO PUSH2 0x2226 JUMPI PUSH2 0x2226 PUSH2 0x21E7 JUMP JUMPDEST PUSH1 0x40 MSTORE SWAP2 SWAP1 POP JUMP JUMPDEST PUSH1 0x0 PUSH8 0xFFFFFFFFFFFFFFFF DUP3 GT ISZERO PUSH2 0x2248 JUMPI PUSH2 0x2248 PUSH2 0x21E7 JUMP JUMPDEST POP PUSH1 0x5 SHL PUSH1 0x20 ADD SWAP1 JUMP JUMPDEST PUSH1 0x0 DUP3 PUSH1 0x1F DUP4 ADD SLT PUSH2 0x2263 JUMPI PUSH1 0x0 DUP1 REVERT JUMPDEST DUP2 CALLDATALOAD PUSH1 0x20 PUSH2 0x2278 PUSH2 0x2273 DUP4 PUSH2 0x222E JUMP JUMPDEST PUSH2 0x21FD JUMP JUMPDEST DUP3 DUP2 MSTORE PUSH1 0x5 SWAP3 SWAP1 SWAP3 SHL DUP5 ADD DUP2 ADD SWAP2 DUP2 DUP2 ADD SWAP1 DUP7 DUP5 GT ISZERO PUSH2 0x2297 JUMPI PUSH1 0x0 DUP1 REVERT JUMPDEST DUP3 DUP7 ADD JUMPDEST DUP5 DUP2 LT ISZERO PUSH2 0x22B2 JUMPI DUP1 CALLDATALOAD DUP4 MSTORE SWAP2 DUP4 ADD SWAP2 DUP4 ADD PUSH2 0x229B JUMP JUMPDEST POP SWAP7 SWAP6 POP POP POP POP POP POP JUMP JUMPDEST PUSH1 0x0 PUSH1 0x20 DUP3 DUP5 SUB SLT ISZERO PUSH2 0x22CF JUMPI PUSH1 0x0 DUP1 REVERT JUMPDEST DUP2 CALLDATALOAD PUSH8 0xFFFFFFFFFFFFFFFF DUP2 GT ISZERO PUSH2 0x22E6 JUMPI PUSH1 0x0 DUP1 REVERT JUMPDEST PUSH2 0x22F2 DUP5 DUP3 DUP6 ADD PUSH2 0x2252 JUMP JUMPDEST SWAP5 SWAP4 POP POP POP POP JUMP JUMPDEST PUSH1 0x20 DUP2 MSTORE PUSH1 0x0 PUSH2 0x230D PUSH1 0x20 DUP4 ADD DUP5 PUSH2 0x2070 JUMP JUMPDEST SWAP4 SWAP3 POP POP POP JUMP JUMPDEST PUSH1 0x0 DUP1 PUSH1 0x40 DUP4 DUP6 SUB SLT ISZERO PUSH2 0x2327 JUMPI PUSH1 0x0 DUP1 REVERT JUMPDEST DUP3 CALLDATALOAD PUSH1 0x1 PUSH1 0x1 PUSH1 0xA0 SHL SUB DUP2 AND DUP2 EQ PUSH2 0x233E JUMPI PUSH1 0x0 DUP1 REVERT JUMPDEST SWAP5 PUSH1 0x20 SWAP4 SWAP1 SWAP4 ADD CALLDATALOAD SWAP4 POP POP POP JUMP JUMPDEST PUSH1 0x0 DUP3 PUSH1 0x1F DUP4 ADD SLT PUSH2 0x235D JUMPI PUSH1 0x0 DUP1 REVERT JUMPDEST DUP2 CALLDATALOAD PUSH8 0xFFFFFFFFFFFFFFFF DUP2 GT ISZERO PUSH2 0x2377 JUMPI PUSH2 0x2377 PUSH2 0x21E7 JUMP JUMPDEST PUSH2 0x238A PUSH1 0x1F DUP3 ADD PUSH1 0x1F NOT AND PUSH1 0x20 ADD PUSH2 0x21FD JUMP JUMPDEST DUP2 DUP2 MSTORE DUP5 PUSH1 0x20 DUP4 DUP7 ADD ADD GT ISZERO PUSH2 0x239F JUMPI PUSH1 0x0 DUP1 REVERT JUMPDEST DUP2 PUSH1 0x20 DUP6 ADD PUSH1 0x20 DUP4 ADD CALLDATACOPY PUSH1 0x0 SWAP2 DUP2 ADD PUSH1 0x20 ADD SWAP2 SWAP1 SWAP2 MSTORE SWAP4 SWAP3 POP POP POP JUMP JUMPDEST PUSH1 0x0 DUP1 PUSH1 0x0 DUP1 PUSH1 0x0 DUP1 PUSH1 0xC0 DUP8 DUP10 SUB SLT ISZERO PUSH2 0x23D5 JUMPI PUSH1 0x0 DUP1 REVERT JUMPDEST DUP7 CALLDATALOAD SWAP6 POP PUSH1 0x20 DUP8 ADD CALLDATALOAD PUSH8 0xFFFFFFFFFFFFFFFF DUP1 DUP3 GT ISZERO PUSH2 0x23F4 JUMPI PUSH1 0x0 DUP1 REVERT JUMPDEST PUSH2 0x2400 DUP11 DUP4 DUP12 ADD PUSH2 0x234C JUMP JUMPDEST SWAP7 POP PUSH1 0x40 DUP10 ADD CALLDATALOAD SWAP2 POP DUP1 DUP3 GT ISZERO PUSH2 0x2416 JUMPI PUSH1 0x0 DUP1 REVERT JUMPDEST PUSH2 0x2422 DUP11 DUP4 DUP12 ADD PUSH2 0x234C JUMP JUMPDEST SWAP6 POP PUSH1 0x60 DUP10 ADD CALLDATALOAD SWAP2 POP DUP1 DUP3 GT ISZERO PUSH2 0x2438 JUMPI PUSH1 0x0 DUP1 REVERT JUMPDEST PUSH2 0x2444 DUP11 DUP4 DUP12 ADD PUSH2 0x2252 JUMP JUMPDEST SWAP5 POP PUSH1 0x80 DUP10 ADD CALLDATALOAD SWAP4 POP PUSH1 0xA0 DUP10 ADD CALLDATALOAD SWAP2 POP DUP1 DUP3 GT ISZERO PUSH2 0x2461 JUMPI PUSH1 0x0 DUP1 REVERT JUMPDEST POP PUSH2 0x246E DUP10 DUP3 DUP11 ADD PUSH2 0x234C JUMP JUMPDEST SWAP2 POP POP SWAP3 SWAP6 POP SWAP3 SWAP6 POP SWAP3 SWAP6 JUMP JUMPDEST PUSH1 0x0 DUP1 PUSH1 0x0 DUP1 PUSH1 0x0 PUSH1 0xA0 DUP7 DUP9 SUB SLT ISZERO PUSH2 0x2493 JUMPI PUSH1 0x0 DUP1 REVERT JUMPDEST DUP6 CALLDATALOAD PUSH8 0xFFFFFFFFFFFFFFFF DUP1 DUP3 GT ISZERO PUSH2 0x24AB JUMPI PUSH1 0x0 DUP1 REVERT JUMPDEST PUSH2 0x24B7 DUP10 DUP4 DUP11 ADD PUSH2 0x234C JUMP JUMPDEST SWAP7 POP PUSH1 0x20 DUP9 ADD CALLDATALOAD SWAP2 POP DUP1 DUP3 GT ISZERO PUSH2 0x24CD JUMPI PUSH1 0x0 DUP1 REVERT JUMPDEST PUSH2 0x24D9 DUP10 DUP4 DUP11 ADD PUSH2 0x234C JUMP JUMPDEST SWAP6 POP PUSH1 0x40 DUP9 ADD CALLDATALOAD SWAP2 POP DUP1 DUP3 GT ISZERO PUSH2 0x24EF JUMPI PUSH1 0x0 DUP1 REVERT JUMPDEST PUSH2 0x24FB DUP10 DUP4 DUP11 ADD PUSH2 0x2252 JUMP JUMPDEST SWAP5 POP PUSH1 0x60 DUP9 ADD CALLDATALOAD SWAP4 POP PUSH1 0x80 DUP9 ADD CALLDATALOAD SWAP2 POP DUP1 DUP3 GT ISZERO PUSH2 0x2518 JUMPI PUSH1 0x0 DUP1 REVERT JUMPDEST POP PUSH2 0x2525 DUP9 DUP3 DUP10 ADD PUSH2 0x234C JUMP JUMPDEST SWAP2 POP POP SWAP3 SWAP6 POP SWAP3 SWAP6 SWAP1 SWAP4 POP JUMP JUMPDEST PUSH4 0x4E487B71 PUSH1 0xE0 SHL PUSH1 0x0 MSTORE PUSH1 0x32 PUSH1 0x4 MSTORE PUSH1 0x24 PUSH1 0x0 REVERT JUMPDEST PUSH4 0x4E487B71 PUSH1 0xE0 SHL PUSH1 0x0 MSTORE PUSH1 0x11 PUSH1 0x4 MSTORE PUSH1 0x24 PUSH1 0x0 REVERT JUMPDEST PUSH1 0x0 PUSH1 0x1 DUP3 ADD PUSH2 0x2570 JUMPI PUSH2 0x2570 PUSH2 0x2548 JUMP JUMPDEST POP PUSH1 0x1 ADD SWAP1 JUMP JUMPDEST PUSH1 0x1 DUP2 DUP2 SHR SWAP1 DUP3 AND DUP1 PUSH2 0x258B JUMPI PUSH1 0x7F DUP3 AND SWAP2 POP JUMPDEST PUSH1 0x20 DUP3 LT DUP2 SUB PUSH2 0xB7C JUMPI PUSH4 0x4E487B71 PUSH1 0xE0 SHL PUSH1 0x0 MSTORE PUSH1 0x22 PUSH1 0x4 MSTORE PUSH1 0x24 PUSH1 0x0 REVERT JUMPDEST PUSH1 0x0 PUSH1 0x20 DUP1 DUP4 MSTORE PUSH1 0x0 DUP5 SLOAD PUSH2 0x25BF DUP2 PUSH2 0x2577 JUMP JUMPDEST DUP1 DUP5 DUP8 ADD MSTORE PUSH1 0x40 PUSH1 0x1 DUP1 DUP5 AND PUSH1 0x0 DUP2 EQ PUSH2 0x25E0 JUMPI PUSH1 0x1 DUP2 EQ PUSH2 0x25FA JUMPI PUSH2 0x2628 JUMP JUMPDEST PUSH1 0xFF NOT DUP6 AND DUP10 DUP5 ADD MSTORE DUP4 ISZERO ISZERO PUSH1 0x5 SHL DUP10 ADD DUP4 ADD SWAP6 POP PUSH2 0x2628 JUMP JUMPDEST DUP10 PUSH1 0x0 MSTORE DUP7 PUSH1 0x0 KECCAK256 PUSH1 0x0 JUMPDEST DUP6 DUP2 LT ISZERO PUSH2 0x2620 JUMPI DUP2 SLOAD DUP12 DUP3 ADD DUP7 ADD MSTORE SWAP1 DUP4 ADD SWAP1 DUP9 ADD PUSH2 0x2605 JUMP JUMPDEST DUP11 ADD DUP5 ADD SWAP7 POP POP JUMPDEST POP SWAP4 SWAP9 SWAP8 POP POP POP POP POP POP POP POP JUMP JUMPDEST DUP2 DUP2 SUB DUP2 DUP2 GT ISZERO PUSH2 0x2649 JUMPI PUSH2 0x2649 PUSH2 0x2548 JUMP JUMPDEST SWAP3 SWAP2 POP POP JUMP JUMPDEST PUSH4 0x4E487B71 PUSH1 0xE0 SHL PUSH1 0x0 MSTORE PUSH1 0x31 PUSH1 0x4 MSTORE PUSH1 0x24 PUSH1 0x0 REVERT JUMPDEST PUSH1 0x40 DUP1 DUP3 MSTORE DUP4 MLOAD SWAP1 DUP3 ADD DUP2 SWAP1 MSTORE PUSH1 0x0 SWAP1 PUSH1 0x20 SWAP1 PUSH1 0x60 DUP5 ADD SWAP1 DUP3 DUP8 ADD DUP5 JUMPDEST DUP3 DUP2 LT ISZERO PUSH2 0x269E JUMPI DUP2 MLOAD DUP5 MSTORE SWAP3 DUP5 ADD SWAP3 SWAP1 DUP5 ADD SWAP1 PUSH1 0x1 ADD PUSH2 0x2682 JUMP JUMPDEST POP POP POP PUSH1 0x1 PUSH1 0x1 PUSH1 0xA0 SHL SUB SWAP5 SWAP1 SWAP5 AND SWAP3 ADD SWAP2 SWAP1 SWAP2 MSTORE POP SWAP2 SWAP1 POP JUMP JUMPDEST PUSH1 0x0 PUSH1 0x20 DUP1 DUP4 DUP6 SUB SLT ISZERO PUSH2 0x26CC JUMPI PUSH1 0x0 DUP1 REVERT JUMPDEST DUP3 MLOAD PUSH8 0xFFFFFFFFFFFFFFFF DUP1 DUP3 GT ISZERO PUSH2 0x26E4 JUMPI PUSH1 0x0 DUP1 REVERT JUMPDEST DUP2 DUP6 ADD SWAP2 POP DUP6 PUSH1 0x1F DUP4 ADD SLT PUSH2 0x26F8 JUMPI PUSH1 0x0 DUP1 REVERT JUMPDEST DUP2 MLOAD PUSH2 0x2706 PUSH2 0x2273 DUP3 PUSH2 0x222E JUMP JUMPDEST DUP2 DUP2 MSTORE PUSH1 0x5 SWAP2 DUP3 SHL DUP5 ADD DUP6 ADD SWAP2 DUP6 DUP3 ADD SWAP2 SWAP1 DUP10 DUP5 GT ISZERO PUSH2 0x2725 JUMPI PUSH1 0x0 DUP1 REVERT JUMPDEST DUP7 DUP7 ADD JUMPDEST DUP5 DUP2 LT ISZERO PUSH2 0x27B1 JUMPI DUP1 MLOAD DUP7 DUP2 GT ISZERO PUSH2 0x2741 JUMPI PUSH1 0x0 DUP1 DUP2 REVERT JUMPDEST DUP8 ADD PUSH1 0x3F DUP2 ADD DUP13 SGT PUSH2 0x2753 JUMPI PUSH1 0x0 DUP1 DUP2 REVERT JUMPDEST DUP9 DUP2 ADD MLOAD PUSH1 0x40 PUSH2 0x2765 PUSH2 0x2273 DUP4 PUSH2 0x222E JUMP JUMPDEST DUP3 DUP2 MSTORE SWAP2 DUP6 SHL DUP4 ADD DUP2 ADD SWAP2 DUP12 DUP2 ADD SWAP1 DUP16 DUP5 GT ISZERO PUSH2 0x2782 JUMPI PUSH1 0x0 DUP1 DUP2 REVERT JUMPDEST SWAP4 DUP3 ADD SWAP4 JUMPDEST DUP4 DUP6 LT ISZERO PUSH2 0x27A0 JUMPI DUP5 MLOAD DUP3 MSTORE SWAP4 DUP13 ADD SWAP4 SWAP1 DUP13 ADD SWAP1 PUSH2 0x2787 JUMP JUMPDEST DUP9 MSTORE POP POP POP SWAP4 DUP9 ADD SWAP4 POP DUP8 ADD PUSH2 0x2729 JUMP JUMPDEST POP SWAP1 SWAP10 SWAP9 POP POP POP POP POP POP POP POP POP JUMP JUMPDEST PUSH1 0x0 PUSH1 0x20 DUP3 DUP5 SUB SLT ISZERO PUSH2 0x27D2 JUMPI PUSH1 0x0 DUP1 REVERT JUMPDEST POP MLOAD SWAP2 SWAP1 POP JUMP JUMPDEST PUSH4 0x4E487B71 PUSH1 0xE0 SHL PUSH1 0x0 MSTORE PUSH1 0x12 PUSH1 0x4 MSTORE PUSH1 0x24 PUSH1 0x0 REVERT JUMPDEST PUSH1 0x0 DUP3 PUSH2 0x27FE JUMPI PUSH2 0x27FE PUSH2 0x27D9 JUMP JUMPDEST POP MOD SWAP1 JUMP JUMPDEST PUSH1 0x0 DUP3 PUSH2 0x2812 JUMPI PUSH2 0x2812 PUSH2 0x27D9 JUMP JUMPDEST POP DIV SWAP1 JUMP JUMPDEST PUSH1 0x1F DUP3 GT ISZERO PUSH2 0x2861 JUMPI PUSH1 0x0 DUP2 DUP2 MSTORE PUSH1 0x20 DUP2 KECCAK256 PUSH1 0x1F DUP6 ADD PUSH1 0x5 SHR DUP2 ADD PUSH1 0x20 DUP7 LT ISZERO PUSH2 0x283E JUMPI POP DUP1 JUMPDEST PUSH1 0x1F DUP6 ADD PUSH1 0x5 SHR DUP3 ADD SWAP2 POP JUMPDEST DUP2 DUP2 LT ISZERO PUSH2 0x285D JUMPI DUP3 DUP2 SSTORE PUSH1 0x1 ADD PUSH2 0x284A JUMP JUMPDEST POP POP POP JUMPDEST POP POP POP JUMP JUMPDEST DUP2 MLOAD PUSH8 0xFFFFFFFFFFFFFFFF DUP2 GT ISZERO PUSH2 0x2880 JUMPI PUSH2 0x2880 PUSH2 0x21E7 JUMP JUMPDEST PUSH2 0x2894 DUP2 PUSH2 0x288E DUP5 SLOAD PUSH2 0x2577 JUMP JUMPDEST DUP5 PUSH2 0x2817 JUMP JUMPDEST PUSH1 0x20 DUP1 PUSH1 0x1F DUP4 GT PUSH1 0x1 DUP2 EQ PUSH2 0x28C9 JUMPI PUSH1 0x0 DUP5 ISZERO PUSH2 0x28B1 JUMPI POP DUP6 DUP4 ADD MLOAD JUMPDEST PUSH1 0x0 NOT PUSH1 0x3 DUP7 SWAP1 SHL SHR NOT AND PUSH1 0x1 DUP6 SWAP1 SHL OR DUP6 SSTORE PUSH2 0x285D JUMP JUMPDEST PUSH1 0x0 DUP6 DUP2 MSTORE PUSH1 0x20 DUP2 KECCAK256 PUSH1 0x1F NOT DUP7 AND SWAP2 JUMPDEST DUP3 DUP2 LT ISZERO PUSH2 0x28F8 JUMPI DUP9 DUP7 ADD MLOAD DUP3 SSTORE SWAP5 DUP5 ADD SWAP5 PUSH1 0x1 SWAP1 SWAP2 ADD SWAP1 DUP5 ADD PUSH2 0x28D9 JUMP JUMPDEST POP DUP6 DUP3 LT ISZERO PUSH2 0x2916 JUMPI DUP8 DUP6 ADD MLOAD PUSH1 0x0 NOT PUSH1 0x3 DUP9 SWAP1 SHL PUSH1 0xF8 AND SHR NOT AND DUP2 SSTORE JUMPDEST POP POP POP POP POP PUSH1 0x1 SWAP1 DUP2 SHL ADD SWAP1 SSTORE POP JUMP JUMPDEST PUSH1 0x0 DUP3 MLOAD PUSH2 0x2938 DUP2 DUP5 PUSH1 0x20 DUP8 ADD PUSH2 0x204C JUMP JUMPDEST SWAP2 SWAP1 SWAP2 ADD SWAP3 SWAP2 POP POP JUMP JUMPDEST PUSH1 0x0 DUP1 DUP4 SLOAD PUSH2 0x2950 DUP2 PUSH2 0x2577 JUMP JUMPDEST PUSH1 0x1 DUP3 DUP2 AND DUP1 ISZERO PUSH2 0x2968 JUMPI PUSH1 0x1 DUP2 EQ PUSH2 0x297D JUMPI PUSH2 0x29AC JUMP JUMPDEST PUSH1 0xFF NOT DUP5 AND DUP8 MSTORE DUP3 ISZERO ISZERO DUP4 MUL DUP8 ADD SWAP5 POP PUSH2 0x29AC JUMP JUMPDEST DUP8 PUSH1 0x0 MSTORE PUSH1 0x20 DUP1 PUSH1 0x0 KECCAK256 PUSH1 0x0 JUMPDEST DUP6 DUP2 LT ISZERO PUSH2 0x29A3 JUMPI DUP2 SLOAD DUP11 DUP3 ADD MSTORE SWAP1 DUP5 ADD SWAP1 DUP3 ADD PUSH2 0x298A JUMP JUMPDEST POP POP POP DUP3 DUP8 ADD SWAP5 POP JUMPDEST POP SWAP3 SWAP7 SWAP6 POP POP POP POP POP POP JUMP JUMPDEST PUSH1 0x0 PUSH1 0x20 DUP3 DUP5 SUB SLT ISZERO PUSH2 0x29CA JUMPI PUSH1 0x0 DUP1 REVERT JUMPDEST DUP2 MLOAD DUP1 ISZERO ISZERO DUP2 EQ PUSH2 0x230D JUMPI PUSH1 0x0 DUP1 REVERT JUMPDEST PUSH1 0x20 DUP1 DUP3 MSTORE PUSH1 0x29 SWAP1 DUP3 ADD MSTORE PUSH32 0x54686572652069732061206465706172746D656E74207468617420646F657320 PUSH1 0x40 DUP3 ADD MSTORE PUSH9 0x1B9BDD08195E1A5CDD PUSH1 0xBA SHL PUSH1 0x60 DUP3 ADD MSTORE PUSH1 0x80 ADD SWAP1 JUMP JUMPDEST DUP2 DUP2 SUB PUSH2 0x2A2E JUMPI POP POP JUMP JUMPDEST PUSH2 0x2A38 DUP3 SLOAD PUSH2 0x2577 JUMP JUMPDEST PUSH8 0xFFFFFFFFFFFFFFFF DUP2 GT ISZERO PUSH2 0x2A50 JUMPI PUSH2 0x2A50 PUSH2 0x21E7 JUMP JUMPDEST PUSH2 0x2A5E DUP2 PUSH2 0x288E DUP5 SLOAD PUSH2 0x2577 JUMP JUMPDEST PUSH1 0x0 PUSH1 0x1F DUP3 GT PUSH1 0x1 DUP2 EQ PUSH2 0x2A92 JUMPI PUSH1 0x0 DUP4 ISZERO PUSH2 0x2A7A JUMPI POP DUP5 DUP3 ADD SLOAD JUMPDEST PUSH1 0x0 NOT PUSH1 0x3 DUP6 SWAP1 SHL SHR NOT AND PUSH1 0x1 DUP5 SWAP1 SHL OR DUP5 SSTORE PUSH2 0x1C52 JUMP JUMPDEST PUSH1 0x0 DUP6 DUP2 MSTORE PUSH1 0x20 SWAP1 KECCAK256 PUSH1 0x1F NOT DUP5 AND SWAP1 PUSH1 0x0 DUP7 DUP2 MSTORE PUSH1 0x20 SWAP1 KECCAK256 DUP5 JUMPDEST DUP4 DUP2 LT ISZERO PUSH2 0x2ACC JUMPI DUP3 DUP7 ADD SLOAD DUP3 SSTORE PUSH1 0x1 SWAP6 DUP7 ADD SWAP6 SWAP1 SWAP2 ADD SWAP1 PUSH1 0x20 ADD PUSH2 0x2AAC JUMP JUMPDEST POP DUP6 DUP4 LT ISZERO PUSH2 0x2916 JUMPI SWAP4 ADD SLOAD PUSH1 0x0 NOT PUSH1 0xF8 PUSH1 0x3 DUP8 SWAP1 SHL AND SHR NOT AND SWAP1 SWAP3 SSTORE POP POP PUSH1 0x1 SWAP1 DUP2 SHL ADD SWAP1 SSTORE POP JUMP JUMPDEST DUP4 DUP2 MSTORE PUSH1 0x60 PUSH1 0x20 DUP3 ADD MSTORE PUSH1 0x0 PUSH2 0x2B0F PUSH1 0x60 DUP4 ADD DUP6 PUSH2 0x2070 JUMP JUMPDEST DUP3 DUP2 SUB PUSH1 0x40 DUP5 ADD MSTORE PUSH2 0x2B21 DUP2 DUP6 PUSH2 0x2070 JUMP JUMPDEST SWAP7 SWAP6 POP POP POP POP POP POP JUMP JUMPDEST PUSH1 0x0 DUP5 MLOAD PUSH2 0x2B3D DUP2 DUP5 PUSH1 0x20 DUP10 ADD PUSH2 0x204C JUMP JUMPDEST SWAP2 SWAP1 SWAP2 ADD SWAP3 DUP4 MSTORE POP PUSH1 0x20 DUP3 ADD MSTORE PUSH1 0x40 ADD SWAP2 SWAP1 POP JUMP INVALID LOG2 PUSH5 0x6970667358 0x22 SLT KECCAK256 CODECOPY 0xAA DUP5 0xD1 0xB5 0x23 0xEA BLOCKHASH GT DUP10 0xAE BALANCE PUSH2 0xAE8A PUSH10 0xA495C0AE12CB2BD7FF2F 0xC0 PUSH22 0x7BE0437864736F6C6343000814003300000000000000 "},"methodIdentifiers":{"deleteEmployee(uint256)":"1cbc90c7","departmentInstance()":"500a08aa","employeeKeys(address,uint256)":"eb17dc49","employeeMerkleRoot()":"7871ae8f","employeeToOwner(uint256)":"277ca287","employees(uint256)":"4739326b","generateEmployee(string,string,uint256[],uint256,string)":"94d51d60","getEmployees()":"4abefa36","managerKeys(address,uint256)":"4d5d674b","managers(uint256)":"3d39c260","updateEmployee(uint256,string,string,uint256[],uint256,string)":"6c643e5e","verifyDepartment(uint256[])":"4d252ead"}}}}}