{"contracts/DepartmentFactory.sol":{"DepartmentFactory":{"abi":[{"inputs":[],"stateMutability":"nonpayable","type":"constructor"},{"anonymous":false,"inputs":[{"indexed":false,"internalType":"uint256","name":"id","type":"uint256"},{"indexed":false,"internalType":"string","name":"name","type":"string"},{"indexed":true,"internalType":"address","name":"owner","type":"address"},{"indexed":false,"internalType":"bytes32","name":"merkeRoot","type":"bytes32"}],"name":"departmentCreated","type":"event"},{"inputs":[{"components":[{"internalType":"bytes32[]","name":"hashes","type":"bytes32[]"}],"internalType":"struct DepartmentFactory.ElementRow[]","name":"elementRows","type":"tuple[]"}],"name":"convertToBytesArray","outputs":[{"internalType":"bytes32[][]","name":"","type":"bytes32[][]"}],"stateMutability":"pure","type":"function"},{"inputs":[{"internalType":"string","name":"_name","type":"string"}],"name":"createDepartment","outputs":[{"components":[{"internalType":"uint256","name":"id","type":"uint256"},{"internalType":"string","name":"name","type":"string"}],"internalType":"struct DepartmentFactory.Department","name":"","type":"tuple"}],"stateMutability":"nonpayable","type":"function"},{"inputs":[{"internalType":"uint256","name":"_id","type":"uint256"},{"internalType":"address","name":"owner","type":"address"}],"name":"departmentKeyExists","outputs":[{"internalType":"bool","name":"","type":"bool"}],"stateMutability":"view","type":"function"},{"inputs":[{"internalType":"uint256[]","name":"departmentIds","type":"uint256[]"},{"internalType":"address","name":"owner","type":"address"}],"name":"departmentKeyListExits","outputs":[{"internalType":"bool","name":"","type":"bool"}],"stateMutability":"view","type":"function"},{"inputs":[{"internalType":"address","name":"","type":"address"},{"internalType":"uint256","name":"","type":"uint256"}],"name":"departmentKeys","outputs":[{"internalType":"uint256","name":"","type":"uint256"}],"stateMutability":"view","type":"function"},{"inputs":[{"internalType":"uint256","name":"","type":"uint256"}],"name":"departmentToOwner","outputs":[{"internalType":"address","name":"","type":"address"}],"stateMutability":"view","type":"function"},{"inputs":[{"internalType":"uint256","name":"","type":"uint256"}],"name":"departments","outputs":[{"internalType":"uint256","name":"id","type":"uint256"},{"internalType":"string","name":"name","type":"string"}],"stateMutability":"view","type":"function"},{"inputs":[{"internalType":"address","name":"owner","type":"address"}],"name":"generateMerkleRoot","outputs":[],"stateMutability":"nonpayable","type":"function"},{"inputs":[{"internalType":"address","name":"owner","type":"address"}],"name":"generateMerkleTree","outputs":[{"components":[{"internalType":"bytes32[]","name":"hashes","type":"bytes32[]"}],"internalType":"struct DepartmentFactory.ElementRow[]","name":"","type":"tuple[]"}],"stateMutability":"view","type":"function"},{"inputs":[{"internalType":"uint256","name":"departmentId","type":"uint256"},{"internalType":"address","name":"owner","type":"address"}],"name":"getDepartmentIdPosition","outputs":[{"internalType":"uint256","name":"","type":"uint256"}],"stateMutability":"view","type":"function"},{"inputs":[{"internalType":"address","name":"owner","type":"address"}],"name":"getDepartmentLength","outputs":[{"internalType":"uint256","name":"","type":"uint256"}],"stateMutability":"view","type":"function"},{"inputs":[],"name":"getDepartments","outputs":[{"components":[{"internalType":"uint256","name":"id","type":"uint256"},{"internalType":"string","name":"name","type":"string"}],"internalType":"struct DepartmentFactory.Department[]","name":"","type":"tuple[]"}],"stateMutability":"view","type":"function"},{"inputs":[{"internalType":"uint256","name":"departmentId","type":"uint256"}],"name":"getMerklePath","outputs":[{"internalType":"bytes32[]","name":"","type":"bytes32[]"}],"stateMutability":"nonpayable","type":"function"},{"inputs":[{"internalType":"uint256[]","name":"departmentIds","type":"uint256[]"},{"internalType":"address","name":"owner","type":"address"}],"name":"getMerklePathArray","outputs":[{"internalType":"bytes32[][]","name":"","type":"bytes32[][]"}],"stateMutability":"view","type":"function"},{"inputs":[{"internalType":"address","name":"","type":"address"}],"name":"merkleRoots","outputs":[{"internalType":"bytes32","name":"","type":"bytes32"}],"stateMutability":"view","type":"function"}],"evm":{"bytecode":{"linkReferences":{},"object":"6080604052601060008190556200001890600a62000149565b60015560006002553480156200002d57600080fd5b506200015e565b634e487b7160e01b600052601160045260246000fd5b600181815b808511156200008b5781600019048211156200006f576200006f62000034565b808516156200007d57918102915b93841c93908002906200004f565b509250929050565b600082620000a45750600162000143565b81620000b35750600062000143565b8160018114620000cc5760028114620000d757620000f7565b600191505062000143565b60ff841115620000eb57620000eb62000034565b50506001821b62000143565b5060208310610133831016604e8410600b84101617156200011c575081810a62000143565b6200012883836200004a565b80600019048211156200013f576200013f62000034565b0290505b92915050565b600062000157838362000093565b9392505050565b612544806200016e6000396000f3fe608060405234801561001057600080fd5b50600436106100f55760003560e01c80635cb65d9811610097578063bf8a23f511610066578063bf8a23f51461023c578063eaeb60e31461024f578063f0dedc8614610270578063f771ea2b146102b157600080fd5b80635cb65d98146101c95780636e4d6517146101e95780639207986f14610209578063ae9a68081461021c57600080fd5b80632c17ea6f116100d35780632c17ea6f1461015557806336a2bf70146101685780633bb83b3f1461018b5780635c26b7ca146101b457600080fd5b8063025b7a7c146100fa578063063dcdfb146101205780631b7b8dac14610135575b600080fd5b61010d610108366004611c98565b6102d1565b6040519081526020015b60405180910390f35b61013361012e366004611cc2565b610302565b005b610148610143366004611d4b565b6105fb565b6040516101179190611e56565b61010d610163366004611e69565b610806565b61017b610176366004611eb8565b61088b565b6040519015158152602001610117565b61010d610199366004611cc2565b6001600160a01b031660009081526005602052604090205490565b6101bc610979565b6040516101179190611f5f565b6101dc6101d7366004611fc1565b610b6e565b6040516101179190612139565b6101fc6101f736600461218e565b610c22565b60405161011791906121a7565b61017b610217366004611e69565b61104e565b61010d61022a366004611cc2565b60066020526000908152604090205481565b6101dc61024a366004611eb8565b6110d5565b61026261025d36600461218e565b611424565b6040516101179291906121ba565b61029961027e36600461218e565b6004602052600090815260409020546001600160a01b031681565b6040516001600160a01b039091168152602001610117565b6102c46102bf366004611cc2565b6114c9565b60405161011791906121d3565b600560205281600052604060002081815481106102ed57600080fd5b90600052602060002001600091509150505481565b6001600160a01b0381166000908152600560205260408120549081900361033e57506001600160a01b0316600090815260066020526040812055565b6001600160a01b0382166000908152600560205260408120546001600160401b0381111561036e5761036e611cdd565b604051908082528060200260200182016040528015610397578160200160208202803683370190505b50905060005b6001600160a01b038416600090815260056020526040902054811015610449576001600160a01b03841660009081526005602052604090208054829081106103e7576103e7612230565b906000526020600020015460405160200161040491815260200190565b6040516020818303038152906040528051906020012082828151811061042c5761042c612230565b6020908102919091010152806104418161225c565b91505061039d565b5080515b60018111156105b1576000805b828110156105a95761046d600184612275565b81036104fa5783818151811061048557610485612230565b602002602001015184828151811061049f5761049f612230565b60200260200101516040516020016104c1929190918252602082015260400190565b604051602081830303815290604052805190602001208483815181106104e9576104e9612230565b602002602001018181525050610589565b83818151811061050c5761050c612230565b6020026020010151848260016105229190612288565b8151811061053257610532612230565b6020026020010151604051602001610554929190918252602082015260400190565b6040516020818303038152906040528051906020012084838151811061057c5761057c612230565b6020026020010181815250505b816105938161225c565b92506105a29050600282612288565b905061045a565b50905061044d565b816000815181106105c4576105c4612230565b602002602001015160066000866001600160a01b03166001600160a01b031681526020019081526020016000208190555050505050565b6040805180820190915260008152606060208201526106198261199c565b1561066a5760405162461bcd60e51b815260206004820152601e60248201527f4465706172746d656e742068617320616c726561647920657869737465640000604482015260640160405180910390fd5b600061067583611a83565b6040805180820182528281526020808201878152600085815260039092529290208151815591519293509160018201906106af908261231e565b50503360008181526005602090815260408083208054600181018255908452828420018690558583526004909152902080546001600160a01b031916821790556106f99150610302565b33600081815260066020526040908190205490517fe4be1f5f2a54ce0d93faa1d5c3861d066ffe1ffd767941159eb16fc548dd3bd69161073c91859188916123dd565b60405180910390a2600360008281526020019081526020016000206040518060400160405290816000820154815260200160018201805461077c9061229b565b80601f01602080910402602001604051908101604052809291908181526020018280546107a89061229b565b80156107f55780601f106107ca576101008083540402835291602001916107f5565b820191906000526020600020905b8154815290600101906020018083116107d857829003601f168201915b505050505081525050915050919050565b6000805b6001600160a01b03831660009081526005602052604090205481101561087e576001600160a01b038316600090815260056020526040902080548290811061085457610854612230565b9060005260206000200154840361086c579050610885565b806108768161225c565b91505061080a565b5060001990505b92915050565b6000805b835181101561096f576000805b6001600160a01b038516600090815260056020526040902054811015610931576001600160a01b03851660009081526005602052604090208054829081106108e6576108e6612230565b906000526020600020015486848151811061090357610903612230565b60200260200101510315610931578161091b8161225c565b92505080806109299061225c565b91505061089c565b506001600160a01b038416600090815260056020526040902054810361095c57600092505050610885565b50806109678161225c565b91505061088f565b5060019392505050565b33600090815260056020526040812054606091906001600160401b038111156109a4576109a4611cdd565b6040519080825280602002602001820160405280156109ea57816020015b6040805180820190915260008152606060208201528152602001906001900390816109c25790505b50905060005b33600090815260056020526040902054811015610b68573360009081526005602052604081208054600392919084908110610a2d57610a2d612230565b9060005260206000200154815260200190815260200160002060405180604001604052908160008201548152602001600182018054610a6b9061229b565b80601f0160208091040260200160405190810160405280929190818152602001828054610a979061229b565b8015610ae45780601f10610ab957610100808354040283529160200191610ae4565b820191906000526020600020905b815481529060010190602001808311610ac757829003601f168201915b505050505081525050828281518110610aff57610aff612230565b6020026020010181905250610b30828281518110610b1f57610b1f612230565b602002602001015160000151611aca565b610b56828281518110610b4557610b45612230565b602002602001015160200151611b12565b80610b608161225c565b9150506109f0565b50919050565b6060600082516001600160401b03811115610b8b57610b8b611cdd565b604051908082528060200260200182016040528015610bbe57816020015b6060815260200190600190039081610ba95790505b50905060005b8351811015610c1b57838181518110610bdf57610bdf612230565b602002602001015160000151828281518110610bfd57610bfd612230565b60200260200101819052508080610c139061225c565b915050610bc4565b5092915050565b3360009081526005602052604081205460609190610c3f90611b55565b610c4a906002612288565b6001600160401b03811115610c6157610c61611cdd565b604051908082528060200260200182016040528015610c8a578160200160208202803683370190505b5033600090815260056020526040812054919250906001600160401b03811115610cb657610cb6611cdd565b604051908082528060200260200182016040528015610cdf578160200160208202803683370190505b50905060005b33600090815260056020526040902054811015610d7f57336000908152600560205260409020805482908110610d1d57610d1d612230565b9060005260206000200154604051602001610d3a91815260200190565b60405160208183030381529060405280519060200120828281518110610d6257610d62612230565b602090810291909101015280610d778161225c565b915050610ce5565b506000610d8c8583611be9565b9050600060001982146110445782515b6001811115611009576000805b8281101561100157610dbc600184612275565b8103610e9557808503610e0e57858181518110610ddb57610ddb612230565b6020026020010151878581518110610df557610df5612230565b602090810291909101015283610e0a8161225c565b9450505b858181518110610e2057610e20612230565b6020026020010151868281518110610e3a57610e3a612230565b6020026020010151604051602001610e5c929190918252602082015260400190565b60405160208183030381529060405280519060200120868381518110610e8457610e84612230565b602002602001018181525050610fd4565b808503610eef5785610ea8826001612288565b81518110610eb857610eb8612230565b6020026020010151878581518110610ed257610ed2612230565b602090810291909101015283610ee78161225c565b945050610f45565b610efa816001612288565b8503610f4557858181518110610f1257610f12612230565b6020026020010151878581518110610f2c57610f2c612230565b602090810291909101015283610f418161225c565b9450505b858181518110610f5757610f57612230565b602002602001015186826001610f6d9190612288565b81518110610f7d57610f7d612230565b6020026020010151604051602001610f9f929190918252602082015260400190565b60405160208183030381529060405280519060200120868381518110610fc757610fc7612230565b6020026020010181815250505b81610fde8161225c565b9250610fed905060028661241c565b9450610ffa600282612288565b9050610da9565b509050610d9c565b8360008151811061101c5761101c612230565b602002602001015185838151811061103657611036612230565b602002602001018181525050505b5091949350505050565b6000805b6001600160a01b0383166000908152600560205260409020548110156110cb576001600160a01b038316600090815260056020526040902080548591908390811061109f5761109f612230565b9060005260206000200154036110b9576001915050610885565b806110c38161225c565b915050611052565b5060009392505050565b6060600083516001600160401b038111156110f2576110f2611cdd565b60405190808252806020026020018201604052801561113257816020015b6040805160208101909152606081528152602001906001900390816111105790505b5090506000611140846114c9565b905060008160008151811061115757611157612230565b602002602001015160000151905060005b8651811015611410576001600160a01b03861660009081526005602052604081205461119390611b55565b61119e906002612288565b6001600160401b038111156111b5576111b5611cdd565b6040519080825280602002602001820160405280156111de578160200160208202803683370190505b5090506000806112078a85815181106111f9576111f9612230565b602002602001015186611be9565b905060001981146113ce5760005b86518110156113cc57600187828151811061123257611232612230565b602002602001015160000151516112499190612275565b82036113025761125a600283612430565b6000036112c75786818151811061127357611273612230565b602002602001015160000151828151811061129057611290612230565b60200260200101518484815181106112aa576112aa612230565b6020908102919091010152826112bf8161225c565b9350506113ad565b8681815181106112d9576112d9612230565b6020026020010151600001516001836112f29190612275565b8151811061129057611290612230565b61130d600283612430565b60000361133f5786818151811061132657611326612230565b6020026020010151600001518260016112f29190612288565b86818151811061135157611351612230565b60200260200101516000015160018361136a9190612275565b8151811061137a5761137a612230565b602002602001015184848151811061139457611394612230565b6020908102919091010152826113a98161225c565b9350505b6113b860028361241c565b9150806113c48161225c565b915050611215565b505b6040518060200160405280848152508785815181106113ef576113ef612230565b602002602001018190525050505080806114089061225c565b915050611168565b5061141a83610b6e565b9695505050505050565b600360205260009081526040902080546001820180549192916114469061229b565b80601f01602080910402602001604051908101604052809291908181526020018280546114729061229b565b80156114bf5780601f10611494576101008083540402835291602001916114bf565b820191906000526020600020905b8154815290600101906020018083116114a257829003601f168201915b5050505050905082565b6001600160a01b038116600090815260056020526040812054606091906114ef90611b55565b6114fa906002612288565b6001600160401b0381111561151157611511611cdd565b60405190808252806020026020018201604052801561155157816020015b60408051602081019091526060815281526020019060019003908161152f5790505b506001600160a01b0384166000908152600560205260408120549192508190036115b65760408051600080825260208201909252906115ad565b60408051602081019091526060815281526020019060019003908161158b5790505b50949350505050565b6001600160a01b0384166000908152600560205260408120546001600160401b038111156115e6576115e6611cdd565b60405190808252806020026020018201604052801561160f578160200160208202803683370190505b50905060005b6001600160a01b0386166000908152600560205260409020548110156116c1576001600160a01b038616600090815260056020526040902080548290811061165f5761165f612230565b906000526020600020015460405160200161167c91815260200190565b604051602081830303815290604052805190602001208282815181106116a4576116a4612230565b6020908102919091010152806116b98161225c565b915050611615565b50604051806020016040528082815250836000815181106116e4576116e4612230565b6020908102919091010152805160015b6001821115611991576000600261170c846001612288565b611716919061241c565b6001600160401b0381111561172d5761172d611cdd565b604051908082528060200260200182016040528015611756578160200160208202803683370190505b5090506000805b8481101561194c57611770600186612275565b810361184d5787611782600186612275565b8151811061179257611792612230565b60200260200101516000015181815181106117af576117af612230565b6020026020010151886001866117c59190612275565b815181106117d5576117d5612230565b60200260200101516000015182815181106117f2576117f2612230565b6020026020010151604051602001611814929190918252602082015260400190565b6040516020818303038152906040528051906020012083838151811061183c5761183c612230565b60200260200101818152505061192c565b87611859600186612275565b8151811061186957611869612230565b602002602001015160000151818151811061188657611886612230565b60200260200101518860018661189c9190612275565b815181106118ac576118ac612230565b6020026020010151600001518260016118c59190612288565b815181106118d5576118d5612230565b60200260200101516040516020016118f7929190918252602082015260400190565b6040516020818303038152906040528051906020012083838151811061191f5761191f612230565b6020026020010181815250505b816119368161225c565b92506119459050600282612288565b905061175d565b5080935060405180602001604052808381525087848151811061197157611971612230565b602002602001018190525082806119879061225c565b93505050506116f4565b509295945050505050565b6000805b33600090815260056020526040902054811015611a7a57826040516020016119c89190612444565b604051602081830303815290604052805190602001206003600060056000336001600160a01b03166001600160a01b031681526020019081526020016000208481548110611a1857611a18612230565b90600052602060002001548152602001908152602001600020600101604051602001611a449190612460565b6040516020818303038152906040528051906020012003611a685750600192915050565b80611a728161225c565b9150506119a0565b50600092915050565b6000806001548360025442604051602001611aa0939291906124d6565b6040516020818303038152906040528051906020012060001c611ac39190612430565b9392505050565b611b0f81604051602401611ae091815260200190565b60408051601f198184030181529190526020810180516001600160e01b031663f82c50f160e01b179052611c57565b50565b611b0f81604051602401611b2691906124fb565b60408051601f198184030181529190526020810180516001600160e01b031663104c13eb60e21b179052611c57565b600080608083901c15611b6a57608092831c92015b604083901c15611b7c57604092831c92015b602083901c15611b8e57602092831c92015b601083901c15611ba057601092831c92015b600883901c15611bb257600892831c92015b600483901c15611bc457600492831c92015b600283901c15611bd657600292831c92015b600183901c156108855760010192915050565b6000805b825181101561087e57828181518110611c0857611c08612230565b602002602001015184604051602001611c2391815260200190565b6040516020818303038152906040528051906020012003611c45579050610885565b80611c4f8161225c565b915050611bed565b611b0f8160006a636f6e736f6c652e6c6f679050600080835160208501845afa505050565b80356001600160a01b0381168114611c9357600080fd5b919050565b60008060408385031215611cab57600080fd5b611cb483611c7c565b946020939093013593505050565b600060208284031215611cd457600080fd5b611ac382611c7c565b634e487b7160e01b600052604160045260246000fd5b604051602081016001600160401b0381118282101715611d1557611d15611cdd565b60405290565b604051601f8201601f191681016001600160401b0381118282101715611d4357611d43611cdd565b604052919050565b60006020808385031215611d5e57600080fd5b82356001600160401b0380821115611d7557600080fd5b818501915085601f830112611d8957600080fd5b813581811115611d9b57611d9b611cdd565b611dad601f8201601f19168501611d1b565b91508082528684828501011115611dc357600080fd5b8084840185840137600090820190930192909252509392505050565b60005b83811015611dfa578181015183820152602001611de2565b50506000910152565b60008151808452611e1b816020860160208601611ddf565b601f01601f19169290920160200192915050565b805182526000602082015160406020850152611e4e6040850182611e03565b949350505050565b602081526000611ac36020830184611e2f565b60008060408385031215611e7c57600080fd5b82359150611e8c60208401611c7c565b90509250929050565b60006001600160401b03821115611eae57611eae611cdd565b5060051b60200190565b60008060408385031215611ecb57600080fd5b82356001600160401b03811115611ee157600080fd5b8301601f81018513611ef257600080fd5b80356020611f07611f0283611e95565b611d1b565b82815260059290921b83018101918181019088841115611f2657600080fd5b938201935b83851015611f4457843582529382019390820190611f2b565b9550611f539050868201611c7c565b93505050509250929050565b6000602080830181845280855180835260408601915060408160051b870101925083870160005b82811015611fb457603f19888603018452611fa2858351611e2f565b94509285019290850190600101611f86565b5092979650505050505050565b60006020808385031215611fd457600080fd5b82356001600160401b0380821115611feb57600080fd5b818501915085601f830112611fff57600080fd5b813561200d611f0282611e95565b81815260059190911b8301840190848101908883111561202c57600080fd5b8585015b838110156120f1578035858111156120485760008081fd5b8601808b03601f190188131561205e5760008081fd5b612066611cf3565b88820135878111156120785760008081fd5b8083019250508b603f83011261208e5760008081fd5b8882013560406120a0611f0283611e95565b82815260059290921b84018101918b8101908f8411156120c05760008081fd5b948201945b838610156120de5785358252948c0194908c01906120c5565b8452505050845250918601918601612030565b5098975050505050505050565b600081518084526020808501945080840160005b8381101561212e57815187529582019590820190600101612112565b509495945050505050565b6000602080830181845280855180835260408601915060408160051b870101925083870160005b82811015611fb457603f1988860301845261217c8583516120fe565b94509285019290850190600101612160565b6000602082840312156121a057600080fd5b5035919050565b602081526000611ac360208301846120fe565b828152604060208201526000611e4e6040830184611e03565b6000602080830181845280855180835260408601915060408160051b870101925083870160005b82811015611fb457878503603f1901845281515186865261221d878701826120fe565b95505092850192908501906001016121fa565b634e487b7160e01b600052603260045260246000fd5b634e487b7160e01b600052601160045260246000fd5b60006001820161226e5761226e612246565b5060010190565b8181038181111561088557610885612246565b8082018082111561088557610885612246565b600181811c908216806122af57607f821691505b602082108103610b6857634e487b7160e01b600052602260045260246000fd5b601f82111561231957600081815260208120601f850160051c810160208610156122f65750805b601f850160051c820191505b8181101561231557828155600101612302565b5050505b505050565b81516001600160401b0381111561233757612337611cdd565b61234b81612345845461229b565b846122cf565b602080601f83116001811461238057600084156123685750858301515b600019600386901b1c1916600185901b178555612315565b600085815260208120601f198616915b828110156123af57888601518255948401946001909101908401612390565b50858210156123cd5787850151600019600388901b60f8161c191681555b5050505050600190811b01905550565b8381526060602082015260006123f66060830185611e03565b9050826040830152949350505050565b634e487b7160e01b600052601260045260246000fd5b60008261242b5761242b612406565b500490565b60008261243f5761243f612406565b500690565b60008251612456818460208701611ddf565b9190910192915050565b600080835461246e8161229b565b60018281168015612486576001811461249b576124ca565b60ff19841687528215158302870194506124ca565b8760005260208060002060005b858110156124c15781548a8201529084019082016124a8565b50505082870194505b50929695505050505050565b6060815260006124e96060830186611e03565b60208301949094525060400152919050565b602081526000611ac36020830184611e0356fea26469706673582212201813ddc24e3ed2d7c57281e2384c477d023f7c460463f4b685f785a609ac886164736f6c63430008140033","opcodes":"PUSH1 0x80 PUSH1 0x40 MSTORE PUSH1 0x10 PUSH1 0x0 DUP2 SWAP1 SSTORE PUSH3 0x18 SWAP1 PUSH1 0xA PUSH3 0x149 JUMP JUMPDEST PUSH1 0x1 SSTORE PUSH1 0x0 PUSH1 0x2 SSTORE CALLVALUE DUP1 ISZERO PUSH3 0x2D JUMPI PUSH1 0x0 DUP1 REVERT JUMPDEST POP PUSH3 0x15E JUMP JUMPDEST PUSH4 0x4E487B71 PUSH1 0xE0 SHL PUSH1 0x0 MSTORE PUSH1 0x11 PUSH1 0x4 MSTORE PUSH1 0x24 PUSH1 0x0 REVERT JUMPDEST PUSH1 0x1 DUP2 DUP2 JUMPDEST DUP1 DUP6 GT ISZERO PUSH3 0x8B JUMPI DUP2 PUSH1 0x0 NOT DIV DUP3 GT ISZERO PUSH3 0x6F JUMPI PUSH3 0x6F PUSH3 0x34 JUMP JUMPDEST DUP1 DUP6 AND ISZERO PUSH3 0x7D JUMPI SWAP2 DUP2 MUL SWAP2 JUMPDEST SWAP4 DUP5 SHR SWAP4 SWAP1 DUP1 MUL SWAP1 PUSH3 0x4F JUMP JUMPDEST POP SWAP3 POP SWAP3 SWAP1 POP JUMP JUMPDEST PUSH1 0x0 DUP3 PUSH3 0xA4 JUMPI POP PUSH1 0x1 PUSH3 0x143 JUMP JUMPDEST DUP2 PUSH3 0xB3 JUMPI POP PUSH1 0x0 PUSH3 0x143 JUMP JUMPDEST DUP2 PUSH1 0x1 DUP2 EQ PUSH3 0xCC JUMPI PUSH1 0x2 DUP2 EQ PUSH3 0xD7 JUMPI PUSH3 0xF7 JUMP JUMPDEST PUSH1 0x1 SWAP2 POP POP PUSH3 0x143 JUMP JUMPDEST PUSH1 0xFF DUP5 GT ISZERO PUSH3 0xEB JUMPI PUSH3 0xEB PUSH3 0x34 JUMP JUMPDEST POP POP PUSH1 0x1 DUP3 SHL PUSH3 0x143 JUMP JUMPDEST POP PUSH1 0x20 DUP4 LT PUSH2 0x133 DUP4 LT AND PUSH1 0x4E DUP5 LT PUSH1 0xB DUP5 LT AND OR ISZERO PUSH3 0x11C JUMPI POP DUP2 DUP2 EXP PUSH3 0x143 JUMP JUMPDEST PUSH3 0x128 DUP4 DUP4 PUSH3 0x4A JUMP JUMPDEST DUP1 PUSH1 0x0 NOT DIV DUP3 GT ISZERO PUSH3 0x13F JUMPI PUSH3 0x13F PUSH3 0x34 JUMP JUMPDEST MUL SWAP1 POP JUMPDEST SWAP3 SWAP2 POP POP JUMP JUMPDEST PUSH1 0x0 PUSH3 0x157 DUP4 DUP4 PUSH3 0x93 JUMP JUMPDEST SWAP4 SWAP3 POP POP POP JUMP JUMPDEST PUSH2 0x2544 DUP1 PUSH3 0x16E PUSH1 0x0 CODECOPY PUSH1 0x0 RETURN INVALID PUSH1 0x80 PUSH1 0x40 MSTORE CALLVALUE DUP1 ISZERO PUSH2 0x10 JUMPI PUSH1 0x0 DUP1 REVERT JUMPDEST POP PUSH1 0x4 CALLDATASIZE LT PUSH2 0xF5 JUMPI PUSH1 0x0 CALLDATALOAD PUSH1 0xE0 SHR DUP1 PUSH4 0x5CB65D98 GT PUSH2 0x97 JUMPI DUP1 PUSH4 0xBF8A23F5 GT PUSH2 0x66 JUMPI DUP1 PUSH4 0xBF8A23F5 EQ PUSH2 0x23C JUMPI DUP1 PUSH4 0xEAEB60E3 EQ PUSH2 0x24F JUMPI DUP1 PUSH4 0xF0DEDC86 EQ PUSH2 0x270 JUMPI DUP1 PUSH4 0xF771EA2B EQ PUSH2 0x2B1 JUMPI PUSH1 0x0 DUP1 REVERT JUMPDEST DUP1 PUSH4 0x5CB65D98 EQ PUSH2 0x1C9 JUMPI DUP1 PUSH4 0x6E4D6517 EQ PUSH2 0x1E9 JUMPI DUP1 PUSH4 0x9207986F EQ PUSH2 0x209 JUMPI DUP1 PUSH4 0xAE9A6808 EQ PUSH2 0x21C JUMPI PUSH1 0x0 DUP1 REVERT JUMPDEST DUP1 PUSH4 0x2C17EA6F GT PUSH2 0xD3 JUMPI DUP1 PUSH4 0x2C17EA6F EQ PUSH2 0x155 JUMPI DUP1 PUSH4 0x36A2BF70 EQ PUSH2 0x168 JUMPI DUP1 PUSH4 0x3BB83B3F EQ PUSH2 0x18B JUMPI DUP1 PUSH4 0x5C26B7CA EQ PUSH2 0x1B4 JUMPI PUSH1 0x0 DUP1 REVERT JUMPDEST DUP1 PUSH4 0x25B7A7C EQ PUSH2 0xFA JUMPI DUP1 PUSH4 0x63DCDFB EQ PUSH2 0x120 JUMPI DUP1 PUSH4 0x1B7B8DAC EQ PUSH2 0x135 JUMPI JUMPDEST PUSH1 0x0 DUP1 REVERT JUMPDEST PUSH2 0x10D PUSH2 0x108 CALLDATASIZE PUSH1 0x4 PUSH2 0x1C98 JUMP JUMPDEST PUSH2 0x2D1 JUMP JUMPDEST PUSH1 0x40 MLOAD SWAP1 DUP2 MSTORE PUSH1 0x20 ADD JUMPDEST PUSH1 0x40 MLOAD DUP1 SWAP2 SUB SWAP1 RETURN JUMPDEST PUSH2 0x133 PUSH2 0x12E CALLDATASIZE PUSH1 0x4 PUSH2 0x1CC2 JUMP JUMPDEST PUSH2 0x302 JUMP JUMPDEST STOP JUMPDEST PUSH2 0x148 PUSH2 0x143 CALLDATASIZE PUSH1 0x4 PUSH2 0x1D4B JUMP JUMPDEST PUSH2 0x5FB JUMP JUMPDEST PUSH1 0x40 MLOAD PUSH2 0x117 SWAP2 SWAP1 PUSH2 0x1E56 JUMP JUMPDEST PUSH2 0x10D PUSH2 0x163 CALLDATASIZE PUSH1 0x4 PUSH2 0x1E69 JUMP JUMPDEST PUSH2 0x806 JUMP JUMPDEST PUSH2 0x17B PUSH2 0x176 CALLDATASIZE PUSH1 0x4 PUSH2 0x1EB8 JUMP JUMPDEST PUSH2 0x88B JUMP JUMPDEST PUSH1 0x40 MLOAD SWAP1 ISZERO ISZERO DUP2 MSTORE PUSH1 0x20 ADD PUSH2 0x117 JUMP JUMPDEST PUSH2 0x10D PUSH2 0x199 CALLDATASIZE PUSH1 0x4 PUSH2 0x1CC2 JUMP JUMPDEST PUSH1 0x1 PUSH1 0x1 PUSH1 0xA0 SHL SUB AND PUSH1 0x0 SWAP1 DUP2 MSTORE PUSH1 0x5 PUSH1 0x20 MSTORE PUSH1 0x40 SWAP1 KECCAK256 SLOAD SWAP1 JUMP JUMPDEST PUSH2 0x1BC PUSH2 0x979 JUMP JUMPDEST PUSH1 0x40 MLOAD PUSH2 0x117 SWAP2 SWAP1 PUSH2 0x1F5F JUMP JUMPDEST PUSH2 0x1DC PUSH2 0x1D7 CALLDATASIZE PUSH1 0x4 PUSH2 0x1FC1 JUMP JUMPDEST PUSH2 0xB6E JUMP JUMPDEST PUSH1 0x40 MLOAD PUSH2 0x117 SWAP2 SWAP1 PUSH2 0x2139 JUMP JUMPDEST PUSH2 0x1FC PUSH2 0x1F7 CALLDATASIZE PUSH1 0x4 PUSH2 0x218E JUMP JUMPDEST PUSH2 0xC22 JUMP JUMPDEST PUSH1 0x40 MLOAD PUSH2 0x117 SWAP2 SWAP1 PUSH2 0x21A7 JUMP JUMPDEST PUSH2 0x17B PUSH2 0x217 CALLDATASIZE PUSH1 0x4 PUSH2 0x1E69 JUMP JUMPDEST PUSH2 0x104E JUMP JUMPDEST PUSH2 0x10D PUSH2 0x22A CALLDATASIZE PUSH1 0x4 PUSH2 0x1CC2 JUMP JUMPDEST PUSH1 0x6 PUSH1 0x20 MSTORE PUSH1 0x0 SWAP1 DUP2 MSTORE PUSH1 0x40 SWAP1 KECCAK256 SLOAD DUP2 JUMP JUMPDEST PUSH2 0x1DC PUSH2 0x24A CALLDATASIZE PUSH1 0x4 PUSH2 0x1EB8 JUMP JUMPDEST PUSH2 0x10D5 JUMP JUMPDEST PUSH2 0x262 PUSH2 0x25D CALLDATASIZE PUSH1 0x4 PUSH2 0x218E JUMP JUMPDEST PUSH2 0x1424 JUMP JUMPDEST PUSH1 0x40 MLOAD PUSH2 0x117 SWAP3 SWAP2 SWAP1 PUSH2 0x21BA JUMP JUMPDEST PUSH2 0x299 PUSH2 0x27E CALLDATASIZE PUSH1 0x4 PUSH2 0x218E JUMP JUMPDEST PUSH1 0x4 PUSH1 0x20 MSTORE PUSH1 0x0 SWAP1 DUP2 MSTORE PUSH1 0x40 SWAP1 KECCAK256 SLOAD PUSH1 0x1 PUSH1 0x1 PUSH1 0xA0 SHL SUB AND DUP2 JUMP JUMPDEST PUSH1 0x40 MLOAD PUSH1 0x1 PUSH1 0x1 PUSH1 0xA0 SHL SUB SWAP1 SWAP2 AND DUP2 MSTORE PUSH1 0x20 ADD PUSH2 0x117 JUMP JUMPDEST PUSH2 0x2C4 PUSH2 0x2BF CALLDATASIZE PUSH1 0x4 PUSH2 0x1CC2 JUMP JUMPDEST PUSH2 0x14C9 JUMP JUMPDEST PUSH1 0x40 MLOAD PUSH2 0x117 SWAP2 SWAP1 PUSH2 0x21D3 JUMP JUMPDEST PUSH1 0x5 PUSH1 0x20 MSTORE DUP2 PUSH1 0x0 MSTORE PUSH1 0x40 PUSH1 0x0 KECCAK256 DUP2 DUP2 SLOAD DUP2 LT PUSH2 0x2ED JUMPI PUSH1 0x0 DUP1 REVERT JUMPDEST SWAP1 PUSH1 0x0 MSTORE PUSH1 0x20 PUSH1 0x0 KECCAK256 ADD PUSH1 0x0 SWAP2 POP SWAP2 POP POP SLOAD DUP2 JUMP JUMPDEST PUSH1 0x1 PUSH1 0x1 PUSH1 0xA0 SHL SUB DUP2 AND PUSH1 0x0 SWAP1 DUP2 MSTORE PUSH1 0x5 PUSH1 0x20 MSTORE PUSH1 0x40 DUP2 KECCAK256 SLOAD SWAP1 DUP2 SWAP1 SUB PUSH2 0x33E JUMPI POP PUSH1 0x1 PUSH1 0x1 PUSH1 0xA0 SHL SUB AND PUSH1 0x0 SWAP1 DUP2 MSTORE PUSH1 0x6 PUSH1 0x20 MSTORE PUSH1 0x40 DUP2 KECCAK256 SSTORE JUMP JUMPDEST PUSH1 0x1 PUSH1 0x1 PUSH1 0xA0 SHL SUB DUP3 AND PUSH1 0x0 SWAP1 DUP2 MSTORE PUSH1 0x5 PUSH1 0x20 MSTORE PUSH1 0x40 DUP2 KECCAK256 SLOAD PUSH1 0x1 PUSH1 0x1 PUSH1 0x40 SHL SUB DUP2 GT ISZERO PUSH2 0x36E JUMPI PUSH2 0x36E PUSH2 0x1CDD JUMP JUMPDEST PUSH1 0x40 MLOAD SWAP1 DUP1 DUP3 MSTORE DUP1 PUSH1 0x20 MUL PUSH1 0x20 ADD DUP3 ADD PUSH1 0x40 MSTORE DUP1 ISZERO PUSH2 0x397 JUMPI DUP2 PUSH1 0x20 ADD PUSH1 0x20 DUP3 MUL DUP1 CALLDATASIZE DUP4 CALLDATACOPY ADD SWAP1 POP JUMPDEST POP SWAP1 POP PUSH1 0x0 JUMPDEST PUSH1 0x1 PUSH1 0x1 PUSH1 0xA0 SHL SUB DUP5 AND PUSH1 0x0 SWAP1 DUP2 MSTORE PUSH1 0x5 PUSH1 0x20 MSTORE PUSH1 0x40 SWAP1 KECCAK256 SLOAD DUP2 LT ISZERO PUSH2 0x449 JUMPI PUSH1 0x1 PUSH1 0x1 PUSH1 0xA0 SHL SUB DUP5 AND PUSH1 0x0 SWAP1 DUP2 MSTORE PUSH1 0x5 PUSH1 0x20 MSTORE PUSH1 0x40 SWAP1 KECCAK256 DUP1 SLOAD DUP3 SWAP1 DUP2 LT PUSH2 0x3E7 JUMPI PUSH2 0x3E7 PUSH2 0x2230 JUMP JUMPDEST SWAP1 PUSH1 0x0 MSTORE PUSH1 0x20 PUSH1 0x0 KECCAK256 ADD SLOAD PUSH1 0x40 MLOAD PUSH1 0x20 ADD PUSH2 0x404 SWAP2 DUP2 MSTORE PUSH1 0x20 ADD SWAP1 JUMP JUMPDEST PUSH1 0x40 MLOAD PUSH1 0x20 DUP2 DUP4 SUB SUB DUP2 MSTORE SWAP1 PUSH1 0x40 MSTORE DUP1 MLOAD SWAP1 PUSH1 0x20 ADD KECCAK256 DUP3 DUP3 DUP2 MLOAD DUP2 LT PUSH2 0x42C JUMPI PUSH2 0x42C PUSH2 0x2230 JUMP JUMPDEST PUSH1 0x20 SWAP1 DUP2 MUL SWAP2 SWAP1 SWAP2 ADD ADD MSTORE DUP1 PUSH2 0x441 DUP2 PUSH2 0x225C JUMP JUMPDEST SWAP2 POP POP PUSH2 0x39D JUMP JUMPDEST POP DUP1 MLOAD JUMPDEST PUSH1 0x1 DUP2 GT ISZERO PUSH2 0x5B1 JUMPI PUSH1 0x0 DUP1 JUMPDEST DUP3 DUP2 LT ISZERO PUSH2 0x5A9 JUMPI PUSH2 0x46D PUSH1 0x1 DUP5 PUSH2 0x2275 JUMP JUMPDEST DUP2 SUB PUSH2 0x4FA JUMPI DUP4 DUP2 DUP2 MLOAD DUP2 LT PUSH2 0x485 JUMPI PUSH2 0x485 PUSH2 0x2230 JUMP JUMPDEST PUSH1 0x20 MUL PUSH1 0x20 ADD ADD MLOAD DUP5 DUP3 DUP2 MLOAD DUP2 LT PUSH2 0x49F JUMPI PUSH2 0x49F PUSH2 0x2230 JUMP JUMPDEST PUSH1 0x20 MUL PUSH1 0x20 ADD ADD MLOAD PUSH1 0x40 MLOAD PUSH1 0x20 ADD PUSH2 0x4C1 SWAP3 SWAP2 SWAP1 SWAP2 DUP3 MSTORE PUSH1 0x20 DUP3 ADD MSTORE PUSH1 0x40 ADD SWAP1 JUMP JUMPDEST PUSH1 0x40 MLOAD PUSH1 0x20 DUP2 DUP4 SUB SUB DUP2 MSTORE SWAP1 PUSH1 0x40 MSTORE DUP1 MLOAD SWAP1 PUSH1 0x20 ADD KECCAK256 DUP5 DUP4 DUP2 MLOAD DUP2 LT PUSH2 0x4E9 JUMPI PUSH2 0x4E9 PUSH2 0x2230 JUMP JUMPDEST PUSH1 0x20 MUL PUSH1 0x20 ADD ADD DUP2 DUP2 MSTORE POP POP PUSH2 0x589 JUMP JUMPDEST DUP4 DUP2 DUP2 MLOAD DUP2 LT PUSH2 0x50C JUMPI PUSH2 0x50C PUSH2 0x2230 JUMP JUMPDEST PUSH1 0x20 MUL PUSH1 0x20 ADD ADD MLOAD DUP5 DUP3 PUSH1 0x1 PUSH2 0x522 SWAP2 SWAP1 PUSH2 0x2288 JUMP JUMPDEST DUP2 MLOAD DUP2 LT PUSH2 0x532 JUMPI PUSH2 0x532 PUSH2 0x2230 JUMP JUMPDEST PUSH1 0x20 MUL PUSH1 0x20 ADD ADD MLOAD PUSH1 0x40 MLOAD PUSH1 0x20 ADD PUSH2 0x554 SWAP3 SWAP2 SWAP1 SWAP2 DUP3 MSTORE PUSH1 0x20 DUP3 ADD MSTORE PUSH1 0x40 ADD SWAP1 JUMP JUMPDEST PUSH1 0x40 MLOAD PUSH1 0x20 DUP2 DUP4 SUB SUB DUP2 MSTORE SWAP1 PUSH1 0x40 MSTORE DUP1 MLOAD SWAP1 PUSH1 0x20 ADD KECCAK256 DUP5 DUP4 DUP2 MLOAD DUP2 LT PUSH2 0x57C JUMPI PUSH2 0x57C PUSH2 0x2230 JUMP JUMPDEST PUSH1 0x20 MUL PUSH1 0x20 ADD ADD DUP2 DUP2 MSTORE POP POP JUMPDEST DUP2 PUSH2 0x593 DUP2 PUSH2 0x225C JUMP JUMPDEST SWAP3 POP PUSH2 0x5A2 SWAP1 POP PUSH1 0x2 DUP3 PUSH2 0x2288 JUMP JUMPDEST SWAP1 POP PUSH2 0x45A JUMP JUMPDEST POP SWAP1 POP PUSH2 0x44D JUMP JUMPDEST DUP2 PUSH1 0x0 DUP2 MLOAD DUP2 LT PUSH2 0x5C4 JUMPI PUSH2 0x5C4 PUSH2 0x2230 JUMP JUMPDEST PUSH1 0x20 MUL PUSH1 0x20 ADD ADD MLOAD PUSH1 0x6 PUSH1 0x0 DUP7 PUSH1 0x1 PUSH1 0x1 PUSH1 0xA0 SHL SUB AND PUSH1 0x1 PUSH1 0x1 PUSH1 0xA0 SHL SUB AND DUP2 MSTORE PUSH1 0x20 ADD SWAP1 DUP2 MSTORE PUSH1 0x20 ADD PUSH1 0x0 KECCAK256 DUP2 SWAP1 SSTORE POP POP POP POP POP JUMP JUMPDEST PUSH1 0x40 DUP1 MLOAD DUP1 DUP3 ADD SWAP1 SWAP2 MSTORE PUSH1 0x0 DUP2 MSTORE PUSH1 0x60 PUSH1 0x20 DUP3 ADD MSTORE PUSH2 0x619 DUP3 PUSH2 0x199C JUMP JUMPDEST ISZERO PUSH2 0x66A JUMPI PUSH1 0x40 MLOAD PUSH3 0x461BCD PUSH1 0xE5 SHL DUP2 MSTORE PUSH1 0x20 PUSH1 0x4 DUP3 ADD MSTORE PUSH1 0x1E PUSH1 0x24 DUP3 ADD MSTORE PUSH32 0x4465706172746D656E742068617320616C726561647920657869737465640000 PUSH1 0x44 DUP3 ADD MSTORE PUSH1 0x64 ADD PUSH1 0x40 MLOAD DUP1 SWAP2 SUB SWAP1 REVERT JUMPDEST PUSH1 0x0 PUSH2 0x675 DUP4 PUSH2 0x1A83 JUMP JUMPDEST PUSH1 0x40 DUP1 MLOAD DUP1 DUP3 ADD DUP3 MSTORE DUP3 DUP2 MSTORE PUSH1 0x20 DUP1 DUP3 ADD DUP8 DUP2 MSTORE PUSH1 0x0 DUP6 DUP2 MSTORE PUSH1 0x3 SWAP1 SWAP3 MSTORE SWAP3 SWAP1 KECCAK256 DUP2 MLOAD DUP2 SSTORE SWAP2 MLOAD SWAP3 SWAP4 POP SWAP2 PUSH1 0x1 DUP3 ADD SWAP1 PUSH2 0x6AF SWAP1 DUP3 PUSH2 0x231E JUMP JUMPDEST POP POP CALLER PUSH1 0x0 DUP2 DUP2 MSTORE PUSH1 0x5 PUSH1 0x20 SWAP1 DUP2 MSTORE PUSH1 0x40 DUP1 DUP4 KECCAK256 DUP1 SLOAD PUSH1 0x1 DUP2 ADD DUP3 SSTORE SWAP1 DUP5 MSTORE DUP3 DUP5 KECCAK256 ADD DUP7 SWAP1 SSTORE DUP6 DUP4 MSTORE PUSH1 0x4 SWAP1 SWAP2 MSTORE SWAP1 KECCAK256 DUP1 SLOAD PUSH1 0x1 PUSH1 0x1 PUSH1 0xA0 SHL SUB NOT AND DUP3 OR SWAP1 SSTORE PUSH2 0x6F9 SWAP2 POP PUSH2 0x302 JUMP JUMPDEST CALLER PUSH1 0x0 DUP2 DUP2 MSTORE PUSH1 0x6 PUSH1 0x20 MSTORE PUSH1 0x40 SWAP1 DUP2 SWAP1 KECCAK256 SLOAD SWAP1 MLOAD PUSH32 0xE4BE1F5F2A54CE0D93FAA1D5C3861D066FFE1FFD767941159EB16FC548DD3BD6 SWAP2 PUSH2 0x73C SWAP2 DUP6 SWAP2 DUP9 SWAP2 PUSH2 0x23DD JUMP JUMPDEST PUSH1 0x40 MLOAD DUP1 SWAP2 SUB SWAP1 LOG2 PUSH1 0x3 PUSH1 0x0 DUP3 DUP2 MSTORE PUSH1 0x20 ADD SWAP1 DUP2 MSTORE PUSH1 0x20 ADD PUSH1 0x0 KECCAK256 PUSH1 0x40 MLOAD DUP1 PUSH1 0x40 ADD PUSH1 0x40 MSTORE SWAP1 DUP2 PUSH1 0x0 DUP3 ADD SLOAD DUP2 MSTORE PUSH1 0x20 ADD PUSH1 0x1 DUP3 ADD DUP1 SLOAD PUSH2 0x77C SWAP1 PUSH2 0x229B JUMP JUMPDEST DUP1 PUSH1 0x1F ADD PUSH1 0x20 DUP1 SWAP2 DIV MUL PUSH1 0x20 ADD PUSH1 0x40 MLOAD SWAP1 DUP2 ADD PUSH1 0x40 MSTORE DUP1 SWAP3 SWAP2 SWAP1 DUP2 DUP2 MSTORE PUSH1 0x20 ADD DUP3 DUP1 SLOAD PUSH2 0x7A8 SWAP1 PUSH2 0x229B JUMP JUMPDEST DUP1 ISZERO PUSH2 0x7F5 JUMPI DUP1 PUSH1 0x1F LT PUSH2 0x7CA JUMPI PUSH2 0x100 DUP1 DUP4 SLOAD DIV MUL DUP4 MSTORE SWAP2 PUSH1 0x20 ADD SWAP2 PUSH2 0x7F5 JUMP JUMPDEST DUP3 ADD SWAP2 SWAP1 PUSH1 0x0 MSTORE PUSH1 0x20 PUSH1 0x0 KECCAK256 SWAP1 JUMPDEST DUP2 SLOAD DUP2 MSTORE SWAP1 PUSH1 0x1 ADD SWAP1 PUSH1 0x20 ADD DUP1 DUP4 GT PUSH2 0x7D8 JUMPI DUP3 SWAP1 SUB PUSH1 0x1F AND DUP3 ADD SWAP2 JUMPDEST POP POP POP POP POP DUP2 MSTORE POP POP SWAP2 POP POP SWAP2 SWAP1 POP JUMP JUMPDEST PUSH1 0x0 DUP1 JUMPDEST PUSH1 0x1 PUSH1 0x1 PUSH1 0xA0 SHL SUB DUP4 AND PUSH1 0x0 SWAP1 DUP2 MSTORE PUSH1 0x5 PUSH1 0x20 MSTORE PUSH1 0x40 SWAP1 KECCAK256 SLOAD DUP2 LT ISZERO PUSH2 0x87E JUMPI PUSH1 0x1 PUSH1 0x1 PUSH1 0xA0 SHL SUB DUP4 AND PUSH1 0x0 SWAP1 DUP2 MSTORE PUSH1 0x5 PUSH1 0x20 MSTORE PUSH1 0x40 SWAP1 KECCAK256 DUP1 SLOAD DUP3 SWAP1 DUP2 LT PUSH2 0x854 JUMPI PUSH2 0x854 PUSH2 0x2230 JUMP JUMPDEST SWAP1 PUSH1 0x0 MSTORE PUSH1 0x20 PUSH1 0x0 KECCAK256 ADD SLOAD DUP5 SUB PUSH2 0x86C JUMPI SWAP1 POP PUSH2 0x885 JUMP JUMPDEST DUP1 PUSH2 0x876 DUP2 PUSH2 0x225C JUMP JUMPDEST SWAP2 POP POP PUSH2 0x80A JUMP JUMPDEST POP PUSH1 0x0 NOT SWAP1 POP JUMPDEST SWAP3 SWAP2 POP POP JUMP JUMPDEST PUSH1 0x0 DUP1 JUMPDEST DUP4 MLOAD DUP2 LT ISZERO PUSH2 0x96F JUMPI PUSH1 0x0 DUP1 JUMPDEST PUSH1 0x1 PUSH1 0x1 PUSH1 0xA0 SHL SUB DUP6 AND PUSH1 0x0 SWAP1 DUP2 MSTORE PUSH1 0x5 PUSH1 0x20 MSTORE PUSH1 0x40 SWAP1 KECCAK256 SLOAD DUP2 LT ISZERO PUSH2 0x931 JUMPI PUSH1 0x1 PUSH1 0x1 PUSH1 0xA0 SHL SUB DUP6 AND PUSH1 0x0 SWAP1 DUP2 MSTORE PUSH1 0x5 PUSH1 0x20 MSTORE PUSH1 0x40 SWAP1 KECCAK256 DUP1 SLOAD DUP3 SWAP1 DUP2 LT PUSH2 0x8E6 JUMPI PUSH2 0x8E6 PUSH2 0x2230 JUMP JUMPDEST SWAP1 PUSH1 0x0 MSTORE PUSH1 0x20 PUSH1 0x0 KECCAK256 ADD SLOAD DUP7 DUP5 DUP2 MLOAD DUP2 LT PUSH2 0x903 JUMPI PUSH2 0x903 PUSH2 0x2230 JUMP JUMPDEST PUSH1 0x20 MUL PUSH1 0x20 ADD ADD MLOAD SUB ISZERO PUSH2 0x931 JUMPI DUP2 PUSH2 0x91B DUP2 PUSH2 0x225C JUMP JUMPDEST SWAP3 POP POP DUP1 DUP1 PUSH2 0x929 SWAP1 PUSH2 0x225C JUMP JUMPDEST SWAP2 POP POP PUSH2 0x89C JUMP JUMPDEST POP PUSH1 0x1 PUSH1 0x1 PUSH1 0xA0 SHL SUB DUP5 AND PUSH1 0x0 SWAP1 DUP2 MSTORE PUSH1 0x5 PUSH1 0x20 MSTORE PUSH1 0x40 SWAP1 KECCAK256 SLOAD DUP2 SUB PUSH2 0x95C JUMPI PUSH1 0x0 SWAP3 POP POP POP PUSH2 0x885 JUMP JUMPDEST POP DUP1 PUSH2 0x967 DUP2 PUSH2 0x225C JUMP JUMPDEST SWAP2 POP POP PUSH2 0x88F JUMP JUMPDEST POP PUSH1 0x1 SWAP4 SWAP3 POP POP POP JUMP JUMPDEST CALLER PUSH1 0x0 SWAP1 DUP2 MSTORE PUSH1 0x5 PUSH1 0x20 MSTORE PUSH1 0x40 DUP2 KECCAK256 SLOAD PUSH1 0x60 SWAP2 SWAP1 PUSH1 0x1 PUSH1 0x1 PUSH1 0x40 SHL SUB DUP2 GT ISZERO PUSH2 0x9A4 JUMPI PUSH2 0x9A4 PUSH2 0x1CDD JUMP JUMPDEST PUSH1 0x40 MLOAD SWAP1 DUP1 DUP3 MSTORE DUP1 PUSH1 0x20 MUL PUSH1 0x20 ADD DUP3 ADD PUSH1 0x40 MSTORE DUP1 ISZERO PUSH2 0x9EA JUMPI DUP2 PUSH1 0x20 ADD JUMPDEST PUSH1 0x40 DUP1 MLOAD DUP1 DUP3 ADD SWAP1 SWAP2 MSTORE PUSH1 0x0 DUP2 MSTORE PUSH1 0x60 PUSH1 0x20 DUP3 ADD MSTORE DUP2 MSTORE PUSH1 0x20 ADD SWAP1 PUSH1 0x1 SWAP1 SUB SWAP1 DUP2 PUSH2 0x9C2 JUMPI SWAP1 POP JUMPDEST POP SWAP1 POP PUSH1 0x0 JUMPDEST CALLER PUSH1 0x0 SWAP1 DUP2 MSTORE PUSH1 0x5 PUSH1 0x20 MSTORE PUSH1 0x40 SWAP1 KECCAK256 SLOAD DUP2 LT ISZERO PUSH2 0xB68 JUMPI CALLER PUSH1 0x0 SWAP1 DUP2 MSTORE PUSH1 0x5 PUSH1 0x20 MSTORE PUSH1 0x40 DUP2 KECCAK256 DUP1 SLOAD PUSH1 0x3 SWAP3 SWAP2 SWAP1 DUP5 SWAP1 DUP2 LT PUSH2 0xA2D JUMPI PUSH2 0xA2D PUSH2 0x2230 JUMP JUMPDEST SWAP1 PUSH1 0x0 MSTORE PUSH1 0x20 PUSH1 0x0 KECCAK256 ADD SLOAD DUP2 MSTORE PUSH1 0x20 ADD SWAP1 DUP2 MSTORE PUSH1 0x20 ADD PUSH1 0x0 KECCAK256 PUSH1 0x40 MLOAD DUP1 PUSH1 0x40 ADD PUSH1 0x40 MSTORE SWAP1 DUP2 PUSH1 0x0 DUP3 ADD SLOAD DUP2 MSTORE PUSH1 0x20 ADD PUSH1 0x1 DUP3 ADD DUP1 SLOAD PUSH2 0xA6B SWAP1 PUSH2 0x229B JUMP JUMPDEST DUP1 PUSH1 0x1F ADD PUSH1 0x20 DUP1 SWAP2 DIV MUL PUSH1 0x20 ADD PUSH1 0x40 MLOAD SWAP1 DUP2 ADD PUSH1 0x40 MSTORE DUP1 SWAP3 SWAP2 SWAP1 DUP2 DUP2 MSTORE PUSH1 0x20 ADD DUP3 DUP1 SLOAD PUSH2 0xA97 SWAP1 PUSH2 0x229B JUMP JUMPDEST DUP1 ISZERO PUSH2 0xAE4 JUMPI DUP1 PUSH1 0x1F LT PUSH2 0xAB9 JUMPI PUSH2 0x100 DUP1 DUP4 SLOAD DIV MUL DUP4 MSTORE SWAP2 PUSH1 0x20 ADD SWAP2 PUSH2 0xAE4 JUMP JUMPDEST DUP3 ADD SWAP2 SWAP1 PUSH1 0x0 MSTORE PUSH1 0x20 PUSH1 0x0 KECCAK256 SWAP1 JUMPDEST DUP2 SLOAD DUP2 MSTORE SWAP1 PUSH1 0x1 ADD SWAP1 PUSH1 0x20 ADD DUP1 DUP4 GT PUSH2 0xAC7 JUMPI DUP3 SWAP1 SUB PUSH1 0x1F AND DUP3 ADD SWAP2 JUMPDEST POP POP POP POP POP DUP2 MSTORE POP POP DUP3 DUP3 DUP2 MLOAD DUP2 LT PUSH2 0xAFF JUMPI PUSH2 0xAFF PUSH2 0x2230 JUMP JUMPDEST PUSH1 0x20 MUL PUSH1 0x20 ADD ADD DUP2 SWAP1 MSTORE POP PUSH2 0xB30 DUP3 DUP3 DUP2 MLOAD DUP2 LT PUSH2 0xB1F JUMPI PUSH2 0xB1F PUSH2 0x2230 JUMP JUMPDEST PUSH1 0x20 MUL PUSH1 0x20 ADD ADD MLOAD PUSH1 0x0 ADD MLOAD PUSH2 0x1ACA JUMP JUMPDEST PUSH2 0xB56 DUP3 DUP3 DUP2 MLOAD DUP2 LT PUSH2 0xB45 JUMPI PUSH2 0xB45 PUSH2 0x2230 JUMP JUMPDEST PUSH1 0x20 MUL PUSH1 0x20 ADD ADD MLOAD PUSH1 0x20 ADD MLOAD PUSH2 0x1B12 JUMP JUMPDEST DUP1 PUSH2 0xB60 DUP2 PUSH2 0x225C JUMP JUMPDEST SWAP2 POP POP PUSH2 0x9F0 JUMP JUMPDEST POP SWAP2 SWAP1 POP JUMP JUMPDEST PUSH1 0x60 PUSH1 0x0 DUP3 MLOAD PUSH1 0x1 PUSH1 0x1 PUSH1 0x40 SHL SUB DUP2 GT ISZERO PUSH2 0xB8B JUMPI PUSH2 0xB8B PUSH2 0x1CDD JUMP JUMPDEST PUSH1 0x40 MLOAD SWAP1 DUP1 DUP3 MSTORE DUP1 PUSH1 0x20 MUL PUSH1 0x20 ADD DUP3 ADD PUSH1 0x40 MSTORE DUP1 ISZERO PUSH2 0xBBE JUMPI DUP2 PUSH1 0x20 ADD JUMPDEST PUSH1 0x60 DUP2 MSTORE PUSH1 0x20 ADD SWAP1 PUSH1 0x1 SWAP1 SUB SWAP1 DUP2 PUSH2 0xBA9 JUMPI SWAP1 POP JUMPDEST POP SWAP1 POP PUSH1 0x0 JUMPDEST DUP4 MLOAD DUP2 LT ISZERO PUSH2 0xC1B JUMPI DUP4 DUP2 DUP2 MLOAD DUP2 LT PUSH2 0xBDF JUMPI PUSH2 0xBDF PUSH2 0x2230 JUMP JUMPDEST PUSH1 0x20 MUL PUSH1 0x20 ADD ADD MLOAD PUSH1 0x0 ADD MLOAD DUP3 DUP3 DUP2 MLOAD DUP2 LT PUSH2 0xBFD JUMPI PUSH2 0xBFD PUSH2 0x2230 JUMP JUMPDEST PUSH1 0x20 MUL PUSH1 0x20 ADD ADD DUP2 SWAP1 MSTORE POP DUP1 DUP1 PUSH2 0xC13 SWAP1 PUSH2 0x225C JUMP JUMPDEST SWAP2 POP POP PUSH2 0xBC4 JUMP JUMPDEST POP SWAP3 SWAP2 POP POP JUMP JUMPDEST CALLER PUSH1 0x0 SWAP1 DUP2 MSTORE PUSH1 0x5 PUSH1 0x20 MSTORE PUSH1 0x40 DUP2 KECCAK256 SLOAD PUSH1 0x60 SWAP2 SWAP1 PUSH2 0xC3F SWAP1 PUSH2 0x1B55 JUMP JUMPDEST PUSH2 0xC4A SWAP1 PUSH1 0x2 PUSH2 0x2288 JUMP JUMPDEST PUSH1 0x1 PUSH1 0x1 PUSH1 0x40 SHL SUB DUP2 GT ISZERO PUSH2 0xC61 JUMPI PUSH2 0xC61 PUSH2 0x1CDD JUMP JUMPDEST PUSH1 0x40 MLOAD SWAP1 DUP1 DUP3 MSTORE DUP1 PUSH1 0x20 MUL PUSH1 0x20 ADD DUP3 ADD PUSH1 0x40 MSTORE DUP1 ISZERO PUSH2 0xC8A JUMPI DUP2 PUSH1 0x20 ADD PUSH1 0x20 DUP3 MUL DUP1 CALLDATASIZE DUP4 CALLDATACOPY ADD SWAP1 POP JUMPDEST POP CALLER PUSH1 0x0 SWAP1 DUP2 MSTORE PUSH1 0x5 PUSH1 0x20 MSTORE PUSH1 0x40 DUP2 KECCAK256 SLOAD SWAP2 SWAP3 POP SWAP1 PUSH1 0x1 PUSH1 0x1 PUSH1 0x40 SHL SUB DUP2 GT ISZERO PUSH2 0xCB6 JUMPI PUSH2 0xCB6 PUSH2 0x1CDD JUMP JUMPDEST PUSH1 0x40 MLOAD SWAP1 DUP1 DUP3 MSTORE DUP1 PUSH1 0x20 MUL PUSH1 0x20 ADD DUP3 ADD PUSH1 0x40 MSTORE DUP1 ISZERO PUSH2 0xCDF JUMPI DUP2 PUSH1 0x20 ADD PUSH1 0x20 DUP3 MUL DUP1 CALLDATASIZE DUP4 CALLDATACOPY ADD SWAP1 POP JUMPDEST POP SWAP1 POP PUSH1 0x0 JUMPDEST CALLER PUSH1 0x0 SWAP1 DUP2 MSTORE PUSH1 0x5 PUSH1 0x20 MSTORE PUSH1 0x40 SWAP1 KECCAK256 SLOAD DUP2 LT ISZERO PUSH2 0xD7F JUMPI CALLER PUSH1 0x0 SWAP1 DUP2 MSTORE PUSH1 0x5 PUSH1 0x20 MSTORE PUSH1 0x40 SWAP1 KECCAK256 DUP1 SLOAD DUP3 SWAP1 DUP2 LT PUSH2 0xD1D JUMPI PUSH2 0xD1D PUSH2 0x2230 JUMP JUMPDEST SWAP1 PUSH1 0x0 MSTORE PUSH1 0x20 PUSH1 0x0 KECCAK256 ADD SLOAD PUSH1 0x40 MLOAD PUSH1 0x20 ADD PUSH2 0xD3A SWAP2 DUP2 MSTORE PUSH1 0x20 ADD SWAP1 JUMP JUMPDEST PUSH1 0x40 MLOAD PUSH1 0x20 DUP2 DUP4 SUB SUB DUP2 MSTORE SWAP1 PUSH1 0x40 MSTORE DUP1 MLOAD SWAP1 PUSH1 0x20 ADD KECCAK256 DUP3 DUP3 DUP2 MLOAD DUP2 LT PUSH2 0xD62 JUMPI PUSH2 0xD62 PUSH2 0x2230 JUMP JUMPDEST PUSH1 0x20 SWAP1 DUP2 MUL SWAP2 SWAP1 SWAP2 ADD ADD MSTORE DUP1 PUSH2 0xD77 DUP2 PUSH2 0x225C JUMP JUMPDEST SWAP2 POP POP PUSH2 0xCE5 JUMP JUMPDEST POP PUSH1 0x0 PUSH2 0xD8C DUP6 DUP4 PUSH2 0x1BE9 JUMP JUMPDEST SWAP1 POP PUSH1 0x0 PUSH1 0x0 NOT DUP3 EQ PUSH2 0x1044 JUMPI DUP3 MLOAD JUMPDEST PUSH1 0x1 DUP2 GT ISZERO PUSH2 0x1009 JUMPI PUSH1 0x0 DUP1 JUMPDEST DUP3 DUP2 LT ISZERO PUSH2 0x1001 JUMPI PUSH2 0xDBC PUSH1 0x1 DUP5 PUSH2 0x2275 JUMP JUMPDEST DUP2 SUB PUSH2 0xE95 JUMPI DUP1 DUP6 SUB PUSH2 0xE0E JUMPI DUP6 DUP2 DUP2 MLOAD DUP2 LT PUSH2 0xDDB JUMPI PUSH2 0xDDB PUSH2 0x2230 JUMP JUMPDEST PUSH1 0x20 MUL PUSH1 0x20 ADD ADD MLOAD DUP8 DUP6 DUP2 MLOAD DUP2 LT PUSH2 0xDF5 JUMPI PUSH2 0xDF5 PUSH2 0x2230 JUMP JUMPDEST PUSH1 0x20 SWAP1 DUP2 MUL SWAP2 SWAP1 SWAP2 ADD ADD MSTORE DUP4 PUSH2 0xE0A DUP2 PUSH2 0x225C JUMP JUMPDEST SWAP5 POP POP JUMPDEST DUP6 DUP2 DUP2 MLOAD DUP2 LT PUSH2 0xE20 JUMPI PUSH2 0xE20 PUSH2 0x2230 JUMP JUMPDEST PUSH1 0x20 MUL PUSH1 0x20 ADD ADD MLOAD DUP7 DUP3 DUP2 MLOAD DUP2 LT PUSH2 0xE3A JUMPI PUSH2 0xE3A PUSH2 0x2230 JUMP JUMPDEST PUSH1 0x20 MUL PUSH1 0x20 ADD ADD MLOAD PUSH1 0x40 MLOAD PUSH1 0x20 ADD PUSH2 0xE5C SWAP3 SWAP2 SWAP1 SWAP2 DUP3 MSTORE PUSH1 0x20 DUP3 ADD MSTORE PUSH1 0x40 ADD SWAP1 JUMP JUMPDEST PUSH1 0x40 MLOAD PUSH1 0x20 DUP2 DUP4 SUB SUB DUP2 MSTORE SWAP1 PUSH1 0x40 MSTORE DUP1 MLOAD SWAP1 PUSH1 0x20 ADD KECCAK256 DUP7 DUP4 DUP2 MLOAD DUP2 LT PUSH2 0xE84 JUMPI PUSH2 0xE84 PUSH2 0x2230 JUMP JUMPDEST PUSH1 0x20 MUL PUSH1 0x20 ADD ADD DUP2 DUP2 MSTORE POP POP PUSH2 0xFD4 JUMP JUMPDEST DUP1 DUP6 SUB PUSH2 0xEEF JUMPI DUP6 PUSH2 0xEA8 DUP3 PUSH1 0x1 PUSH2 0x2288 JUMP JUMPDEST DUP2 MLOAD DUP2 LT PUSH2 0xEB8 JUMPI PUSH2 0xEB8 PUSH2 0x2230 JUMP JUMPDEST PUSH1 0x20 MUL PUSH1 0x20 ADD ADD MLOAD DUP8 DUP6 DUP2 MLOAD DUP2 LT PUSH2 0xED2 JUMPI PUSH2 0xED2 PUSH2 0x2230 JUMP JUMPDEST PUSH1 0x20 SWAP1 DUP2 MUL SWAP2 SWAP1 SWAP2 ADD ADD MSTORE DUP4 PUSH2 0xEE7 DUP2 PUSH2 0x225C JUMP JUMPDEST SWAP5 POP POP PUSH2 0xF45 JUMP JUMPDEST PUSH2 0xEFA DUP2 PUSH1 0x1 PUSH2 0x2288 JUMP JUMPDEST DUP6 SUB PUSH2 0xF45 JUMPI DUP6 DUP2 DUP2 MLOAD DUP2 LT PUSH2 0xF12 JUMPI PUSH2 0xF12 PUSH2 0x2230 JUMP JUMPDEST PUSH1 0x20 MUL PUSH1 0x20 ADD ADD MLOAD DUP8 DUP6 DUP2 MLOAD DUP2 LT PUSH2 0xF2C JUMPI PUSH2 0xF2C PUSH2 0x2230 JUMP JUMPDEST PUSH1 0x20 SWAP1 DUP2 MUL SWAP2 SWAP1 SWAP2 ADD ADD MSTORE DUP4 PUSH2 0xF41 DUP2 PUSH2 0x225C JUMP JUMPDEST SWAP5 POP POP JUMPDEST DUP6 DUP2 DUP2 MLOAD DUP2 LT PUSH2 0xF57 JUMPI PUSH2 0xF57 PUSH2 0x2230 JUMP JUMPDEST PUSH1 0x20 MUL PUSH1 0x20 ADD ADD MLOAD DUP7 DUP3 PUSH1 0x1 PUSH2 0xF6D SWAP2 SWAP1 PUSH2 0x2288 JUMP JUMPDEST DUP2 MLOAD DUP2 LT PUSH2 0xF7D JUMPI PUSH2 0xF7D PUSH2 0x2230 JUMP JUMPDEST PUSH1 0x20 MUL PUSH1 0x20 ADD ADD MLOAD PUSH1 0x40 MLOAD PUSH1 0x20 ADD PUSH2 0xF9F SWAP3 SWAP2 SWAP1 SWAP2 DUP3 MSTORE PUSH1 0x20 DUP3 ADD MSTORE PUSH1 0x40 ADD SWAP1 JUMP JUMPDEST PUSH1 0x40 MLOAD PUSH1 0x20 DUP2 DUP4 SUB SUB DUP2 MSTORE SWAP1 PUSH1 0x40 MSTORE DUP1 MLOAD SWAP1 PUSH1 0x20 ADD KECCAK256 DUP7 DUP4 DUP2 MLOAD DUP2 LT PUSH2 0xFC7 JUMPI PUSH2 0xFC7 PUSH2 0x2230 JUMP JUMPDEST PUSH1 0x20 MUL PUSH1 0x20 ADD ADD DUP2 DUP2 MSTORE POP POP JUMPDEST DUP2 PUSH2 0xFDE DUP2 PUSH2 0x225C JUMP JUMPDEST SWAP3 POP PUSH2 0xFED SWAP1 POP PUSH1 0x2 DUP7 PUSH2 0x241C JUMP JUMPDEST SWAP5 POP PUSH2 0xFFA PUSH1 0x2 DUP3 PUSH2 0x2288 JUMP JUMPDEST SWAP1 POP PUSH2 0xDA9 JUMP JUMPDEST POP SWAP1 POP PUSH2 0xD9C JUMP JUMPDEST DUP4 PUSH1 0x0 DUP2 MLOAD DUP2 LT PUSH2 0x101C JUMPI PUSH2 0x101C PUSH2 0x2230 JUMP JUMPDEST PUSH1 0x20 MUL PUSH1 0x20 ADD ADD MLOAD DUP6 DUP4 DUP2 MLOAD DUP2 LT PUSH2 0x1036 JUMPI PUSH2 0x1036 PUSH2 0x2230 JUMP JUMPDEST PUSH1 0x20 MUL PUSH1 0x20 ADD ADD DUP2 DUP2 MSTORE POP POP POP JUMPDEST POP SWAP2 SWAP5 SWAP4 POP POP POP POP JUMP JUMPDEST PUSH1 0x0 DUP1 JUMPDEST PUSH1 0x1 PUSH1 0x1 PUSH1 0xA0 SHL SUB DUP4 AND PUSH1 0x0 SWAP1 DUP2 MSTORE PUSH1 0x5 PUSH1 0x20 MSTORE PUSH1 0x40 SWAP1 KECCAK256 SLOAD DUP2 LT ISZERO PUSH2 0x10CB JUMPI PUSH1 0x1 PUSH1 0x1 PUSH1 0xA0 SHL SUB DUP4 AND PUSH1 0x0 SWAP1 DUP2 MSTORE PUSH1 0x5 PUSH1 0x20 MSTORE PUSH1 0x40 SWAP1 KECCAK256 DUP1 SLOAD DUP6 SWAP2 SWAP1 DUP4 SWAP1 DUP2 LT PUSH2 0x109F JUMPI PUSH2 0x109F PUSH2 0x2230 JUMP JUMPDEST SWAP1 PUSH1 0x0 MSTORE PUSH1 0x20 PUSH1 0x0 KECCAK256 ADD SLOAD SUB PUSH2 0x10B9 JUMPI PUSH1 0x1 SWAP2 POP POP PUSH2 0x885 JUMP JUMPDEST DUP1 PUSH2 0x10C3 DUP2 PUSH2 0x225C JUMP JUMPDEST SWAP2 POP POP PUSH2 0x1052 JUMP JUMPDEST POP PUSH1 0x0 SWAP4 SWAP3 POP POP POP JUMP JUMPDEST PUSH1 0x60 PUSH1 0x0 DUP4 MLOAD PUSH1 0x1 PUSH1 0x1 PUSH1 0x40 SHL SUB DUP2 GT ISZERO PUSH2 0x10F2 JUMPI PUSH2 0x10F2 PUSH2 0x1CDD JUMP JUMPDEST PUSH1 0x40 MLOAD SWAP1 DUP1 DUP3 MSTORE DUP1 PUSH1 0x20 MUL PUSH1 0x20 ADD DUP3 ADD PUSH1 0x40 MSTORE DUP1 ISZERO PUSH2 0x1132 JUMPI DUP2 PUSH1 0x20 ADD JUMPDEST PUSH1 0x40 DUP1 MLOAD PUSH1 0x20 DUP2 ADD SWAP1 SWAP2 MSTORE PUSH1 0x60 DUP2 MSTORE DUP2 MSTORE PUSH1 0x20 ADD SWAP1 PUSH1 0x1 SWAP1 SUB SWAP1 DUP2 PUSH2 0x1110 JUMPI SWAP1 POP JUMPDEST POP SWAP1 POP PUSH1 0x0 PUSH2 0x1140 DUP5 PUSH2 0x14C9 JUMP JUMPDEST SWAP1 POP PUSH1 0x0 DUP2 PUSH1 0x0 DUP2 MLOAD DUP2 LT PUSH2 0x1157 JUMPI PUSH2 0x1157 PUSH2 0x2230 JUMP JUMPDEST PUSH1 0x20 MUL PUSH1 0x20 ADD ADD MLOAD PUSH1 0x0 ADD MLOAD SWAP1 POP PUSH1 0x0 JUMPDEST DUP7 MLOAD DUP2 LT ISZERO PUSH2 0x1410 JUMPI PUSH1 0x1 PUSH1 0x1 PUSH1 0xA0 SHL SUB DUP7 AND PUSH1 0x0 SWAP1 DUP2 MSTORE PUSH1 0x5 PUSH1 0x20 MSTORE PUSH1 0x40 DUP2 KECCAK256 SLOAD PUSH2 0x1193 SWAP1 PUSH2 0x1B55 JUMP JUMPDEST PUSH2 0x119E SWAP1 PUSH1 0x2 PUSH2 0x2288 JUMP JUMPDEST PUSH1 0x1 PUSH1 0x1 PUSH1 0x40 SHL SUB DUP2 GT ISZERO PUSH2 0x11B5 JUMPI PUSH2 0x11B5 PUSH2 0x1CDD JUMP JUMPDEST PUSH1 0x40 MLOAD SWAP1 DUP1 DUP3 MSTORE DUP1 PUSH1 0x20 MUL PUSH1 0x20 ADD DUP3 ADD PUSH1 0x40 MSTORE DUP1 ISZERO PUSH2 0x11DE JUMPI DUP2 PUSH1 0x20 ADD PUSH1 0x20 DUP3 MUL DUP1 CALLDATASIZE DUP4 CALLDATACOPY ADD SWAP1 POP JUMPDEST POP SWAP1 POP PUSH1 0x0 DUP1 PUSH2 0x1207 DUP11 DUP6 DUP2 MLOAD DUP2 LT PUSH2 0x11F9 JUMPI PUSH2 0x11F9 PUSH2 0x2230 JUMP JUMPDEST PUSH1 0x20 MUL PUSH1 0x20 ADD ADD MLOAD DUP7 PUSH2 0x1BE9 JUMP JUMPDEST SWAP1 POP PUSH1 0x0 NOT DUP2 EQ PUSH2 0x13CE JUMPI PUSH1 0x0 JUMPDEST DUP7 MLOAD DUP2 LT ISZERO PUSH2 0x13CC JUMPI PUSH1 0x1 DUP8 DUP3 DUP2 MLOAD DUP2 LT PUSH2 0x1232 JUMPI PUSH2 0x1232 PUSH2 0x2230 JUMP JUMPDEST PUSH1 0x20 MUL PUSH1 0x20 ADD ADD MLOAD PUSH1 0x0 ADD MLOAD MLOAD PUSH2 0x1249 SWAP2 SWAP1 PUSH2 0x2275 JUMP JUMPDEST DUP3 SUB PUSH2 0x1302 JUMPI PUSH2 0x125A PUSH1 0x2 DUP4 PUSH2 0x2430 JUMP JUMPDEST PUSH1 0x0 SUB PUSH2 0x12C7 JUMPI DUP7 DUP2 DUP2 MLOAD DUP2 LT PUSH2 0x1273 JUMPI PUSH2 0x1273 PUSH2 0x2230 JUMP JUMPDEST PUSH1 0x20 MUL PUSH1 0x20 ADD ADD MLOAD PUSH1 0x0 ADD MLOAD DUP3 DUP2 MLOAD DUP2 LT PUSH2 0x1290 JUMPI PUSH2 0x1290 PUSH2 0x2230 JUMP JUMPDEST PUSH1 0x20 MUL PUSH1 0x20 ADD ADD MLOAD DUP5 DUP5 DUP2 MLOAD DUP2 LT PUSH2 0x12AA JUMPI PUSH2 0x12AA PUSH2 0x2230 JUMP JUMPDEST PUSH1 0x20 SWAP1 DUP2 MUL SWAP2 SWAP1 SWAP2 ADD ADD MSTORE DUP3 PUSH2 0x12BF DUP2 PUSH2 0x225C JUMP JUMPDEST SWAP4 POP POP PUSH2 0x13AD JUMP JUMPDEST DUP7 DUP2 DUP2 MLOAD DUP2 LT PUSH2 0x12D9 JUMPI PUSH2 0x12D9 PUSH2 0x2230 JUMP JUMPDEST PUSH1 0x20 MUL PUSH1 0x20 ADD ADD MLOAD PUSH1 0x0 ADD MLOAD PUSH1 0x1 DUP4 PUSH2 0x12F2 SWAP2 SWAP1 PUSH2 0x2275 JUMP JUMPDEST DUP2 MLOAD DUP2 LT PUSH2 0x1290 JUMPI PUSH2 0x1290 PUSH2 0x2230 JUMP JUMPDEST PUSH2 0x130D PUSH1 0x2 DUP4 PUSH2 0x2430 JUMP JUMPDEST PUSH1 0x0 SUB PUSH2 0x133F JUMPI DUP7 DUP2 DUP2 MLOAD DUP2 LT PUSH2 0x1326 JUMPI PUSH2 0x1326 PUSH2 0x2230 JUMP JUMPDEST PUSH1 0x20 MUL PUSH1 0x20 ADD ADD MLOAD PUSH1 0x0 ADD MLOAD DUP3 PUSH1 0x1 PUSH2 0x12F2 SWAP2 SWAP1 PUSH2 0x2288 JUMP JUMPDEST DUP7 DUP2 DUP2 MLOAD DUP2 LT PUSH2 0x1351 JUMPI PUSH2 0x1351 PUSH2 0x2230 JUMP JUMPDEST PUSH1 0x20 MUL PUSH1 0x20 ADD ADD MLOAD PUSH1 0x0 ADD MLOAD PUSH1 0x1 DUP4 PUSH2 0x136A SWAP2 SWAP1 PUSH2 0x2275 JUMP JUMPDEST DUP2 MLOAD DUP2 LT PUSH2 0x137A JUMPI PUSH2 0x137A PUSH2 0x2230 JUMP JUMPDEST PUSH1 0x20 MUL PUSH1 0x20 ADD ADD MLOAD DUP5 DUP5 DUP2 MLOAD DUP2 LT PUSH2 0x1394 JUMPI PUSH2 0x1394 PUSH2 0x2230 JUMP JUMPDEST PUSH1 0x20 SWAP1 DUP2 MUL SWAP2 SWAP1 SWAP2 ADD ADD MSTORE DUP3 PUSH2 0x13A9 DUP2 PUSH2 0x225C JUMP JUMPDEST SWAP4 POP POP JUMPDEST PUSH2 0x13B8 PUSH1 0x2 DUP4 PUSH2 0x241C JUMP JUMPDEST SWAP2 POP DUP1 PUSH2 0x13C4 DUP2 PUSH2 0x225C JUMP JUMPDEST SWAP2 POP POP PUSH2 0x1215 JUMP JUMPDEST POP JUMPDEST PUSH1 0x40 MLOAD DUP1 PUSH1 0x20 ADD PUSH1 0x40 MSTORE DUP1 DUP5 DUP2 MSTORE POP DUP8 DUP6 DUP2 MLOAD DUP2 LT PUSH2 0x13EF JUMPI PUSH2 0x13EF PUSH2 0x2230 JUMP JUMPDEST PUSH1 0x20 MUL PUSH1 0x20 ADD ADD DUP2 SWAP1 MSTORE POP POP POP POP DUP1 DUP1 PUSH2 0x1408 SWAP1 PUSH2 0x225C JUMP JUMPDEST SWAP2 POP POP PUSH2 0x1168 JUMP JUMPDEST POP PUSH2 0x141A DUP4 PUSH2 0xB6E JUMP JUMPDEST SWAP7 SWAP6 POP POP POP POP POP POP JUMP JUMPDEST PUSH1 0x3 PUSH1 0x20 MSTORE PUSH1 0x0 SWAP1 DUP2 MSTORE PUSH1 0x40 SWAP1 KECCAK256 DUP1 SLOAD PUSH1 0x1 DUP3 ADD DUP1 SLOAD SWAP2 SWAP3 SWAP2 PUSH2 0x1446 SWAP1 PUSH2 0x229B JUMP JUMPDEST DUP1 PUSH1 0x1F ADD PUSH1 0x20 DUP1 SWAP2 DIV MUL PUSH1 0x20 ADD PUSH1 0x40 MLOAD SWAP1 DUP2 ADD PUSH1 0x40 MSTORE DUP1 SWAP3 SWAP2 SWAP1 DUP2 DUP2 MSTORE PUSH1 0x20 ADD DUP3 DUP1 SLOAD PUSH2 0x1472 SWAP1 PUSH2 0x229B JUMP JUMPDEST DUP1 ISZERO PUSH2 0x14BF JUMPI DUP1 PUSH1 0x1F LT PUSH2 0x1494 JUMPI PUSH2 0x100 DUP1 DUP4 SLOAD DIV MUL DUP4 MSTORE SWAP2 PUSH1 0x20 ADD SWAP2 PUSH2 0x14BF JUMP JUMPDEST DUP3 ADD SWAP2 SWAP1 PUSH1 0x0 MSTORE PUSH1 0x20 PUSH1 0x0 KECCAK256 SWAP1 JUMPDEST DUP2 SLOAD DUP2 MSTORE SWAP1 PUSH1 0x1 ADD SWAP1 PUSH1 0x20 ADD DUP1 DUP4 GT PUSH2 0x14A2 JUMPI DUP3 SWAP1 SUB PUSH1 0x1F AND DUP3 ADD SWAP2 JUMPDEST POP POP POP POP POP SWAP1 POP DUP3 JUMP JUMPDEST PUSH1 0x1 PUSH1 0x1 PUSH1 0xA0 SHL SUB DUP2 AND PUSH1 0x0 SWAP1 DUP2 MSTORE PUSH1 0x5 PUSH1 0x20 MSTORE PUSH1 0x40 DUP2 KECCAK256 SLOAD PUSH1 0x60 SWAP2 SWAP1 PUSH2 0x14EF SWAP1 PUSH2 0x1B55 JUMP JUMPDEST PUSH2 0x14FA SWAP1 PUSH1 0x2 PUSH2 0x2288 JUMP JUMPDEST PUSH1 0x1 PUSH1 0x1 PUSH1 0x40 SHL SUB DUP2 GT ISZERO PUSH2 0x1511 JUMPI PUSH2 0x1511 PUSH2 0x1CDD JUMP JUMPDEST PUSH1 0x40 MLOAD SWAP1 DUP1 DUP3 MSTORE DUP1 PUSH1 0x20 MUL PUSH1 0x20 ADD DUP3 ADD PUSH1 0x40 MSTORE DUP1 ISZERO PUSH2 0x1551 JUMPI DUP2 PUSH1 0x20 ADD JUMPDEST PUSH1 0x40 DUP1 MLOAD PUSH1 0x20 DUP2 ADD SWAP1 SWAP2 MSTORE PUSH1 0x60 DUP2 MSTORE DUP2 MSTORE PUSH1 0x20 ADD SWAP1 PUSH1 0x1 SWAP1 SUB SWAP1 DUP2 PUSH2 0x152F JUMPI SWAP1 POP JUMPDEST POP PUSH1 0x1 PUSH1 0x1 PUSH1 0xA0 SHL SUB DUP5 AND PUSH1 0x0 SWAP1 DUP2 MSTORE PUSH1 0x5 PUSH1 0x20 MSTORE PUSH1 0x40 DUP2 KECCAK256 SLOAD SWAP2 SWAP3 POP DUP2 SWAP1 SUB PUSH2 0x15B6 JUMPI PUSH1 0x40 DUP1 MLOAD PUSH1 0x0 DUP1 DUP3 MSTORE PUSH1 0x20 DUP3 ADD SWAP1 SWAP3 MSTORE SWAP1 PUSH2 0x15AD JUMP JUMPDEST PUSH1 0x40 DUP1 MLOAD PUSH1 0x20 DUP2 ADD SWAP1 SWAP2 MSTORE PUSH1 0x60 DUP2 MSTORE DUP2 MSTORE PUSH1 0x20 ADD SWAP1 PUSH1 0x1 SWAP1 SUB SWAP1 DUP2 PUSH2 0x158B JUMPI SWAP1 POP JUMPDEST POP SWAP5 SWAP4 POP POP POP POP JUMP JUMPDEST PUSH1 0x1 PUSH1 0x1 PUSH1 0xA0 SHL SUB DUP5 AND PUSH1 0x0 SWAP1 DUP2 MSTORE PUSH1 0x5 PUSH1 0x20 MSTORE PUSH1 0x40 DUP2 KECCAK256 SLOAD PUSH1 0x1 PUSH1 0x1 PUSH1 0x40 SHL SUB DUP2 GT ISZERO PUSH2 0x15E6 JUMPI PUSH2 0x15E6 PUSH2 0x1CDD JUMP JUMPDEST PUSH1 0x40 MLOAD SWAP1 DUP1 DUP3 MSTORE DUP1 PUSH1 0x20 MUL PUSH1 0x20 ADD DUP3 ADD PUSH1 0x40 MSTORE DUP1 ISZERO PUSH2 0x160F JUMPI DUP2 PUSH1 0x20 ADD PUSH1 0x20 DUP3 MUL DUP1 CALLDATASIZE DUP4 CALLDATACOPY ADD SWAP1 POP JUMPDEST POP SWAP1 POP PUSH1 0x0 JUMPDEST PUSH1 0x1 PUSH1 0x1 PUSH1 0xA0 SHL SUB DUP7 AND PUSH1 0x0 SWAP1 DUP2 MSTORE PUSH1 0x5 PUSH1 0x20 MSTORE PUSH1 0x40 SWAP1 KECCAK256 SLOAD DUP2 LT ISZERO PUSH2 0x16C1 JUMPI PUSH1 0x1 PUSH1 0x1 PUSH1 0xA0 SHL SUB DUP7 AND PUSH1 0x0 SWAP1 DUP2 MSTORE PUSH1 0x5 PUSH1 0x20 MSTORE PUSH1 0x40 SWAP1 KECCAK256 DUP1 SLOAD DUP3 SWAP1 DUP2 LT PUSH2 0x165F JUMPI PUSH2 0x165F PUSH2 0x2230 JUMP JUMPDEST SWAP1 PUSH1 0x0 MSTORE PUSH1 0x20 PUSH1 0x0 KECCAK256 ADD SLOAD PUSH1 0x40 MLOAD PUSH1 0x20 ADD PUSH2 0x167C SWAP2 DUP2 MSTORE PUSH1 0x20 ADD SWAP1 JUMP JUMPDEST PUSH1 0x40 MLOAD PUSH1 0x20 DUP2 DUP4 SUB SUB DUP2 MSTORE SWAP1 PUSH1 0x40 MSTORE DUP1 MLOAD SWAP1 PUSH1 0x20 ADD KECCAK256 DUP3 DUP3 DUP2 MLOAD DUP2 LT PUSH2 0x16A4 JUMPI PUSH2 0x16A4 PUSH2 0x2230 JUMP JUMPDEST PUSH1 0x20 SWAP1 DUP2 MUL SWAP2 SWAP1 SWAP2 ADD ADD MSTORE DUP1 PUSH2 0x16B9 DUP2 PUSH2 0x225C JUMP JUMPDEST SWAP2 POP POP PUSH2 0x1615 JUMP JUMPDEST POP PUSH1 0x40 MLOAD DUP1 PUSH1 0x20 ADD PUSH1 0x40 MSTORE DUP1 DUP3 DUP2 MSTORE POP DUP4 PUSH1 0x0 DUP2 MLOAD DUP2 LT PUSH2 0x16E4 JUMPI PUSH2 0x16E4 PUSH2 0x2230 JUMP JUMPDEST PUSH1 0x20 SWAP1 DUP2 MUL SWAP2 SWAP1 SWAP2 ADD ADD MSTORE DUP1 MLOAD PUSH1 0x1 JUMPDEST PUSH1 0x1 DUP3 GT ISZERO PUSH2 0x1991 JUMPI PUSH1 0x0 PUSH1 0x2 PUSH2 0x170C DUP5 PUSH1 0x1 PUSH2 0x2288 JUMP JUMPDEST PUSH2 0x1716 SWAP2 SWAP1 PUSH2 0x241C JUMP JUMPDEST PUSH1 0x1 PUSH1 0x1 PUSH1 0x40 SHL SUB DUP2 GT ISZERO PUSH2 0x172D JUMPI PUSH2 0x172D PUSH2 0x1CDD JUMP JUMPDEST PUSH1 0x40 MLOAD SWAP1 DUP1 DUP3 MSTORE DUP1 PUSH1 0x20 MUL PUSH1 0x20 ADD DUP3 ADD PUSH1 0x40 MSTORE DUP1 ISZERO PUSH2 0x1756 JUMPI DUP2 PUSH1 0x20 ADD PUSH1 0x20 DUP3 MUL DUP1 CALLDATASIZE DUP4 CALLDATACOPY ADD SWAP1 POP JUMPDEST POP SWAP1 POP PUSH1 0x0 DUP1 JUMPDEST DUP5 DUP2 LT ISZERO PUSH2 0x194C JUMPI PUSH2 0x1770 PUSH1 0x1 DUP7 PUSH2 0x2275 JUMP JUMPDEST DUP2 SUB PUSH2 0x184D JUMPI DUP8 PUSH2 0x1782 PUSH1 0x1 DUP7 PUSH2 0x2275 JUMP JUMPDEST DUP2 MLOAD DUP2 LT PUSH2 0x1792 JUMPI PUSH2 0x1792 PUSH2 0x2230 JUMP JUMPDEST PUSH1 0x20 MUL PUSH1 0x20 ADD ADD MLOAD PUSH1 0x0 ADD MLOAD DUP2 DUP2 MLOAD DUP2 LT PUSH2 0x17AF JUMPI PUSH2 0x17AF PUSH2 0x2230 JUMP JUMPDEST PUSH1 0x20 MUL PUSH1 0x20 ADD ADD MLOAD DUP9 PUSH1 0x1 DUP7 PUSH2 0x17C5 SWAP2 SWAP1 PUSH2 0x2275 JUMP JUMPDEST DUP2 MLOAD DUP2 LT PUSH2 0x17D5 JUMPI PUSH2 0x17D5 PUSH2 0x2230 JUMP JUMPDEST PUSH1 0x20 MUL PUSH1 0x20 ADD ADD MLOAD PUSH1 0x0 ADD MLOAD DUP3 DUP2 MLOAD DUP2 LT PUSH2 0x17F2 JUMPI PUSH2 0x17F2 PUSH2 0x2230 JUMP JUMPDEST PUSH1 0x20 MUL PUSH1 0x20 ADD ADD MLOAD PUSH1 0x40 MLOAD PUSH1 0x20 ADD PUSH2 0x1814 SWAP3 SWAP2 SWAP1 SWAP2 DUP3 MSTORE PUSH1 0x20 DUP3 ADD MSTORE PUSH1 0x40 ADD SWAP1 JUMP JUMPDEST PUSH1 0x40 MLOAD PUSH1 0x20 DUP2 DUP4 SUB SUB DUP2 MSTORE SWAP1 PUSH1 0x40 MSTORE DUP1 MLOAD SWAP1 PUSH1 0x20 ADD KECCAK256 DUP4 DUP4 DUP2 MLOAD DUP2 LT PUSH2 0x183C JUMPI PUSH2 0x183C PUSH2 0x2230 JUMP JUMPDEST PUSH1 0x20 MUL PUSH1 0x20 ADD ADD DUP2 DUP2 MSTORE POP POP PUSH2 0x192C JUMP JUMPDEST DUP8 PUSH2 0x1859 PUSH1 0x1 DUP7 PUSH2 0x2275 JUMP JUMPDEST DUP2 MLOAD DUP2 LT PUSH2 0x1869 JUMPI PUSH2 0x1869 PUSH2 0x2230 JUMP JUMPDEST PUSH1 0x20 MUL PUSH1 0x20 ADD ADD MLOAD PUSH1 0x0 ADD MLOAD DUP2 DUP2 MLOAD DUP2 LT PUSH2 0x1886 JUMPI PUSH2 0x1886 PUSH2 0x2230 JUMP JUMPDEST PUSH1 0x20 MUL PUSH1 0x20 ADD ADD MLOAD DUP9 PUSH1 0x1 DUP7 PUSH2 0x189C SWAP2 SWAP1 PUSH2 0x2275 JUMP JUMPDEST DUP2 MLOAD DUP2 LT PUSH2 0x18AC JUMPI PUSH2 0x18AC PUSH2 0x2230 JUMP JUMPDEST PUSH1 0x20 MUL PUSH1 0x20 ADD ADD MLOAD PUSH1 0x0 ADD MLOAD DUP3 PUSH1 0x1 PUSH2 0x18C5 SWAP2 SWAP1 PUSH2 0x2288 JUMP JUMPDEST DUP2 MLOAD DUP2 LT PUSH2 0x18D5 JUMPI PUSH2 0x18D5 PUSH2 0x2230 JUMP JUMPDEST PUSH1 0x20 MUL PUSH1 0x20 ADD ADD MLOAD PUSH1 0x40 MLOAD PUSH1 0x20 ADD PUSH2 0x18F7 SWAP3 SWAP2 SWAP1 SWAP2 DUP3 MSTORE PUSH1 0x20 DUP3 ADD MSTORE PUSH1 0x40 ADD SWAP1 JUMP JUMPDEST PUSH1 0x40 MLOAD PUSH1 0x20 DUP2 DUP4 SUB SUB DUP2 MSTORE SWAP1 PUSH1 0x40 MSTORE DUP1 MLOAD SWAP1 PUSH1 0x20 ADD KECCAK256 DUP4 DUP4 DUP2 MLOAD DUP2 LT PUSH2 0x191F JUMPI PUSH2 0x191F PUSH2 0x2230 JUMP JUMPDEST PUSH1 0x20 MUL PUSH1 0x20 ADD ADD DUP2 DUP2 MSTORE POP POP JUMPDEST DUP2 PUSH2 0x1936 DUP2 PUSH2 0x225C JUMP JUMPDEST SWAP3 POP PUSH2 0x1945 SWAP1 POP PUSH1 0x2 DUP3 PUSH2 0x2288 JUMP JUMPDEST SWAP1 POP PUSH2 0x175D JUMP JUMPDEST POP DUP1 SWAP4 POP PUSH1 0x40 MLOAD DUP1 PUSH1 0x20 ADD PUSH1 0x40 MSTORE DUP1 DUP4 DUP2 MSTORE POP DUP8 DUP5 DUP2 MLOAD DUP2 LT PUSH2 0x1971 JUMPI PUSH2 0x1971 PUSH2 0x2230 JUMP JUMPDEST PUSH1 0x20 MUL PUSH1 0x20 ADD ADD DUP2 SWAP1 MSTORE POP DUP3 DUP1 PUSH2 0x1987 SWAP1 PUSH2 0x225C JUMP JUMPDEST SWAP4 POP POP POP POP PUSH2 0x16F4 JUMP JUMPDEST POP SWAP3 SWAP6 SWAP5 POP POP POP POP POP JUMP JUMPDEST PUSH1 0x0 DUP1 JUMPDEST CALLER PUSH1 0x0 SWAP1 DUP2 MSTORE PUSH1 0x5 PUSH1 0x20 MSTORE PUSH1 0x40 SWAP1 KECCAK256 SLOAD DUP2 LT ISZERO PUSH2 0x1A7A JUMPI DUP3 PUSH1 0x40 MLOAD PUSH1 0x20 ADD PUSH2 0x19C8 SWAP2 SWAP1 PUSH2 0x2444 JUMP JUMPDEST PUSH1 0x40 MLOAD PUSH1 0x20 DUP2 DUP4 SUB SUB DUP2 MSTORE SWAP1 PUSH1 0x40 MSTORE DUP1 MLOAD SWAP1 PUSH1 0x20 ADD KECCAK256 PUSH1 0x3 PUSH1 0x0 PUSH1 0x5 PUSH1 0x0 CALLER PUSH1 0x1 PUSH1 0x1 PUSH1 0xA0 SHL SUB AND PUSH1 0x1 PUSH1 0x1 PUSH1 0xA0 SHL SUB AND DUP2 MSTORE PUSH1 0x20 ADD SWAP1 DUP2 MSTORE PUSH1 0x20 ADD PUSH1 0x0 KECCAK256 DUP5 DUP2 SLOAD DUP2 LT PUSH2 0x1A18 JUMPI PUSH2 0x1A18 PUSH2 0x2230 JUMP JUMPDEST SWAP1 PUSH1 0x0 MSTORE PUSH1 0x20 PUSH1 0x0 KECCAK256 ADD SLOAD DUP2 MSTORE PUSH1 0x20 ADD SWAP1 DUP2 MSTORE PUSH1 0x20 ADD PUSH1 0x0 KECCAK256 PUSH1 0x1 ADD PUSH1 0x40 MLOAD PUSH1 0x20 ADD PUSH2 0x1A44 SWAP2 SWAP1 PUSH2 0x2460 JUMP JUMPDEST PUSH1 0x40 MLOAD PUSH1 0x20 DUP2 DUP4 SUB SUB DUP2 MSTORE SWAP1 PUSH1 0x40 MSTORE DUP1 MLOAD SWAP1 PUSH1 0x20 ADD KECCAK256 SUB PUSH2 0x1A68 JUMPI POP PUSH1 0x1 SWAP3 SWAP2 POP POP JUMP JUMPDEST DUP1 PUSH2 0x1A72 DUP2 PUSH2 0x225C JUMP JUMPDEST SWAP2 POP POP PUSH2 0x19A0 JUMP JUMPDEST POP PUSH1 0x0 SWAP3 SWAP2 POP POP JUMP JUMPDEST PUSH1 0x0 DUP1 PUSH1 0x1 SLOAD DUP4 PUSH1 0x2 SLOAD TIMESTAMP PUSH1 0x40 MLOAD PUSH1 0x20 ADD PUSH2 0x1AA0 SWAP4 SWAP3 SWAP2 SWAP1 PUSH2 0x24D6 JUMP JUMPDEST PUSH1 0x40 MLOAD PUSH1 0x20 DUP2 DUP4 SUB SUB DUP2 MSTORE SWAP1 PUSH1 0x40 MSTORE DUP1 MLOAD SWAP1 PUSH1 0x20 ADD KECCAK256 PUSH1 0x0 SHR PUSH2 0x1AC3 SWAP2 SWAP1 PUSH2 0x2430 JUMP JUMPDEST SWAP4 SWAP3 POP POP POP JUMP JUMPDEST PUSH2 0x1B0F DUP2 PUSH1 0x40 MLOAD PUSH1 0x24 ADD PUSH2 0x1AE0 SWAP2 DUP2 MSTORE PUSH1 0x20 ADD SWAP1 JUMP JUMPDEST PUSH1 0x40 DUP1 MLOAD PUSH1 0x1F NOT DUP2 DUP5 SUB ADD DUP2 MSTORE SWAP2 SWAP1 MSTORE PUSH1 0x20 DUP2 ADD DUP1 MLOAD PUSH1 0x1 PUSH1 0x1 PUSH1 0xE0 SHL SUB AND PUSH4 0xF82C50F1 PUSH1 0xE0 SHL OR SWAP1 MSTORE PUSH2 0x1C57 JUMP JUMPDEST POP JUMP JUMPDEST PUSH2 0x1B0F DUP2 PUSH1 0x40 MLOAD PUSH1 0x24 ADD PUSH2 0x1B26 SWAP2 SWAP1 PUSH2 0x24FB JUMP JUMPDEST PUSH1 0x40 DUP1 MLOAD PUSH1 0x1F NOT DUP2 DUP5 SUB ADD DUP2 MSTORE SWAP2 SWAP1 MSTORE PUSH1 0x20 DUP2 ADD DUP1 MLOAD PUSH1 0x1 PUSH1 0x1 PUSH1 0xE0 SHL SUB AND PUSH4 0x104C13EB PUSH1 0xE2 SHL OR SWAP1 MSTORE PUSH2 0x1C57 JUMP JUMPDEST PUSH1 0x0 DUP1 PUSH1 0x80 DUP4 SWAP1 SHR ISZERO PUSH2 0x1B6A JUMPI PUSH1 0x80 SWAP3 DUP4 SHR SWAP3 ADD JUMPDEST PUSH1 0x40 DUP4 SWAP1 SHR ISZERO PUSH2 0x1B7C JUMPI PUSH1 0x40 SWAP3 DUP4 SHR SWAP3 ADD JUMPDEST PUSH1 0x20 DUP4 SWAP1 SHR ISZERO PUSH2 0x1B8E JUMPI PUSH1 0x20 SWAP3 DUP4 SHR SWAP3 ADD JUMPDEST PUSH1 0x10 DUP4 SWAP1 SHR ISZERO PUSH2 0x1BA0 JUMPI PUSH1 0x10 SWAP3 DUP4 SHR SWAP3 ADD JUMPDEST PUSH1 0x8 DUP4 SWAP1 SHR ISZERO PUSH2 0x1BB2 JUMPI PUSH1 0x8 SWAP3 DUP4 SHR SWAP3 ADD JUMPDEST PUSH1 0x4 DUP4 SWAP1 SHR ISZERO PUSH2 0x1BC4 JUMPI PUSH1 0x4 SWAP3 DUP4 SHR SWAP3 ADD JUMPDEST PUSH1 0x2 DUP4 SWAP1 SHR ISZERO PUSH2 0x1BD6 JUMPI PUSH1 0x2 SWAP3 DUP4 SHR SWAP3 ADD JUMPDEST PUSH1 0x1 DUP4 SWAP1 SHR ISZERO PUSH2 0x885 JUMPI PUSH1 0x1 ADD SWAP3 SWAP2 POP POP JUMP JUMPDEST PUSH1 0x0 DUP1 JUMPDEST DUP3 MLOAD DUP2 LT ISZERO PUSH2 0x87E JUMPI DUP3 DUP2 DUP2 MLOAD DUP2 LT PUSH2 0x1C08 JUMPI PUSH2 0x1C08 PUSH2 0x2230 JUMP JUMPDEST PUSH1 0x20 MUL PUSH1 0x20 ADD ADD MLOAD DUP5 PUSH1 0x40 MLOAD PUSH1 0x20 ADD PUSH2 0x1C23 SWAP2 DUP2 MSTORE PUSH1 0x20 ADD SWAP1 JUMP JUMPDEST PUSH1 0x40 MLOAD PUSH1 0x20 DUP2 DUP4 SUB SUB DUP2 MSTORE SWAP1 PUSH1 0x40 MSTORE DUP1 MLOAD SWAP1 PUSH1 0x20 ADD KECCAK256 SUB PUSH2 0x1C45 JUMPI SWAP1 POP PUSH2 0x885 JUMP JUMPDEST DUP1 PUSH2 0x1C4F DUP2 PUSH2 0x225C JUMP JUMPDEST SWAP2 POP POP PUSH2 0x1BED JUMP JUMPDEST PUSH2 0x1B0F DUP2 PUSH1 0x0 PUSH11 0x636F6E736F6C652E6C6F67 SWAP1 POP PUSH1 0x0 DUP1 DUP4 MLOAD PUSH1 0x20 DUP6 ADD DUP5 GAS STATICCALL POP POP POP JUMP JUMPDEST DUP1 CALLDATALOAD PUSH1 0x1 PUSH1 0x1 PUSH1 0xA0 SHL SUB DUP2 AND DUP2 EQ PUSH2 0x1C93 JUMPI PUSH1 0x0 DUP1 REVERT JUMPDEST SWAP2 SWAP1 POP JUMP JUMPDEST PUSH1 0x0 DUP1 PUSH1 0x40 DUP4 DUP6 SUB SLT ISZERO PUSH2 0x1CAB JUMPI PUSH1 0x0 DUP1 REVERT JUMPDEST PUSH2 0x1CB4 DUP4 PUSH2 0x1C7C JUMP JUMPDEST SWAP5 PUSH1 0x20 SWAP4 SWAP1 SWAP4 ADD CALLDATALOAD SWAP4 POP POP POP JUMP JUMPDEST PUSH1 0x0 PUSH1 0x20 DUP3 DUP5 SUB SLT ISZERO PUSH2 0x1CD4 JUMPI PUSH1 0x0 DUP1 REVERT JUMPDEST PUSH2 0x1AC3 DUP3 PUSH2 0x1C7C JUMP JUMPDEST PUSH4 0x4E487B71 PUSH1 0xE0 SHL PUSH1 0x0 MSTORE PUSH1 0x41 PUSH1 0x4 MSTORE PUSH1 0x24 PUSH1 0x0 REVERT JUMPDEST PUSH1 0x40 MLOAD PUSH1 0x20 DUP2 ADD PUSH1 0x1 PUSH1 0x1 PUSH1 0x40 SHL SUB DUP2 GT DUP3 DUP3 LT OR ISZERO PUSH2 0x1D15 JUMPI PUSH2 0x1D15 PUSH2 0x1CDD JUMP JUMPDEST PUSH1 0x40 MSTORE SWAP1 JUMP JUMPDEST PUSH1 0x40 MLOAD PUSH1 0x1F DUP3 ADD PUSH1 0x1F NOT AND DUP2 ADD PUSH1 0x1 PUSH1 0x1 PUSH1 0x40 SHL SUB DUP2 GT DUP3 DUP3 LT OR ISZERO PUSH2 0x1D43 JUMPI PUSH2 0x1D43 PUSH2 0x1CDD JUMP JUMPDEST PUSH1 0x40 MSTORE SWAP2 SWAP1 POP JUMP JUMPDEST PUSH1 0x0 PUSH1 0x20 DUP1 DUP4 DUP6 SUB SLT ISZERO PUSH2 0x1D5E JUMPI PUSH1 0x0 DUP1 REVERT JUMPDEST DUP3 CALLDATALOAD PUSH1 0x1 PUSH1 0x1 PUSH1 0x40 SHL SUB DUP1 DUP3 GT ISZERO PUSH2 0x1D75 JUMPI PUSH1 0x0 DUP1 REVERT JUMPDEST DUP2 DUP6 ADD SWAP2 POP DUP6 PUSH1 0x1F DUP4 ADD SLT PUSH2 0x1D89 JUMPI PUSH1 0x0 DUP1 REVERT JUMPDEST DUP2 CALLDATALOAD DUP2 DUP2 GT ISZERO PUSH2 0x1D9B JUMPI PUSH2 0x1D9B PUSH2 0x1CDD JUMP JUMPDEST PUSH2 0x1DAD PUSH1 0x1F DUP3 ADD PUSH1 0x1F NOT AND DUP6 ADD PUSH2 0x1D1B JUMP JUMPDEST SWAP2 POP DUP1 DUP3 MSTORE DUP7 DUP5 DUP3 DUP6 ADD ADD GT ISZERO PUSH2 0x1DC3 JUMPI PUSH1 0x0 DUP1 REVERT JUMPDEST DUP1 DUP5 DUP5 ADD DUP6 DUP5 ADD CALLDATACOPY PUSH1 0x0 SWAP1 DUP3 ADD SWAP1 SWAP4 ADD SWAP3 SWAP1 SWAP3 MSTORE POP SWAP4 SWAP3 POP POP POP JUMP JUMPDEST PUSH1 0x0 JUMPDEST DUP4 DUP2 LT ISZERO PUSH2 0x1DFA JUMPI DUP2 DUP2 ADD MLOAD DUP4 DUP3 ADD MSTORE PUSH1 0x20 ADD PUSH2 0x1DE2 JUMP JUMPDEST POP POP PUSH1 0x0 SWAP2 ADD MSTORE JUMP JUMPDEST PUSH1 0x0 DUP2 MLOAD DUP1 DUP5 MSTORE PUSH2 0x1E1B DUP2 PUSH1 0x20 DUP7 ADD PUSH1 0x20 DUP7 ADD PUSH2 0x1DDF JUMP JUMPDEST PUSH1 0x1F ADD PUSH1 0x1F NOT AND SWAP3 SWAP1 SWAP3 ADD PUSH1 0x20 ADD SWAP3 SWAP2 POP POP JUMP JUMPDEST DUP1 MLOAD DUP3 MSTORE PUSH1 0x0 PUSH1 0x20 DUP3 ADD MLOAD PUSH1 0x40 PUSH1 0x20 DUP6 ADD MSTORE PUSH2 0x1E4E PUSH1 0x40 DUP6 ADD DUP3 PUSH2 0x1E03 JUMP JUMPDEST SWAP5 SWAP4 POP POP POP POP JUMP JUMPDEST PUSH1 0x20 DUP2 MSTORE PUSH1 0x0 PUSH2 0x1AC3 PUSH1 0x20 DUP4 ADD DUP5 PUSH2 0x1E2F JUMP JUMPDEST PUSH1 0x0 DUP1 PUSH1 0x40 DUP4 DUP6 SUB SLT ISZERO PUSH2 0x1E7C JUMPI PUSH1 0x0 DUP1 REVERT JUMPDEST DUP3 CALLDATALOAD SWAP2 POP PUSH2 0x1E8C PUSH1 0x20 DUP5 ADD PUSH2 0x1C7C JUMP JUMPDEST SWAP1 POP SWAP3 POP SWAP3 SWAP1 POP JUMP JUMPDEST PUSH1 0x0 PUSH1 0x1 PUSH1 0x1 PUSH1 0x40 SHL SUB DUP3 GT ISZERO PUSH2 0x1EAE JUMPI PUSH2 0x1EAE PUSH2 0x1CDD JUMP JUMPDEST POP PUSH1 0x5 SHL PUSH1 0x20 ADD SWAP1 JUMP JUMPDEST PUSH1 0x0 DUP1 PUSH1 0x40 DUP4 DUP6 SUB SLT ISZERO PUSH2 0x1ECB JUMPI PUSH1 0x0 DUP1 REVERT JUMPDEST DUP3 CALLDATALOAD PUSH1 0x1 PUSH1 0x1 PUSH1 0x40 SHL SUB DUP2 GT ISZERO PUSH2 0x1EE1 JUMPI PUSH1 0x0 DUP1 REVERT JUMPDEST DUP4 ADD PUSH1 0x1F DUP2 ADD DUP6 SGT PUSH2 0x1EF2 JUMPI PUSH1 0x0 DUP1 REVERT JUMPDEST DUP1 CALLDATALOAD PUSH1 0x20 PUSH2 0x1F07 PUSH2 0x1F02 DUP4 PUSH2 0x1E95 JUMP JUMPDEST PUSH2 0x1D1B JUMP JUMPDEST DUP3 DUP2 MSTORE PUSH1 0x5 SWAP3 SWAP1 SWAP3 SHL DUP4 ADD DUP2 ADD SWAP2 DUP2 DUP2 ADD SWAP1 DUP9 DUP5 GT ISZERO PUSH2 0x1F26 JUMPI PUSH1 0x0 DUP1 REVERT JUMPDEST SWAP4 DUP3 ADD SWAP4 JUMPDEST DUP4 DUP6 LT ISZERO PUSH2 0x1F44 JUMPI DUP5 CALLDATALOAD DUP3 MSTORE SWAP4 DUP3 ADD SWAP4 SWAP1 DUP3 ADD SWAP1 PUSH2 0x1F2B JUMP JUMPDEST SWAP6 POP PUSH2 0x1F53 SWAP1 POP DUP7 DUP3 ADD PUSH2 0x1C7C JUMP JUMPDEST SWAP4 POP POP POP POP SWAP3 POP SWAP3 SWAP1 POP JUMP JUMPDEST PUSH1 0x0 PUSH1 0x20 DUP1 DUP4 ADD DUP2 DUP5 MSTORE DUP1 DUP6 MLOAD DUP1 DUP4 MSTORE PUSH1 0x40 DUP7 ADD SWAP2 POP PUSH1 0x40 DUP2 PUSH1 0x5 SHL DUP8 ADD ADD SWAP3 POP DUP4 DUP8 ADD PUSH1 0x0 JUMPDEST DUP3 DUP2 LT ISZERO PUSH2 0x1FB4 JUMPI PUSH1 0x3F NOT DUP9 DUP7 SUB ADD DUP5 MSTORE PUSH2 0x1FA2 DUP6 DUP4 MLOAD PUSH2 0x1E2F JUMP JUMPDEST SWAP5 POP SWAP3 DUP6 ADD SWAP3 SWAP1 DUP6 ADD SWAP1 PUSH1 0x1 ADD PUSH2 0x1F86 JUMP JUMPDEST POP SWAP3 SWAP8 SWAP7 POP POP POP POP POP POP POP JUMP JUMPDEST PUSH1 0x0 PUSH1 0x20 DUP1 DUP4 DUP6 SUB SLT ISZERO PUSH2 0x1FD4 JUMPI PUSH1 0x0 DUP1 REVERT JUMPDEST DUP3 CALLDATALOAD PUSH1 0x1 PUSH1 0x1 PUSH1 0x40 SHL SUB DUP1 DUP3 GT ISZERO PUSH2 0x1FEB JUMPI PUSH1 0x0 DUP1 REVERT JUMPDEST DUP2 DUP6 ADD SWAP2 POP DUP6 PUSH1 0x1F DUP4 ADD SLT PUSH2 0x1FFF JUMPI PUSH1 0x0 DUP1 REVERT JUMPDEST DUP2 CALLDATALOAD PUSH2 0x200D PUSH2 0x1F02 DUP3 PUSH2 0x1E95 JUMP JUMPDEST DUP2 DUP2 MSTORE PUSH1 0x5 SWAP2 SWAP1 SWAP2 SHL DUP4 ADD DUP5 ADD SWAP1 DUP5 DUP2 ADD SWAP1 DUP9 DUP4 GT ISZERO PUSH2 0x202C JUMPI PUSH1 0x0 DUP1 REVERT JUMPDEST DUP6 DUP6 ADD JUMPDEST DUP4 DUP2 LT ISZERO PUSH2 0x20F1 JUMPI DUP1 CALLDATALOAD DUP6 DUP2 GT ISZERO PUSH2 0x2048 JUMPI PUSH1 0x0 DUP1 DUP2 REVERT JUMPDEST DUP7 ADD DUP1 DUP12 SUB PUSH1 0x1F NOT ADD DUP9 SGT ISZERO PUSH2 0x205E JUMPI PUSH1 0x0 DUP1 DUP2 REVERT JUMPDEST PUSH2 0x2066 PUSH2 0x1CF3 JUMP JUMPDEST DUP9 DUP3 ADD CALLDATALOAD DUP8 DUP2 GT ISZERO PUSH2 0x2078 JUMPI PUSH1 0x0 DUP1 DUP2 REVERT JUMPDEST DUP1 DUP4 ADD SWAP3 POP POP DUP12 PUSH1 0x3F DUP4 ADD SLT PUSH2 0x208E JUMPI PUSH1 0x0 DUP1 DUP2 REVERT JUMPDEST DUP9 DUP3 ADD CALLDATALOAD PUSH1 0x40 PUSH2 0x20A0 PUSH2 0x1F02 DUP4 PUSH2 0x1E95 JUMP JUMPDEST DUP3 DUP2 MSTORE PUSH1 0x5 SWAP3 SWAP1 SWAP3 SHL DUP5 ADD DUP2 ADD SWAP2 DUP12 DUP2 ADD SWAP1 DUP16 DUP5 GT ISZERO PUSH2 0x20C0 JUMPI PUSH1 0x0 DUP1 DUP2 REVERT JUMPDEST SWAP5 DUP3 ADD SWAP5 JUMPDEST DUP4 DUP7 LT ISZERO PUSH2 0x20DE JUMPI DUP6 CALLDATALOAD DUP3 MSTORE SWAP5 DUP13 ADD SWAP5 SWAP1 DUP13 ADD SWAP1 PUSH2 0x20C5 JUMP JUMPDEST DUP5 MSTORE POP POP POP DUP5 MSTORE POP SWAP2 DUP7 ADD SWAP2 DUP7 ADD PUSH2 0x2030 JUMP JUMPDEST POP SWAP9 SWAP8 POP POP POP POP POP POP POP POP JUMP JUMPDEST PUSH1 0x0 DUP2 MLOAD DUP1 DUP5 MSTORE PUSH1 0x20 DUP1 DUP6 ADD SWAP5 POP DUP1 DUP5 ADD PUSH1 0x0 JUMPDEST DUP4 DUP2 LT ISZERO PUSH2 0x212E JUMPI DUP2 MLOAD DUP8 MSTORE SWAP6 DUP3 ADD SWAP6 SWAP1 DUP3 ADD SWAP1 PUSH1 0x1 ADD PUSH2 0x2112 JUMP JUMPDEST POP SWAP5 SWAP6 SWAP5 POP POP POP POP POP JUMP JUMPDEST PUSH1 0x0 PUSH1 0x20 DUP1 DUP4 ADD DUP2 DUP5 MSTORE DUP1 DUP6 MLOAD DUP1 DUP4 MSTORE PUSH1 0x40 DUP7 ADD SWAP2 POP PUSH1 0x40 DUP2 PUSH1 0x5 SHL DUP8 ADD ADD SWAP3 POP DUP4 DUP8 ADD PUSH1 0x0 JUMPDEST DUP3 DUP2 LT ISZERO PUSH2 0x1FB4 JUMPI PUSH1 0x3F NOT DUP9 DUP7 SUB ADD DUP5 MSTORE PUSH2 0x217C DUP6 DUP4 MLOAD PUSH2 0x20FE JUMP JUMPDEST SWAP5 POP SWAP3 DUP6 ADD SWAP3 SWAP1 DUP6 ADD SWAP1 PUSH1 0x1 ADD PUSH2 0x2160 JUMP JUMPDEST PUSH1 0x0 PUSH1 0x20 DUP3 DUP5 SUB SLT ISZERO PUSH2 0x21A0 JUMPI PUSH1 0x0 DUP1 REVERT JUMPDEST POP CALLDATALOAD SWAP2 SWAP1 POP JUMP JUMPDEST PUSH1 0x20 DUP2 MSTORE PUSH1 0x0 PUSH2 0x1AC3 PUSH1 0x20 DUP4 ADD DUP5 PUSH2 0x20FE JUMP JUMPDEST DUP3 DUP2 MSTORE PUSH1 0x40 PUSH1 0x20 DUP3 ADD MSTORE PUSH1 0x0 PUSH2 0x1E4E PUSH1 0x40 DUP4 ADD DUP5 PUSH2 0x1E03 JUMP JUMPDEST PUSH1 0x0 PUSH1 0x20 DUP1 DUP4 ADD DUP2 DUP5 MSTORE DUP1 DUP6 MLOAD DUP1 DUP4 MSTORE PUSH1 0x40 DUP7 ADD SWAP2 POP PUSH1 0x40 DUP2 PUSH1 0x5 SHL DUP8 ADD ADD SWAP3 POP DUP4 DUP8 ADD PUSH1 0x0 JUMPDEST DUP3 DUP2 LT ISZERO PUSH2 0x1FB4 JUMPI DUP8 DUP6 SUB PUSH1 0x3F NOT ADD DUP5 MSTORE DUP2 MLOAD MLOAD DUP7 DUP7 MSTORE PUSH2 0x221D DUP8 DUP8 ADD DUP3 PUSH2 0x20FE JUMP JUMPDEST SWAP6 POP POP SWAP3 DUP6 ADD SWAP3 SWAP1 DUP6 ADD SWAP1 PUSH1 0x1 ADD PUSH2 0x21FA JUMP JUMPDEST PUSH4 0x4E487B71 PUSH1 0xE0 SHL PUSH1 0x0 MSTORE PUSH1 0x32 PUSH1 0x4 MSTORE PUSH1 0x24 PUSH1 0x0 REVERT JUMPDEST PUSH4 0x4E487B71 PUSH1 0xE0 SHL PUSH1 0x0 MSTORE PUSH1 0x11 PUSH1 0x4 MSTORE PUSH1 0x24 PUSH1 0x0 REVERT JUMPDEST PUSH1 0x0 PUSH1 0x1 DUP3 ADD PUSH2 0x226E JUMPI PUSH2 0x226E PUSH2 0x2246 JUMP JUMPDEST POP PUSH1 0x1 ADD SWAP1 JUMP JUMPDEST DUP2 DUP2 SUB DUP2 DUP2 GT ISZERO PUSH2 0x885 JUMPI PUSH2 0x885 PUSH2 0x2246 JUMP JUMPDEST DUP1 DUP3 ADD DUP1 DUP3 GT ISZERO PUSH2 0x885 JUMPI PUSH2 0x885 PUSH2 0x2246 JUMP JUMPDEST PUSH1 0x1 DUP2 DUP2 SHR SWAP1 DUP3 AND DUP1 PUSH2 0x22AF JUMPI PUSH1 0x7F DUP3 AND SWAP2 POP JUMPDEST PUSH1 0x20 DUP3 LT DUP2 SUB PUSH2 0xB68 JUMPI PUSH4 0x4E487B71 PUSH1 0xE0 SHL PUSH1 0x0 MSTORE PUSH1 0x22 PUSH1 0x4 MSTORE PUSH1 0x24 PUSH1 0x0 REVERT JUMPDEST PUSH1 0x1F DUP3 GT ISZERO PUSH2 0x2319 JUMPI PUSH1 0x0 DUP2 DUP2 MSTORE PUSH1 0x20 DUP2 KECCAK256 PUSH1 0x1F DUP6 ADD PUSH1 0x5 SHR DUP2 ADD PUSH1 0x20 DUP7 LT ISZERO PUSH2 0x22F6 JUMPI POP DUP1 JUMPDEST PUSH1 0x1F DUP6 ADD PUSH1 0x5 SHR DUP3 ADD SWAP2 POP JUMPDEST DUP2 DUP2 LT ISZERO PUSH2 0x2315 JUMPI DUP3 DUP2 SSTORE PUSH1 0x1 ADD PUSH2 0x2302 JUMP JUMPDEST POP POP POP JUMPDEST POP POP POP JUMP JUMPDEST DUP2 MLOAD PUSH1 0x1 PUSH1 0x1 PUSH1 0x40 SHL SUB DUP2 GT ISZERO PUSH2 0x2337 JUMPI PUSH2 0x2337 PUSH2 0x1CDD JUMP JUMPDEST PUSH2 0x234B DUP2 PUSH2 0x2345 DUP5 SLOAD PUSH2 0x229B JUMP JUMPDEST DUP5 PUSH2 0x22CF JUMP JUMPDEST PUSH1 0x20 DUP1 PUSH1 0x1F DUP4 GT PUSH1 0x1 DUP2 EQ PUSH2 0x2380 JUMPI PUSH1 0x0 DUP5 ISZERO PUSH2 0x2368 JUMPI POP DUP6 DUP4 ADD MLOAD JUMPDEST PUSH1 0x0 NOT PUSH1 0x3 DUP7 SWAP1 SHL SHR NOT AND PUSH1 0x1 DUP6 SWAP1 SHL OR DUP6 SSTORE PUSH2 0x2315 JUMP JUMPDEST PUSH1 0x0 DUP6 DUP2 MSTORE PUSH1 0x20 DUP2 KECCAK256 PUSH1 0x1F NOT DUP7 AND SWAP2 JUMPDEST DUP3 DUP2 LT ISZERO PUSH2 0x23AF JUMPI DUP9 DUP7 ADD MLOAD DUP3 SSTORE SWAP5 DUP5 ADD SWAP5 PUSH1 0x1 SWAP1 SWAP2 ADD SWAP1 DUP5 ADD PUSH2 0x2390 JUMP JUMPDEST POP DUP6 DUP3 LT ISZERO PUSH2 0x23CD JUMPI DUP8 DUP6 ADD MLOAD PUSH1 0x0 NOT PUSH1 0x3 DUP9 SWAP1 SHL PUSH1 0xF8 AND SHR NOT AND DUP2 SSTORE JUMPDEST POP POP POP POP POP PUSH1 0x1 SWAP1 DUP2 SHL ADD SWAP1 SSTORE POP JUMP JUMPDEST DUP4 DUP2 MSTORE PUSH1 0x60 PUSH1 0x20 DUP3 ADD MSTORE PUSH1 0x0 PUSH2 0x23F6 PUSH1 0x60 DUP4 ADD DUP6 PUSH2 0x1E03 JUMP JUMPDEST SWAP1 POP DUP3 PUSH1 0x40 DUP4 ADD MSTORE SWAP5 SWAP4 POP POP POP POP JUMP JUMPDEST PUSH4 0x4E487B71 PUSH1 0xE0 SHL PUSH1 0x0 MSTORE PUSH1 0x12 PUSH1 0x4 MSTORE PUSH1 0x24 PUSH1 0x0 REVERT JUMPDEST PUSH1 0x0 DUP3 PUSH2 0x242B JUMPI PUSH2 0x242B PUSH2 0x2406 JUMP JUMPDEST POP DIV SWAP1 JUMP JUMPDEST PUSH1 0x0 DUP3 PUSH2 0x243F JUMPI PUSH2 0x243F PUSH2 0x2406 JUMP JUMPDEST POP MOD SWAP1 JUMP JUMPDEST PUSH1 0x0 DUP3 MLOAD PUSH2 0x2456 DUP2 DUP5 PUSH1 0x20 DUP8 ADD PUSH2 0x1DDF JUMP JUMPDEST SWAP2 SWAP1 SWAP2 ADD SWAP3 SWAP2 POP POP JUMP JUMPDEST PUSH1 0x0 DUP1 DUP4 SLOAD PUSH2 0x246E DUP2 PUSH2 0x229B JUMP JUMPDEST PUSH1 0x1 DUP3 DUP2 AND DUP1 ISZERO PUSH2 0x2486 JUMPI PUSH1 0x1 DUP2 EQ PUSH2 0x249B JUMPI PUSH2 0x24CA JUMP JUMPDEST PUSH1 0xFF NOT DUP5 AND DUP8 MSTORE DUP3 ISZERO ISZERO DUP4 MUL DUP8 ADD SWAP5 POP PUSH2 0x24CA JUMP JUMPDEST DUP8 PUSH1 0x0 MSTORE PUSH1 0x20 DUP1 PUSH1 0x0 KECCAK256 PUSH1 0x0 JUMPDEST DUP6 DUP2 LT ISZERO PUSH2 0x24C1 JUMPI DUP2 SLOAD DUP11 DUP3 ADD MSTORE SWAP1 DUP5 ADD SWAP1 DUP3 ADD PUSH2 0x24A8 JUMP JUMPDEST POP POP POP DUP3 DUP8 ADD SWAP5 POP JUMPDEST POP SWAP3 SWAP7 SWAP6 POP POP POP POP POP POP JUMP JUMPDEST PUSH1 0x60 DUP2 MSTORE PUSH1 0x0 PUSH2 0x24E9 PUSH1 0x60 DUP4 ADD DUP7 PUSH2 0x1E03 JUMP JUMPDEST PUSH1 0x20 DUP4 ADD SWAP5 SWAP1 SWAP5 MSTORE POP PUSH1 0x40 ADD MSTORE SWAP2 SWAP1 POP JUMP JUMPDEST PUSH1 0x20 DUP2 MSTORE PUSH1 0x0 PUSH2 0x1AC3 PUSH1 0x20 DUP4 ADD DUP5 PUSH2 0x1E03 JUMP INVALID LOG2 PUSH5 0x6970667358 0x22 SLT KECCAK256 XOR SGT 0xDD 0xC2 0x4E RETURNDATACOPY 0xD2 0xD7 0xC5 PUSH19 0x81E2384C477D023F7C460463F4B685F785A609 0xAC DUP9 PUSH2 0x6473 PUSH16 0x6C634300081400330000000000000000 "},"methodIdentifiers":{"convertToBytesArray((bytes32[])[])":"5cb65d98","createDepartment(string)":"1b7b8dac","departmentKeyExists(uint256,address)":"9207986f","departmentKeyListExits(uint256[],address)":"36a2bf70","departmentKeys(address,uint256)":"025b7a7c","departmentToOwner(uint256)":"f0dedc86","departments(uint256)":"eaeb60e3","generateMerkleRoot(address)":"063dcdfb","generateMerkleTree(address)":"f771ea2b","getDepartmentIdPosition(uint256,address)":"2c17ea6f","getDepartmentLength(address)":"3bb83b3f","getDepartments()":"5c26b7ca","getMerklePath(uint256)":"6e4d6517","getMerklePathArray(uint256[],address)":"bf8a23f5","merkleRoots(address)":"ae9a6808"}}}}}