{"contracts/DepartmentFactory.sol":{"DepartmentFactory":{"abi":[{"inputs":[],"stateMutability":"nonpayable","type":"constructor"},{"inputs":[{"internalType":"string","name":"_name","type":"string"}],"name":"createDepartment","outputs":[{"components":[{"internalType":"uint256","name":"id","type":"uint256"},{"internalType":"string","name":"name","type":"string"}],"internalType":"struct DepartmentFactory.Department","name":"","type":"tuple"}],"stateMutability":"nonpayable","type":"function"},{"inputs":[{"internalType":"uint256","name":"_id","type":"uint256"}],"name":"departmentKeyExists","outputs":[{"internalType":"bool","name":"","type":"bool"}],"stateMutability":"nonpayable","type":"function"},{"inputs":[{"internalType":"uint256","name":"","type":"uint256"}],"name":"departments","outputs":[{"internalType":"uint256","name":"id","type":"uint256"},{"internalType":"string","name":"name","type":"string"}],"stateMutability":"view","type":"function"},{"inputs":[],"name":"generateMerkleRoot","outputs":[{"internalType":"bytes32","name":"","type":"bytes32"}],"stateMutability":"nonpayable","type":"function"},{"inputs":[],"name":"getDepartments","outputs":[{"components":[{"internalType":"uint256","name":"id","type":"uint256"},{"internalType":"string","name":"name","type":"string"}],"internalType":"struct DepartmentFactory.Department[]","name":"","type":"tuple[]"}],"stateMutability":"view","type":"function"},{"inputs":[{"internalType":"uint256","name":"departmentIds","type":"uint256"}],"name":"getMerklePath","outputs":[{"internalType":"bytes32[]","name":"","type":"bytes32[]"}],"stateMutability":"nonpayable","type":"function"}],"evm":{"bytecode":{"linkReferences":{},"object":"6080604052601060008190556200001890600a620001f0565b60015560006002553480156200002d57600080fd5b506040805160a0810182526001815260026020820152600391810191909152600460608201526005608082018190526200006891816200006f565b5062000205565b828054828255906000526020600020908101928215620000b2579160200282015b82811115620000b2578251829060ff1690559160200191906001019062000090565b50620000c0929150620000c4565b5090565b5b80821115620000c05760008155600101620000c5565b634e487b7160e01b600052601160045260246000fd5b600181815b8085111562000132578160001904821115620001165762000116620000db565b808516156200012457918102915b93841c9390800290620000f6565b509250929050565b6000826200014b57506001620001ea565b816200015a57506000620001ea565b81600181146200017357600281146200017e576200019e565b6001915050620001ea565b60ff841115620001925762000192620000db565b50506001821b620001ea565b5060208310610133831016604e8410600b8410161715620001c3575081810a620001ea565b620001cf8383620000f1565b8060001904821115620001e657620001e6620000db565b0290505b92915050565b6000620001fe83836200013a565b9392505050565b61160d80620002156000396000f3fe608060405234801561001057600080fd5b50600436106100625760003560e01c80631b7b8dac146100675780635c26b7ca146100905780636e4d6517146100a5578063de8ba93d146100c5578063eaeb60e3146100db578063f84f91ef146100fc575b600080fd5b61007a6100753660046110ec565b61011f565b6040516100879190611214565b60405180910390f35b6100986102c3565b6040516100879190611227565b6100b86100b3366004611289565b610447565b60405161008791906112a2565b6100cd6108e8565b604051908152602001610087565b6100ee6100e9366004611289565b610c9e565b6040516100879291906112e6565b61010f61010a366004611289565b610d43565b6040519015158152602001610087565b60408051808201909152600081526060602082015261013d82610d99565b1561018e5760405162461bcd60e51b815260206004820152601e60248201527f4465706172746d656e742068617320616c726561647920657869737465640000604482015260640160405180910390fd5b600061019983610e47565b6040805180820182528281526020808201878152600085815260049092529290208151815591519293509160018201906101d39082611382565b50506005805460018181019092557f036b6384b5eca791c62761152d0c79bb0604c104a5fb6f4eb0703f3154bb3db001839055600083815260046020908152604091829020825180840190935280548352928301805492945090840191610239906112ff565b80601f0160208091040260200160405190810160405280929190818152602001828054610265906112ff565b80156102b25780601f10610287576101008083540402835291602001916102b2565b820191906000526020600020905b81548152906001019060200180831161029557829003601f168201915b505050505081525050915050919050565b60055460609060009067ffffffffffffffff8111156102e4576102e46110d6565b60405190808252806020026020018201604052801561032a57816020015b6040805180820190915260008152606060208201528152602001906001900390816103025790505b50905060005b60055481101561044157600460006005838154811061035157610351611442565b906000526020600020015481526020019081526020016000206040518060400160405290816000820154815260200160018201805461038f906112ff565b80601f01602080910402602001604051908101604052809291908181526020018280546103bb906112ff565b80156104085780601f106103dd57610100808354040283529160200191610408565b820191906000526020600020905b8154815290600101906020018083116103eb57829003601f168201915b50505050508152505082828151811061042357610423611442565b602002602001018190525080806104399061146e565b915050610330565b50919050565b60606000610459600580549050610e8e565b67ffffffffffffffff811115610471576104716110d6565b60405190808252806020026020018201604052801561049a578160200160208202803683370190505b5090506104b36104ae600580549050610e8e565b610f23565b60055460009067ffffffffffffffff8111156104d1576104d16110d6565b6040519080825280602002602001820160405280156104fa578160200160208202803683370190505b50905060005b60055481101561057f576005818154811061051d5761051d611442565b906000526020600020015460405160200161053a91815260200190565b6040516020818303038152906040528051906020012082828151811061056257610562611442565b6020908102919091010152806105778161146e565b915050610500565b50600061058c8583610f6b565b90506105b9604051806040016040528060098152602001683837b9b4ba34b7b71d60b91b81525082610fe4565b600060001982146108aa5782515b60018111156108a8576105fa604051806040016040528060088152602001673732bb903a3ab93760c11b81525082610fe4565b6000805b828110156108a057610611600184611487565b810361070b578085036106845785818151811061063057610630611442565b602002602001015187858151811061064a5761064a611442565b60209081029190910101528361065f8161146e565b94505061068487858151811061067757610677611442565b602002602001015161102d565b85818151811061069657610696611442565b60200260200101518682815181106106b0576106b0611442565b60200260200101516040516020016106d2929190918252602082015260400190565b604051602081830303815290604052805190602001208683815181106106fa576106fa611442565b602002602001018181525050610873565b80850361077a578561071e82600161149a565b8151811061072e5761072e611442565b602002602001015187858151811061074857610748611442565b60209081029190910101528361075d8161146e565b94505061077587858151811061067757610677611442565b6107e4565b61078581600161149a565b85036107e45785818151811061079d5761079d611442565b60200260200101518785815181106107b7576107b7611442565b6020908102919091010152836107cc8161146e565b9450506107e487858151811061067757610677611442565b8581815181106107f6576107f6611442565b60200260200101518682600161080c919061149a565b8151811061081c5761081c611442565b602002602001015160405160200161083e929190918252602082015260400190565b6040516020818303038152906040528051906020012086838151811061086657610866611442565b6020026020010181815250505b8161087d8161146e565b925061088c90506002866114c3565b945061089960028261149a565b90506105fe565b5090506105c7565b505b60005b84518110156108dd576108cb85828151811061067757610677611442565b806108d58161146e565b9150506108ad565b509295945050505050565b6005546000908082036108fd57506000919050565b60055460009067ffffffffffffffff81111561091b5761091b6110d6565b604051908082528060200260200182016040528015610944578160200160208202803683370190505b50905060005b6005548110156109c9576005818154811061096757610967611442565b906000526020600020015460405160200161098491815260200190565b604051602081830303815290604052805190602001208282815181106109ac576109ac611442565b6020908102919091010152806109c18161146e565b91505061094a565b5080515b6001811115610c7b57610a00604051806040016040528060088152602001673732bb903a3ab93760c11b81525082610fe4565b6000805b82811015610c7357610a17600184611487565b8103610b0657610a4660405180604001604052806007815260200166034b7383aba1d160cd1b81525082610fe4565b610a5b84828151811061067757610677611442565b838181518110610a6d57610a6d611442565b6020026020010151848281518110610a8757610a87611442565b6020026020010151604051602001610aa9929190918252602082015260400190565b60405160208183030381529060405280519060200120848381518110610ad157610ad1611442565b602002602001018181525050610b0160405180604001604052806003815260200162195b9960ea1b815250611072565b610c15565b610b2f60405180604001604052806007815260200166034b7383aba1d160cd1b81525082610fe4565b610b4484828151811061067757610677611442565b610b6384610b5383600161149a565b8151811061067757610677611442565b838181518110610b7557610b75611442565b602002602001015184826001610b8b919061149a565b81518110610b9b57610b9b611442565b6020026020010151604051602001610bbd929190918252602082015260400190565b60405160208183030381529060405280519060200120848381518110610be557610be5611442565b602002602001018181525050610c1560405180604001604052806003815260200162195b9960ea1b815250611072565b610c3e60405180604001604052806008815260200167037baba383aba1d160c51b815250611072565b610c5384838151811061067757610677611442565b81610c5d8161146e565b9250610c6c905060028261149a565b9050610a04565b5090506109cd565b81600081518110610c8e57610c8e611442565b6020026020010151935050505090565b60046020526000908152604090208054600182018054919291610cc0906112ff565b80601f0160208091040260200160405190810160405280929190818152602001828054610cec906112ff565b8015610d395780601f10610d0e57610100808354040283529160200191610d39565b820191906000526020600020905b815481529060010190602001808311610d1c57829003601f168201915b5050505050905082565b6000805b600554811015610d90578260058281548110610d6557610d65611442565b906000526020600020015403610d7e5750600192915050565b80610d888161146e565b915050610d47565b50600092915050565b6000805b600554811015610d905782604051602001610db891906114d7565b604051602081830303815290604052805190602001206004600060058481548110610de557610de5611442565b90600052602060002001548152602001908152602001600020600101604051602001610e1191906114f3565b6040516020818303038152906040528051906020012003610e355750600192915050565b80610e3f8161146e565b915050610d9d565b6000806001548360025442604051602001610e6493929190611569565b6040516020818303038152906040528051906020012060001c610e87919061158e565b9392505050565b600080608083901c15610ea357608092831c92015b604083901c15610eb557604092831c92015b602083901c15610ec757602092831c92015b601083901c15610ed957601092831c92015b600883901c15610eeb57600892831c92015b600483901c15610efd57600492831c92015b600283901c15610f0f57600292831c92015b600183901c15610f1d576001015b92915050565b610f6881604051602401610f3991815260200190565b60408051601f198184030181529190526020810180516001600160e01b031663f82c50f160e01b1790526110b1565b50565b6000805b8251811015610fd957828181518110610f8a57610f8a611442565b602002602001015184604051602001610fa591815260200190565b6040516020818303038152906040528051906020012003610fc7579050610f1d565b80610fd18161146e565b915050610f6f565b506000199392505050565b6110298282604051602401610ffa9291906115a2565b60408051601f198184030181529190526020810180516001600160e01b0316632d839cb360e21b1790526110b1565b5050565b610f688160405160240161104391815260200190565b60408051601f198184030181529190526020810180516001600160e01b03166327b7cf8560e01b1790526110b1565b610f688160405160240161108691906115c4565b60408051601f198184030181529190526020810180516001600160e01b031663104c13eb60e21b1790525b610f688160006a636f6e736f6c652e6c6f679050600080835160208501845afa505050565b634e487b7160e01b600052604160045260246000fd5b6000602082840312156110fe57600080fd5b813567ffffffffffffffff8082111561111657600080fd5b818401915084601f83011261112a57600080fd5b81358181111561113c5761113c6110d6565b604051601f8201601f19908116603f01168101908382118183101715611164576111646110d6565b8160405282815287602084870101111561117d57600080fd5b826020860160208301376000928101602001929092525095945050505050565b60005b838110156111b85781810151838201526020016111a0565b50506000910152565b600081518084526111d981602086016020860161119d565b601f01601f19169290920160200192915050565b80518252600060208201516040602085015261120c60408501826111c1565b949350505050565b602081526000610e8760208301846111ed565b6000602080830181845280855180835260408601915060408160051b870101925083870160005b8281101561127c57603f1988860301845261126a8583516111ed565b9450928501929085019060010161124e565b5092979650505050505050565b60006020828403121561129b57600080fd5b5035919050565b6020808252825182820181905260009190848201906040850190845b818110156112da578351835292840192918401916001016112be565b50909695505050505050565b82815260406020820152600061120c60408301846111c1565b600181811c9082168061131357607f821691505b60208210810361044157634e487b7160e01b600052602260045260246000fd5b601f82111561137d57600081815260208120601f850160051c8101602086101561135a5750805b601f850160051c820191505b8181101561137957828155600101611366565b5050505b505050565b815167ffffffffffffffff81111561139c5761139c6110d6565b6113b0816113aa84546112ff565b84611333565b602080601f8311600181146113e557600084156113cd5750858301515b600019600386901b1c1916600185901b178555611379565b600085815260208120601f198616915b82811015611414578886015182559484019460019091019084016113f5565b50858210156114325787850151600019600388901b60f8161c191681555b5050505050600190811b01905550565b634e487b7160e01b600052603260045260246000fd5b634e487b7160e01b600052601160045260246000fd5b60006001820161148057611480611458565b5060010190565b81810381811115610f1d57610f1d611458565b80820180821115610f1d57610f1d611458565b634e487b7160e01b600052601260045260246000fd5b6000826114d2576114d26114ad565b500490565b600082516114e981846020870161119d565b9190910192915050565b6000808354611501816112ff565b60018281168015611519576001811461152e5761155d565b60ff198416875282151583028701945061155d565b8760005260208060002060005b858110156115545781548a82015290840190820161153b565b50505082870194505b50929695505050505050565b60608152600061157c60608301866111c1565b60208301949094525060400152919050565b60008261159d5761159d6114ad565b500690565b6040815260006115b560408301856111c1565b90508260208301529392505050565b602081526000610e8760208301846111c156fea2646970667358221220025c171860dfb508716cb419b716cc98c9701b22c63622c8aaad76e80a67809764736f6c63430008140033","opcodes":"PUSH1 0x80 PUSH1 0x40 MSTORE PUSH1 0x10 PUSH1 0x0 DUP2 SWAP1 SSTORE PUSH3 0x18 SWAP1 PUSH1 0xA PUSH3 0x1F0 JUMP JUMPDEST PUSH1 0x1 SSTORE PUSH1 0x0 PUSH1 0x2 SSTORE CALLVALUE DUP1 ISZERO PUSH3 0x2D JUMPI PUSH1 0x0 DUP1 REVERT JUMPDEST POP PUSH1 0x40 DUP1 MLOAD PUSH1 0xA0 DUP2 ADD DUP3 MSTORE PUSH1 0x1 DUP2 MSTORE PUSH1 0x2 PUSH1 0x20 DUP3 ADD MSTORE PUSH1 0x3 SWAP2 DUP2 ADD SWAP2 SWAP1 SWAP2 MSTORE PUSH1 0x4 PUSH1 0x60 DUP3 ADD MSTORE PUSH1 0x5 PUSH1 0x80 DUP3 ADD DUP2 SWAP1 MSTORE PUSH3 0x68 SWAP2 DUP2 PUSH3 0x6F JUMP JUMPDEST POP PUSH3 0x205 JUMP JUMPDEST DUP3 DUP1 SLOAD DUP3 DUP3 SSTORE SWAP1 PUSH1 0x0 MSTORE PUSH1 0x20 PUSH1 0x0 KECCAK256 SWAP1 DUP2 ADD SWAP3 DUP3 ISZERO PUSH3 0xB2 JUMPI SWAP2 PUSH1 0x20 MUL DUP3 ADD JUMPDEST DUP3 DUP2 GT ISZERO PUSH3 0xB2 JUMPI DUP3 MLOAD DUP3 SWAP1 PUSH1 0xFF AND SWAP1 SSTORE SWAP2 PUSH1 0x20 ADD SWAP2 SWAP1 PUSH1 0x1 ADD SWAP1 PUSH3 0x90 JUMP JUMPDEST POP PUSH3 0xC0 SWAP3 SWAP2 POP PUSH3 0xC4 JUMP JUMPDEST POP SWAP1 JUMP JUMPDEST JUMPDEST DUP1 DUP3 GT ISZERO PUSH3 0xC0 JUMPI PUSH1 0x0 DUP2 SSTORE PUSH1 0x1 ADD PUSH3 0xC5 JUMP JUMPDEST PUSH4 0x4E487B71 PUSH1 0xE0 SHL PUSH1 0x0 MSTORE PUSH1 0x11 PUSH1 0x4 MSTORE PUSH1 0x24 PUSH1 0x0 REVERT JUMPDEST PUSH1 0x1 DUP2 DUP2 JUMPDEST DUP1 DUP6 GT ISZERO PUSH3 0x132 JUMPI DUP2 PUSH1 0x0 NOT DIV DUP3 GT ISZERO PUSH3 0x116 JUMPI PUSH3 0x116 PUSH3 0xDB JUMP JUMPDEST DUP1 DUP6 AND ISZERO PUSH3 0x124 JUMPI SWAP2 DUP2 MUL SWAP2 JUMPDEST SWAP4 DUP5 SHR SWAP4 SWAP1 DUP1 MUL SWAP1 PUSH3 0xF6 JUMP JUMPDEST POP SWAP3 POP SWAP3 SWAP1 POP JUMP JUMPDEST PUSH1 0x0 DUP3 PUSH3 0x14B JUMPI POP PUSH1 0x1 PUSH3 0x1EA JUMP JUMPDEST DUP2 PUSH3 0x15A JUMPI POP PUSH1 0x0 PUSH3 0x1EA JUMP JUMPDEST DUP2 PUSH1 0x1 DUP2 EQ PUSH3 0x173 JUMPI PUSH1 0x2 DUP2 EQ PUSH3 0x17E JUMPI PUSH3 0x19E JUMP JUMPDEST PUSH1 0x1 SWAP2 POP POP PUSH3 0x1EA JUMP JUMPDEST PUSH1 0xFF DUP5 GT ISZERO PUSH3 0x192 JUMPI PUSH3 0x192 PUSH3 0xDB JUMP JUMPDEST POP POP PUSH1 0x1 DUP3 SHL PUSH3 0x1EA JUMP JUMPDEST POP PUSH1 0x20 DUP4 LT PUSH2 0x133 DUP4 LT AND PUSH1 0x4E DUP5 LT PUSH1 0xB DUP5 LT AND OR ISZERO PUSH3 0x1C3 JUMPI POP DUP2 DUP2 EXP PUSH3 0x1EA JUMP JUMPDEST PUSH3 0x1CF DUP4 DUP4 PUSH3 0xF1 JUMP JUMPDEST DUP1 PUSH1 0x0 NOT DIV DUP3 GT ISZERO PUSH3 0x1E6 JUMPI PUSH3 0x1E6 PUSH3 0xDB JUMP JUMPDEST MUL SWAP1 POP JUMPDEST SWAP3 SWAP2 POP POP JUMP JUMPDEST PUSH1 0x0 PUSH3 0x1FE DUP4 DUP4 PUSH3 0x13A JUMP JUMPDEST SWAP4 SWAP3 POP POP POP JUMP JUMPDEST PUSH2 0x160D DUP1 PUSH3 0x215 PUSH1 0x0 CODECOPY PUSH1 0x0 RETURN INVALID PUSH1 0x80 PUSH1 0x40 MSTORE CALLVALUE DUP1 ISZERO PUSH2 0x10 JUMPI PUSH1 0x0 DUP1 REVERT JUMPDEST POP PUSH1 0x4 CALLDATASIZE LT PUSH2 0x62 JUMPI PUSH1 0x0 CALLDATALOAD PUSH1 0xE0 SHR DUP1 PUSH4 0x1B7B8DAC EQ PUSH2 0x67 JUMPI DUP1 PUSH4 0x5C26B7CA EQ PUSH2 0x90 JUMPI DUP1 PUSH4 0x6E4D6517 EQ PUSH2 0xA5 JUMPI DUP1 PUSH4 0xDE8BA93D EQ PUSH2 0xC5 JUMPI DUP1 PUSH4 0xEAEB60E3 EQ PUSH2 0xDB JUMPI DUP1 PUSH4 0xF84F91EF EQ PUSH2 0xFC JUMPI JUMPDEST PUSH1 0x0 DUP1 REVERT JUMPDEST PUSH2 0x7A PUSH2 0x75 CALLDATASIZE PUSH1 0x4 PUSH2 0x10EC JUMP JUMPDEST PUSH2 0x11F JUMP JUMPDEST PUSH1 0x40 MLOAD PUSH2 0x87 SWAP2 SWAP1 PUSH2 0x1214 JUMP JUMPDEST PUSH1 0x40 MLOAD DUP1 SWAP2 SUB SWAP1 RETURN JUMPDEST PUSH2 0x98 PUSH2 0x2C3 JUMP JUMPDEST PUSH1 0x40 MLOAD PUSH2 0x87 SWAP2 SWAP1 PUSH2 0x1227 JUMP JUMPDEST PUSH2 0xB8 PUSH2 0xB3 CALLDATASIZE PUSH1 0x4 PUSH2 0x1289 JUMP JUMPDEST PUSH2 0x447 JUMP JUMPDEST PUSH1 0x40 MLOAD PUSH2 0x87 SWAP2 SWAP1 PUSH2 0x12A2 JUMP JUMPDEST PUSH2 0xCD PUSH2 0x8E8 JUMP JUMPDEST PUSH1 0x40 MLOAD SWAP1 DUP2 MSTORE PUSH1 0x20 ADD PUSH2 0x87 JUMP JUMPDEST PUSH2 0xEE PUSH2 0xE9 CALLDATASIZE PUSH1 0x4 PUSH2 0x1289 JUMP JUMPDEST PUSH2 0xC9E JUMP JUMPDEST PUSH1 0x40 MLOAD PUSH2 0x87 SWAP3 SWAP2 SWAP1 PUSH2 0x12E6 JUMP JUMPDEST PUSH2 0x10F PUSH2 0x10A CALLDATASIZE PUSH1 0x4 PUSH2 0x1289 JUMP JUMPDEST PUSH2 0xD43 JUMP JUMPDEST PUSH1 0x40 MLOAD SWAP1 ISZERO ISZERO DUP2 MSTORE PUSH1 0x20 ADD PUSH2 0x87 JUMP JUMPDEST PUSH1 0x40 DUP1 MLOAD DUP1 DUP3 ADD SWAP1 SWAP2 MSTORE PUSH1 0x0 DUP2 MSTORE PUSH1 0x60 PUSH1 0x20 DUP3 ADD MSTORE PUSH2 0x13D DUP3 PUSH2 0xD99 JUMP JUMPDEST ISZERO PUSH2 0x18E JUMPI PUSH1 0x40 MLOAD PUSH3 0x461BCD PUSH1 0xE5 SHL DUP2 MSTORE PUSH1 0x20 PUSH1 0x4 DUP3 ADD MSTORE PUSH1 0x1E PUSH1 0x24 DUP3 ADD MSTORE PUSH32 0x4465706172746D656E742068617320616C726561647920657869737465640000 PUSH1 0x44 DUP3 ADD MSTORE PUSH1 0x64 ADD PUSH1 0x40 MLOAD DUP1 SWAP2 SUB SWAP1 REVERT JUMPDEST PUSH1 0x0 PUSH2 0x199 DUP4 PUSH2 0xE47 JUMP JUMPDEST PUSH1 0x40 DUP1 MLOAD DUP1 DUP3 ADD DUP3 MSTORE DUP3 DUP2 MSTORE PUSH1 0x20 DUP1 DUP3 ADD DUP8 DUP2 MSTORE PUSH1 0x0 DUP6 DUP2 MSTORE PUSH1 0x4 SWAP1 SWAP3 MSTORE SWAP3 SWAP1 KECCAK256 DUP2 MLOAD DUP2 SSTORE SWAP2 MLOAD SWAP3 SWAP4 POP SWAP2 PUSH1 0x1 DUP3 ADD SWAP1 PUSH2 0x1D3 SWAP1 DUP3 PUSH2 0x1382 JUMP JUMPDEST POP POP PUSH1 0x5 DUP1 SLOAD PUSH1 0x1 DUP2 DUP2 ADD SWAP1 SWAP3 SSTORE PUSH32 0x36B6384B5ECA791C62761152D0C79BB0604C104A5FB6F4EB0703F3154BB3DB0 ADD DUP4 SWAP1 SSTORE PUSH1 0x0 DUP4 DUP2 MSTORE PUSH1 0x4 PUSH1 0x20 SWAP1 DUP2 MSTORE PUSH1 0x40 SWAP2 DUP3 SWAP1 KECCAK256 DUP3 MLOAD DUP1 DUP5 ADD SWAP1 SWAP4 MSTORE DUP1 SLOAD DUP4 MSTORE SWAP3 DUP4 ADD DUP1 SLOAD SWAP3 SWAP5 POP SWAP1 DUP5 ADD SWAP2 PUSH2 0x239 SWAP1 PUSH2 0x12FF JUMP JUMPDEST DUP1 PUSH1 0x1F ADD PUSH1 0x20 DUP1 SWAP2 DIV MUL PUSH1 0x20 ADD PUSH1 0x40 MLOAD SWAP1 DUP2 ADD PUSH1 0x40 MSTORE DUP1 SWAP3 SWAP2 SWAP1 DUP2 DUP2 MSTORE PUSH1 0x20 ADD DUP3 DUP1 SLOAD PUSH2 0x265 SWAP1 PUSH2 0x12FF JUMP JUMPDEST DUP1 ISZERO PUSH2 0x2B2 JUMPI DUP1 PUSH1 0x1F LT PUSH2 0x287 JUMPI PUSH2 0x100 DUP1 DUP4 SLOAD DIV MUL DUP4 MSTORE SWAP2 PUSH1 0x20 ADD SWAP2 PUSH2 0x2B2 JUMP JUMPDEST DUP3 ADD SWAP2 SWAP1 PUSH1 0x0 MSTORE PUSH1 0x20 PUSH1 0x0 KECCAK256 SWAP1 JUMPDEST DUP2 SLOAD DUP2 MSTORE SWAP1 PUSH1 0x1 ADD SWAP1 PUSH1 0x20 ADD DUP1 DUP4 GT PUSH2 0x295 JUMPI DUP3 SWAP1 SUB PUSH1 0x1F AND DUP3 ADD SWAP2 JUMPDEST POP POP POP POP POP DUP2 MSTORE POP POP SWAP2 POP POP SWAP2 SWAP1 POP JUMP JUMPDEST PUSH1 0x5 SLOAD PUSH1 0x60 SWAP1 PUSH1 0x0 SWAP1 PUSH8 0xFFFFFFFFFFFFFFFF DUP2 GT ISZERO PUSH2 0x2E4 JUMPI PUSH2 0x2E4 PUSH2 0x10D6 JUMP JUMPDEST PUSH1 0x40 MLOAD SWAP1 DUP1 DUP3 MSTORE DUP1 PUSH1 0x20 MUL PUSH1 0x20 ADD DUP3 ADD PUSH1 0x40 MSTORE DUP1 ISZERO PUSH2 0x32A JUMPI DUP2 PUSH1 0x20 ADD JUMPDEST PUSH1 0x40 DUP1 MLOAD DUP1 DUP3 ADD SWAP1 SWAP2 MSTORE PUSH1 0x0 DUP2 MSTORE PUSH1 0x60 PUSH1 0x20 DUP3 ADD MSTORE DUP2 MSTORE PUSH1 0x20 ADD SWAP1 PUSH1 0x1 SWAP1 SUB SWAP1 DUP2 PUSH2 0x302 JUMPI SWAP1 POP JUMPDEST POP SWAP1 POP PUSH1 0x0 JUMPDEST PUSH1 0x5 SLOAD DUP2 LT ISZERO PUSH2 0x441 JUMPI PUSH1 0x4 PUSH1 0x0 PUSH1 0x5 DUP4 DUP2 SLOAD DUP2 LT PUSH2 0x351 JUMPI PUSH2 0x351 PUSH2 0x1442 JUMP JUMPDEST SWAP1 PUSH1 0x0 MSTORE PUSH1 0x20 PUSH1 0x0 KECCAK256 ADD SLOAD DUP2 MSTORE PUSH1 0x20 ADD SWAP1 DUP2 MSTORE PUSH1 0x20 ADD PUSH1 0x0 KECCAK256 PUSH1 0x40 MLOAD DUP1 PUSH1 0x40 ADD PUSH1 0x40 MSTORE SWAP1 DUP2 PUSH1 0x0 DUP3 ADD SLOAD DUP2 MSTORE PUSH1 0x20 ADD PUSH1 0x1 DUP3 ADD DUP1 SLOAD PUSH2 0x38F SWAP1 PUSH2 0x12FF JUMP JUMPDEST DUP1 PUSH1 0x1F ADD PUSH1 0x20 DUP1 SWAP2 DIV MUL PUSH1 0x20 ADD PUSH1 0x40 MLOAD SWAP1 DUP2 ADD PUSH1 0x40 MSTORE DUP1 SWAP3 SWAP2 SWAP1 DUP2 DUP2 MSTORE PUSH1 0x20 ADD DUP3 DUP1 SLOAD PUSH2 0x3BB SWAP1 PUSH2 0x12FF JUMP JUMPDEST DUP1 ISZERO PUSH2 0x408 JUMPI DUP1 PUSH1 0x1F LT PUSH2 0x3DD JUMPI PUSH2 0x100 DUP1 DUP4 SLOAD DIV MUL DUP4 MSTORE SWAP2 PUSH1 0x20 ADD SWAP2 PUSH2 0x408 JUMP JUMPDEST DUP3 ADD SWAP2 SWAP1 PUSH1 0x0 MSTORE PUSH1 0x20 PUSH1 0x0 KECCAK256 SWAP1 JUMPDEST DUP2 SLOAD DUP2 MSTORE SWAP1 PUSH1 0x1 ADD SWAP1 PUSH1 0x20 ADD DUP1 DUP4 GT PUSH2 0x3EB JUMPI DUP3 SWAP1 SUB PUSH1 0x1F AND DUP3 ADD SWAP2 JUMPDEST POP POP POP POP POP DUP2 MSTORE POP POP DUP3 DUP3 DUP2 MLOAD DUP2 LT PUSH2 0x423 JUMPI PUSH2 0x423 PUSH2 0x1442 JUMP JUMPDEST PUSH1 0x20 MUL PUSH1 0x20 ADD ADD DUP2 SWAP1 MSTORE POP DUP1 DUP1 PUSH2 0x439 SWAP1 PUSH2 0x146E JUMP JUMPDEST SWAP2 POP POP PUSH2 0x330 JUMP JUMPDEST POP SWAP2 SWAP1 POP JUMP JUMPDEST PUSH1 0x60 PUSH1 0x0 PUSH2 0x459 PUSH1 0x5 DUP1 SLOAD SWAP1 POP PUSH2 0xE8E JUMP JUMPDEST PUSH8 0xFFFFFFFFFFFFFFFF DUP2 GT ISZERO PUSH2 0x471 JUMPI PUSH2 0x471 PUSH2 0x10D6 JUMP JUMPDEST PUSH1 0x40 MLOAD SWAP1 DUP1 DUP3 MSTORE DUP1 PUSH1 0x20 MUL PUSH1 0x20 ADD DUP3 ADD PUSH1 0x40 MSTORE DUP1 ISZERO PUSH2 0x49A JUMPI DUP2 PUSH1 0x20 ADD PUSH1 0x20 DUP3 MUL DUP1 CALLDATASIZE DUP4 CALLDATACOPY ADD SWAP1 POP JUMPDEST POP SWAP1 POP PUSH2 0x4B3 PUSH2 0x4AE PUSH1 0x5 DUP1 SLOAD SWAP1 POP PUSH2 0xE8E JUMP JUMPDEST PUSH2 0xF23 JUMP JUMPDEST PUSH1 0x5 SLOAD PUSH1 0x0 SWAP1 PUSH8 0xFFFFFFFFFFFFFFFF DUP2 GT ISZERO PUSH2 0x4D1 JUMPI PUSH2 0x4D1 PUSH2 0x10D6 JUMP JUMPDEST PUSH1 0x40 MLOAD SWAP1 DUP1 DUP3 MSTORE DUP1 PUSH1 0x20 MUL PUSH1 0x20 ADD DUP3 ADD PUSH1 0x40 MSTORE DUP1 ISZERO PUSH2 0x4FA JUMPI DUP2 PUSH1 0x20 ADD PUSH1 0x20 DUP3 MUL DUP1 CALLDATASIZE DUP4 CALLDATACOPY ADD SWAP1 POP JUMPDEST POP SWAP1 POP PUSH1 0x0 JUMPDEST PUSH1 0x5 SLOAD DUP2 LT ISZERO PUSH2 0x57F JUMPI PUSH1 0x5 DUP2 DUP2 SLOAD DUP2 LT PUSH2 0x51D JUMPI PUSH2 0x51D PUSH2 0x1442 JUMP JUMPDEST SWAP1 PUSH1 0x0 MSTORE PUSH1 0x20 PUSH1 0x0 KECCAK256 ADD SLOAD PUSH1 0x40 MLOAD PUSH1 0x20 ADD PUSH2 0x53A SWAP2 DUP2 MSTORE PUSH1 0x20 ADD SWAP1 JUMP JUMPDEST PUSH1 0x40 MLOAD PUSH1 0x20 DUP2 DUP4 SUB SUB DUP2 MSTORE SWAP1 PUSH1 0x40 MSTORE DUP1 MLOAD SWAP1 PUSH1 0x20 ADD KECCAK256 DUP3 DUP3 DUP2 MLOAD DUP2 LT PUSH2 0x562 JUMPI PUSH2 0x562 PUSH2 0x1442 JUMP JUMPDEST PUSH1 0x20 SWAP1 DUP2 MUL SWAP2 SWAP1 SWAP2 ADD ADD MSTORE DUP1 PUSH2 0x577 DUP2 PUSH2 0x146E JUMP JUMPDEST SWAP2 POP POP PUSH2 0x500 JUMP JUMPDEST POP PUSH1 0x0 PUSH2 0x58C DUP6 DUP4 PUSH2 0xF6B JUMP JUMPDEST SWAP1 POP PUSH2 0x5B9 PUSH1 0x40 MLOAD DUP1 PUSH1 0x40 ADD PUSH1 0x40 MSTORE DUP1 PUSH1 0x9 DUP2 MSTORE PUSH1 0x20 ADD PUSH9 0x3837B9B4BA34B7B71D PUSH1 0xB9 SHL DUP2 MSTORE POP DUP3 PUSH2 0xFE4 JUMP JUMPDEST PUSH1 0x0 PUSH1 0x0 NOT DUP3 EQ PUSH2 0x8AA JUMPI DUP3 MLOAD JUMPDEST PUSH1 0x1 DUP2 GT ISZERO PUSH2 0x8A8 JUMPI PUSH2 0x5FA PUSH1 0x40 MLOAD DUP1 PUSH1 0x40 ADD PUSH1 0x40 MSTORE DUP1 PUSH1 0x8 DUP2 MSTORE PUSH1 0x20 ADD PUSH8 0x3732BB903A3AB937 PUSH1 0xC1 SHL DUP2 MSTORE POP DUP3 PUSH2 0xFE4 JUMP JUMPDEST PUSH1 0x0 DUP1 JUMPDEST DUP3 DUP2 LT ISZERO PUSH2 0x8A0 JUMPI PUSH2 0x611 PUSH1 0x1 DUP5 PUSH2 0x1487 JUMP JUMPDEST DUP2 SUB PUSH2 0x70B JUMPI DUP1 DUP6 SUB PUSH2 0x684 JUMPI DUP6 DUP2 DUP2 MLOAD DUP2 LT PUSH2 0x630 JUMPI PUSH2 0x630 PUSH2 0x1442 JUMP JUMPDEST PUSH1 0x20 MUL PUSH1 0x20 ADD ADD MLOAD DUP8 DUP6 DUP2 MLOAD DUP2 LT PUSH2 0x64A JUMPI PUSH2 0x64A PUSH2 0x1442 JUMP JUMPDEST PUSH1 0x20 SWAP1 DUP2 MUL SWAP2 SWAP1 SWAP2 ADD ADD MSTORE DUP4 PUSH2 0x65F DUP2 PUSH2 0x146E JUMP JUMPDEST SWAP5 POP POP PUSH2 0x684 DUP8 DUP6 DUP2 MLOAD DUP2 LT PUSH2 0x677 JUMPI PUSH2 0x677 PUSH2 0x1442 JUMP JUMPDEST PUSH1 0x20 MUL PUSH1 0x20 ADD ADD MLOAD PUSH2 0x102D JUMP JUMPDEST DUP6 DUP2 DUP2 MLOAD DUP2 LT PUSH2 0x696 JUMPI PUSH2 0x696 PUSH2 0x1442 JUMP JUMPDEST PUSH1 0x20 MUL PUSH1 0x20 ADD ADD MLOAD DUP7 DUP3 DUP2 MLOAD DUP2 LT PUSH2 0x6B0 JUMPI PUSH2 0x6B0 PUSH2 0x1442 JUMP JUMPDEST PUSH1 0x20 MUL PUSH1 0x20 ADD ADD MLOAD PUSH1 0x40 MLOAD PUSH1 0x20 ADD PUSH2 0x6D2 SWAP3 SWAP2 SWAP1 SWAP2 DUP3 MSTORE PUSH1 0x20 DUP3 ADD MSTORE PUSH1 0x40 ADD SWAP1 JUMP JUMPDEST PUSH1 0x40 MLOAD PUSH1 0x20 DUP2 DUP4 SUB SUB DUP2 MSTORE SWAP1 PUSH1 0x40 MSTORE DUP1 MLOAD SWAP1 PUSH1 0x20 ADD KECCAK256 DUP7 DUP4 DUP2 MLOAD DUP2 LT PUSH2 0x6FA JUMPI PUSH2 0x6FA PUSH2 0x1442 JUMP JUMPDEST PUSH1 0x20 MUL PUSH1 0x20 ADD ADD DUP2 DUP2 MSTORE POP POP PUSH2 0x873 JUMP JUMPDEST DUP1 DUP6 SUB PUSH2 0x77A JUMPI DUP6 PUSH2 0x71E DUP3 PUSH1 0x1 PUSH2 0x149A JUMP JUMPDEST DUP2 MLOAD DUP2 LT PUSH2 0x72E JUMPI PUSH2 0x72E PUSH2 0x1442 JUMP JUMPDEST PUSH1 0x20 MUL PUSH1 0x20 ADD ADD MLOAD DUP8 DUP6 DUP2 MLOAD DUP2 LT PUSH2 0x748 JUMPI PUSH2 0x748 PUSH2 0x1442 JUMP JUMPDEST PUSH1 0x20 SWAP1 DUP2 MUL SWAP2 SWAP1 SWAP2 ADD ADD MSTORE DUP4 PUSH2 0x75D DUP2 PUSH2 0x146E JUMP JUMPDEST SWAP5 POP POP PUSH2 0x775 DUP8 DUP6 DUP2 MLOAD DUP2 LT PUSH2 0x677 JUMPI PUSH2 0x677 PUSH2 0x1442 JUMP JUMPDEST PUSH2 0x7E4 JUMP JUMPDEST PUSH2 0x785 DUP2 PUSH1 0x1 PUSH2 0x149A JUMP JUMPDEST DUP6 SUB PUSH2 0x7E4 JUMPI DUP6 DUP2 DUP2 MLOAD DUP2 LT PUSH2 0x79D JUMPI PUSH2 0x79D PUSH2 0x1442 JUMP JUMPDEST PUSH1 0x20 MUL PUSH1 0x20 ADD ADD MLOAD DUP8 DUP6 DUP2 MLOAD DUP2 LT PUSH2 0x7B7 JUMPI PUSH2 0x7B7 PUSH2 0x1442 JUMP JUMPDEST PUSH1 0x20 SWAP1 DUP2 MUL SWAP2 SWAP1 SWAP2 ADD ADD MSTORE DUP4 PUSH2 0x7CC DUP2 PUSH2 0x146E JUMP JUMPDEST SWAP5 POP POP PUSH2 0x7E4 DUP8 DUP6 DUP2 MLOAD DUP2 LT PUSH2 0x677 JUMPI PUSH2 0x677 PUSH2 0x1442 JUMP JUMPDEST DUP6 DUP2 DUP2 MLOAD DUP2 LT PUSH2 0x7F6 JUMPI PUSH2 0x7F6 PUSH2 0x1442 JUMP JUMPDEST PUSH1 0x20 MUL PUSH1 0x20 ADD ADD MLOAD DUP7 DUP3 PUSH1 0x1 PUSH2 0x80C SWAP2 SWAP1 PUSH2 0x149A JUMP JUMPDEST DUP2 MLOAD DUP2 LT PUSH2 0x81C JUMPI PUSH2 0x81C PUSH2 0x1442 JUMP JUMPDEST PUSH1 0x20 MUL PUSH1 0x20 ADD ADD MLOAD PUSH1 0x40 MLOAD PUSH1 0x20 ADD PUSH2 0x83E SWAP3 SWAP2 SWAP1 SWAP2 DUP3 MSTORE PUSH1 0x20 DUP3 ADD MSTORE PUSH1 0x40 ADD SWAP1 JUMP JUMPDEST PUSH1 0x40 MLOAD PUSH1 0x20 DUP2 DUP4 SUB SUB DUP2 MSTORE SWAP1 PUSH1 0x40 MSTORE DUP1 MLOAD SWAP1 PUSH1 0x20 ADD KECCAK256 DUP7 DUP4 DUP2 MLOAD DUP2 LT PUSH2 0x866 JUMPI PUSH2 0x866 PUSH2 0x1442 JUMP JUMPDEST PUSH1 0x20 MUL PUSH1 0x20 ADD ADD DUP2 DUP2 MSTORE POP POP JUMPDEST DUP2 PUSH2 0x87D DUP2 PUSH2 0x146E JUMP JUMPDEST SWAP3 POP PUSH2 0x88C SWAP1 POP PUSH1 0x2 DUP7 PUSH2 0x14C3 JUMP JUMPDEST SWAP5 POP PUSH2 0x899 PUSH1 0x2 DUP3 PUSH2 0x149A JUMP JUMPDEST SWAP1 POP PUSH2 0x5FE JUMP JUMPDEST POP SWAP1 POP PUSH2 0x5C7 JUMP JUMPDEST POP JUMPDEST PUSH1 0x0 JUMPDEST DUP5 MLOAD DUP2 LT ISZERO PUSH2 0x8DD JUMPI PUSH2 0x8CB DUP6 DUP3 DUP2 MLOAD DUP2 LT PUSH2 0x677 JUMPI PUSH2 0x677 PUSH2 0x1442 JUMP JUMPDEST DUP1 PUSH2 0x8D5 DUP2 PUSH2 0x146E JUMP JUMPDEST SWAP2 POP POP PUSH2 0x8AD JUMP JUMPDEST POP SWAP3 SWAP6 SWAP5 POP POP POP POP POP JUMP JUMPDEST PUSH1 0x5 SLOAD PUSH1 0x0 SWAP1 DUP1 DUP3 SUB PUSH2 0x8FD JUMPI POP PUSH1 0x0 SWAP2 SWAP1 POP JUMP JUMPDEST PUSH1 0x5 SLOAD PUSH1 0x0 SWAP1 PUSH8 0xFFFFFFFFFFFFFFFF DUP2 GT ISZERO PUSH2 0x91B JUMPI PUSH2 0x91B PUSH2 0x10D6 JUMP JUMPDEST PUSH1 0x40 MLOAD SWAP1 DUP1 DUP3 MSTORE DUP1 PUSH1 0x20 MUL PUSH1 0x20 ADD DUP3 ADD PUSH1 0x40 MSTORE DUP1 ISZERO PUSH2 0x944 JUMPI DUP2 PUSH1 0x20 ADD PUSH1 0x20 DUP3 MUL DUP1 CALLDATASIZE DUP4 CALLDATACOPY ADD SWAP1 POP JUMPDEST POP SWAP1 POP PUSH1 0x0 JUMPDEST PUSH1 0x5 SLOAD DUP2 LT ISZERO PUSH2 0x9C9 JUMPI PUSH1 0x5 DUP2 DUP2 SLOAD DUP2 LT PUSH2 0x967 JUMPI PUSH2 0x967 PUSH2 0x1442 JUMP JUMPDEST SWAP1 PUSH1 0x0 MSTORE PUSH1 0x20 PUSH1 0x0 KECCAK256 ADD SLOAD PUSH1 0x40 MLOAD PUSH1 0x20 ADD PUSH2 0x984 SWAP2 DUP2 MSTORE PUSH1 0x20 ADD SWAP1 JUMP JUMPDEST PUSH1 0x40 MLOAD PUSH1 0x20 DUP2 DUP4 SUB SUB DUP2 MSTORE SWAP1 PUSH1 0x40 MSTORE DUP1 MLOAD SWAP1 PUSH1 0x20 ADD KECCAK256 DUP3 DUP3 DUP2 MLOAD DUP2 LT PUSH2 0x9AC JUMPI PUSH2 0x9AC PUSH2 0x1442 JUMP JUMPDEST PUSH1 0x20 SWAP1 DUP2 MUL SWAP2 SWAP1 SWAP2 ADD ADD MSTORE DUP1 PUSH2 0x9C1 DUP2 PUSH2 0x146E JUMP JUMPDEST SWAP2 POP POP PUSH2 0x94A JUMP JUMPDEST POP DUP1 MLOAD JUMPDEST PUSH1 0x1 DUP2 GT ISZERO PUSH2 0xC7B JUMPI PUSH2 0xA00 PUSH1 0x40 MLOAD DUP1 PUSH1 0x40 ADD PUSH1 0x40 MSTORE DUP1 PUSH1 0x8 DUP2 MSTORE PUSH1 0x20 ADD PUSH8 0x3732BB903A3AB937 PUSH1 0xC1 SHL DUP2 MSTORE POP DUP3 PUSH2 0xFE4 JUMP JUMPDEST PUSH1 0x0 DUP1 JUMPDEST DUP3 DUP2 LT ISZERO PUSH2 0xC73 JUMPI PUSH2 0xA17 PUSH1 0x1 DUP5 PUSH2 0x1487 JUMP JUMPDEST DUP2 SUB PUSH2 0xB06 JUMPI PUSH2 0xA46 PUSH1 0x40 MLOAD DUP1 PUSH1 0x40 ADD PUSH1 0x40 MSTORE DUP1 PUSH1 0x7 DUP2 MSTORE PUSH1 0x20 ADD PUSH7 0x34B7383ABA1D1 PUSH1 0xCD SHL DUP2 MSTORE POP DUP3 PUSH2 0xFE4 JUMP JUMPDEST PUSH2 0xA5B DUP5 DUP3 DUP2 MLOAD DUP2 LT PUSH2 0x677 JUMPI PUSH2 0x677 PUSH2 0x1442 JUMP JUMPDEST DUP4 DUP2 DUP2 MLOAD DUP2 LT PUSH2 0xA6D JUMPI PUSH2 0xA6D PUSH2 0x1442 JUMP JUMPDEST PUSH1 0x20 MUL PUSH1 0x20 ADD ADD MLOAD DUP5 DUP3 DUP2 MLOAD DUP2 LT PUSH2 0xA87 JUMPI PUSH2 0xA87 PUSH2 0x1442 JUMP JUMPDEST PUSH1 0x20 MUL PUSH1 0x20 ADD ADD MLOAD PUSH1 0x40 MLOAD PUSH1 0x20 ADD PUSH2 0xAA9 SWAP3 SWAP2 SWAP1 SWAP2 DUP3 MSTORE PUSH1 0x20 DUP3 ADD MSTORE PUSH1 0x40 ADD SWAP1 JUMP JUMPDEST PUSH1 0x40 MLOAD PUSH1 0x20 DUP2 DUP4 SUB SUB DUP2 MSTORE SWAP1 PUSH1 0x40 MSTORE DUP1 MLOAD SWAP1 PUSH1 0x20 ADD KECCAK256 DUP5 DUP4 DUP2 MLOAD DUP2 LT PUSH2 0xAD1 JUMPI PUSH2 0xAD1 PUSH2 0x1442 JUMP JUMPDEST PUSH1 0x20 MUL PUSH1 0x20 ADD ADD DUP2 DUP2 MSTORE POP POP PUSH2 0xB01 PUSH1 0x40 MLOAD DUP1 PUSH1 0x40 ADD PUSH1 0x40 MSTORE DUP1 PUSH1 0x3 DUP2 MSTORE PUSH1 0x20 ADD PUSH3 0x195B99 PUSH1 0xEA SHL DUP2 MSTORE POP PUSH2 0x1072 JUMP JUMPDEST PUSH2 0xC15 JUMP JUMPDEST PUSH2 0xB2F PUSH1 0x40 MLOAD DUP1 PUSH1 0x40 ADD PUSH1 0x40 MSTORE DUP1 PUSH1 0x7 DUP2 MSTORE PUSH1 0x20 ADD PUSH7 0x34B7383ABA1D1 PUSH1 0xCD SHL DUP2 MSTORE POP DUP3 PUSH2 0xFE4 JUMP JUMPDEST PUSH2 0xB44 DUP5 DUP3 DUP2 MLOAD DUP2 LT PUSH2 0x677 JUMPI PUSH2 0x677 PUSH2 0x1442 JUMP JUMPDEST PUSH2 0xB63 DUP5 PUSH2 0xB53 DUP4 PUSH1 0x1 PUSH2 0x149A JUMP JUMPDEST DUP2 MLOAD DUP2 LT PUSH2 0x677 JUMPI PUSH2 0x677 PUSH2 0x1442 JUMP JUMPDEST DUP4 DUP2 DUP2 MLOAD DUP2 LT PUSH2 0xB75 JUMPI PUSH2 0xB75 PUSH2 0x1442 JUMP JUMPDEST PUSH1 0x20 MUL PUSH1 0x20 ADD ADD MLOAD DUP5 DUP3 PUSH1 0x1 PUSH2 0xB8B SWAP2 SWAP1 PUSH2 0x149A JUMP JUMPDEST DUP2 MLOAD DUP2 LT PUSH2 0xB9B JUMPI PUSH2 0xB9B PUSH2 0x1442 JUMP JUMPDEST PUSH1 0x20 MUL PUSH1 0x20 ADD ADD MLOAD PUSH1 0x40 MLOAD PUSH1 0x20 ADD PUSH2 0xBBD SWAP3 SWAP2 SWAP1 SWAP2 DUP3 MSTORE PUSH1 0x20 DUP3 ADD MSTORE PUSH1 0x40 ADD SWAP1 JUMP JUMPDEST PUSH1 0x40 MLOAD PUSH1 0x20 DUP2 DUP4 SUB SUB DUP2 MSTORE SWAP1 PUSH1 0x40 MSTORE DUP1 MLOAD SWAP1 PUSH1 0x20 ADD KECCAK256 DUP5 DUP4 DUP2 MLOAD DUP2 LT PUSH2 0xBE5 JUMPI PUSH2 0xBE5 PUSH2 0x1442 JUMP JUMPDEST PUSH1 0x20 MUL PUSH1 0x20 ADD ADD DUP2 DUP2 MSTORE POP POP PUSH2 0xC15 PUSH1 0x40 MLOAD DUP1 PUSH1 0x40 ADD PUSH1 0x40 MSTORE DUP1 PUSH1 0x3 DUP2 MSTORE PUSH1 0x20 ADD PUSH3 0x195B99 PUSH1 0xEA SHL DUP2 MSTORE POP PUSH2 0x1072 JUMP JUMPDEST PUSH2 0xC3E PUSH1 0x40 MLOAD DUP1 PUSH1 0x40 ADD PUSH1 0x40 MSTORE DUP1 PUSH1 0x8 DUP2 MSTORE PUSH1 0x20 ADD PUSH8 0x37BABA383ABA1D1 PUSH1 0xC5 SHL DUP2 MSTORE POP PUSH2 0x1072 JUMP JUMPDEST PUSH2 0xC53 DUP5 DUP4 DUP2 MLOAD DUP2 LT PUSH2 0x677 JUMPI PUSH2 0x677 PUSH2 0x1442 JUMP JUMPDEST DUP2 PUSH2 0xC5D DUP2 PUSH2 0x146E JUMP JUMPDEST SWAP3 POP PUSH2 0xC6C SWAP1 POP PUSH1 0x2 DUP3 PUSH2 0x149A JUMP JUMPDEST SWAP1 POP PUSH2 0xA04 JUMP JUMPDEST POP SWAP1 POP PUSH2 0x9CD JUMP JUMPDEST DUP2 PUSH1 0x0 DUP2 MLOAD DUP2 LT PUSH2 0xC8E JUMPI PUSH2 0xC8E PUSH2 0x1442 JUMP JUMPDEST PUSH1 0x20 MUL PUSH1 0x20 ADD ADD MLOAD SWAP4 POP POP POP POP SWAP1 JUMP JUMPDEST PUSH1 0x4 PUSH1 0x20 MSTORE PUSH1 0x0 SWAP1 DUP2 MSTORE PUSH1 0x40 SWAP1 KECCAK256 DUP1 SLOAD PUSH1 0x1 DUP3 ADD DUP1 SLOAD SWAP2 SWAP3 SWAP2 PUSH2 0xCC0 SWAP1 PUSH2 0x12FF JUMP JUMPDEST DUP1 PUSH1 0x1F ADD PUSH1 0x20 DUP1 SWAP2 DIV MUL PUSH1 0x20 ADD PUSH1 0x40 MLOAD SWAP1 DUP2 ADD PUSH1 0x40 MSTORE DUP1 SWAP3 SWAP2 SWAP1 DUP2 DUP2 MSTORE PUSH1 0x20 ADD DUP3 DUP1 SLOAD PUSH2 0xCEC SWAP1 PUSH2 0x12FF JUMP JUMPDEST DUP1 ISZERO PUSH2 0xD39 JUMPI DUP1 PUSH1 0x1F LT PUSH2 0xD0E JUMPI PUSH2 0x100 DUP1 DUP4 SLOAD DIV MUL DUP4 MSTORE SWAP2 PUSH1 0x20 ADD SWAP2 PUSH2 0xD39 JUMP JUMPDEST DUP3 ADD SWAP2 SWAP1 PUSH1 0x0 MSTORE PUSH1 0x20 PUSH1 0x0 KECCAK256 SWAP1 JUMPDEST DUP2 SLOAD DUP2 MSTORE SWAP1 PUSH1 0x1 ADD SWAP1 PUSH1 0x20 ADD DUP1 DUP4 GT PUSH2 0xD1C JUMPI DUP3 SWAP1 SUB PUSH1 0x1F AND DUP3 ADD SWAP2 JUMPDEST POP POP POP POP POP SWAP1 POP DUP3 JUMP JUMPDEST PUSH1 0x0 DUP1 JUMPDEST PUSH1 0x5 SLOAD DUP2 LT ISZERO PUSH2 0xD90 JUMPI DUP3 PUSH1 0x5 DUP3 DUP2 SLOAD DUP2 LT PUSH2 0xD65 JUMPI PUSH2 0xD65 PUSH2 0x1442 JUMP JUMPDEST SWAP1 PUSH1 0x0 MSTORE PUSH1 0x20 PUSH1 0x0 KECCAK256 ADD SLOAD SUB PUSH2 0xD7E JUMPI POP PUSH1 0x1 SWAP3 SWAP2 POP POP JUMP JUMPDEST DUP1 PUSH2 0xD88 DUP2 PUSH2 0x146E JUMP JUMPDEST SWAP2 POP POP PUSH2 0xD47 JUMP JUMPDEST POP PUSH1 0x0 SWAP3 SWAP2 POP POP JUMP JUMPDEST PUSH1 0x0 DUP1 JUMPDEST PUSH1 0x5 SLOAD DUP2 LT ISZERO PUSH2 0xD90 JUMPI DUP3 PUSH1 0x40 MLOAD PUSH1 0x20 ADD PUSH2 0xDB8 SWAP2 SWAP1 PUSH2 0x14D7 JUMP JUMPDEST PUSH1 0x40 MLOAD PUSH1 0x20 DUP2 DUP4 SUB SUB DUP2 MSTORE SWAP1 PUSH1 0x40 MSTORE DUP1 MLOAD SWAP1 PUSH1 0x20 ADD KECCAK256 PUSH1 0x4 PUSH1 0x0 PUSH1 0x5 DUP5 DUP2 SLOAD DUP2 LT PUSH2 0xDE5 JUMPI PUSH2 0xDE5 PUSH2 0x1442 JUMP JUMPDEST SWAP1 PUSH1 0x0 MSTORE PUSH1 0x20 PUSH1 0x0 KECCAK256 ADD SLOAD DUP2 MSTORE PUSH1 0x20 ADD SWAP1 DUP2 MSTORE PUSH1 0x20 ADD PUSH1 0x0 KECCAK256 PUSH1 0x1 ADD PUSH1 0x40 MLOAD PUSH1 0x20 ADD PUSH2 0xE11 SWAP2 SWAP1 PUSH2 0x14F3 JUMP JUMPDEST PUSH1 0x40 MLOAD PUSH1 0x20 DUP2 DUP4 SUB SUB DUP2 MSTORE SWAP1 PUSH1 0x40 MSTORE DUP1 MLOAD SWAP1 PUSH1 0x20 ADD KECCAK256 SUB PUSH2 0xE35 JUMPI POP PUSH1 0x1 SWAP3 SWAP2 POP POP JUMP JUMPDEST DUP1 PUSH2 0xE3F DUP2 PUSH2 0x146E JUMP JUMPDEST SWAP2 POP POP PUSH2 0xD9D JUMP JUMPDEST PUSH1 0x0 DUP1 PUSH1 0x1 SLOAD DUP4 PUSH1 0x2 SLOAD TIMESTAMP PUSH1 0x40 MLOAD PUSH1 0x20 ADD PUSH2 0xE64 SWAP4 SWAP3 SWAP2 SWAP1 PUSH2 0x1569 JUMP JUMPDEST PUSH1 0x40 MLOAD PUSH1 0x20 DUP2 DUP4 SUB SUB DUP2 MSTORE SWAP1 PUSH1 0x40 MSTORE DUP1 MLOAD SWAP1 PUSH1 0x20 ADD KECCAK256 PUSH1 0x0 SHR PUSH2 0xE87 SWAP2 SWAP1 PUSH2 0x158E JUMP JUMPDEST SWAP4 SWAP3 POP POP POP JUMP JUMPDEST PUSH1 0x0 DUP1 PUSH1 0x80 DUP4 SWAP1 SHR ISZERO PUSH2 0xEA3 JUMPI PUSH1 0x80 SWAP3 DUP4 SHR SWAP3 ADD JUMPDEST PUSH1 0x40 DUP4 SWAP1 SHR ISZERO PUSH2 0xEB5 JUMPI PUSH1 0x40 SWAP3 DUP4 SHR SWAP3 ADD JUMPDEST PUSH1 0x20 DUP4 SWAP1 SHR ISZERO PUSH2 0xEC7 JUMPI PUSH1 0x20 SWAP3 DUP4 SHR SWAP3 ADD JUMPDEST PUSH1 0x10 DUP4 SWAP1 SHR ISZERO PUSH2 0xED9 JUMPI PUSH1 0x10 SWAP3 DUP4 SHR SWAP3 ADD JUMPDEST PUSH1 0x8 DUP4 SWAP1 SHR ISZERO PUSH2 0xEEB JUMPI PUSH1 0x8 SWAP3 DUP4 SHR SWAP3 ADD JUMPDEST PUSH1 0x4 DUP4 SWAP1 SHR ISZERO PUSH2 0xEFD JUMPI PUSH1 0x4 SWAP3 DUP4 SHR SWAP3 ADD JUMPDEST PUSH1 0x2 DUP4 SWAP1 SHR ISZERO PUSH2 0xF0F JUMPI PUSH1 0x2 SWAP3 DUP4 SHR SWAP3 ADD JUMPDEST PUSH1 0x1 DUP4 SWAP1 SHR ISZERO PUSH2 0xF1D JUMPI PUSH1 0x1 ADD JUMPDEST SWAP3 SWAP2 POP POP JUMP JUMPDEST PUSH2 0xF68 DUP2 PUSH1 0x40 MLOAD PUSH1 0x24 ADD PUSH2 0xF39 SWAP2 DUP2 MSTORE PUSH1 0x20 ADD SWAP1 JUMP JUMPDEST PUSH1 0x40 DUP1 MLOAD PUSH1 0x1F NOT DUP2 DUP5 SUB ADD DUP2 MSTORE SWAP2 SWAP1 MSTORE PUSH1 0x20 DUP2 ADD DUP1 MLOAD PUSH1 0x1 PUSH1 0x1 PUSH1 0xE0 SHL SUB AND PUSH4 0xF82C50F1 PUSH1 0xE0 SHL OR SWAP1 MSTORE PUSH2 0x10B1 JUMP JUMPDEST POP JUMP JUMPDEST PUSH1 0x0 DUP1 JUMPDEST DUP3 MLOAD DUP2 LT ISZERO PUSH2 0xFD9 JUMPI DUP3 DUP2 DUP2 MLOAD DUP2 LT PUSH2 0xF8A JUMPI PUSH2 0xF8A PUSH2 0x1442 JUMP JUMPDEST PUSH1 0x20 MUL PUSH1 0x20 ADD ADD MLOAD DUP5 PUSH1 0x40 MLOAD PUSH1 0x20 ADD PUSH2 0xFA5 SWAP2 DUP2 MSTORE PUSH1 0x20 ADD SWAP1 JUMP JUMPDEST PUSH1 0x40 MLOAD PUSH1 0x20 DUP2 DUP4 SUB SUB DUP2 MSTORE SWAP1 PUSH1 0x40 MSTORE DUP1 MLOAD SWAP1 PUSH1 0x20 ADD KECCAK256 SUB PUSH2 0xFC7 JUMPI SWAP1 POP PUSH2 0xF1D JUMP JUMPDEST DUP1 PUSH2 0xFD1 DUP2 PUSH2 0x146E JUMP JUMPDEST SWAP2 POP POP PUSH2 0xF6F JUMP JUMPDEST POP PUSH1 0x0 NOT SWAP4 SWAP3 POP POP POP JUMP JUMPDEST PUSH2 0x1029 DUP3 DUP3 PUSH1 0x40 MLOAD PUSH1 0x24 ADD PUSH2 0xFFA SWAP3 SWAP2 SWAP1 PUSH2 0x15A2 JUMP JUMPDEST PUSH1 0x40 DUP1 MLOAD PUSH1 0x1F NOT DUP2 DUP5 SUB ADD DUP2 MSTORE SWAP2 SWAP1 MSTORE PUSH1 0x20 DUP2 ADD DUP1 MLOAD PUSH1 0x1 PUSH1 0x1 PUSH1 0xE0 SHL SUB AND PUSH4 0x2D839CB3 PUSH1 0xE2 SHL OR SWAP1 MSTORE PUSH2 0x10B1 JUMP JUMPDEST POP POP JUMP JUMPDEST PUSH2 0xF68 DUP2 PUSH1 0x40 MLOAD PUSH1 0x24 ADD PUSH2 0x1043 SWAP2 DUP2 MSTORE PUSH1 0x20 ADD SWAP1 JUMP JUMPDEST PUSH1 0x40 DUP1 MLOAD PUSH1 0x1F NOT DUP2 DUP5 SUB ADD DUP2 MSTORE SWAP2 SWAP1 MSTORE PUSH1 0x20 DUP2 ADD DUP1 MLOAD PUSH1 0x1 PUSH1 0x1 PUSH1 0xE0 SHL SUB AND PUSH4 0x27B7CF85 PUSH1 0xE0 SHL OR SWAP1 MSTORE PUSH2 0x10B1 JUMP JUMPDEST PUSH2 0xF68 DUP2 PUSH1 0x40 MLOAD PUSH1 0x24 ADD PUSH2 0x1086 SWAP2 SWAP1 PUSH2 0x15C4 JUMP JUMPDEST PUSH1 0x40 DUP1 MLOAD PUSH1 0x1F NOT DUP2 DUP5 SUB ADD DUP2 MSTORE SWAP2 SWAP1 MSTORE PUSH1 0x20 DUP2 ADD DUP1 MLOAD PUSH1 0x1 PUSH1 0x1 PUSH1 0xE0 SHL SUB AND PUSH4 0x104C13EB PUSH1 0xE2 SHL OR SWAP1 MSTORE JUMPDEST PUSH2 0xF68 DUP2 PUSH1 0x0 PUSH11 0x636F6E736F6C652E6C6F67 SWAP1 POP PUSH1 0x0 DUP1 DUP4 MLOAD PUSH1 0x20 DUP6 ADD DUP5 GAS STATICCALL POP POP POP JUMP JUMPDEST PUSH4 0x4E487B71 PUSH1 0xE0 SHL PUSH1 0x0 MSTORE PUSH1 0x41 PUSH1 0x4 MSTORE PUSH1 0x24 PUSH1 0x0 REVERT JUMPDEST PUSH1 0x0 PUSH1 0x20 DUP3 DUP5 SUB SLT ISZERO PUSH2 0x10FE JUMPI PUSH1 0x0 DUP1 REVERT JUMPDEST DUP2 CALLDATALOAD PUSH8 0xFFFFFFFFFFFFFFFF DUP1 DUP3 GT ISZERO PUSH2 0x1116 JUMPI PUSH1 0x0 DUP1 REVERT JUMPDEST DUP2 DUP5 ADD SWAP2 POP DUP5 PUSH1 0x1F DUP4 ADD SLT PUSH2 0x112A JUMPI PUSH1 0x0 DUP1 REVERT JUMPDEST DUP2 CALLDATALOAD DUP2 DUP2 GT ISZERO PUSH2 0x113C JUMPI PUSH2 0x113C PUSH2 0x10D6 JUMP JUMPDEST PUSH1 0x40 MLOAD PUSH1 0x1F DUP3 ADD PUSH1 0x1F NOT SWAP1 DUP2 AND PUSH1 0x3F ADD AND DUP2 ADD SWAP1 DUP4 DUP3 GT DUP2 DUP4 LT OR ISZERO PUSH2 0x1164 JUMPI PUSH2 0x1164 PUSH2 0x10D6 JUMP JUMPDEST DUP2 PUSH1 0x40 MSTORE DUP3 DUP2 MSTORE DUP8 PUSH1 0x20 DUP5 DUP8 ADD ADD GT ISZERO PUSH2 0x117D JUMPI PUSH1 0x0 DUP1 REVERT JUMPDEST DUP3 PUSH1 0x20 DUP7 ADD PUSH1 0x20 DUP4 ADD CALLDATACOPY PUSH1 0x0 SWAP3 DUP2 ADD PUSH1 0x20 ADD SWAP3 SWAP1 SWAP3 MSTORE POP SWAP6 SWAP5 POP POP POP POP POP JUMP JUMPDEST PUSH1 0x0 JUMPDEST DUP4 DUP2 LT ISZERO PUSH2 0x11B8 JUMPI DUP2 DUP2 ADD MLOAD DUP4 DUP3 ADD MSTORE PUSH1 0x20 ADD PUSH2 0x11A0 JUMP JUMPDEST POP POP PUSH1 0x0 SWAP2 ADD MSTORE JUMP JUMPDEST PUSH1 0x0 DUP2 MLOAD DUP1 DUP5 MSTORE PUSH2 0x11D9 DUP2 PUSH1 0x20 DUP7 ADD PUSH1 0x20 DUP7 ADD PUSH2 0x119D JUMP JUMPDEST PUSH1 0x1F ADD PUSH1 0x1F NOT AND SWAP3 SWAP1 SWAP3 ADD PUSH1 0x20 ADD SWAP3 SWAP2 POP POP JUMP JUMPDEST DUP1 MLOAD DUP3 MSTORE PUSH1 0x0 PUSH1 0x20 DUP3 ADD MLOAD PUSH1 0x40 PUSH1 0x20 DUP6 ADD MSTORE PUSH2 0x120C PUSH1 0x40 DUP6 ADD DUP3 PUSH2 0x11C1 JUMP JUMPDEST SWAP5 SWAP4 POP POP POP POP JUMP JUMPDEST PUSH1 0x20 DUP2 MSTORE PUSH1 0x0 PUSH2 0xE87 PUSH1 0x20 DUP4 ADD DUP5 PUSH2 0x11ED JUMP JUMPDEST PUSH1 0x0 PUSH1 0x20 DUP1 DUP4 ADD DUP2 DUP5 MSTORE DUP1 DUP6 MLOAD DUP1 DUP4 MSTORE PUSH1 0x40 DUP7 ADD SWAP2 POP PUSH1 0x40 DUP2 PUSH1 0x5 SHL DUP8 ADD ADD SWAP3 POP DUP4 DUP8 ADD PUSH1 0x0 JUMPDEST DUP3 DUP2 LT ISZERO PUSH2 0x127C JUMPI PUSH1 0x3F NOT DUP9 DUP7 SUB ADD DUP5 MSTORE PUSH2 0x126A DUP6 DUP4 MLOAD PUSH2 0x11ED JUMP JUMPDEST SWAP5 POP SWAP3 DUP6 ADD SWAP3 SWAP1 DUP6 ADD SWAP1 PUSH1 0x1 ADD PUSH2 0x124E JUMP JUMPDEST POP SWAP3 SWAP8 SWAP7 POP POP POP POP POP POP POP JUMP JUMPDEST PUSH1 0x0 PUSH1 0x20 DUP3 DUP5 SUB SLT ISZERO PUSH2 0x129B JUMPI PUSH1 0x0 DUP1 REVERT JUMPDEST POP CALLDATALOAD SWAP2 SWAP1 POP JUMP JUMPDEST PUSH1 0x20 DUP1 DUP3 MSTORE DUP3 MLOAD DUP3 DUP3 ADD DUP2 SWAP1 MSTORE PUSH1 0x0 SWAP2 SWAP1 DUP5 DUP3 ADD SWAP1 PUSH1 0x40 DUP6 ADD SWAP1 DUP5 JUMPDEST DUP2 DUP2 LT ISZERO PUSH2 0x12DA JUMPI DUP4 MLOAD DUP4 MSTORE SWAP3 DUP5 ADD SWAP3 SWAP2 DUP5 ADD SWAP2 PUSH1 0x1 ADD PUSH2 0x12BE JUMP JUMPDEST POP SWAP1 SWAP7 SWAP6 POP POP POP POP POP POP JUMP JUMPDEST DUP3 DUP2 MSTORE PUSH1 0x40 PUSH1 0x20 DUP3 ADD MSTORE PUSH1 0x0 PUSH2 0x120C PUSH1 0x40 DUP4 ADD DUP5 PUSH2 0x11C1 JUMP JUMPDEST PUSH1 0x1 DUP2 DUP2 SHR SWAP1 DUP3 AND DUP1 PUSH2 0x1313 JUMPI PUSH1 0x7F DUP3 AND SWAP2 POP JUMPDEST PUSH1 0x20 DUP3 LT DUP2 SUB PUSH2 0x441 JUMPI PUSH4 0x4E487B71 PUSH1 0xE0 SHL PUSH1 0x0 MSTORE PUSH1 0x22 PUSH1 0x4 MSTORE PUSH1 0x24 PUSH1 0x0 REVERT JUMPDEST PUSH1 0x1F DUP3 GT ISZERO PUSH2 0x137D JUMPI PUSH1 0x0 DUP2 DUP2 MSTORE PUSH1 0x20 DUP2 KECCAK256 PUSH1 0x1F DUP6 ADD PUSH1 0x5 SHR DUP2 ADD PUSH1 0x20 DUP7 LT ISZERO PUSH2 0x135A JUMPI POP DUP1 JUMPDEST PUSH1 0x1F DUP6 ADD PUSH1 0x5 SHR DUP3 ADD SWAP2 POP JUMPDEST DUP2 DUP2 LT ISZERO PUSH2 0x1379 JUMPI DUP3 DUP2 SSTORE PUSH1 0x1 ADD PUSH2 0x1366 JUMP JUMPDEST POP POP POP JUMPDEST POP POP POP JUMP JUMPDEST DUP2 MLOAD PUSH8 0xFFFFFFFFFFFFFFFF DUP2 GT ISZERO PUSH2 0x139C JUMPI PUSH2 0x139C PUSH2 0x10D6 JUMP JUMPDEST PUSH2 0x13B0 DUP2 PUSH2 0x13AA DUP5 SLOAD PUSH2 0x12FF JUMP JUMPDEST DUP5 PUSH2 0x1333 JUMP JUMPDEST PUSH1 0x20 DUP1 PUSH1 0x1F DUP4 GT PUSH1 0x1 DUP2 EQ PUSH2 0x13E5 JUMPI PUSH1 0x0 DUP5 ISZERO PUSH2 0x13CD JUMPI POP DUP6 DUP4 ADD MLOAD JUMPDEST PUSH1 0x0 NOT PUSH1 0x3 DUP7 SWAP1 SHL SHR NOT AND PUSH1 0x1 DUP6 SWAP1 SHL OR DUP6 SSTORE PUSH2 0x1379 JUMP JUMPDEST PUSH1 0x0 DUP6 DUP2 MSTORE PUSH1 0x20 DUP2 KECCAK256 PUSH1 0x1F NOT DUP7 AND SWAP2 JUMPDEST DUP3 DUP2 LT ISZERO PUSH2 0x1414 JUMPI DUP9 DUP7 ADD MLOAD DUP3 SSTORE SWAP5 DUP5 ADD SWAP5 PUSH1 0x1 SWAP1 SWAP2 ADD SWAP1 DUP5 ADD PUSH2 0x13F5 JUMP JUMPDEST POP DUP6 DUP3 LT ISZERO PUSH2 0x1432 JUMPI DUP8 DUP6 ADD MLOAD PUSH1 0x0 NOT PUSH1 0x3 DUP9 SWAP1 SHL PUSH1 0xF8 AND SHR NOT AND DUP2 SSTORE JUMPDEST POP POP POP POP POP PUSH1 0x1 SWAP1 DUP2 SHL ADD SWAP1 SSTORE POP JUMP JUMPDEST PUSH4 0x4E487B71 PUSH1 0xE0 SHL PUSH1 0x0 MSTORE PUSH1 0x32 PUSH1 0x4 MSTORE PUSH1 0x24 PUSH1 0x0 REVERT JUMPDEST PUSH4 0x4E487B71 PUSH1 0xE0 SHL PUSH1 0x0 MSTORE PUSH1 0x11 PUSH1 0x4 MSTORE PUSH1 0x24 PUSH1 0x0 REVERT JUMPDEST PUSH1 0x0 PUSH1 0x1 DUP3 ADD PUSH2 0x1480 JUMPI PUSH2 0x1480 PUSH2 0x1458 JUMP JUMPDEST POP PUSH1 0x1 ADD SWAP1 JUMP JUMPDEST DUP2 DUP2 SUB DUP2 DUP2 GT ISZERO PUSH2 0xF1D JUMPI PUSH2 0xF1D PUSH2 0x1458 JUMP JUMPDEST DUP1 DUP3 ADD DUP1 DUP3 GT ISZERO PUSH2 0xF1D JUMPI PUSH2 0xF1D PUSH2 0x1458 JUMP JUMPDEST PUSH4 0x4E487B71 PUSH1 0xE0 SHL PUSH1 0x0 MSTORE PUSH1 0x12 PUSH1 0x4 MSTORE PUSH1 0x24 PUSH1 0x0 REVERT JUMPDEST PUSH1 0x0 DUP3 PUSH2 0x14D2 JUMPI PUSH2 0x14D2 PUSH2 0x14AD JUMP JUMPDEST POP DIV SWAP1 JUMP JUMPDEST PUSH1 0x0 DUP3 MLOAD PUSH2 0x14E9 DUP2 DUP5 PUSH1 0x20 DUP8 ADD PUSH2 0x119D JUMP JUMPDEST SWAP2 SWAP1 SWAP2 ADD SWAP3 SWAP2 POP POP JUMP JUMPDEST PUSH1 0x0 DUP1 DUP4 SLOAD PUSH2 0x1501 DUP2 PUSH2 0x12FF JUMP JUMPDEST PUSH1 0x1 DUP3 DUP2 AND DUP1 ISZERO PUSH2 0x1519 JUMPI PUSH1 0x1 DUP2 EQ PUSH2 0x152E JUMPI PUSH2 0x155D JUMP JUMPDEST PUSH1 0xFF NOT DUP5 AND DUP8 MSTORE DUP3 ISZERO ISZERO DUP4 MUL DUP8 ADD SWAP5 POP PUSH2 0x155D JUMP JUMPDEST DUP8 PUSH1 0x0 MSTORE PUSH1 0x20 DUP1 PUSH1 0x0 KECCAK256 PUSH1 0x0 JUMPDEST DUP6 DUP2 LT ISZERO PUSH2 0x1554 JUMPI DUP2 SLOAD DUP11 DUP3 ADD MSTORE SWAP1 DUP5 ADD SWAP1 DUP3 ADD PUSH2 0x153B JUMP JUMPDEST POP POP POP DUP3 DUP8 ADD SWAP5 POP JUMPDEST POP SWAP3 SWAP7 SWAP6 POP POP POP POP POP POP JUMP JUMPDEST PUSH1 0x60 DUP2 MSTORE PUSH1 0x0 PUSH2 0x157C PUSH1 0x60 DUP4 ADD DUP7 PUSH2 0x11C1 JUMP JUMPDEST PUSH1 0x20 DUP4 ADD SWAP5 SWAP1 SWAP5 MSTORE POP PUSH1 0x40 ADD MSTORE SWAP2 SWAP1 POP JUMP JUMPDEST PUSH1 0x0 DUP3 PUSH2 0x159D JUMPI PUSH2 0x159D PUSH2 0x14AD JUMP JUMPDEST POP MOD SWAP1 JUMP JUMPDEST PUSH1 0x40 DUP2 MSTORE PUSH1 0x0 PUSH2 0x15B5 PUSH1 0x40 DUP4 ADD DUP6 PUSH2 0x11C1 JUMP JUMPDEST SWAP1 POP DUP3 PUSH1 0x20 DUP4 ADD MSTORE SWAP4 SWAP3 POP POP POP JUMP JUMPDEST PUSH1 0x20 DUP2 MSTORE PUSH1 0x0 PUSH2 0xE87 PUSH1 0x20 DUP4 ADD DUP5 PUSH2 0x11C1 JUMP INVALID LOG2 PUSH5 0x6970667358 0x22 SLT KECCAK256 MUL 0x5C OR XOR PUSH1 0xDF 0xB5 ADDMOD PUSH18 0x6CB419B716CC98C9701B22C63622C8AAAD76 0xE8 EXP PUSH8 0x809764736F6C6343 STOP ADDMOD EQ STOP CALLER "},"methodIdentifiers":{"createDepartment(string)":"1b7b8dac","departmentKeyExists(uint256)":"f84f91ef","departments(uint256)":"eaeb60e3","generateMerkleRoot()":"de8ba93d","getDepartments()":"5c26b7ca","getMerklePath(uint256)":"6e4d6517"}}}}}