{
  "_format": "hh-sol-artifact-1",
  "contractName": "DepartmentFactory",
  "sourceName": "contracts/DepartmentFactory.sol",
  "abi": [
    {
      "inputs": [],
      "stateMutability": "nonpayable",
      "type": "constructor"
    },
    {
      "anonymous": false,
      "inputs": [
        {
          "indexed": false,
          "internalType": "uint256",
          "name": "id",
          "type": "uint256"
        },
        {
          "indexed": false,
          "internalType": "string",
          "name": "name",
          "type": "string"
        },
        {
          "indexed": true,
          "internalType": "address",
          "name": "owner",
          "type": "address"
        },
        {
          "indexed": false,
          "internalType": "bytes32",
          "name": "merkeRoot",
          "type": "bytes32"
        }
      ],
      "name": "departmentCreated",
      "type": "event"
    },
    {
      "inputs": [
        {
          "components": [
            {
              "internalType": "bytes32[]",
              "name": "hashes",
              "type": "bytes32[]"
            }
          ],
          "internalType": "struct DepartmentFactory.ElementRow[]",
          "name": "elementRows",
          "type": "tuple[]"
        }
      ],
      "name": "convertToBytesArray",
      "outputs": [
        {
          "internalType": "bytes32[][]",
          "name": "",
          "type": "bytes32[][]"
        }
      ],
      "stateMutability": "pure",
      "type": "function"
    },
    {
      "inputs": [
        {
          "internalType": "string",
          "name": "_name",
          "type": "string"
        }
      ],
      "name": "createDepartment",
      "outputs": [
        {
          "components": [
            {
              "internalType": "uint256",
              "name": "id",
              "type": "uint256"
            },
            {
              "internalType": "string",
              "name": "name",
              "type": "string"
            }
          ],
          "internalType": "struct DepartmentFactory.Department",
          "name": "",
          "type": "tuple"
        }
      ],
      "stateMutability": "nonpayable",
      "type": "function"
    },
    {
      "inputs": [
        {
          "internalType": "uint256",
          "name": "_id",
          "type": "uint256"
        },
        {
          "internalType": "address",
          "name": "owner",
          "type": "address"
        }
      ],
      "name": "departmentKeyExists",
      "outputs": [
        {
          "internalType": "bool",
          "name": "",
          "type": "bool"
        }
      ],
      "stateMutability": "view",
      "type": "function"
    },
    {
      "inputs": [
        {
          "internalType": "uint256[]",
          "name": "departmentIds",
          "type": "uint256[]"
        },
        {
          "internalType": "address",
          "name": "owner",
          "type": "address"
        }
      ],
      "name": "departmentKeyListExits",
      "outputs": [
        {
          "internalType": "bool",
          "name": "",
          "type": "bool"
        }
      ],
      "stateMutability": "view",
      "type": "function"
    },
    {
      "inputs": [
        {
          "internalType": "address",
          "name": "",
          "type": "address"
        },
        {
          "internalType": "uint256",
          "name": "",
          "type": "uint256"
        }
      ],
      "name": "departmentKeys",
      "outputs": [
        {
          "internalType": "uint256",
          "name": "",
          "type": "uint256"
        }
      ],
      "stateMutability": "view",
      "type": "function"
    },
    {
      "inputs": [
        {
          "internalType": "uint256",
          "name": "",
          "type": "uint256"
        }
      ],
      "name": "departmentToOwner",
      "outputs": [
        {
          "internalType": "address",
          "name": "",
          "type": "address"
        }
      ],
      "stateMutability": "view",
      "type": "function"
    },
    {
      "inputs": [
        {
          "internalType": "uint256",
          "name": "",
          "type": "uint256"
        }
      ],
      "name": "departments",
      "outputs": [
        {
          "internalType": "uint256",
          "name": "id",
          "type": "uint256"
        },
        {
          "internalType": "string",
          "name": "name",
          "type": "string"
        }
      ],
      "stateMutability": "view",
      "type": "function"
    },
    {
      "inputs": [
        {
          "internalType": "address",
          "name": "owner",
          "type": "address"
        }
      ],
      "name": "generateMerkleRoot",
      "outputs": [],
      "stateMutability": "nonpayable",
      "type": "function"
    },
    {
      "inputs": [
        {
          "internalType": "address",
          "name": "owner",
          "type": "address"
        }
      ],
      "name": "generateMerkleTree",
      "outputs": [
        {
          "components": [
            {
              "internalType": "bytes32[]",
              "name": "hashes",
              "type": "bytes32[]"
            }
          ],
          "internalType": "struct DepartmentFactory.ElementRow[]",
          "name": "",
          "type": "tuple[]"
        }
      ],
      "stateMutability": "view",
      "type": "function"
    },
    {
      "inputs": [
        {
          "internalType": "uint256",
          "name": "departmentId",
          "type": "uint256"
        },
        {
          "internalType": "address",
          "name": "owner",
          "type": "address"
        }
      ],
      "name": "getDepartmentIdPosition",
      "outputs": [
        {
          "internalType": "uint256",
          "name": "",
          "type": "uint256"
        }
      ],
      "stateMutability": "view",
      "type": "function"
    },
    {
      "inputs": [
        {
          "internalType": "address",
          "name": "owner",
          "type": "address"
        }
      ],
      "name": "getDepartmentLength",
      "outputs": [
        {
          "internalType": "uint256",
          "name": "",
          "type": "uint256"
        }
      ],
      "stateMutability": "view",
      "type": "function"
    },
    {
      "inputs": [],
      "name": "getDepartments",
      "outputs": [
        {
          "components": [
            {
              "internalType": "uint256",
              "name": "id",
              "type": "uint256"
            },
            {
              "internalType": "string",
              "name": "name",
              "type": "string"
            }
          ],
          "internalType": "struct DepartmentFactory.Department[]",
          "name": "",
          "type": "tuple[]"
        }
      ],
      "stateMutability": "view",
      "type": "function"
    },
    {
      "inputs": [
        {
          "internalType": "uint256",
          "name": "departmentId",
          "type": "uint256"
        }
      ],
      "name": "getMerklePath",
      "outputs": [
        {
          "internalType": "bytes32[]",
          "name": "",
          "type": "bytes32[]"
        }
      ],
      "stateMutability": "nonpayable",
      "type": "function"
    },
    {
      "inputs": [
        {
          "internalType": "uint256[]",
          "name": "departmentIds",
          "type": "uint256[]"
        },
        {
          "internalType": "address",
          "name": "owner",
          "type": "address"
        }
      ],
      "name": "getMerklePathArray",
      "outputs": [
        {
          "internalType": "bytes32[][]",
          "name": "",
          "type": "bytes32[][]"
        }
      ],
      "stateMutability": "view",
      "type": "function"
    },
    {
      "inputs": [
        {
          "internalType": "address",
          "name": "",
          "type": "address"
        }
      ],
      "name": "merkleRoots",
      "outputs": [
        {
          "internalType": "bytes32",
          "name": "",
          "type": "bytes32"
        }
      ],
      "stateMutability": "view",
      "type": "function"
    }
  ],
  "bytecode": "0x6080604052601060008190556200001890600a62000149565b60015560006002553480156200002d57600080fd5b506200015e565b634e487b7160e01b600052601160045260246000fd5b600181815b808511156200008b5781600019048211156200006f576200006f62000034565b808516156200007d57918102915b93841c93908002906200004f565b509250929050565b600082620000a45750600162000143565b81620000b35750600062000143565b8160018114620000cc5760028114620000d757620000f7565b600191505062000143565b60ff841115620000eb57620000eb62000034565b50506001821b62000143565b5060208310610133831016604e8410600b84101617156200011c575081810a62000143565b6200012883836200004a565b80600019048211156200013f576200013f62000034565b0290505b92915050565b600062000157838362000093565b9392505050565b612544806200016e6000396000f3fe608060405234801561001057600080fd5b50600436106100f55760003560e01c80635cb65d9811610097578063bf8a23f511610066578063bf8a23f51461023c578063eaeb60e31461024f578063f0dedc8614610270578063f771ea2b146102b157600080fd5b80635cb65d98146101c95780636e4d6517146101e95780639207986f14610209578063ae9a68081461021c57600080fd5b80632c17ea6f116100d35780632c17ea6f1461015557806336a2bf70146101685780633bb83b3f1461018b5780635c26b7ca146101b457600080fd5b8063025b7a7c146100fa578063063dcdfb146101205780631b7b8dac14610135575b600080fd5b61010d610108366004611c98565b6102d1565b6040519081526020015b60405180910390f35b61013361012e366004611cc2565b610302565b005b610148610143366004611d4b565b6105fb565b6040516101179190611e56565b61010d610163366004611e69565b610806565b61017b610176366004611eb8565b61088b565b6040519015158152602001610117565b61010d610199366004611cc2565b6001600160a01b031660009081526005602052604090205490565b6101bc610979565b6040516101179190611f5f565b6101dc6101d7366004611fc1565b610b6e565b6040516101179190612139565b6101fc6101f736600461218e565b610c22565b60405161011791906121a7565b61017b610217366004611e69565b61104e565b61010d61022a366004611cc2565b60066020526000908152604090205481565b6101dc61024a366004611eb8565b6110d5565b61026261025d36600461218e565b611424565b6040516101179291906121ba565b61029961027e36600461218e565b6004602052600090815260409020546001600160a01b031681565b6040516001600160a01b039091168152602001610117565b6102c46102bf366004611cc2565b6114c9565b60405161011791906121d3565b600560205281600052604060002081815481106102ed57600080fd5b90600052602060002001600091509150505481565b6001600160a01b0381166000908152600560205260408120549081900361033e57506001600160a01b0316600090815260066020526040812055565b6001600160a01b0382166000908152600560205260408120546001600160401b0381111561036e5761036e611cdd565b604051908082528060200260200182016040528015610397578160200160208202803683370190505b50905060005b6001600160a01b038416600090815260056020526040902054811015610449576001600160a01b03841660009081526005602052604090208054829081106103e7576103e7612230565b906000526020600020015460405160200161040491815260200190565b6040516020818303038152906040528051906020012082828151811061042c5761042c612230565b6020908102919091010152806104418161225c565b91505061039d565b5080515b60018111156105b1576000805b828110156105a95761046d600184612275565b81036104fa5783818151811061048557610485612230565b602002602001015184828151811061049f5761049f612230565b60200260200101516040516020016104c1929190918252602082015260400190565b604051602081830303815290604052805190602001208483815181106104e9576104e9612230565b602002602001018181525050610589565b83818151811061050c5761050c612230565b6020026020010151848260016105229190612288565b8151811061053257610532612230565b6020026020010151604051602001610554929190918252602082015260400190565b6040516020818303038152906040528051906020012084838151811061057c5761057c612230565b6020026020010181815250505b816105938161225c565b92506105a29050600282612288565b905061045a565b50905061044d565b816000815181106105c4576105c4612230565b602002602001015160066000866001600160a01b03166001600160a01b031681526020019081526020016000208190555050505050565b6040805180820190915260008152606060208201526106198261199c565b1561066a5760405162461bcd60e51b815260206004820152601e60248201527f4465706172746d656e742068617320616c726561647920657869737465640000604482015260640160405180910390fd5b600061067583611a83565b6040805180820182528281526020808201878152600085815260039092529290208151815591519293509160018201906106af908261231e565b50503360008181526005602090815260408083208054600181018255908452828420018690558583526004909152902080546001600160a01b031916821790556106f99150610302565b33600081815260066020526040908190205490517fe4be1f5f2a54ce0d93faa1d5c3861d066ffe1ffd767941159eb16fc548dd3bd69161073c91859188916123dd565b60405180910390a2600360008281526020019081526020016000206040518060400160405290816000820154815260200160018201805461077c9061229b565b80601f01602080910402602001604051908101604052809291908181526020018280546107a89061229b565b80156107f55780601f106107ca576101008083540402835291602001916107f5565b820191906000526020600020905b8154815290600101906020018083116107d857829003601f168201915b505050505081525050915050919050565b6000805b6001600160a01b03831660009081526005602052604090205481101561087e576001600160a01b038316600090815260056020526040902080548290811061085457610854612230565b9060005260206000200154840361086c579050610885565b806108768161225c565b91505061080a565b5060001990505b92915050565b6000805b835181101561096f576000805b6001600160a01b038516600090815260056020526040902054811015610931576001600160a01b03851660009081526005602052604090208054829081106108e6576108e6612230565b906000526020600020015486848151811061090357610903612230565b60200260200101510315610931578161091b8161225c565b92505080806109299061225c565b91505061089c565b506001600160a01b038416600090815260056020526040902054810361095c57600092505050610885565b50806109678161225c565b91505061088f565b5060019392505050565b33600090815260056020526040812054606091906001600160401b038111156109a4576109a4611cdd565b6040519080825280602002602001820160405280156109ea57816020015b6040805180820190915260008152606060208201528152602001906001900390816109c25790505b50905060005b33600090815260056020526040902054811015610b68573360009081526005602052604081208054600392919084908110610a2d57610a2d612230565b9060005260206000200154815260200190815260200160002060405180604001604052908160008201548152602001600182018054610a6b9061229b565b80601f0160208091040260200160405190810160405280929190818152602001828054610a979061229b565b8015610ae45780601f10610ab957610100808354040283529160200191610ae4565b820191906000526020600020905b815481529060010190602001808311610ac757829003601f168201915b505050505081525050828281518110610aff57610aff612230565b6020026020010181905250610b30828281518110610b1f57610b1f612230565b602002602001015160000151611aca565b610b56828281518110610b4557610b45612230565b602002602001015160200151611b12565b80610b608161225c565b9150506109f0565b50919050565b6060600082516001600160401b03811115610b8b57610b8b611cdd565b604051908082528060200260200182016040528015610bbe57816020015b6060815260200190600190039081610ba95790505b50905060005b8351811015610c1b57838181518110610bdf57610bdf612230565b602002602001015160000151828281518110610bfd57610bfd612230565b60200260200101819052508080610c139061225c565b915050610bc4565b5092915050565b3360009081526005602052604081205460609190610c3f90611b55565b610c4a906002612288565b6001600160401b03811115610c6157610c61611cdd565b604051908082528060200260200182016040528015610c8a578160200160208202803683370190505b5033600090815260056020526040812054919250906001600160401b03811115610cb657610cb6611cdd565b604051908082528060200260200182016040528015610cdf578160200160208202803683370190505b50905060005b33600090815260056020526040902054811015610d7f57336000908152600560205260409020805482908110610d1d57610d1d612230565b9060005260206000200154604051602001610d3a91815260200190565b60405160208183030381529060405280519060200120828281518110610d6257610d62612230565b602090810291909101015280610d778161225c565b915050610ce5565b506000610d8c8583611be9565b9050600060001982146110445782515b6001811115611009576000805b8281101561100157610dbc600184612275565b8103610e9557808503610e0e57858181518110610ddb57610ddb612230565b6020026020010151878581518110610df557610df5612230565b602090810291909101015283610e0a8161225c565b9450505b858181518110610e2057610e20612230565b6020026020010151868281518110610e3a57610e3a612230565b6020026020010151604051602001610e5c929190918252602082015260400190565b60405160208183030381529060405280519060200120868381518110610e8457610e84612230565b602002602001018181525050610fd4565b808503610eef5785610ea8826001612288565b81518110610eb857610eb8612230565b6020026020010151878581518110610ed257610ed2612230565b602090810291909101015283610ee78161225c565b945050610f45565b610efa816001612288565b8503610f4557858181518110610f1257610f12612230565b6020026020010151878581518110610f2c57610f2c612230565b602090810291909101015283610f418161225c565b9450505b858181518110610f5757610f57612230565b602002602001015186826001610f6d9190612288565b81518110610f7d57610f7d612230565b6020026020010151604051602001610f9f929190918252602082015260400190565b60405160208183030381529060405280519060200120868381518110610fc757610fc7612230565b6020026020010181815250505b81610fde8161225c565b9250610fed905060028661241c565b9450610ffa600282612288565b9050610da9565b509050610d9c565b8360008151811061101c5761101c612230565b602002602001015185838151811061103657611036612230565b602002602001018181525050505b5091949350505050565b6000805b6001600160a01b0383166000908152600560205260409020548110156110cb576001600160a01b038316600090815260056020526040902080548591908390811061109f5761109f612230565b9060005260206000200154036110b9576001915050610885565b806110c38161225c565b915050611052565b5060009392505050565b6060600083516001600160401b038111156110f2576110f2611cdd565b60405190808252806020026020018201604052801561113257816020015b6040805160208101909152606081528152602001906001900390816111105790505b5090506000611140846114c9565b905060008160008151811061115757611157612230565b602002602001015160000151905060005b8651811015611410576001600160a01b03861660009081526005602052604081205461119390611b55565b61119e906002612288565b6001600160401b038111156111b5576111b5611cdd565b6040519080825280602002602001820160405280156111de578160200160208202803683370190505b5090506000806112078a85815181106111f9576111f9612230565b602002602001015186611be9565b905060001981146113ce5760005b86518110156113cc57600187828151811061123257611232612230565b602002602001015160000151516112499190612275565b82036113025761125a600283612430565b6000036112c75786818151811061127357611273612230565b602002602001015160000151828151811061129057611290612230565b60200260200101518484815181106112aa576112aa612230565b6020908102919091010152826112bf8161225c565b9350506113ad565b8681815181106112d9576112d9612230565b6020026020010151600001516001836112f29190612275565b8151811061129057611290612230565b61130d600283612430565b60000361133f5786818151811061132657611326612230565b6020026020010151600001518260016112f29190612288565b86818151811061135157611351612230565b60200260200101516000015160018361136a9190612275565b8151811061137a5761137a612230565b602002602001015184848151811061139457611394612230565b6020908102919091010152826113a98161225c565b9350505b6113b860028361241c565b9150806113c48161225c565b915050611215565b505b6040518060200160405280848152508785815181106113ef576113ef612230565b602002602001018190525050505080806114089061225c565b915050611168565b5061141a83610b6e565b9695505050505050565b600360205260009081526040902080546001820180549192916114469061229b565b80601f01602080910402602001604051908101604052809291908181526020018280546114729061229b565b80156114bf5780601f10611494576101008083540402835291602001916114bf565b820191906000526020600020905b8154815290600101906020018083116114a257829003601f168201915b5050505050905082565b6001600160a01b038116600090815260056020526040812054606091906114ef90611b55565b6114fa906002612288565b6001600160401b0381111561151157611511611cdd565b60405190808252806020026020018201604052801561155157816020015b60408051602081019091526060815281526020019060019003908161152f5790505b506001600160a01b0384166000908152600560205260408120549192508190036115b65760408051600080825260208201909252906115ad565b60408051602081019091526060815281526020019060019003908161158b5790505b50949350505050565b6001600160a01b0384166000908152600560205260408120546001600160401b038111156115e6576115e6611cdd565b60405190808252806020026020018201604052801561160f578160200160208202803683370190505b50905060005b6001600160a01b0386166000908152600560205260409020548110156116c1576001600160a01b038616600090815260056020526040902080548290811061165f5761165f612230565b906000526020600020015460405160200161167c91815260200190565b604051602081830303815290604052805190602001208282815181106116a4576116a4612230565b6020908102919091010152806116b98161225c565b915050611615565b50604051806020016040528082815250836000815181106116e4576116e4612230565b6020908102919091010152805160015b6001821115611991576000600261170c846001612288565b611716919061241c565b6001600160401b0381111561172d5761172d611cdd565b604051908082528060200260200182016040528015611756578160200160208202803683370190505b5090506000805b8481101561194c57611770600186612275565b810361184d5787611782600186612275565b8151811061179257611792612230565b60200260200101516000015181815181106117af576117af612230565b6020026020010151886001866117c59190612275565b815181106117d5576117d5612230565b60200260200101516000015182815181106117f2576117f2612230565b6020026020010151604051602001611814929190918252602082015260400190565b6040516020818303038152906040528051906020012083838151811061183c5761183c612230565b60200260200101818152505061192c565b87611859600186612275565b8151811061186957611869612230565b602002602001015160000151818151811061188657611886612230565b60200260200101518860018661189c9190612275565b815181106118ac576118ac612230565b6020026020010151600001518260016118c59190612288565b815181106118d5576118d5612230565b60200260200101516040516020016118f7929190918252602082015260400190565b6040516020818303038152906040528051906020012083838151811061191f5761191f612230565b6020026020010181815250505b816119368161225c565b92506119459050600282612288565b905061175d565b5080935060405180602001604052808381525087848151811061197157611971612230565b602002602001018190525082806119879061225c565b93505050506116f4565b509295945050505050565b6000805b33600090815260056020526040902054811015611a7a57826040516020016119c89190612444565b604051602081830303815290604052805190602001206003600060056000336001600160a01b03166001600160a01b031681526020019081526020016000208481548110611a1857611a18612230565b90600052602060002001548152602001908152602001600020600101604051602001611a449190612460565b6040516020818303038152906040528051906020012003611a685750600192915050565b80611a728161225c565b9150506119a0565b50600092915050565b6000806001548360025442604051602001611aa0939291906124d6565b6040516020818303038152906040528051906020012060001c611ac39190612430565b9392505050565b611b0f81604051602401611ae091815260200190565b60408051601f198184030181529190526020810180516001600160e01b031663f82c50f160e01b179052611c57565b50565b611b0f81604051602401611b2691906124fb565b60408051601f198184030181529190526020810180516001600160e01b031663104c13eb60e21b179052611c57565b600080608083901c15611b6a57608092831c92015b604083901c15611b7c57604092831c92015b602083901c15611b8e57602092831c92015b601083901c15611ba057601092831c92015b600883901c15611bb257600892831c92015b600483901c15611bc457600492831c92015b600283901c15611bd657600292831c92015b600183901c156108855760010192915050565b6000805b825181101561087e57828181518110611c0857611c08612230565b602002602001015184604051602001611c2391815260200190565b6040516020818303038152906040528051906020012003611c45579050610885565b80611c4f8161225c565b915050611bed565b611b0f8160006a636f6e736f6c652e6c6f679050600080835160208501845afa505050565b80356001600160a01b0381168114611c9357600080fd5b919050565b60008060408385031215611cab57600080fd5b611cb483611c7c565b946020939093013593505050565b600060208284031215611cd457600080fd5b611ac382611c7c565b634e487b7160e01b600052604160045260246000fd5b604051602081016001600160401b0381118282101715611d1557611d15611cdd565b60405290565b604051601f8201601f191681016001600160401b0381118282101715611d4357611d43611cdd565b604052919050565b60006020808385031215611d5e57600080fd5b82356001600160401b0380821115611d7557600080fd5b818501915085601f830112611d8957600080fd5b813581811115611d9b57611d9b611cdd565b611dad601f8201601f19168501611d1b565b91508082528684828501011115611dc357600080fd5b8084840185840137600090820190930192909252509392505050565b60005b83811015611dfa578181015183820152602001611de2565b50506000910152565b60008151808452611e1b816020860160208601611ddf565b601f01601f19169290920160200192915050565b805182526000602082015160406020850152611e4e6040850182611e03565b949350505050565b602081526000611ac36020830184611e2f565b60008060408385031215611e7c57600080fd5b82359150611e8c60208401611c7c565b90509250929050565b60006001600160401b03821115611eae57611eae611cdd565b5060051b60200190565b60008060408385031215611ecb57600080fd5b82356001600160401b03811115611ee157600080fd5b8301601f81018513611ef257600080fd5b80356020611f07611f0283611e95565b611d1b565b82815260059290921b83018101918181019088841115611f2657600080fd5b938201935b83851015611f4457843582529382019390820190611f2b565b9550611f539050868201611c7c565b93505050509250929050565b6000602080830181845280855180835260408601915060408160051b870101925083870160005b82811015611fb457603f19888603018452611fa2858351611e2f565b94509285019290850190600101611f86565b5092979650505050505050565b60006020808385031215611fd457600080fd5b82356001600160401b0380821115611feb57600080fd5b818501915085601f830112611fff57600080fd5b813561200d611f0282611e95565b81815260059190911b8301840190848101908883111561202c57600080fd5b8585015b838110156120f1578035858111156120485760008081fd5b8601808b03601f190188131561205e5760008081fd5b612066611cf3565b88820135878111156120785760008081fd5b8083019250508b603f83011261208e5760008081fd5b8882013560406120a0611f0283611e95565b82815260059290921b84018101918b8101908f8411156120c05760008081fd5b948201945b838610156120de5785358252948c0194908c01906120c5565b8452505050845250918601918601612030565b5098975050505050505050565b600081518084526020808501945080840160005b8381101561212e57815187529582019590820190600101612112565b509495945050505050565b6000602080830181845280855180835260408601915060408160051b870101925083870160005b82811015611fb457603f1988860301845261217c8583516120fe565b94509285019290850190600101612160565b6000602082840312156121a057600080fd5b5035919050565b602081526000611ac360208301846120fe565b828152604060208201526000611e4e6040830184611e03565b6000602080830181845280855180835260408601915060408160051b870101925083870160005b82811015611fb457878503603f1901845281515186865261221d878701826120fe565b95505092850192908501906001016121fa565b634e487b7160e01b600052603260045260246000fd5b634e487b7160e01b600052601160045260246000fd5b60006001820161226e5761226e612246565b5060010190565b8181038181111561088557610885612246565b8082018082111561088557610885612246565b600181811c908216806122af57607f821691505b602082108103610b6857634e487b7160e01b600052602260045260246000fd5b601f82111561231957600081815260208120601f850160051c810160208610156122f65750805b601f850160051c820191505b8181101561231557828155600101612302565b5050505b505050565b81516001600160401b0381111561233757612337611cdd565b61234b81612345845461229b565b846122cf565b602080601f83116001811461238057600084156123685750858301515b600019600386901b1c1916600185901b178555612315565b600085815260208120601f198616915b828110156123af57888601518255948401946001909101908401612390565b50858210156123cd5787850151600019600388901b60f8161c191681555b5050505050600190811b01905550565b8381526060602082015260006123f66060830185611e03565b9050826040830152949350505050565b634e487b7160e01b600052601260045260246000fd5b60008261242b5761242b612406565b500490565b60008261243f5761243f612406565b500690565b60008251612456818460208701611ddf565b9190910192915050565b600080835461246e8161229b565b60018281168015612486576001811461249b576124ca565b60ff19841687528215158302870194506124ca565b8760005260208060002060005b858110156124c15781548a8201529084019082016124a8565b50505082870194505b50929695505050505050565b6060815260006124e96060830186611e03565b60208301949094525060400152919050565b602081526000611ac36020830184611e0356fea26469706673582212201813ddc24e3ed2d7c57281e2384c477d023f7c460463f4b685f785a609ac886164736f6c63430008140033",
  "linkReferences": {},
  "deployedLinkReferences": {}
}