{
  "_format": "hh-sol-artifact-1",
  "contractName": "EmployeeFactory",
  "sourceName": "contracts/EmployeeFactory.sol",
  "abi": [
    {
      "inputs": [
        {
          "internalType": "address",
          "name": "_departmentAddress",
          "type": "address"
        }
      ],
      "stateMutability": "nonpayable",
      "type": "constructor"
    },
    {
      "anonymous": false,
      "inputs": [
        {
          "indexed": false,
          "internalType": "uint256",
          "name": "id",
          "type": "uint256"
        },
        {
          "indexed": false,
          "internalType": "string",
          "name": "phoneNumber",
          "type": "string"
        },
        {
          "indexed": true,
          "internalType": "address",
          "name": "owner",
          "type": "address"
        },
        {
          "indexed": false,
          "internalType": "string",
          "name": "role",
          "type": "string"
        }
      ],
      "name": "EmployeeCreated",
      "type": "event"
    },
    {
      "anonymous": false,
      "inputs": [
        {
          "indexed": true,
          "internalType": "uint256",
          "name": "id",
          "type": "uint256"
        }
      ],
      "name": "EmployeeDeleted",
      "type": "event"
    },
    {
      "anonymous": false,
      "inputs": [
        {
          "indexed": true,
          "internalType": "uint256",
          "name": "id",
          "type": "uint256"
        }
      ],
      "name": "EmployeeUpdated",
      "type": "event"
    },
    {
      "inputs": [
        {
          "internalType": "uint256",
          "name": "_employeeId",
          "type": "uint256"
        }
      ],
      "name": "deleteEmployee",
      "outputs": [],
      "stateMutability": "nonpayable",
      "type": "function"
    },
    {
      "inputs": [],
      "name": "departmentInstance",
      "outputs": [
        {
          "internalType": "contract DepartmentFactory",
          "name": "",
          "type": "address"
        }
      ],
      "stateMutability": "view",
      "type": "function"
    },
    {
      "inputs": [
        {
          "internalType": "address",
          "name": "",
          "type": "address"
        },
        {
          "internalType": "uint256",
          "name": "",
          "type": "uint256"
        }
      ],
      "name": "employeeKeys",
      "outputs": [
        {
          "internalType": "uint256",
          "name": "",
          "type": "uint256"
        }
      ],
      "stateMutability": "view",
      "type": "function"
    },
    {
      "inputs": [],
      "name": "employeeMerkleRoot",
      "outputs": [
        {
          "internalType": "uint256",
          "name": "",
          "type": "uint256"
        }
      ],
      "stateMutability": "view",
      "type": "function"
    },
    {
      "inputs": [
        {
          "internalType": "uint256",
          "name": "",
          "type": "uint256"
        }
      ],
      "name": "employeeToOwner",
      "outputs": [
        {
          "internalType": "address",
          "name": "",
          "type": "address"
        }
      ],
      "stateMutability": "view",
      "type": "function"
    },
    {
      "inputs": [
        {
          "internalType": "uint256",
          "name": "",
          "type": "uint256"
        }
      ],
      "name": "employees",
      "outputs": [
        {
          "internalType": "uint256",
          "name": "id",
          "type": "uint256"
        },
        {
          "internalType": "string",
          "name": "name",
          "type": "string"
        },
        {
          "internalType": "string",
          "name": "phoneNumber",
          "type": "string"
        },
        {
          "internalType": "uint256",
          "name": "managerId",
          "type": "uint256"
        },
        {
          "internalType": "string",
          "name": "role",
          "type": "string"
        }
      ],
      "stateMutability": "view",
      "type": "function"
    },
    {
      "inputs": [
        {
          "internalType": "string",
          "name": "_name",
          "type": "string"
        },
        {
          "internalType": "string",
          "name": "_phoneNumber",
          "type": "string"
        },
        {
          "internalType": "uint256[]",
          "name": "_departmentIds",
          "type": "uint256[]"
        },
        {
          "internalType": "uint256",
          "name": "_managerId",
          "type": "uint256"
        },
        {
          "internalType": "string",
          "name": "_role",
          "type": "string"
        }
      ],
      "name": "generateEmployee",
      "outputs": [],
      "stateMutability": "nonpayable",
      "type": "function"
    },
    {
      "inputs": [
        {
          "internalType": "uint256",
          "name": "_employeeId",
          "type": "uint256"
        }
      ],
      "name": "getEmployeeById",
      "outputs": [
        {
          "components": [
            {
              "internalType": "uint256",
              "name": "id",
              "type": "uint256"
            },
            {
              "internalType": "string",
              "name": "name",
              "type": "string"
            },
            {
              "internalType": "string",
              "name": "phoneNumber",
              "type": "string"
            },
            {
              "internalType": "uint256[]",
              "name": "departmentIds",
              "type": "uint256[]"
            },
            {
              "internalType": "uint256",
              "name": "managerId",
              "type": "uint256"
            },
            {
              "internalType": "string",
              "name": "role",
              "type": "string"
            }
          ],
          "internalType": "struct EmployeeFactory.Employee",
          "name": "",
          "type": "tuple"
        }
      ],
      "stateMutability": "view",
      "type": "function"
    },
    {
      "inputs": [],
      "name": "getEmployees",
      "outputs": [
        {
          "components": [
            {
              "internalType": "uint256",
              "name": "id",
              "type": "uint256"
            },
            {
              "internalType": "string",
              "name": "name",
              "type": "string"
            },
            {
              "internalType": "string",
              "name": "phoneNumber",
              "type": "string"
            },
            {
              "internalType": "uint256[]",
              "name": "departmentIds",
              "type": "uint256[]"
            },
            {
              "internalType": "uint256",
              "name": "managerId",
              "type": "uint256"
            },
            {
              "internalType": "string",
              "name": "role",
              "type": "string"
            }
          ],
          "internalType": "struct EmployeeFactory.Employee[]",
          "name": "",
          "type": "tuple[]"
        }
      ],
      "stateMutability": "view",
      "type": "function"
    },
    {
      "inputs": [
        {
          "internalType": "address",
          "name": "",
          "type": "address"
        },
        {
          "internalType": "uint256",
          "name": "",
          "type": "uint256"
        }
      ],
      "name": "managerKeys",
      "outputs": [
        {
          "internalType": "uint256",
          "name": "",
          "type": "uint256"
        }
      ],
      "stateMutability": "view",
      "type": "function"
    },
    {
      "inputs": [
        {
          "internalType": "uint256",
          "name": "",
          "type": "uint256"
        }
      ],
      "name": "managers",
      "outputs": [
        {
          "internalType": "uint256",
          "name": "id",
          "type": "uint256"
        },
        {
          "internalType": "string",
          "name": "name",
          "type": "string"
        },
        {
          "internalType": "string",
          "name": "phoneNumber",
          "type": "string"
        },
        {
          "internalType": "uint256",
          "name": "managerId",
          "type": "uint256"
        },
        {
          "internalType": "string",
          "name": "role",
          "type": "string"
        }
      ],
      "stateMutability": "view",
      "type": "function"
    },
    {
      "inputs": [
        {
          "internalType": "uint256",
          "name": "_employeeId",
          "type": "uint256"
        },
        {
          "internalType": "string",
          "name": "_name",
          "type": "string"
        },
        {
          "internalType": "string",
          "name": "_phoneNumber",
          "type": "string"
        },
        {
          "internalType": "uint256[]",
          "name": "_departmentIds",
          "type": "uint256[]"
        },
        {
          "internalType": "uint256",
          "name": "_managerId",
          "type": "uint256"
        },
        {
          "internalType": "string",
          "name": "_role",
          "type": "string"
        }
      ],
      "name": "updateEmployee",
      "outputs": [],
      "stateMutability": "nonpayable",
      "type": "function"
    },
    {
      "inputs": [
        {
          "internalType": "uint256[]",
          "name": "departmentIds",
          "type": "uint256[]"
        }
      ],
      "name": "verifyDepartment",
      "outputs": [
        {
          "internalType": "string",
          "name": "",
          "type": "string"
        }
      ],
      "stateMutability": "view",
      "type": "function"
    }
  ],
  "bytecode": "0x6080604052601060008190556200001890600a6200018b565b60015560006002553480156200002d57600080fd5b5060405162003003380380620030038339810160408190526200005091620001a0565b600480546001600160a01b0319166001600160a01b0392909216919091179055620001cb565b634e487b7160e01b600052601160045260246000fd5b600181815b80851115620000cd578160001904821115620000b157620000b162000076565b80851615620000bf57918102915b93841c939080029062000091565b509250929050565b600082620000e65750600162000185565b81620000f55750600062000185565b81600181146200010e5760028114620001195762000139565b600191505062000185565b60ff8411156200012d576200012d62000076565b50506001821b62000185565b5060208310610133831016604e8410600b84101617156200015e575081810a62000185565b6200016a83836200008c565b806000190482111562000181576200018162000076565b0290505b92915050565b6000620001998383620000d5565b9392505050565b600060208284031215620001b357600080fd5b81516001600160a01b03811681146200019957600080fd5b612e2880620001db6000396000f3fe608060405234801561001057600080fd5b50600436106100cf5760003560e01c80634d5d674b1161008c5780637871ae8f116100665780637871ae8f146101e257806394d51d60146101eb578063ceed5f5a146101fe578063eb17dc491461021e57600080fd5b80634d5d674b1461019b578063500a08aa146101bc5780636c643e5e146101cf57600080fd5b80631cbc90c7146100d4578063277ca287146100e95780633d39c2601461012f5780634739326b146101535780634abefa36146101665780634d252ead1461017b575b600080fd5b6100e76100e23660046122ae565b610231565b005b6101126100f73660046122ae565b6009602052600090815260409020546001600160a01b031681565b6040516001600160a01b0390911681526020015b60405180910390f35b61014261013d3660046122ae565b61067f565b604051610126959493929190612317565b6101426101613660046122ae565b610846565b61016e610868565b6040516101269190612412565b61018e61018936600461254a565b610bbd565b6040516101269190612587565b6101ae6101a93660046125a1565b610f6d565b604051908152602001610126565b600454610112906001600160a01b031681565b6100e76101dd366004612649565b610f9e565b6101ae60035481565b6100e76101f9366004612708565b61174f565b61021161020c3660046122ae565b611c71565b60405161012691906127bf565b6101ae61022c3660046125a1565b611f17565b60008181526009602052604090205481906001600160a01b0316331461025657600080fd5b60001960005b336000908152600760205260409020548110156102c157336000908152600760205260409020805485919083908110610297576102976127d2565b9060005260206000200154036102af578091506102c1565b806102b9816127fe565b91505061025c565b5060001981036103185760405162461bcd60e51b815260206004820152601b60248201527f54686520656d706c6f79656520646f6573206e6f74206578697374000000000060448201526064015b60405180910390fd5b6040516020016103439060208082526007908201526626b0b730b3b2b960c91b604082015260600190565b604051602081830303815290604052805190602001206005600085815260200190815260200160002060050160405160200161037f919061284b565b604051602081830303815290604052805190602001200361055c576000805b3360009081526007602052604090205481101561045857336000908152600760205260408120805487926005929091859081106103dd576103dd6127d2565b906000526020600020015481526020019081526020016000206004015403610446573360009081526007602052604081208054600591839185908110610425576104256127d2565b90600052602060002001548152602001908152602001600020600401819055505b80610450816127fe565b91505061039e565b5060005b336000908152600860205260409020548110156104bd57336000908152600860205260409020805486919083908110610497576104976127d2565b9060005260206000200154036104ab578091505b806104b5816127fe565b91505061045c565b5033600090815260086020526040902080546104db906001906128d6565b815481106104eb576104eb6127d2565b600091825260208083209091015433835260089091526040909120805483908110610518576105186127d2565b6000918252602080832090910192909255338152600890915260409020805480610544576105446128ef565b60019003818190600052602060002001600090559055505b60008181526005602052604081208181559061057b60018301826121b6565b6105896002830160006121b6565b6105976003830160006121f0565b60048201600090556005820160006105af91906121b6565b505033600090815260076020526040902080546105ce906001906128d6565b815481106105de576105de6127d2565b60009182526020808320909101543383526007909152604090912080548390811061060b5761060b6127d2565b6000918252602080832090910192909255338152600790915260409020805480610637576106376128ef565b60019003818190600052602060002001600090559055827fa89a67b24ae06befcf89d45d10287b1cdd7a3a494ba14df282fca0d57fe4fe1f60405160405180910390a2505050565b600660205260009081526040902080546001820180549192916106a190612817565b80601f01602080910402602001604051908101604052809291908181526020018280546106cd90612817565b801561071a5780601f106106ef5761010080835404028352916020019161071a565b820191906000526020600020905b8154815290600101906020018083116106fd57829003601f168201915b50505050509080600201805461072f90612817565b80601f016020809104026020016040519081016040528092919081815260200182805461075b90612817565b80156107a85780601f1061077d576101008083540402835291602001916107a8565b820191906000526020600020905b81548152906001019060200180831161078b57829003601f168201915b5050505050908060040154908060050180546107c390612817565b80601f01602080910402602001604051908101604052809291908181526020018280546107ef90612817565b801561083c5780601f106108115761010080835404028352916020019161083c565b820191906000526020600020905b81548152906001019060200180831161081f57829003601f168201915b5050505050905085565b600560205260009081526040902080546001820180549192916106a190612817565b336000908152600760205260408120546060919067ffffffffffffffff81111561089457610894612474565b6040519080825280602002602001820160405280156108fe57816020015b6108eb6040518060c001604052806000815260200160608152602001606081526020016060815260200160008152602001606081525090565b8152602001906001900390816108b25790505b50905060005b33600090815260076020526040902054811015610bb7573360009081526007602052604081208054600592919084908110610941576109416127d2565b906000526020600020015481526020019081526020016000206040518060c00160405290816000820154815260200160018201805461097f90612817565b80601f01602080910402602001604051908101604052809291908181526020018280546109ab90612817565b80156109f85780601f106109cd576101008083540402835291602001916109f8565b820191906000526020600020905b8154815290600101906020018083116109db57829003601f168201915b50505050508152602001600282018054610a1190612817565b80601f0160208091040260200160405190810160405280929190818152602001828054610a3d90612817565b8015610a8a5780601f10610a5f57610100808354040283529160200191610a8a565b820191906000526020600020905b815481529060010190602001808311610a6d57829003601f168201915b5050505050815260200160038201805480602002602001604051908101604052809291908181526020018280548015610ae257602002820191906000526020600020905b815481526020019060010190808311610ace575b5050505050815260200160048201548152602001600582018054610b0590612817565b80601f0160208091040260200160405190810160405280929190818152602001828054610b3190612817565b8015610b7e5780601f10610b5357610100808354040283529160200191610b7e565b820191906000526020600020905b815481529060010190602001808311610b6157829003601f168201915b505050505081525050828281518110610b9957610b996127d2565b60200260200101819052508080610baf906127fe565b915050610904565b50919050565b6004805460405163bf8a23f560e01b81526060926000926001600160a01b03169163bf8a23f591610bf2918791339101612905565b600060405180830381865afa158015610c0f573d6000803e3d6000fd5b505050506040513d6000823e601f3d908101601f19168201604052610c379190810190612959565b905060005b8151811015610f47576000848281518110610c5957610c596127d2565b6020026020010151604051602001610c7391815260200190565b6040516020818303038152906040528051906020012090506000838381518110610c9f57610c9f6127d2565b60200260200101515190506000600460009054906101000a90046001600160a01b03166001600160a01b0316632c17ea6f888681518110610ce257610ce26127d2565b6020026020010151336040518363ffffffff1660e01b8152600401610d1a9291909182526001600160a01b0316602082015260400190565b602060405180830381865afa158015610d37573d6000803e3d6000fd5b505050506040513d601f19601f82011682018060405250810190610d5b9190612a60565b905060005b610d6b6001846128d6565b811015610e7557610d7d600283612a8f565b600003610def5783868681518110610d9757610d976127d2565b60200260200101518281518110610db057610db06127d2565b6020026020010151604051602001610dd2929190918252602082015260400190565b604051602081830303815290604052805190602001209350610e56565b858581518110610e0157610e016127d2565b60200260200101518181518110610e1a57610e1a6127d2565b602002602001015184604051602001610e3d929190918252602082015260400190565b6040516020818303038152906040528051906020012093505b610e61600283612aa3565b915080610e6d816127fe565b915050610d60565b50610e7f83611f33565b610ec6858581518110610e9457610e946127d2565b6020026020010151600184610ea991906128d6565b81518110610eb957610eb96127d2565b6020026020010151611f33565b848481518110610ed857610ed86127d2565b6020026020010151600183610eed91906128d6565b81518110610efd57610efd6127d2565b60200260200101518314610f3157505060408051808201909152600481526319985a5b60e21b602082015295945050505050565b5050508080610f3f906127fe565b915050610c3c565b50506040805180820190915260078152667375636365737360c81b602082015292915050565b60086020528160005260406000208181548110610f8957600080fd5b90600052602060002001600091509150505481565b60008681526009602052604090205486906001600160a01b03163314610fc357600080fd5b610fcc87611f7b565b6110185760405162461bcd60e51b815260206004820152601860248201527f456d706c6f79656520646f6573206e6f74206578697374730000000000000000604482015260640161030f565b8451156110885761102885611fee565b1561106b5760405162461bcd60e51b815260206004820152601360248201527250686f6e65206e756d6265722065786973747360681b604482015260640161030f565b60008781526005602052604090206002016110868682612b06565b505b8551156110ac5760008781526005602052604090206001016110aa8782612b06565b505b8215611251576110bb836120c9565b801561111857506040516626b0b730b3b2b960c91b602082015260270160405160208183030381529060405280519060200120826040516020016110ff9190612bc6565b6040516020818303038152906040528051906020012014155b6111645760405162461bcd60e51b815260206004820152601760248201527f4d616e6167657220646f6573206e6f7420657869737473000000000000000000604482015260640161030f565b6040516626b0b730b3b2b960c91b602082015260270160405160208183030381529060405280519060200120600560008981526020019081526020016000206005016040516020016111b69190612be2565b604051602081830303815290604052805190602001200361124c5760405167456d706c6f79656560c01b6020820152602801604051602081830303815290604052805190602001208260405160200161120f9190612bc6565b604051602081830303815290604052805190602001201461124c5760405162461bcd60e51b8152602060048201526000602482015260440161030f565b611266565b60008781526005602052604090206004018390555b835115611322576004805460405163036a2bf760e41b81526001600160a01b03909116916336a2bf709161129e918891339101612905565b602060405180830381865afa1580156112bb573d6000803e3d6000fd5b505050506040513d601f19601f820116820180604052508101906112df9190612c58565b6112fb5760405162461bcd60e51b815260040161030f90612c7a565b600087815260056020908152604090912085516113209260039092019187019061220e565b505b81511561171b576040516626b0b730b3b2b960c91b602082015260270160405160208183030381529060405280519060200120826040516020016113669190612bc6565b6040516020818303038152906040528051906020012014806113d9575060405167456d706c6f79656560c01b602082015260280160405160208183030381529060405280519060200120826040516020016113c19190612bc6565b60405160208183030381529060405280519060200120145b6114255760405162461bcd60e51b815260206004820152601760248201527f54686520726f6c6520646f6573206e6f74206578697374000000000000000000604482015260640161030f565b6000878152600560208181526040808420905161144793919091019101612be2565b6040516020818303038152906040528051906020012090506000836040516020016114729190612bc6565b60405160208183030381529060405280519060200120905060006040516020016114a9906626b0b730b3b2b960c91b815260070190565b60405160208183030381529060405280519060200120905060006040516020016114e19067456d706c6f79656560c01b815260080190565b604051602081830303815290604052805190602001209050818414801561150757508083145b156116cf576000805b336000908152600760205260409020548110156115ca5733600090815260076020526040812080548f9260059290918590811061154f5761154f6127d2565b9060005260206000200154815260200190815260200160002060040154036115b8573360009081526007602052604081208054600591839185908110611597576115976127d2565b90600052602060002001548152602001908152602001600020600401819055505b806115c2816127fe565b915050611510565b5060005b336000908152600860205260409020548110156116305733600090815260086020526040902080548e919083908110611609576116096127d2565b90600052602060002001540361161e57600091505b80611628816127fe565b9150506115ce565b50336000908152600860205260409020805461164e906001906128d6565b8154811061165e5761165e6127d2565b60009182526020808320909101543383526008909152604090912080548390811061168b5761168b6127d2565b60009182526020808320909101929092553381526008909152604090208054806116b7576116b76128ef565b60019003818190600052602060002001600090559055505b60008b8152600560208190526040909120016116eb8782612b06565b5081840361171657336000908152600860209081526040822080546001810182559083529120018b90555b505050505b60405187907f7a4ee20c8f1d1bc09d61fe1c943b32d59649d9040f6831a859bd9e40a9219b1390600090a250505050505050565b61175884611fee565b1561179b5760405162461bcd60e51b815260206004820152601360248201527250686f6e65206e756d6265722065786973747360681b604482015260640161030f565b6004805460405163036a2bf760e41b81526001600160a01b03909116916336a2bf70916117cc918791339101612905565b602060405180830381865afa1580156117e9573d6000803e3d6000fd5b505050506040513d601f19601f8201168201806040525081019061180d9190612c58565b6118295760405162461bcd60e51b815260040161030f90612c7a565b6040516626b0b730b3b2b960c91b602082015260270160405160208183030381529060405280519060200120816040516020016118669190612bc6565b6040516020818303038152906040528051906020012003611a845781156118b75760405162461bcd60e51b815260206004820152600560248201526422b93937b960d91b604482015260640161030f565b60006118c285612133565b6040805160c08101825282815260208082018a81528284018a9052606083018990526080830188905260a08301879052600085815260059092529290208151815591519293509160018201906119189082612b06565b506040820151600282019061192d9082612b06565b506060820151805161194991600384019160209091019061220e565b506080820151600482015560a082015160058201906119689082612b06565b50503360009081526007602090815260408083208054600181810183559185528385200186905585845260058352818420600690935292208154815590925090818101906119b890840182612cc3565b506002818101906119cb90840182612cc3565b50600382810180546119e09284019190612259565b5060048201548160040155600582018160050190816119ff9190612cc3565b505033600081815260086020908152604080832080546001810182559084528284200186905585835260099091529081902080546001600160a01b03191683179055519091507f5b4e466541672a9286c9f94344f25f8b855a47a46b60a29d8b5edbc42277aaf590611a7690849089908790612d96565b60405180910390a250611c6a565b60405167456d706c6f79656560c01b60208201526028016040516020818303038152906040528051906020012081604051602001611ac29190612bc6565b6040516020818303038152906040528051906020012003611c6a578115611b3857611aec826120c9565b611b385760405162461bcd60e51b815260206004820152601960248201527f446f6e27742065786973747320746865206d616e616765722000000000000000604482015260640161030f565b6000611b4385612133565b6040805160c08101825282815260208082018a81528284018a9052606083018990526080830188905260a0830187905260008581526005909252929020815181559151929350916001820190611b999082612b06565b5060408201516002820190611bae9082612b06565b5060608201518051611bca91600384019160209091019061220e565b506080820151600482015560a08201516005820190611be99082612b06565b505033600081815260076020908152604080832080546001810182559084528284200186905585835260099091529081902080546001600160a01b03191683179055519091507f5b4e466541672a9286c9f94344f25f8b855a47a46b60a29d8b5edbc42277aaf590611c6090849089908790612d96565b60405180910390a2505b5050505050565b611caa6040518060c001604052806000815260200160608152602001606081526020016060815260200160008152602001606081525090565b60008281526009602052604090205482906001600160a01b03163314611ccf57600080fd5b600560008481526020019081526020016000206040518060c001604052908160008201548152602001600182018054611d0790612817565b80601f0160208091040260200160405190810160405280929190818152602001828054611d3390612817565b8015611d805780601f10611d5557610100808354040283529160200191611d80565b820191906000526020600020905b815481529060010190602001808311611d6357829003601f168201915b50505050508152602001600282018054611d9990612817565b80601f0160208091040260200160405190810160405280929190818152602001828054611dc590612817565b8015611e125780601f10611de757610100808354040283529160200191611e12565b820191906000526020600020905b815481529060010190602001808311611df557829003601f168201915b5050505050815260200160038201805480602002602001604051908101604052809291908181526020018280548015611e6a57602002820191906000526020600020905b815481526020019060010190808311611e56575b5050505050815260200160048201548152602001600582018054611e8d90612817565b80601f0160208091040260200160405190810160405280929190818152602001828054611eb990612817565b8015611f065780601f10611edb57610100808354040283529160200191611f06565b820191906000526020600020905b815481529060010190602001808311611ee957829003601f168201915b505050505081525050915050919050565b60076020528160005260406000208181548110610f8957600080fd5b611f7881604051602401611f4991815260200190565b60408051601f198184030181529190526020810180516001600160e01b03166327b7cf8560e01b179052612191565b50565b6000805b33600090815260076020526040902054811015611fe557336000908152600760205260409020805484919083908110611fba57611fba6127d2565b906000526020600020015403611fd35750600192915050565b80611fdd816127fe565b915050611f7f565b50600092915050565b600080826040516020016120029190612bc6565b60405160208183030381529060405280519060200120905060005b336000908152600760205260409020548110156120bf573360009081526007602052604081208054849260059290918590811061205c5761205c6127d2565b906000526020600020015481526020019081526020016000206002016040516020016120889190612be2565b60405160208183030381529060405280519060200120036120ad575060019392505050565b806120b7816127fe565b91505061201d565b5060009392505050565b6000805b33600090815260086020526040902054811015611fe557336000908152600860205260409020805484919083908110612108576121086127d2565b9060005260206000200154036121215750600192915050565b8061212b816127fe565b9150506120cd565b600080600154836002544260405160200161215093929190612dcb565b6040516020818303038152906040528051906020012060001c6121739190612a8f565b600280549192506000612185836127fe565b90915550909392505050565b611f788160006a636f6e736f6c652e6c6f679050600080835160208501845afa505050565b5080546121c290612817565b6000825580601f106121d2575050565b601f016020900490600052602060002090810190611f789190612299565b5080546000825590600052602060002090810190611f789190612299565b828054828255906000526020600020908101928215612249579160200282015b8281111561224957825182559160200191906001019061222e565b50612255929150612299565b5090565b8280548282559060005260206000209081019282156122495760005260206000209182015b8281111561224957825482559160010191906001019061227e565b5b80821115612255576000815560010161229a565b6000602082840312156122c057600080fd5b5035919050565b60005b838110156122e25781810151838201526020016122ca565b50506000910152565b600081518084526123038160208601602086016122c7565b601f01601f19169290920160200192915050565b85815260a06020820152600061233060a08301876122eb565b828103604084015261234281876122eb565b9050846060840152828103608084015261235c81856122eb565b98975050505050505050565b80518252600060208083015160c08286015261238760c08601826122eb565b9050604084015185820360408701526123a082826122eb565b606086810151888303918901919091528051808352908501935060009250908401905b808310156123e357835182529284019260019290920191908401906123c3565b506080860151608088015260a0860151935086810360a088015261240781856122eb565b979650505050505050565b6000602080830181845280855180835260408601915060408160051b870101925083870160005b8281101561246757603f19888603018452612455858351612368565b94509285019290850190600101612439565b5092979650505050505050565b634e487b7160e01b600052604160045260246000fd5b604051601f8201601f1916810167ffffffffffffffff811182821017156124b3576124b3612474565b604052919050565b600067ffffffffffffffff8211156124d5576124d5612474565b5060051b60200190565b600082601f8301126124f057600080fd5b81356020612505612500836124bb565b61248a565b82815260059290921b8401810191818101908684111561252457600080fd5b8286015b8481101561253f5780358352918301918301612528565b509695505050505050565b60006020828403121561255c57600080fd5b813567ffffffffffffffff81111561257357600080fd5b61257f848285016124df565b949350505050565b60208152600061259a60208301846122eb565b9392505050565b600080604083850312156125b457600080fd5b82356001600160a01b03811681146125cb57600080fd5b946020939093013593505050565b600082601f8301126125ea57600080fd5b813567ffffffffffffffff81111561260457612604612474565b612617601f8201601f191660200161248a565b81815284602083860101111561262c57600080fd5b816020850160208301376000918101602001919091529392505050565b60008060008060008060c0878903121561266257600080fd5b86359550602087013567ffffffffffffffff8082111561268157600080fd5b61268d8a838b016125d9565b965060408901359150808211156126a357600080fd5b6126af8a838b016125d9565b955060608901359150808211156126c557600080fd5b6126d18a838b016124df565b94506080890135935060a08901359150808211156126ee57600080fd5b506126fb89828a016125d9565b9150509295509295509295565b600080600080600060a0868803121561272057600080fd5b853567ffffffffffffffff8082111561273857600080fd5b61274489838a016125d9565b9650602088013591508082111561275a57600080fd5b61276689838a016125d9565b9550604088013591508082111561277c57600080fd5b61278889838a016124df565b94506060880135935060808801359150808211156127a557600080fd5b506127b2888289016125d9565b9150509295509295909350565b60208152600061259a6020830184612368565b634e487b7160e01b600052603260045260246000fd5b634e487b7160e01b600052601160045260246000fd5b600060018201612810576128106127e8565b5060010190565b600181811c9082168061282b57607f821691505b602082108103610bb757634e487b7160e01b600052602260045260246000fd5b600060208083526000845461285f81612817565b80848701526040600180841660008114612880576001811461289a576128c8565b60ff1985168984015283151560051b8901830195506128c8565b896000528660002060005b858110156128c05781548b82018601529083019088016128a5565b8a0184019650505b509398975050505050505050565b818103818111156128e9576128e96127e8565b92915050565b634e487b7160e01b600052603160045260246000fd5b604080825283519082018190526000906020906060840190828701845b8281101561293e57815184529284019290840190600101612922565b5050506001600160a01b039490941692019190915250919050565b6000602080838503121561296c57600080fd5b825167ffffffffffffffff8082111561298457600080fd5b818501915085601f83011261299857600080fd5b81516129a6612500826124bb565b818152600591821b84018501918582019190898411156129c557600080fd5b8686015b84811015612a51578051868111156129e15760008081fd5b8701603f81018c136129f35760008081fd5b888101516040612a05612500836124bb565b82815291851b83018101918b8101908f841115612a225760008081fd5b938201935b83851015612a405784518252938c0193908c0190612a27565b8852505050938801935087016129c9565b50909998505050505050505050565b600060208284031215612a7257600080fd5b5051919050565b634e487b7160e01b600052601260045260246000fd5b600082612a9e57612a9e612a79565b500690565b600082612ab257612ab2612a79565b500490565b601f821115612b0157600081815260208120601f850160051c81016020861015612ade5750805b601f850160051c820191505b81811015612afd57828155600101612aea565b5050505b505050565b815167ffffffffffffffff811115612b2057612b20612474565b612b3481612b2e8454612817565b84612ab7565b602080601f831160018114612b695760008415612b515750858301515b600019600386901b1c1916600185901b178555612afd565b600085815260208120601f198616915b82811015612b9857888601518255948401946001909101908401612b79565b5085821015612bb65787850151600019600388901b60f8161c191681555b5050505050600190811b01905550565b60008251612bd88184602087016122c7565b9190910192915050565b6000808354612bf081612817565b60018281168015612c085760018114612c1d57612c4c565b60ff1984168752821515830287019450612c4c565b8760005260208060002060005b85811015612c435781548a820152908401908201612c2a565b50505082870194505b50929695505050505050565b600060208284031215612c6a57600080fd5b8151801515811461259a57600080fd5b60208082526029908201527f54686572652069732061206465706172746d656e74207468617420646f6573206040820152681b9bdd08195e1a5cdd60ba1b606082015260800190565b818103612cce575050565b612cd88254612817565b67ffffffffffffffff811115612cf057612cf0612474565b612cfe81612b2e8454612817565b6000601f821160018114612d325760008315612d1a5750848201545b600019600385901b1c1916600184901b178455611c6a565b600085815260209020601f19841690600086815260209020845b83811015612d6c5782860154825560019586019590910190602001612d4c565b5085831015612bb65793015460001960f8600387901b161c19169092555050600190811b01905550565b838152606060208201526000612daf60608301856122eb565b8281036040840152612dc181856122eb565b9695505050505050565b60008451612ddd8184602089016122c7565b9190910192835250602082015260400191905056fea2646970667358221220551d0d5873b74e30a152e8e9f72f9420d58da975eb2ba7a800502f8bcd5e11b464736f6c63430008140033",
  "linkReferences": {},
  "deployedLinkReferences": {}
}