{
  "_format": "hh-sol-artifact-1",
  "contractName": "EmployeeFactory",
  "sourceName": "contracts/EmployeeFactory.sol",
  "abi": [
    {
      "inputs": [
        {
          "internalType": "address",
          "name": "_departmentAddress",
          "type": "address"
        }
      ],
      "stateMutability": "nonpayable",
      "type": "constructor"
    },
    {
      "anonymous": false,
      "inputs": [
        {
          "indexed": false,
          "internalType": "uint256",
          "name": "id",
          "type": "uint256"
        },
        {
          "indexed": true,
          "internalType": "string",
          "name": "phoneNumber",
          "type": "string"
        },
        {
          "indexed": true,
          "internalType": "address",
          "name": "owner",
          "type": "address"
        }
      ],
      "name": "EmployeeCreated",
      "type": "event"
    },
    {
      "anonymous": false,
      "inputs": [
        {
          "indexed": true,
          "internalType": "uint256",
          "name": "id",
          "type": "uint256"
        }
      ],
      "name": "EmployeeDeleted",
      "type": "event"
    },
    {
      "anonymous": false,
      "inputs": [
        {
          "indexed": true,
          "internalType": "uint256",
          "name": "id",
          "type": "uint256"
        }
      ],
      "name": "EmployeeUpdated",
      "type": "event"
    },
    {
      "inputs": [
        {
          "internalType": "uint256",
          "name": "_employeeId",
          "type": "uint256"
        }
      ],
      "name": "deleteEmployee",
      "outputs": [],
      "stateMutability": "nonpayable",
      "type": "function"
    },
    {
      "inputs": [],
      "name": "departmentInstance",
      "outputs": [
        {
          "internalType": "contract DepartmentFactory",
          "name": "",
          "type": "address"
        }
      ],
      "stateMutability": "view",
      "type": "function"
    },
    {
      "inputs": [
        {
          "internalType": "address",
          "name": "",
          "type": "address"
        },
        {
          "internalType": "uint256",
          "name": "",
          "type": "uint256"
        }
      ],
      "name": "employeeKeys",
      "outputs": [
        {
          "internalType": "uint256",
          "name": "",
          "type": "uint256"
        }
      ],
      "stateMutability": "view",
      "type": "function"
    },
    {
      "inputs": [],
      "name": "employeeMerkleRoot",
      "outputs": [
        {
          "internalType": "uint256",
          "name": "",
          "type": "uint256"
        }
      ],
      "stateMutability": "view",
      "type": "function"
    },
    {
      "inputs": [
        {
          "internalType": "uint256",
          "name": "",
          "type": "uint256"
        }
      ],
      "name": "employeeToOwner",
      "outputs": [
        {
          "internalType": "address",
          "name": "",
          "type": "address"
        }
      ],
      "stateMutability": "view",
      "type": "function"
    },
    {
      "inputs": [
        {
          "internalType": "uint256",
          "name": "",
          "type": "uint256"
        }
      ],
      "name": "employees",
      "outputs": [
        {
          "internalType": "uint256",
          "name": "id",
          "type": "uint256"
        },
        {
          "internalType": "string",
          "name": "name",
          "type": "string"
        },
        {
          "internalType": "string",
          "name": "phoneNumber",
          "type": "string"
        },
        {
          "internalType": "uint256",
          "name": "managerId",
          "type": "uint256"
        },
        {
          "internalType": "string",
          "name": "role",
          "type": "string"
        }
      ],
      "stateMutability": "view",
      "type": "function"
    },
    {
      "inputs": [
        {
          "internalType": "string",
          "name": "_name",
          "type": "string"
        },
        {
          "internalType": "string",
          "name": "_phoneNumber",
          "type": "string"
        },
        {
          "internalType": "uint256[]",
          "name": "_departmentIds",
          "type": "uint256[]"
        },
        {
          "internalType": "uint256",
          "name": "_managerId",
          "type": "uint256"
        },
        {
          "internalType": "string",
          "name": "_role",
          "type": "string"
        }
      ],
      "name": "generateEmployee",
      "outputs": [],
      "stateMutability": "nonpayable",
      "type": "function"
    },
    {
      "inputs": [],
      "name": "getEmployees",
      "outputs": [
        {
          "components": [
            {
              "internalType": "uint256",
              "name": "id",
              "type": "uint256"
            },
            {
              "internalType": "string",
              "name": "name",
              "type": "string"
            },
            {
              "internalType": "string",
              "name": "phoneNumber",
              "type": "string"
            },
            {
              "internalType": "uint256[]",
              "name": "departmentIds",
              "type": "uint256[]"
            },
            {
              "internalType": "uint256",
              "name": "managerId",
              "type": "uint256"
            },
            {
              "internalType": "string",
              "name": "role",
              "type": "string"
            }
          ],
          "internalType": "struct EmployeeFactory.Employee[]",
          "name": "",
          "type": "tuple[]"
        }
      ],
      "stateMutability": "view",
      "type": "function"
    },
    {
      "inputs": [
        {
          "internalType": "address",
          "name": "",
          "type": "address"
        },
        {
          "internalType": "uint256",
          "name": "",
          "type": "uint256"
        }
      ],
      "name": "managerKeys",
      "outputs": [
        {
          "internalType": "uint256",
          "name": "",
          "type": "uint256"
        }
      ],
      "stateMutability": "view",
      "type": "function"
    },
    {
      "inputs": [
        {
          "internalType": "uint256",
          "name": "",
          "type": "uint256"
        }
      ],
      "name": "managers",
      "outputs": [
        {
          "internalType": "uint256",
          "name": "id",
          "type": "uint256"
        },
        {
          "internalType": "string",
          "name": "name",
          "type": "string"
        },
        {
          "internalType": "string",
          "name": "phoneNumber",
          "type": "string"
        },
        {
          "internalType": "uint256",
          "name": "managerId",
          "type": "uint256"
        },
        {
          "internalType": "string",
          "name": "role",
          "type": "string"
        }
      ],
      "stateMutability": "view",
      "type": "function"
    },
    {
      "inputs": [
        {
          "internalType": "address",
          "name": "",
          "type": "address"
        },
        {
          "internalType": "uint256",
          "name": "",
          "type": "uint256"
        }
      ],
      "name": "ownEmployees",
      "outputs": [
        {
          "internalType": "uint256",
          "name": "",
          "type": "uint256"
        }
      ],
      "stateMutability": "view",
      "type": "function"
    },
    {
      "inputs": [
        {
          "internalType": "uint256",
          "name": "_employeeId",
          "type": "uint256"
        },
        {
          "internalType": "string",
          "name": "_name",
          "type": "string"
        },
        {
          "internalType": "string",
          "name": "_phoneNumber",
          "type": "string"
        },
        {
          "internalType": "uint256[]",
          "name": "_departmentIds",
          "type": "uint256[]"
        },
        {
          "internalType": "uint256",
          "name": "_managerId",
          "type": "uint256"
        },
        {
          "internalType": "string",
          "name": "_role",
          "type": "string"
        }
      ],
      "name": "updateEmployee",
      "outputs": [],
      "stateMutability": "nonpayable",
      "type": "function"
    },
    {
      "inputs": [
        {
          "internalType": "uint256[]",
          "name": "departmentIds",
          "type": "uint256[]"
        }
      ],
      "name": "verifyDepartment",
      "outputs": [
        {
          "internalType": "bool",
          "name": "",
          "type": "bool"
        }
      ],
      "stateMutability": "nonpayable",
      "type": "function"
    }
  ],
  "bytecode": "0x6080604052601060008190556200001890600a6200018b565b60015560006002553480156200002d57600080fd5b5060405162002d3738038062002d378339810160408190526200005091620001a0565b600480546001600160a01b0319166001600160a01b0392909216919091179055620001cb565b634e487b7160e01b600052601160045260246000fd5b600181815b80851115620000cd578160001904821115620000b157620000b162000076565b80851615620000bf57918102915b93841c939080029062000091565b509250929050565b600082620000e65750600162000185565b81620000f55750600062000185565b81600181146200010e5760028114620001195762000139565b600191505062000185565b60ff8411156200012d576200012d62000076565b50506001821b62000185565b5060208310610133831016604e8410600b84101617156200015e575081810a62000185565b6200016a83836200008c565b806000190482111562000181576200018162000076565b0290505b92915050565b6000620001998383620000d5565b9392505050565b600060208284031215620001b357600080fd5b81516001600160a01b03811681146200019957600080fd5b612b5c80620001db6000396000f3fe608060405234801561001057600080fd5b50600436106100cf5760003560e01c80634d252ead1161008c5780636c643e5e116100665780636c643e5e146101e55780637871ae8f146101f857806394d51d6014610201578063eb17dc491461021457600080fd5b80634d252ead1461019c5780634d5d674b146101bf578063500a08aa146101d257600080fd5b80631cbc90c7146100d4578063277ca287146100e957806334b5a76b1461012f5780633d39c260146101505780634739326b146101745780634abefa3614610187575b600080fd5b6100e76100e236600461203c565b610227565b005b6101126100f736600461203c565b6009602052600090815260409020546001600160a01b031681565b6040516001600160a01b0390911681526020015b60405180910390f35b61014261013d366004612055565b610675565b604051908152602001610126565b61016361015e36600461203c565b6106a6565b6040516101269594939291906120dd565b61016361018236600461203c565b61086d565b61018f61088f565b604051610126919061212e565b6101af6101aa3660046122fe565b610be4565b6040519015158152602001610126565b6101426101cd366004612055565b610f8a565b600454610112906001600160a01b031681565b6100e76101f33660046123ab565b610fa6565b61014260035481565b6100e761020f36600461246a565b611728565b610142610222366004612055565b611c62565b60008181526009602052604090205481906001600160a01b0316331461024c57600080fd5b60001960005b336000908152600760205260409020548110156102b75733600090815260076020526040902080548591908390811061028d5761028d612521565b9060005260206000200154036102a5578091506102b7565b806102af8161254d565b915050610252565b50600019810361030e5760405162461bcd60e51b815260206004820152601b60248201527f54686520656d706c6f79656520646f6573206e6f74206578697374000000000060448201526064015b60405180910390fd5b6040516020016103399060208082526007908201526626b0b730b3b2b960c91b604082015260600190565b6040516020818303038152906040528051906020012060056000858152602001908152602001600020600501604051602001610375919061259a565b6040516020818303038152906040528051906020012003610552576000805b3360009081526007602052604090205481101561044e57336000908152600760205260408120805487926005929091859081106103d3576103d3612521565b90600052602060002001548152602001908152602001600020600401540361043c57336000908152600760205260408120805460059183918590811061041b5761041b612521565b90600052602060002001548152602001908152602001600020600401819055505b806104468161254d565b915050610394565b5060005b336000908152600860205260409020548110156104b35733600090815260086020526040902080548691908390811061048d5761048d612521565b9060005260206000200154036104a1578091505b806104ab8161254d565b915050610452565b5033600090815260086020526040902080546104d190600190612625565b815481106104e1576104e1612521565b60009182526020808320909101543383526008909152604090912080548390811061050e5761050e612521565b600091825260208083209091019290925533815260089091526040902080548061053a5761053a61263e565b60019003818190600052602060002001600090559055505b6000818152600560205260408120818155906105716001830182611f44565b61057f600283016000611f44565b61058d600383016000611f7e565b60048201600090556005820160006105a59190611f44565b505033600090815260076020526040902080546105c490600190612625565b815481106105d4576105d4612521565b60009182526020808320909101543383526007909152604090912080548390811061060157610601612521565b600091825260208083209091019290925533815260079091526040902080548061062d5761062d61263e565b60019003818190600052602060002001600090559055827fa89a67b24ae06befcf89d45d10287b1cdd7a3a494ba14df282fca0d57fe4fe1f60405160405180910390a2505050565b600a602052816000526040600020818154811061069157600080fd5b90600052602060002001600091509150505481565b600660205260009081526040902080546001820180549192916106c890612566565b80601f01602080910402602001604051908101604052809291908181526020018280546106f490612566565b80156107415780601f1061071657610100808354040283529160200191610741565b820191906000526020600020905b81548152906001019060200180831161072457829003601f168201915b50505050509080600201805461075690612566565b80601f016020809104026020016040519081016040528092919081815260200182805461078290612566565b80156107cf5780601f106107a4576101008083540402835291602001916107cf565b820191906000526020600020905b8154815290600101906020018083116107b257829003601f168201915b5050505050908060040154908060050180546107ea90612566565b80601f016020809104026020016040519081016040528092919081815260200182805461081690612566565b80156108635780601f1061083857610100808354040283529160200191610863565b820191906000526020600020905b81548152906001019060200180831161084657829003601f168201915b5050505050905085565b600560205260009081526040902080546001820180549192916106c890612566565b336000908152600760205260408120546060919067ffffffffffffffff8111156108bb576108bb612228565b60405190808252806020026020018201604052801561092557816020015b6109126040518060c001604052806000815260200160608152602001606081526020016060815260200160008152602001606081525090565b8152602001906001900390816108d95790505b50905060005b33600090815260076020526040902054811015610bde57336000908152600760205260408120805460059291908490811061096857610968612521565b906000526020600020015481526020019081526020016000206040518060c0016040529081600082015481526020016001820180546109a690612566565b80601f01602080910402602001604051908101604052809291908181526020018280546109d290612566565b8015610a1f5780601f106109f457610100808354040283529160200191610a1f565b820191906000526020600020905b815481529060010190602001808311610a0257829003601f168201915b50505050508152602001600282018054610a3890612566565b80601f0160208091040260200160405190810160405280929190818152602001828054610a6490612566565b8015610ab15780601f10610a8657610100808354040283529160200191610ab1565b820191906000526020600020905b815481529060010190602001808311610a9457829003601f168201915b5050505050815260200160038201805480602002602001604051908101604052809291908181526020018280548015610b0957602002820191906000526020600020905b815481526020019060010190808311610af5575b5050505050815260200160048201548152602001600582018054610b2c90612566565b80601f0160208091040260200160405190810160405280929190818152602001828054610b5890612566565b8015610ba55780601f10610b7a57610100808354040283529160200191610ba5565b820191906000526020600020905b815481529060010190602001808311610b8857829003601f168201915b505050505081525050828281518110610bc057610bc0612521565b60200260200101819052508080610bd69061254d565b91505061092b565b50919050565b6004805460405163bf8a23f560e01b815260009283926001600160a01b03169163bf8a23f591610c18918791339101612654565b600060405180830381865afa158015610c35573d6000803e3d6000fd5b505050506040513d6000823e601f3d908101601f19168201604052610c5d91908101906126a8565b905060005b8151811015610f54576000848281518110610c7f57610c7f612521565b6020026020010151604051602001610c9991815260200190565b6040516020818303038152906040528051906020012090506000838381518110610cc557610cc5612521565b60200260200101515190506000600460009054906101000a90046001600160a01b03166001600160a01b0316632c17ea6f888681518110610d0857610d08612521565b6020026020010151336040518363ffffffff1660e01b8152600401610d409291909182526001600160a01b0316602082015260400190565b602060405180830381865afa158015610d5d573d6000803e3d6000fd5b505050506040513d601f19601f82011682018060405250810190610d8191906127af565b905060005b610d91600184612625565b811015610e9b57610da36002836127de565b600003610e155783868681518110610dbd57610dbd612521565b60200260200101518281518110610dd657610dd6612521565b6020026020010151604051602001610df8929190918252602082015260400190565b604051602081830303815290604052805190602001209350610e7c565b858581518110610e2757610e27612521565b60200260200101518181518110610e4057610e40612521565b602002602001015184604051602001610e63929190918252602082015260400190565b6040516020818303038152906040528051906020012093505b610e876002836127f2565b915080610e938161254d565b915050610d86565b50610ea583611c7e565b610eec858581518110610eba57610eba612521565b6020026020010151600184610ecf9190612625565b81518110610edf57610edf612521565b6020026020010151611c7e565b848481518110610efe57610efe612521565b6020026020010151600183610f139190612625565b81518110610f2357610f23612521565b60200260200101518314610f3e575060009695505050505050565b5050508080610f4c9061254d565b915050610c62565b50610f816040518060400160405280600b81526020016a125d081a5cc81c9a59da1d60aa1b815250611cc6565b50600192915050565b6008602052816000526040600020818154811061069157600080fd5b60008681526009602052604090205486906001600160a01b03163314610fcb57600080fd5b610fd487611d09565b6110205760405162461bcd60e51b815260206004820152601860248201527f456d706c6f79656520646f6573206e6f742065786973747300000000000000006044820152606401610305565b8451156110905761103085611d7c565b156110735760405162461bcd60e51b815260206004820152601360248201527250686f6e65206e756d6265722065786973747360681b6044820152606401610305565b600087815260056020526040902060020161108e8682612855565b505b8551156110b45760008781526005602052604090206001016110b28782612855565b505b8215611269576110c383611e57565b801561112057506040516626b0b730b3b2b960c91b602082015260270160405160208183030381529060405280519060200120826040516020016111079190612915565b6040516020818303038152906040528051906020012014155b61116c5760405162461bcd60e51b815260206004820152601760248201527f4d616e6167657220646f6573206e6f74206578697374730000000000000000006044820152606401610305565b6040516626b0b730b3b2b960c91b602082015260270160405160208183030381529060405280519060200120600560008981526020019081526020016000206005016040516020016111be9190612931565b60405160208183030381529060405280519060200120036112545760405167456d706c6f79656560c01b602082015260280160405160208183030381529060405280519060200120826040516020016112179190612915565b60405160208183030381529060405280519060200120146112545760405162461bcd60e51b81526020600482015260006024820152604401610305565b60008781526005602052604090206004018390555b835115611325576004805460405163036a2bf760e41b81526001600160a01b03909116916336a2bf70916112a1918891339101612654565b602060405180830381865afa1580156112be573d6000803e3d6000fd5b505050506040513d601f19601f820116820180604052508101906112e291906129a7565b6112fe5760405162461bcd60e51b8152600401610305906129d0565b6000878152600560209081526040909120855161132392600390920191870190611f9c565b505b8151156116f4576040516626b0b730b3b2b960c91b602082015260270160405160208183030381529060405280519060200120826040516020016113699190612915565b6040516020818303038152906040528051906020012014806113dc575060405167456d706c6f79656560c01b602082015260280160405160208183030381529060405280519060200120826040516020016113c49190612915565b60405160208183030381529060405280519060200120145b6114285760405162461bcd60e51b815260206004820152601760248201527f54686520726f6c6520646f6573206e6f742065786973740000000000000000006044820152606401610305565b6000878152600560208181526040808420905161144a93919091019101612931565b6040516020818303038152906040528051906020012090506000836040516020016114759190612915565b60405160208183030381529060405280519060200120905060006040516020016114ac906626b0b730b3b2b960c91b815260070190565b60405160208183030381529060405280519060200120905060006040516020016114e49067456d706c6f79656560c01b815260080190565b604051602081830303815290604052805190602001209050818414801561150a57508083145b156116d2576000805b336000908152600760205260409020548110156115cd5733600090815260076020526040812080548f9260059290918590811061155257611552612521565b9060005260206000200154815260200190815260200160002060040154036115bb57336000908152600760205260408120805460059183918590811061159a5761159a612521565b90600052602060002001548152602001908152602001600020600401819055505b806115c58161254d565b915050611513565b5060005b336000908152600860205260409020548110156116335733600090815260086020526040902080548e91908390811061160c5761160c612521565b90600052602060002001540361162157600091505b8061162b8161254d565b9150506115d1565b50336000908152600860205260409020805461165190600190612625565b8154811061166157611661612521565b60009182526020808320909101543383526008909152604090912080548390811061168e5761168e612521565b60009182526020808320909101929092553381526008909152604090208054806116ba576116ba61263e565b60019003818190600052602060002001600090559055505b60008b8152600560208190526040909120016116ee8782612855565b50505050505b60405187907f7a4ee20c8f1d1bc09d61fe1c943b32d59649d9040f6831a859bd9e40a9219b1390600090a250505050505050565b61173184611d7c565b156117745760405162461bcd60e51b815260206004820152601360248201527250686f6e65206e756d6265722065786973747360681b6044820152606401610305565b6004805460405163036a2bf760e41b81526001600160a01b03909116916336a2bf70916117a5918791339101612654565b602060405180830381865afa1580156117c2573d6000803e3d6000fd5b505050506040513d601f19601f820116820180604052508101906117e691906129a7565b6118025760405162461bcd60e51b8152600401610305906129d0565b6040516626b0b730b3b2b960c91b6020820152602701604051602081830303815290604052805190602001208160405160200161183f9190612915565b6040516020818303038152906040528051906020012003611a695781156118905760405162461bcd60e51b815260206004820152600560248201526422b93937b960d91b6044820152606401610305565b600061189b85611ec1565b6040805160c08101825282815260208082018a81528284018a9052606083018990526080830188905260a08301879052600085815260059092529290208151815591519293509160018201906118f19082612855565b50604082015160028201906119069082612855565b5060608201518051611922916003840191602090910190611f9c565b506080820151600482015560a082015160058201906119419082612855565b505033600090815260076020908152604080832080546001818101835591855283852001869055858452600583528184206006909352922081548155909250908181019061199190840182612a19565b506002818101906119a490840182612a19565b50600382810180546119b99284019190611fe7565b5060048201548160040155600582018160050190816119d89190612a19565b505033600081815260086020908152604080832080546001810182559084528284200186905585835260099091529081902080546001600160a01b0319168317905551909150611a29908790612915565b604051908190038120838252907f141ac7996565de3f0a0c5bf3361dc13fc85ef5aef7662b2b780bfc3176eba2759060200160405180910390a350611c5b565b60405167456d706c6f79656560c01b60208201526028016040516020818303038152906040528051906020012081604051602001611aa79190612915565b6040516020818303038152906040528051906020012003611c5b578115611b1d57611ad182611e57565b611b1d5760405162461bcd60e51b815260206004820152601960248201527f446f6e27742065786973747320746865206d616e6167657220000000000000006044820152606401610305565b6000611b2885611ec1565b6040805160c08101825282815260208082018a81528284018a9052606083018990526080830188905260a0830187905260008581526005909252929020815181559151929350916001820190611b7e9082612855565b5060408201516002820190611b939082612855565b5060608201518051611baf916003840191602090910190611f9c565b506080820151600482015560a08201516005820190611bce9082612855565b505033600081815260076020908152604080832080546001810182559084528284200186905585835260099091529081902080546001600160a01b0319168317905551909150611c1f908790612915565b604051908190038120838252907f141ac7996565de3f0a0c5bf3361dc13fc85ef5aef7662b2b780bfc3176eba2759060200160405180910390a3505b5050505050565b6007602052816000526040600020818154811061069157600080fd5b611cc381604051602401611c9491815260200190565b60408051601f198184030181529190526020810180516001600160e01b03166327b7cf8560e01b179052611f1f565b50565b611cc381604051602401611cda9190612aec565b60408051601f198184030181529190526020810180516001600160e01b031663104c13eb60e21b179052611f1f565b6000805b33600090815260076020526040902054811015611d7357336000908152600760205260409020805484919083908110611d4857611d48612521565b906000526020600020015403611d615750600192915050565b80611d6b8161254d565b915050611d0d565b50600092915050565b60008082604051602001611d909190612915565b60405160208183030381529060405280519060200120905060005b33600090815260076020526040902054811015611e4d5733600090815260076020526040812080548492600592909185908110611dea57611dea612521565b90600052602060002001548152602001908152602001600020600201604051602001611e169190612931565b6040516020818303038152906040528051906020012003611e3b575060019392505050565b80611e458161254d565b915050611dab565b5060009392505050565b6000805b33600090815260086020526040902054811015611d7357336000908152600860205260409020805484919083908110611e9657611e96612521565b906000526020600020015403611eaf5750600192915050565b80611eb98161254d565b915050611e5b565b6000806001548360025442604051602001611ede93929190612aff565b6040516020818303038152906040528051906020012060001c611f0191906127de565b600280549192506000611f138361254d565b90915550909392505050565b611cc38160006a636f6e736f6c652e6c6f679050600080835160208501845afa505050565b508054611f5090612566565b6000825580601f10611f60575050565b601f016020900490600052602060002090810190611cc39190612027565b5080546000825590600052602060002090810190611cc39190612027565b828054828255906000526020600020908101928215611fd7579160200282015b82811115611fd7578251825591602001919060010190611fbc565b50611fe3929150612027565b5090565b828054828255906000526020600020908101928215611fd75760005260206000209182015b82811115611fd757825482559160010191906001019061200c565b5b80821115611fe35760008155600101612028565b60006020828403121561204e57600080fd5b5035919050565b6000806040838503121561206857600080fd5b82356001600160a01b038116811461207f57600080fd5b946020939093013593505050565b60005b838110156120a8578181015183820152602001612090565b50506000910152565b600081518084526120c981602086016020860161208d565b601f01601f19169290920160200192915050565b85815260a0602082015260006120f660a08301876120b1565b828103604084015261210881876120b1565b9050846060840152828103608084015261212281856120b1565b98975050505050505050565b60006020808301818452808551808352604092508286019150828160051b8701018488016000805b8481101561221957603f198a8503018652825160c08151865289820151818b880152612184828801826120b1565b915050888201518682038a88015261219c82826120b1565b606084810151898303918a01919091528051808352908d019350908c01915085905b808210156121de5783518352928c0192918c0191600191909101906121be565b50506080838101519088015260a0928301518782038489015292915061220481846120b1565b988b0198965050509288019250600101612156565b50919998505050505050505050565b634e487b7160e01b600052604160045260246000fd5b604051601f8201601f1916810167ffffffffffffffff8111828210171561226757612267612228565b604052919050565b600067ffffffffffffffff82111561228957612289612228565b5060051b60200190565b600082601f8301126122a457600080fd5b813560206122b96122b48361226f565b61223e565b82815260059290921b840181019181810190868411156122d857600080fd5b8286015b848110156122f357803583529183019183016122dc565b509695505050505050565b60006020828403121561231057600080fd5b813567ffffffffffffffff81111561232757600080fd5b61233384828501612293565b949350505050565b600082601f83011261234c57600080fd5b813567ffffffffffffffff81111561236657612366612228565b612379601f8201601f191660200161223e565b81815284602083860101111561238e57600080fd5b816020850160208301376000918101602001919091529392505050565b60008060008060008060c087890312156123c457600080fd5b86359550602087013567ffffffffffffffff808211156123e357600080fd5b6123ef8a838b0161233b565b9650604089013591508082111561240557600080fd5b6124118a838b0161233b565b9550606089013591508082111561242757600080fd5b6124338a838b01612293565b94506080890135935060a089013591508082111561245057600080fd5b5061245d89828a0161233b565b9150509295509295509295565b600080600080600060a0868803121561248257600080fd5b853567ffffffffffffffff8082111561249a57600080fd5b6124a689838a0161233b565b965060208801359150808211156124bc57600080fd5b6124c889838a0161233b565b955060408801359150808211156124de57600080fd5b6124ea89838a01612293565b945060608801359350608088013591508082111561250757600080fd5b506125148882890161233b565b9150509295509295909350565b634e487b7160e01b600052603260045260246000fd5b634e487b7160e01b600052601160045260246000fd5b60006001820161255f5761255f612537565b5060010190565b600181811c9082168061257a57607f821691505b602082108103610bde57634e487b7160e01b600052602260045260246000fd5b60006020808352600084546125ae81612566565b808487015260406001808416600081146125cf57600181146125e957612617565b60ff1985168984015283151560051b890183019550612617565b896000528660002060005b8581101561260f5781548b82018601529083019088016125f4565b8a0184019650505b509398975050505050505050565b8181038181111561263857612638612537565b92915050565b634e487b7160e01b600052603160045260246000fd5b604080825283519082018190526000906020906060840190828701845b8281101561268d57815184529284019290840190600101612671565b5050506001600160a01b039490941692019190915250919050565b600060208083850312156126bb57600080fd5b825167ffffffffffffffff808211156126d357600080fd5b818501915085601f8301126126e757600080fd5b81516126f56122b48261226f565b818152600591821b840185019185820191908984111561271457600080fd5b8686015b848110156127a0578051868111156127305760008081fd5b8701603f81018c136127425760008081fd5b8881015160406127546122b48361226f565b82815291851b83018101918b8101908f8411156127715760008081fd5b938201935b8385101561278f5784518252938c0193908c0190612776565b885250505093880193508701612718565b50909998505050505050505050565b6000602082840312156127c157600080fd5b5051919050565b634e487b7160e01b600052601260045260246000fd5b6000826127ed576127ed6127c8565b500690565b600082612801576128016127c8565b500490565b601f82111561285057600081815260208120601f850160051c8101602086101561282d5750805b601f850160051c820191505b8181101561284c57828155600101612839565b5050505b505050565b815167ffffffffffffffff81111561286f5761286f612228565b6128838161287d8454612566565b84612806565b602080601f8311600181146128b857600084156128a05750858301515b600019600386901b1c1916600185901b17855561284c565b600085815260208120601f198616915b828110156128e7578886015182559484019460019091019084016128c8565b50858210156129055787850151600019600388901b60f8161c191681555b5050505050600190811b01905550565b6000825161292781846020870161208d565b9190910192915050565b600080835461293f81612566565b60018281168015612957576001811461296c5761299b565b60ff198416875282151583028701945061299b565b8760005260208060002060005b858110156129925781548a820152908401908201612979565b50505082870194505b50929695505050505050565b6000602082840312156129b957600080fd5b815180151581146129c957600080fd5b9392505050565b60208082526029908201527f54686572652069732061206465706172746d656e74207468617420646f6573206040820152681b9bdd08195e1a5cdd60ba1b606082015260800190565b818103612a24575050565b612a2e8254612566565b67ffffffffffffffff811115612a4657612a46612228565b612a548161287d8454612566565b6000601f821160018114612a885760008315612a705750848201545b600019600385901b1c1916600184901b178455611c5b565b600085815260209020601f19841690600086815260209020845b83811015612ac25782860154825560019586019590910190602001612aa2565b50858310156129055793015460001960f8600387901b161c19169092555050600190811b01905550565b6020815260006129c960208301846120b1565b60008451612b1181846020890161208d565b9190910192835250602082015260400191905056fea264697066735822122086056b662e90cfbb07836f067a2bcd44d6d476dae2afd72699f1260a22af94f764736f6c63430008140033",
  "linkReferences": {},
  "deployedLinkReferences": {}
}